{
	"data": {
		"bytecode": {
			"linkReferences": {},
			"object": "610180604052348015610010575f5ffd5b50604051613a9e380380613a9e83398101604081905261002f916101a6565b806001600160a01b03811661005e57604051631e4fbdf760e01b81525f60048201526024015b60405180910390fd5b61006781610157565b50600180556001600160a01b0381166100c25760405162461bcd60e51b815260206004820152601560248201527f43616e2774206265207a65726f206164647265737300000000000000000000006044820152606401610055565b600380546001600160a01b0319166001600160a01b038316179055670de0b6b3a764000060808190526100f990633b9aca006101d3565b60a081905260649061010c9060146101d3565b61011691906101fc565b60c0525068015af1d78b58c400006002556509184e72a00060e08190526107d061016052610100526802b5e3af16b18800006101205260056101405261021b565b5f80546001600160a01b038381166001600160a01b0319831681178455604051919092169283917f8be0079c531659141344cd1fd0a4f28419497f9722a3daafe3b4186f6b6457e09190a35050565b5f602082840312156101b6575f5ffd5b81516001600160a01b03811681146101cc575f5ffd5b9392505050565b80820281158282048414176101f657634e487b7160e01b5f52601160045260245ffd5b92915050565b5f8261021657634e487b7160e01b5f52601260045260245ffd5b500490565b60805160a05160c05160e051610100516101205161014051610160516137b86102e65f395f818161035f0152611dd001525f8181610206015261185b01525f8181610434015261167b01525f818161063f015261165001525f81816104af01528181610ec20152611e1301525f81816105d801528181610efa0152818161134a01528181611bc20152611cff01525f818161032c015281816117780152818161187c01528181611d200152611e8a01525f81816102f901528181610b4f0152611a3e01526137b85ff3fe6080604052600436106101f1575f3560e01c8063853828b611610108578063ca7df92c1161009d578063e74b981b1161006d578063e74b981b1461068f578063f088d547146106ae578063f2fde38b146106c1578063f5a6ba2e146106e0578063f8fc23301461070b575f5ffd5b8063ca7df92c146105c7578063ce7e8de8146105fa578063d439390c1461062e578063e486033914610661575f5ffd5b80639e52270b116100d85780639e52270b1461053f578063a5fdc5de1461055e578063aac61a1f14610589578063c5651cc6146105a8575f5ffd5b8063853828b6146104d15780638da5cb5b146104e557806396cb2e401461050157806399a5d74714610520575f5ffd5b806343267e7a116101895780637146bd08116101595780637146bd0814610423578063715018a61461045657806374a562921461046a5780637b155afa1461047f5780637c5e27951461049e575f5ffd5b806343267e7a1461038157806346904840146103ac57806358d41bf7146103e35780636c197ff514610404575f5ffd5b80632a5c792a116101c45780632a5c792a146102c75780632e0f2625146102e857806332cb6b0c1461031b5780633d69229a1461034e575f5ffd5b806306647125146101f55780630b3eb9701461023b578063212193f61461027f57806323531b90146102b3575b5f5ffd5b348015610200575f5ffd5b506102287f000000000000000000000000000000000000000000000000000000000000000081565b6040519081526020015b60405180910390f35b348015610246575f5ffd5b50610272610255366004611f5a565b6001600160a01b03165f9081526005602052604090205460ff1690565b6040516102329190611f87565b34801561028a575f5ffd5b50610228610299366004611f5a565b6001600160a01b03165f9081526009602052604090205490565b3480156102be575f5ffd5b50610228601e81565b3480156102d2575f5ffd5b506102db61072a565b6040516102329190611fad565b3480156102f3575f5ffd5b506102287f000000000000000000000000000000000000000000000000000000000000000081565b348015610326575f5ffd5b506102287f000000000000000000000000000000000000000000000000000000000000000081565b348015610359575f5ffd5b506102287f000000000000000000000000000000000000000000000000000000000000000081565b34801561038c575f5ffd5b5061022861039b366004611f5a565b600a6020525f908152604090205481565b3480156103b7575f5ffd5b506003546103cb906001600160a01b031681565b6040516001600160a01b039091168152602001610232565b3480156103ee575f5ffd5b506104026103fd366004611ff8565b61078a565b005b34801561040f575f5ffd5b5061040261041e36600461200f565b610822565b34801561042e575f5ffd5b506102287f000000000000000000000000000000000000000000000000000000000000000081565b348015610461575f5ffd5b50610402610d13565b348015610475575f5ffd5b5061022860025481565b34801561048a575f5ffd5b506103cb61049936600461207c565b610d26565b3480156104a9575f5ffd5b506102287f000000000000000000000000000000000000000000000000000000000000000081565b3480156104dc575f5ffd5b50610402610f74565b3480156104f0575f5ffd5b505f546001600160a01b03166103cb565b34801561050c575f5ffd5b5061040261051b36600461200f565b611085565b34801561052b575f5ffd5b5061022861053a366004611ff8565b61130b565b34801561054a575f5ffd5b5061022861055936600461200f565b61132a565b348015610569575f5ffd5b50610228610578366004611f5a565b60066020525f908152604090205481565b348015610594575f5ffd5b506102286105a336600461200f565b611391565b3480156105b3575f5ffd5b506104026105c2366004611f5a565b6113a3565b3480156105d2575f5ffd5b506102287f000000000000000000000000000000000000000000000000000000000000000081565b348015610605575f5ffd5b506103cb610614366004611f5a565b60076020525f90815260409020546001600160a01b031681565b348015610639575f5ffd5b506102287f000000000000000000000000000000000000000000000000000000000000000081565b34801561066c575f5ffd5b5061027261067b366004611f5a565b60056020525f908152604090205460ff1681565b34801561069a575f5ffd5b506104026106a9366004611f5a565b6114bb565b6104026106bc366004611f5a565b61155c565b3480156106cc575f5ffd5b506104026106db366004611f5a565b611b68565b3480156106eb575f5ffd5b506102286106fa366004611f5a565b60086020525f908152604090205481565b348015610716575f5ffd5b5061022861072536600461200f565b611ba2565b6060600480548060200260200160405190810160405280929190818152602001828054801561078057602002820191905f5260205f20905b81546001600160a01b03168152600190910190602001808311610762575b5050505050905090565b610792611c53565b5f81116107dd5760405162461bcd60e51b8152602060048201526014602482015273125b9d985b1a5908199d5b991a5b99c819dbd85b60621b60448201526064015b60405180910390fd5b600280549082905560408051828152602081018490527f197932ddf4f464ecd1cc0de6099b902967acae1a408c4e4ff35cbdb80e32170d910160405180910390a15050565b61082a611c7f565b815f6001600160a01b0382165f9081526005602052604090205460ff16600481111561085857610858611f73565b036108755760405162461bcd60e51b81526004016107d49061212b565b60016001600160a01b0384165f9081526005602052604090205460ff1660048111156108a3576108a3611f73565b14806108da575060046001600160a01b0384165f9081526005602052604090205460ff1660048111156108d8576108d8611f73565b145b6109145760405162461bcd60e51b815260206004820152600b60248201526a4e6f742074726164696e6760a81b60448201526064016107d4565b5f82116109585760405162461bcd60e51b81526020600482015260126024820152710416d6f756e74206d757374206265203e20360741b60448201526064016107d4565b6040516370a0823160e01b8152336004820152839083906001600160a01b038316906370a0823190602401602060405180830381865afa15801561099e573d5f5f3e3d5ffd5b505050506040513d601f19601f820116820180604052508101906109c29190612152565b1015610a075760405162461bcd60e51b8152602060048201526014602482015273496e73756666696369656e742062616c616e636560601b60448201526064016107d4565b5f610a128585611ba2565b90505f610a1e8261130b565b90505f610a2b828461217d565b6001600160a01b0388165f90815260066020526040902054909150831115610a955760405162461bcd60e51b815260206004820152601d60248201527f496e73756666696369656e7420746f6b656e20636f6c6c61746572616c00000060448201526064016107d4565b604051636819cd1960e01b8152336004820152602481018790526001600160a01b03851690636819cd19906044015f604051808303815f87803b158015610ada575f5ffd5b505af1158015610aec573d5f5f3e3d5ffd5b505050506001600160a01b0387165f908152600a602052604081208054889290610b1790849061217d565b90915550506001600160a01b0387165f9081526006602052604081208054859290610b4390849061217d565b90915550869050610b747f000000000000000000000000000000000000000000000000000000000000000085612190565b610b7e91906121a7565b6001600160a01b038881165f9081526008602052604080822093909355600354925190929091169084908381818185875af1925050503d805f8114610bde576040519150601f19603f3d011682016040523d82523d5f602084013e610be3565b606091505b5050905080610c2a5760405162461bcd60e51b8152602060048201526013602482015272119959481d1c985b9cd9995c8819985a5b1959606a1b60448201526064016107d4565b6040515f90339084908381818185875af1925050503d805f8114610c69576040519150601f19603f3d011682016040523d82523d5f602084013e610c6e565b606091505b5050905080610cb15760405162461bcd60e51b815260206004820152600f60248201526e151c985b9cd9995c8819985a5b1959608a1b60448201526064016107d4565b604080518981526020810187905290810185905233906001600160a01b038b16907fa0fe9740856690637d999c103293d3c823fc3b81443c34c6004bb582ab4b61669060600160405180910390a350505050505050610d0f60018055565b5050565b610d1b611c53565b610d245f611ca9565b565b5f8615801590610d37575060208711155b610d725760405162461bcd60e51b815260206004820152600c60248201526b496e76616c6964206e616d6560a01b60448201526064016107d4565b8415801590610d82575060088511155b610dbf5760405162461bcd60e51b815260206004820152600e60248201526d125b9d985b1a59081cde5b589bdb60921b60448201526064016107d4565b82610e005760405162461bcd60e51b8152602060048201526011602482015270125b9d985b1a59081a5b5859d948155493607a1b60448201526064016107d4565b5f30338a8a8a8a8a8a8a604051610e1690611f32565b610e28999897969594939291906121ee565b604051809103905ff080158015610e41573d5f5f3e3d5ffd5b506001600160a01b0381165f8181526005602090815260408083208054600160ff1990911681179091556004805491820190557f8a35acfbc15ff81a39ae7d344fd709f28e8600b4aa8c65c6b64bfe7fe36bd19b0180546001600160a01b0319908116861790915560078352818420805433921682179055600883528184207f00000000000000000000000000000000000000000000000000000000000000009055600280546009855283862055600a909352928190207f000000000000000000000000000000000000000000000000000000000000000090559054905193945084937f0e8cc4b226b8752d338d6e23e7e14f71e6dd2480faf8bfae44848d7fc596e3bf92610f5f928f928f928f928f928f928f9290918f90612261565b60405180910390a29998505050505050505050565b610f7c611c53565b4780610fc35760405162461bcd60e51b81526020600482015260166024820152754e6f2062616c616e636520746f20776974686472617760501b60448201526064016107d4565b6040515f90339083908381818185875af1925050503d805f8114611002576040519150601f19603f3d011682016040523d82523d5f602084013e611007565b606091505b505090508061104c5760405162461bcd60e51b815260206004820152601160248201527015da5d1a191c985dd85b0819985a5b1959607a1b60448201526064016107d4565b60405182815233907f23d6711a1d031134a36921253c75aa59e967d38e369ac625992824315e204f209060200160405180910390a25050565b61108d611c53565b815f6001600160a01b0382165f9081526005602052604090205460ff1660048111156110bb576110bb611f73565b036110d85760405162461bcd60e51b81526004016107d49061212b565b5f821161111e5760405162461bcd60e51b8152602060048201526014602482015273125b9d985b1a5908199d5b991a5b99c819dbd85b60621b60448201526064016107d4565b60016001600160a01b0384165f9081526005602052604090205460ff16600481111561114c5761114c611f73565b1480611183575060046001600160a01b0384165f9081526005602052604090205460ff16600481111561118157611181611f73565b145b6111cf5760405162461bcd60e51b815260206004820152601860248201527f546f6b656e206e6f7420696e2076616c6964207374617465000000000000000060448201526064016107d4565b6001600160a01b0383165f90815260096020908152604080832054600690925290912054106112375760405162461bcd60e51b815260206004820152601460248201527311dbd85b08185b1c9958591e481c995858da195960621b60448201526064016107d4565b6001600160a01b0383165f81815260096020908152604091829020805490869055825181815291820186905292917fac213d8317a98761d5beb43177fa39f5dbf9f93d273788aa26de83ff47a31a00910160405180910390a26001600160a01b0384165f908152600660205260409020548311611305576001600160a01b0384165f81815260056020908152604091829020805460ff1916600217905590518581527fb88b7874f043c64f2f74ff66df3ca7559f7253821a4f862a4a7af74e9c147170910160405180910390a25b50505050565b5f61271061131a601e84612190565b61132491906121a7565b92915050565b6001600160a01b0382165f908152600a6020526040812054819061136f907f00000000000000000000000000000000000000000000000000000000000000009061217d565b90505f61137c84836122cb565b90506113888282611cf8565b95945050505050565b5f61139c8383611e68565b9392505050565b6001600160a01b038181165f908152600760205260409020541633146113ff5760405162461bcd60e51b81526020600482015260116024820152702737ba103a37b5b2b71031b932b0ba37b960791b60448201526064016107d4565b60026001600160a01b0382165f9081526005602052604090205460ff16600481111561142d5761142d611f73565b146114705760405162461bcd60e51b81526020600482015260136024820152724e6f7420726561647920746f20726573756d6560681b60448201526064016107d4565b6001600160a01b0381165f81815260056020526040808220805460ff19166004179055517fd0e147a2c5ae727118c4a9359445a77d77d81945ccc12a8feec087160dae00a59190a250565b6114c3611c53565b6001600160a01b03811661150b5760405162461bcd60e51b815260206004820152600f60248201526e496e76616c6964206164647265737360881b60448201526064016107d4565b600380546001600160a01b038381166001600160a01b0319831681179093556040519116919082907faaebcf1bfa00580e41d966056b48521fa9f202645c86d4ddf28113e617c1b1d3905f90a35050565b611564611c7f565b805f6001600160a01b0382165f9081526005602052604090205460ff16600481111561159257611592611f73565b036115af5760405162461bcd60e51b81526004016107d49061212b565b60016001600160a01b0383165f9081526005602052604090205460ff1660048111156115dd576115dd611f73565b1480611614575060046001600160a01b0383165f9081526005602052604090205460ff16600481111561161257611612611f73565b145b61164e5760405162461bcd60e51b815260206004820152600b60248201526a4e6f742074726164696e6760a81b60448201526064016107d4565b7f0000000000000000000000000000000000000000000000000000000000000000341015801561169e57507f00000000000000000000000000000000000000000000000000000000000000003411155b6116db5760405162461bcd60e51b815260206004820152600e60248201526d125b9d985b1a5908185b5bdd5b9d60921b60448201526064016107d4565b5f6116e53461130b565b90505f6116f2823461217d565b90505f6116ff8583611391565b90505f811161175c5760405162461bcd60e51b8152602060048201526024808201527f45544820616d6f756e7420746f6f206c6f7720746f2062757920616e7920746f6044820152636b656e7360e01b60648201526084016107d4565b6001600160a01b0385165f908152600a602052604090205485907f0000000000000000000000000000000000000000000000000000000000000000906117a39084906122cb565b11156117de5760405162461bcd60e51b815260206004820152600a6024820152694d617820737570706c7960b01b60448201526064016107d4565b6040516370a0823160e01b81523360048201525f9083906001600160a01b038416906370a0823190602401602060405180830381865afa158015611824573d5f5f3e3d5ffd5b505050506040513d601f19601f820116820180604052508101906118489190612152565b61185291906122cb565b905060646118a07f00000000000000000000000000000000000000000000000000000000000000007f0000000000000000000000000000000000000000000000000000000000000000612190565b6118aa91906121a7565b8111156118ee5760405162461bcd60e51b8152602060048201526012602482015271115e18d959591cc81b585e081dd85b1b195d60721b60448201526064016107d4565b6003546040515f916001600160a01b03169087908381818185875af1925050503d805f8114611938576040519150601f19603f3d011682016040523d82523d5f602084013e61193d565b606091505b50509050806119845760405162461bcd60e51b8152602060048201526013602482015272119959481d1c985b9cd9995c8819985a5b1959606a1b60448201526064016107d4565b6001600160a01b0388165f908152600a6020526040812080548692906119ab9084906122cb565b90915550506040516340c10f1960e01b8152336004820152602481018590526001600160a01b038416906340c10f19906044015f604051808303815f87803b1580156119f5575f5ffd5b505af1158015611a07573d5f5f3e3d5ffd5b505050506001600160a01b0388165f9081526006602052604081208054879290611a329084906122cb565b90915550849050611a637f000000000000000000000000000000000000000000000000000000000000000087612190565b611a6d91906121a7565b6001600160a01b0389165f818152600860209081526040918290209390935580518781523493810193909352820188905233917f377aadedb6b2a771959584d10a6a36eccb5f56b4eb3a48525f76108d2660d8d49060600160405180910390a36001600160a01b0388165f9081526009602090815260408083205460069092529091205410611b55576001600160a01b0388165f818152600560209081526040808320805460ff1916600217905560098252918290205491519182527fb88b7874f043c64f2f74ff66df3ca7559f7253821a4f862a4a7af74e9c147170910160405180910390a25b50505050505050611b6560018055565b50565b611b70611c53565b6001600160a01b038116611b9957604051631e4fbdf760e01b81525f60048201526024016107d4565b611b6581611ca9565b6001600160a01b0382165f908152600a60205260408120548190611be7907f00000000000000000000000000000000000000000000000000000000000000009061217d565b905082811015611c485760405162461bcd60e51b815260206004820152602660248201527f43616e6e6f742073656c6c206d6f7265207468616e2065666665637469766520604482015265737570706c7960d01b60648201526084016107d4565b5f61137c848361217d565b5f546001600160a01b03163314610d245760405163118cdaa760e01b81523360048201526024016107d4565b600260015403611ca257604051633ee5aeb560e01b815260040160405180910390fd5b6002600155565b5f80546001600160a01b038381166001600160a01b0319831681178455604051919092169283917f8be0079c531659141344cd1fd0a4f28419497f9722a3daafe3b4186f6b6457e09190a35050565b5f80611d447f00000000000000000000000000000000000000000000000000000000000000007f000000000000000000000000000000000000000000000000000000000000000061217d565b90505f8111611d955760405162461bcd60e51b815260206004820152601b60248201527f537570706c792072616e67652063616e6e6f74206265207a65726f000000000060448201526064016107d4565b5f84841115611daf57611da8858561217d565b9050611dbc565b611db9848661217d565b90505b5f611dc786866122cb565b90505f611df4827f0000000000000000000000000000000000000000000000000000000000000000612190565b90505f81611e03866002612190565b611e0d91906122cb565b611e37857f0000000000000000000000000000000000000000000000000000000000000000612190565b611e419190612190565b90505f611e4f866002612190565b9050611e5b81836121a7565b9998505050505050505050565b6001600160a01b0382165f908152600a602052604081205481908190611eae907f000000000000000000000000000000000000000000000000000000000000000061217d565b90505f5b6064811015611f285781831015611f28575f6002611ed084866122cb565b611edb9060016122cb565b611ee591906121a7565b9050805f03611ef45750611f28565b5f611eff888361132a565b9050868111611f1057819450611f1e565b611f1b60018361217d565b93505b5050600101611eb2565b5090949350505050565b6114a4806122df83390190565b80356001600160a01b0381168114611f55575f5ffd5b919050565b5f60208284031215611f6a575f5ffd5b61139c82611f3f565b634e487b7160e01b5f52602160045260245ffd5b6020810160058310611fa757634e487b7160e01b5f52602160045260245ffd5b91905290565b602080825282518282018190525f918401906040840190835b81811015611fed5783516001600160a01b0316835260209384019390920191600101611fc6565b509095945050505050565b5f60208284031215612008575f5ffd5b5035919050565b5f5f60408385031215612020575f5ffd5b61202983611f3f565b946020939093013593505050565b5f5f83601f840112612047575f5ffd5b50813567ffffffffffffffff81111561205e575f5ffd5b602083019150836020828501011115612075575f5ffd5b9250929050565b5f5f5f5f5f5f5f6080888a031215612092575f5ffd5b873567ffffffffffffffff8111156120a8575f5ffd5b6120b48a828b01612037565b909850965050602088013567ffffffffffffffff8111156120d3575f5ffd5b6120df8a828b01612037565b909650945050604088013567ffffffffffffffff8111156120fe575f5ffd5b61210a8a828b01612037565b909450925061211d905060608901611f3f565b905092959891949750929550565b6020808252600d908201526c24b73b30b634b2103a37b5b2b760991b604082015260600190565b5f60208284031215612162575f5ffd5b5051919050565b634e487b7160e01b5f52601160045260245ffd5b8181038181111561132457611324612169565b808202811582820484141761132457611324612169565b5f826121c157634e487b7160e01b5f52601260045260245ffd5b500490565b81835281816020850137505f828201602090810191909152601f909101601f19169091010190565b6001600160a01b038a811682528916602082015260c0604082018190525f9061221a908301898b6121c6565b828103606084015261222d81888a6121c6565b905082810360808401526122428186886121c6565b91505060018060a01b03831660a08301529a9950505050505050505050565b60c081525f61227460c083018b8d6121c6565b8281036020840152612287818a8c6121c6565b9050828103604084015261229c81888a6121c6565b6001600160a01b03968716606085015260808401959095525050921660a0909201919091529695505050505050565b808201808211156113245761132461216956fe60c060405234801561000f575f5ffd5b506040516114a43803806114a483398101604081905261002e91610341565b858484600361003d8382610485565b50600461004a8282610485565b5050506001600160a01b03811661007b57604051631e4fbdf760e01b81525f60048201526024015b60405180910390fd5b61008481610238565b506001600160a01b0386166100db5760405162461bcd60e51b815260206004820152601760248201527f496e76616c696420666163746f727920616464726573730000000000000000006044820152606401610072565b6001600160a01b0385166101315760405162461bcd60e51b815260206004820152601760248201527f496e76616c69642063726561746f7220616464726573730000000000000000006044820152606401610072565b6001600160a01b03808716608052851660a05260066101508382610485565b506001600160a01b0381161561022d576040516261f76560e41b81523060048201526001600160a01b0382169063061f765090602401602060405180830381865afa1580156101a1573d5f5f3e3d5ffd5b505050506040513d601f19601f820116820180604052508101906101c5919061053f565b6102115760405162461bcd60e51b815260206004820152601b60248201527f4275726e206d616e61676572206e6f7420636f6d70617469626c6500000000006044820152606401610072565b600780546001600160a01b0319166001600160a01b0383161790555b505050505050610565565b600580546001600160a01b038381166001600160a01b0319831681179093556040519116919082907f8be0079c531659141344cd1fd0a4f28419497f9722a3daafe3b4186f6b6457e0905f90a35050565b80516001600160a01b038116811461029f575f5ffd5b919050565b634e487b7160e01b5f52604160045260245ffd5b5f82601f8301126102c7575f5ffd5b81516001600160401b038111156102e0576102e06102a4565b604051601f8201601f19908116603f011681016001600160401b038111828210171561030e5761030e6102a4565b604052818152838201602001851015610325575f5ffd5b8160208501602083015e5f918101602001919091529392505050565b5f5f5f5f5f5f60c08789031215610356575f5ffd5b61035f87610289565b955061036d60208801610289565b60408801519095506001600160401b03811115610388575f5ffd5b61039489828a016102b8565b606089015190955090506001600160401b038111156103b1575f5ffd5b6103bd89828a016102b8565b608089015190945090506001600160401b038111156103da575f5ffd5b6103e689828a016102b8565b9250506103f560a08801610289565b90509295509295509295565b600181811c9082168061041557607f821691505b60208210810361043357634e487b7160e01b5f52602260045260245ffd5b50919050565b601f82111561048057805f5260205f20601f840160051c8101602085101561045e5750805b601f840160051c820191505b8181101561047d575f815560010161046a565b50505b505050565b81516001600160401b0381111561049e5761049e6102a4565b6104b2816104ac8454610401565b84610439565b6020601f8211600181146104e4575f83156104cd5750848201515b5f19600385901b1c1916600184901b17845561047d565b5f84815260208120601f198516915b8281101561051357878501518255602094850194600190920191016104f3565b508482101561053057868401515f19600387901b60f8161c191681555b50505050600190811b01905550565b5f6020828403121561054f575f5ffd5b8151801515811461055e575f5ffd5b9392505050565b60805160a051610f0961059b5f395f818161013b01526106d201525f81816102e8015281816103fc01526105dc0152610f095ff3fe608060405234801561000f575f5ffd5b5060043610610132575f3560e01c806370a08231116100b4578063a9059cbb11610079578063a9059cbb14610290578063aba83150146102a3578063dd62ed3e146102ab578063e77772fe146102e3578063f2fde38b1461030a578063f8a8fd6d1461031d575f5ffd5b806370a0823114610234578063715018a61461025c5780638da5cb5b1461026457806395d89b411461027557806396b5059d1461027d575f5ffd5b806323b872dd116100fa57806323b872dd146101d7578063313ce567146101ea57806340c10f19146101f957806342966c681461020e5780636819cd1914610221575f5ffd5b806302d05d3f1461013657806306fdde031461017a578063095ea7b31461018f57806318160ddd146101b25780631faa49c3146101c4575b5f5ffd5b61015d7f000000000000000000000000000000000000000000000000000000000000000081565b6040516001600160a01b0390911681526020015b60405180910390f35b610182610325565b6040516101719190610d43565b6101a261019d366004610d93565b6103b5565b6040519015158152602001610171565b6002545b604051908152602001610171565b60075461015d906001600160a01b031681565b6101a26101e5366004610dbb565b6103ce565b60405160128152602001610171565b61020c610207366004610d93565b6103f1565b005b61020c61021c366004610df5565b610474565b61020c61022f366004610d93565b6105d1565b6101b6610242366004610e0c565b6001600160a01b03165f9081526020819052604090205490565b61020c6106a5565b6005546001600160a01b031661015d565b6101826106b8565b61020c61028b366004610e0c565b6106c7565b6101a261029e366004610d93565b61089a565b6101826108a7565b6101b66102b9366004610e2c565b6001600160a01b039182165f90815260016020908152604080832093909416825291909152205490565b61015d7f000000000000000000000000000000000000000000000000000000000000000081565b61020c610318366004610e0c565b610933565b61018261096d565b60606003805461033490610e5d565b80601f016020809104026020016040519081016040528092919081815260200182805461036090610e5d565b80156103ab5780601f10610382576101008083540402835291602001916103ab565b820191905f5260205f20905b81548152906001019060200180831161038e57829003601f168201915b5050505050905090565b5f336103c281858561097a565b60019150505b92915050565b5f336103db85828561098c565b6103e6858585610a08565b506001949350505050565b336001600160a01b037f000000000000000000000000000000000000000000000000000000000000000016146104665760405162461bcd60e51b815260206004820152601560248201527413db9b1e48199858dd1bdc9e4818d85b881b5a5b9d605a1b60448201526064015b60405180910390fd5b6104708282610a65565b5050565b5f81116104b85760405162461bcd60e51b81526020600482015260126024820152710416d6f756e74206d757374206265203e20360741b604482015260640161045d565b335f9081526020819052604090205481111561050d5760405162461bcd60e51b8152602060048201526014602482015273496e73756666696369656e742062616c616e636560601b604482015260640161045d565b6105173382610a99565b6001337f14c08ae9f74e8b735a667822feb792c4e1324d0dd5887af1528665f8c2357f868361054560025490565b6040805192835260208301919091520160405180910390a36007546001600160a01b0316156105ce57600754604051631ed1028b60e01b8152336004820152602481018390526001600160a01b0390911690631ed1028b906044015f604051808303815f87803b1580156105b7575f5ffd5b505af11580156105c9573d5f5f3e3d5ffd5b505050505b50565b336001600160a01b037f000000000000000000000000000000000000000000000000000000000000000016146106495760405162461bcd60e51b815260206004820152601d60248201527f4f6e6c7920666163746f72792063616e20666163746f7279206275726e000000604482015260640161045d565b6106538282610a99565b5f826001600160a01b03167f14c08ae9f74e8b735a667822feb792c4e1324d0dd5887af1528665f8c2357f868361068960025490565b6040805192835260208301919091520160405180910390a35050565b6106ad610acd565b6106b65f610afa565b565b60606004805461033490610e5d565b336001600160a01b037f000000000000000000000000000000000000000000000000000000000000000016146107495760405162461bcd60e51b815260206004820152602160248201527f4f6e6c792063726561746f722063616e20736574206275726e206d616e6167656044820152603960f91b606482015260840161045d565b6001600160a01b0381166107985760405162461bcd60e51b815260206004820152601660248201527543616e6e6f74206265207a65726f206164647265737360501b604482015260640161045d565b6040516261f76560e41b81523060048201526001600160a01b0382169063061f765090602401602060405180830381865afa1580156107d9573d5f5f3e3d5ffd5b505050506040513d601f19601f820116820180604052508101906107fd9190610e95565b6108495760405162461bcd60e51b815260206004820152601b60248201527f4275726e206d616e61676572206e6f7420636f6d70617469626c650000000000604482015260640161045d565b600780546001600160a01b038381166001600160a01b0319831681179093556040519116919082907f0a216b4ae65e96da40adb74d7d42ec050b88e0da645103a084647ed55eb3e0d9905f90a35050565b5f336103c2818585610a08565b600680546108b490610e5d565b80601f01602080910402602001604051908101604052809291908181526020018280546108e090610e5d565b801561092b5780601f106109025761010080835404028352916020019161092b565b820191905f5260205f20905b81548152906001019060200180831161090e57829003601f168201915b505050505081565b61093b610acd565b6001600160a01b03811661096457604051631e4fbdf760e01b81525f600482015260240161045d565b6105ce81610afa565b600880546108b490610e5d565b6109878383836001610b4b565b505050565b6001600160a01b038381165f908152600160209081526040808320938616835292905220545f19811015610a0257818110156109f457604051637dc7a0d960e11b81526001600160a01b0384166004820152602481018290526044810183905260640161045d565b610a0284848484035f610b4b565b50505050565b6001600160a01b038316610a3157604051634b637e8f60e11b81525f600482015260240161045d565b6001600160a01b038216610a5a5760405163ec442f0560e01b81525f600482015260240161045d565b610987838383610c1d565b6001600160a01b038216610a8e5760405163ec442f0560e01b81525f600482015260240161045d565b6104705f8383610c1d565b6001600160a01b038216610ac257604051634b637e8f60e11b81525f600482015260240161045d565b610470825f83610c1d565b6005546001600160a01b031633146106b65760405163118cdaa760e01b815233600482015260240161045d565b600580546001600160a01b038381166001600160a01b0319831681179093556040519116919082907f8be0079c531659141344cd1fd0a4f28419497f9722a3daafe3b4186f6b6457e0905f90a35050565b6001600160a01b038416610b745760405163e602df0560e01b81525f600482015260240161045d565b6001600160a01b038316610b9d57604051634a1406b160e11b81525f600482015260240161045d565b6001600160a01b038085165f9081526001602090815260408083209387168352929052208290558015610a0257826001600160a01b0316846001600160a01b03167f8c5be1e5ebec7d5bd14f71427d1e84f3dd0314c0f7b2291e5b200ac8c7c3b92584604051610c0f91815260200190565b60405180910390a350505050565b6001600160a01b038316610c47578060025f828254610c3c9190610eb4565b90915550610cb79050565b6001600160a01b0383165f9081526020819052604090205481811015610c995760405163391434e360e21b81526001600160a01b0385166004820152602481018290526044810183905260640161045d565b6001600160a01b0384165f9081526020819052604090209082900390555b6001600160a01b038216610cd357600280548290039055610cf1565b6001600160a01b0382165f9081526020819052604090208054820190555b816001600160a01b0316836001600160a01b03167fddf252ad1be2c89b69c2b068fc378daa952ba7f163c4a11628f55a4df523b3ef83604051610d3691815260200190565b60405180910390a3505050565b602081525f82518060208401528060208501604085015e5f604082850101526040601f19601f83011684010191505092915050565b80356001600160a01b0381168114610d8e575f5ffd5b919050565b5f5f60408385031215610da4575f5ffd5b610dad83610d78565b946020939093013593505050565b5f5f5f60608486031215610dcd575f5ffd5b610dd684610d78565b9250610de460208501610d78565b929592945050506040919091013590565b5f60208284031215610e05575f5ffd5b5035919050565b5f60208284031215610e1c575f5ffd5b610e2582610d78565b9392505050565b5f5f60408385031215610e3d575f5ffd5b610e4683610d78565b9150610e5460208401610d78565b90509250929050565b600181811c90821680610e7157607f821691505b602082108103610e8f57634e487b7160e01b5f52602260045260245ffd5b50919050565b5f60208284031215610ea5575f5ffd5b81518015158114610e25575f5ffd5b808201808211156103c857634e487b7160e01b5f52601160045260245ffdfea2646970667358221220892de6aa65a75e2ca4ff6d7ed0e0e0910822f908e2c58b460a4f9166a4ef3be164736f6c634300081e0033a2646970667358221220e8cba0b2df890c8ae1c1fe4d2f5f5d48f5ba483240de830798320821bd892ef364736f6c634300081e0033",
			"opcodes": "PUSH2 0x180 PUSH1 0x40 MSTORE CALLVALUE DUP1 ISZERO PUSH2 0x10 JUMPI PUSH0 PUSH0 REVERT JUMPDEST POP PUSH1 0x40 MLOAD PUSH2 0x3A9E CODESIZE SUB DUP1 PUSH2 0x3A9E DUP4 CODECOPY DUP2 ADD PUSH1 0x40 DUP2 SWAP1 MSTORE PUSH2 0x2F SWAP2 PUSH2 0x1A6 JUMP JUMPDEST DUP1 PUSH1 0x1 PUSH1 0x1 PUSH1 0xA0 SHL SUB DUP2 AND PUSH2 0x5E JUMPI PUSH1 0x40 MLOAD PUSH4 0x1E4FBDF7 PUSH1 0xE0 SHL DUP2 MSTORE PUSH0 PUSH1 0x4 DUP3 ADD MSTORE PUSH1 0x24 ADD JUMPDEST PUSH1 0x40 MLOAD DUP1 SWAP2 SUB SWAP1 REVERT JUMPDEST PUSH2 0x67 DUP2 PUSH2 0x157 JUMP JUMPDEST POP PUSH1 0x1 DUP1 SSTORE PUSH1 0x1 PUSH1 0x1 PUSH1 0xA0 SHL SUB DUP2 AND PUSH2 0xC2 JUMPI PUSH1 0x40 MLOAD PUSH3 0x461BCD PUSH1 0xE5 SHL DUP2 MSTORE PUSH1 0x20 PUSH1 0x4 DUP3 ADD MSTORE PUSH1 0x15 PUSH1 0x24 DUP3 ADD MSTORE PUSH32 0x43616E2774206265207A65726F20616464726573730000000000000000000000 PUSH1 0x44 DUP3 ADD MSTORE PUSH1 0x64 ADD PUSH2 0x55 JUMP JUMPDEST PUSH1 0x3 DUP1 SLOAD PUSH1 0x1 PUSH1 0x1 PUSH1 0xA0 SHL SUB NOT AND PUSH1 0x1 PUSH1 0x1 PUSH1 0xA0 SHL SUB DUP4 AND OR SWAP1 SSTORE PUSH8 0xDE0B6B3A7640000 PUSH1 0x80 DUP2 SWAP1 MSTORE PUSH2 0xF9 SWAP1 PUSH4 0x3B9ACA00 PUSH2 0x1D3 JUMP JUMPDEST PUSH1 0xA0 DUP2 SWAP1 MSTORE PUSH1 0x64 SWAP1 PUSH2 0x10C SWAP1 PUSH1 0x14 PUSH2 0x1D3 JUMP JUMPDEST PUSH2 0x116 SWAP2 SWAP1 PUSH2 0x1FC JUMP JUMPDEST PUSH1 0xC0 MSTORE POP PUSH9 0x15AF1D78B58C40000 PUSH1 0x2 SSTORE PUSH6 0x9184E72A000 PUSH1 0xE0 DUP2 SWAP1 MSTORE PUSH2 0x7D0 PUSH2 0x160 MSTORE PUSH2 0x100 MSTORE PUSH9 0x2B5E3AF16B1880000 PUSH2 0x120 MSTORE PUSH1 0x5 PUSH2 0x140 MSTORE PUSH2 0x21B JUMP JUMPDEST PUSH0 DUP1 SLOAD PUSH1 0x1 PUSH1 0x1 PUSH1 0xA0 SHL SUB DUP4 DUP2 AND PUSH1 0x1 PUSH1 0x1 PUSH1 0xA0 SHL SUB NOT DUP4 AND DUP2 OR DUP5 SSTORE PUSH1 0x40 MLOAD SWAP2 SWAP1 SWAP3 AND SWAP3 DUP4 SWAP2 PUSH32 0x8BE0079C531659141344CD1FD0A4F28419497F9722A3DAAFE3B4186F6B6457E0 SWAP2 SWAP1 LOG3 POP POP JUMP JUMPDEST PUSH0 PUSH1 0x20 DUP3 DUP5 SUB SLT ISZERO PUSH2 0x1B6 JUMPI PUSH0 PUSH0 REVERT JUMPDEST DUP2 MLOAD PUSH1 0x1 PUSH1 0x1 PUSH1 0xA0 SHL SUB DUP2 AND DUP2 EQ PUSH2 0x1CC JUMPI PUSH0 PUSH0 REVERT JUMPDEST SWAP4 SWAP3 POP POP POP JUMP JUMPDEST DUP1 DUP3 MUL DUP2 ISZERO DUP3 DUP3 DIV DUP5 EQ OR PUSH2 0x1F6 JUMPI PUSH4 0x4E487B71 PUSH1 0xE0 SHL PUSH0 MSTORE PUSH1 0x11 PUSH1 0x4 MSTORE PUSH1 0x24 PUSH0 REVERT JUMPDEST SWAP3 SWAP2 POP POP JUMP JUMPDEST PUSH0 DUP3 PUSH2 0x216 JUMPI PUSH4 0x4E487B71 PUSH1 0xE0 SHL PUSH0 MSTORE PUSH1 0x12 PUSH1 0x4 MSTORE PUSH1 0x24 PUSH0 REVERT JUMPDEST POP DIV SWAP1 JUMP JUMPDEST PUSH1 0x80 MLOAD PUSH1 0xA0 MLOAD PUSH1 0xC0 MLOAD PUSH1 0xE0 MLOAD PUSH2 0x100 MLOAD PUSH2 0x120 MLOAD PUSH2 0x140 MLOAD PUSH2 0x160 MLOAD PUSH2 0x37B8 PUSH2 0x2E6 PUSH0 CODECOPY PUSH0 DUP2 DUP2 PUSH2 0x35F ADD MSTORE PUSH2 0x1DD0 ADD MSTORE PUSH0 DUP2 DUP2 PUSH2 0x206 ADD MSTORE PUSH2 0x185B ADD MSTORE PUSH0 DUP2 DUP2 PUSH2 0x434 ADD MSTORE PUSH2 0x167B ADD MSTORE PUSH0 DUP2 DUP2 PUSH2 0x63F ADD MSTORE PUSH2 0x1650 ADD MSTORE PUSH0 DUP2 DUP2 PUSH2 0x4AF ADD MSTORE DUP2 DUP2 PUSH2 0xEC2 ADD MSTORE PUSH2 0x1E13 ADD MSTORE PUSH0 DUP2 DUP2 PUSH2 0x5D8 ADD MSTORE DUP2 DUP2 PUSH2 0xEFA ADD MSTORE DUP2 DUP2 PUSH2 0x134A ADD MSTORE DUP2 DUP2 PUSH2 0x1BC2 ADD MSTORE PUSH2 0x1CFF ADD MSTORE PUSH0 DUP2 DUP2 PUSH2 0x32C ADD MSTORE DUP2 DUP2 PUSH2 0x1778 ADD MSTORE DUP2 DUP2 PUSH2 0x187C ADD MSTORE DUP2 DUP2 PUSH2 0x1D20 ADD MSTORE PUSH2 0x1E8A ADD MSTORE PUSH0 DUP2 DUP2 PUSH2 0x2F9 ADD MSTORE DUP2 DUP2 PUSH2 0xB4F ADD MSTORE PUSH2 0x1A3E ADD MSTORE PUSH2 0x37B8 PUSH0 RETURN INVALID PUSH1 0x80 PUSH1 0x40 MSTORE PUSH1 0x4 CALLDATASIZE LT PUSH2 0x1F1 JUMPI PUSH0 CALLDATALOAD PUSH1 0xE0 SHR DUP1 PUSH4 0x853828B6 GT PUSH2 0x108 JUMPI DUP1 PUSH4 0xCA7DF92C GT PUSH2 0x9D JUMPI DUP1 PUSH4 0xE74B981B GT PUSH2 0x6D JUMPI DUP1 PUSH4 0xE74B981B EQ PUSH2 0x68F JUMPI DUP1 PUSH4 0xF088D547 EQ PUSH2 0x6AE JUMPI DUP1 PUSH4 0xF2FDE38B EQ PUSH2 0x6C1 JUMPI DUP1 PUSH4 0xF5A6BA2E EQ PUSH2 0x6E0 JUMPI DUP1 PUSH4 0xF8FC2330 EQ PUSH2 0x70B JUMPI PUSH0 PUSH0 REVERT JUMPDEST DUP1 PUSH4 0xCA7DF92C EQ PUSH2 0x5C7 JUMPI DUP1 PUSH4 0xCE7E8DE8 EQ PUSH2 0x5FA JUMPI DUP1 PUSH4 0xD439390C EQ PUSH2 0x62E JUMPI DUP1 PUSH4 0xE4860339 EQ PUSH2 0x661 JUMPI PUSH0 PUSH0 REVERT JUMPDEST DUP1 PUSH4 0x9E52270B GT PUSH2 0xD8 JUMPI DUP1 PUSH4 0x9E52270B EQ PUSH2 0x53F JUMPI DUP1 PUSH4 0xA5FDC5DE EQ PUSH2 0x55E JUMPI DUP1 PUSH4 0xAAC61A1F EQ PUSH2 0x589 JUMPI DUP1 PUSH4 0xC5651CC6 EQ PUSH2 0x5A8 JUMPI PUSH0 PUSH0 REVERT JUMPDEST DUP1 PUSH4 0x853828B6 EQ PUSH2 0x4D1 JUMPI DUP1 PUSH4 0x8DA5CB5B EQ PUSH2 0x4E5 JUMPI DUP1 PUSH4 0x96CB2E40 EQ PUSH2 0x501 JUMPI DUP1 PUSH4 0x99A5D747 EQ PUSH2 0x520 JUMPI PUSH0 PUSH0 REVERT JUMPDEST DUP1 PUSH4 0x43267E7A GT PUSH2 0x189 JUMPI DUP1 PUSH4 0x7146BD08 GT PUSH2 0x159 JUMPI DUP1 PUSH4 0x7146BD08 EQ PUSH2 0x423 JUMPI DUP1 PUSH4 0x715018A6 EQ PUSH2 0x456 JUMPI DUP1 PUSH4 0x74A56292 EQ PUSH2 0x46A JUMPI DUP1 PUSH4 0x7B155AFA EQ PUSH2 0x47F JUMPI DUP1 PUSH4 0x7C5E2795 EQ PUSH2 0x49E JUMPI PUSH0 PUSH0 REVERT JUMPDEST DUP1 PUSH4 0x43267E7A EQ PUSH2 0x381 JUMPI DUP1 PUSH4 0x46904840 EQ PUSH2 0x3AC JUMPI DUP1 PUSH4 0x58D41BF7 EQ PUSH2 0x3E3 JUMPI DUP1 PUSH4 0x6C197FF5 EQ PUSH2 0x404 JUMPI PUSH0 PUSH0 REVERT JUMPDEST DUP1 PUSH4 0x2A5C792A GT PUSH2 0x1C4 JUMPI DUP1 PUSH4 0x2A5C792A EQ PUSH2 0x2C7 JUMPI DUP1 PUSH4 0x2E0F2625 EQ PUSH2 0x2E8 JUMPI DUP1 PUSH4 0x32CB6B0C EQ PUSH2 0x31B JUMPI DUP1 PUSH4 0x3D69229A EQ PUSH2 0x34E JUMPI PUSH0 PUSH0 REVERT JUMPDEST DUP1 PUSH4 0x6647125 EQ PUSH2 0x1F5 JUMPI DUP1 PUSH4 0xB3EB970 EQ PUSH2 0x23B JUMPI DUP1 PUSH4 0x212193F6 EQ PUSH2 0x27F JUMPI DUP1 PUSH4 0x23531B90 EQ PUSH2 0x2B3 JUMPI JUMPDEST PUSH0 PUSH0 REVERT JUMPDEST CALLVALUE DUP1 ISZERO PUSH2 0x200 JUMPI PUSH0 PUSH0 REVERT JUMPDEST POP PUSH2 0x228 PUSH32 0x0 DUP2 JUMP JUMPDEST PUSH1 0x40 MLOAD SWAP1 DUP2 MSTORE PUSH1 0x20 ADD JUMPDEST PUSH1 0x40 MLOAD DUP1 SWAP2 SUB SWAP1 RETURN JUMPDEST CALLVALUE DUP1 ISZERO PUSH2 0x246 JUMPI PUSH0 PUSH0 REVERT JUMPDEST POP PUSH2 0x272 PUSH2 0x255 CALLDATASIZE PUSH1 0x4 PUSH2 0x1F5A JUMP JUMPDEST PUSH1 0x1 PUSH1 0x1 PUSH1 0xA0 SHL SUB AND PUSH0 SWAP1 DUP2 MSTORE PUSH1 0x5 PUSH1 0x20 MSTORE PUSH1 0x40 SWAP1 KECCAK256 SLOAD PUSH1 0xFF AND SWAP1 JUMP JUMPDEST PUSH1 0x40 MLOAD PUSH2 0x232 SWAP2 SWAP1 PUSH2 0x1F87 JUMP JUMPDEST CALLVALUE DUP1 ISZERO PUSH2 0x28A JUMPI PUSH0 PUSH0 REVERT JUMPDEST POP PUSH2 0x228 PUSH2 0x299 CALLDATASIZE PUSH1 0x4 PUSH2 0x1F5A JUMP JUMPDEST PUSH1 0x1 PUSH1 0x1 PUSH1 0xA0 SHL SUB AND PUSH0 SWAP1 DUP2 MSTORE PUSH1 0x9 PUSH1 0x20 MSTORE PUSH1 0x40 SWAP1 KECCAK256 SLOAD SWAP1 JUMP JUMPDEST CALLVALUE DUP1 ISZERO PUSH2 0x2BE JUMPI PUSH0 PUSH0 REVERT JUMPDEST POP PUSH2 0x228 PUSH1 0x1E DUP2 JUMP JUMPDEST CALLVALUE DUP1 ISZERO PUSH2 0x2D2 JUMPI PUSH0 PUSH0 REVERT JUMPDEST POP PUSH2 0x2DB PUSH2 0x72A JUMP JUMPDEST PUSH1 0x40 MLOAD PUSH2 0x232 SWAP2 SWAP1 PUSH2 0x1FAD JUMP JUMPDEST CALLVALUE DUP1 ISZERO PUSH2 0x2F3 JUMPI PUSH0 PUSH0 REVERT JUMPDEST POP PUSH2 0x228 PUSH32 0x0 DUP2 JUMP JUMPDEST CALLVALUE DUP1 ISZERO PUSH2 0x326 JUMPI PUSH0 PUSH0 REVERT JUMPDEST POP PUSH2 0x228 PUSH32 0x0 DUP2 JUMP JUMPDEST CALLVALUE DUP1 ISZERO PUSH2 0x359 JUMPI PUSH0 PUSH0 REVERT JUMPDEST POP PUSH2 0x228 PUSH32 0x0 DUP2 JUMP JUMPDEST CALLVALUE DUP1 ISZERO PUSH2 0x38C JUMPI PUSH0 PUSH0 REVERT JUMPDEST POP PUSH2 0x228 PUSH2 0x39B CALLDATASIZE PUSH1 0x4 PUSH2 0x1F5A JUMP JUMPDEST PUSH1 0xA PUSH1 0x20 MSTORE PUSH0 SWAP1 DUP2 MSTORE PUSH1 0x40 SWAP1 KECCAK256 SLOAD DUP2 JUMP JUMPDEST CALLVALUE DUP1 ISZERO PUSH2 0x3B7 JUMPI PUSH0 PUSH0 REVERT JUMPDEST POP PUSH1 0x3 SLOAD PUSH2 0x3CB SWAP1 PUSH1 0x1 PUSH1 0x1 PUSH1 0xA0 SHL SUB AND DUP2 JUMP JUMPDEST PUSH1 0x40 MLOAD PUSH1 0x1 PUSH1 0x1 PUSH1 0xA0 SHL SUB SWAP1 SWAP2 AND DUP2 MSTORE PUSH1 0x20 ADD PUSH2 0x232 JUMP JUMPDEST CALLVALUE DUP1 ISZERO PUSH2 0x3EE JUMPI PUSH0 PUSH0 REVERT JUMPDEST POP PUSH2 0x402 PUSH2 0x3FD CALLDATASIZE PUSH1 0x4 PUSH2 0x1FF8 JUMP JUMPDEST PUSH2 0x78A JUMP JUMPDEST STOP JUMPDEST CALLVALUE DUP1 ISZERO PUSH2 0x40F JUMPI PUSH0 PUSH0 REVERT JUMPDEST POP PUSH2 0x402 PUSH2 0x41E CALLDATASIZE PUSH1 0x4 PUSH2 0x200F JUMP JUMPDEST PUSH2 0x822 JUMP JUMPDEST CALLVALUE DUP1 ISZERO PUSH2 0x42E JUMPI PUSH0 PUSH0 REVERT JUMPDEST POP PUSH2 0x228 PUSH32 0x0 DUP2 JUMP JUMPDEST CALLVALUE DUP1 ISZERO PUSH2 0x461 JUMPI PUSH0 PUSH0 REVERT JUMPDEST POP PUSH2 0x402 PUSH2 0xD13 JUMP JUMPDEST CALLVALUE DUP1 ISZERO PUSH2 0x475 JUMPI PUSH0 PUSH0 REVERT JUMPDEST POP PUSH2 0x228 PUSH1 0x2 SLOAD DUP2 JUMP JUMPDEST CALLVALUE DUP1 ISZERO PUSH2 0x48A JUMPI PUSH0 PUSH0 REVERT JUMPDEST POP PUSH2 0x3CB PUSH2 0x499 CALLDATASIZE PUSH1 0x4 PUSH2 0x207C JUMP JUMPDEST PUSH2 0xD26 JUMP JUMPDEST CALLVALUE DUP1 ISZERO PUSH2 0x4A9 JUMPI PUSH0 PUSH0 REVERT JUMPDEST POP PUSH2 0x228 PUSH32 0x0 DUP2 JUMP JUMPDEST CALLVALUE DUP1 ISZERO PUSH2 0x4DC JUMPI PUSH0 PUSH0 REVERT JUMPDEST POP PUSH2 0x402 PUSH2 0xF74 JUMP JUMPDEST CALLVALUE DUP1 ISZERO PUSH2 0x4F0 JUMPI PUSH0 PUSH0 REVERT JUMPDEST POP PUSH0 SLOAD PUSH1 0x1 PUSH1 0x1 PUSH1 0xA0 SHL SUB AND PUSH2 0x3CB JUMP JUMPDEST CALLVALUE DUP1 ISZERO PUSH2 0x50C JUMPI PUSH0 PUSH0 REVERT JUMPDEST POP PUSH2 0x402 PUSH2 0x51B CALLDATASIZE PUSH1 0x4 PUSH2 0x200F JUMP JUMPDEST PUSH2 0x1085 JUMP JUMPDEST CALLVALUE DUP1 ISZERO PUSH2 0x52B JUMPI PUSH0 PUSH0 REVERT JUMPDEST POP PUSH2 0x228 PUSH2 0x53A CALLDATASIZE PUSH1 0x4 PUSH2 0x1FF8 JUMP JUMPDEST PUSH2 0x130B JUMP JUMPDEST CALLVALUE DUP1 ISZERO PUSH2 0x54A JUMPI PUSH0 PUSH0 REVERT JUMPDEST POP PUSH2 0x228 PUSH2 0x559 CALLDATASIZE PUSH1 0x4 PUSH2 0x200F JUMP JUMPDEST PUSH2 0x132A JUMP JUMPDEST CALLVALUE DUP1 ISZERO PUSH2 0x569 JUMPI PUSH0 PUSH0 REVERT JUMPDEST POP PUSH2 0x228 PUSH2 0x578 CALLDATASIZE PUSH1 0x4 PUSH2 0x1F5A JUMP JUMPDEST PUSH1 0x6 PUSH1 0x20 MSTORE PUSH0 SWAP1 DUP2 MSTORE PUSH1 0x40 SWAP1 KECCAK256 SLOAD DUP2 JUMP JUMPDEST CALLVALUE DUP1 ISZERO PUSH2 0x594 JUMPI PUSH0 PUSH0 REVERT JUMPDEST POP PUSH2 0x228 PUSH2 0x5A3 CALLDATASIZE PUSH1 0x4 PUSH2 0x200F JUMP JUMPDEST PUSH2 0x1391 JUMP JUMPDEST CALLVALUE DUP1 ISZERO PUSH2 0x5B3 JUMPI PUSH0 PUSH0 REVERT JUMPDEST POP PUSH2 0x402 PUSH2 0x5C2 CALLDATASIZE PUSH1 0x4 PUSH2 0x1F5A JUMP JUMPDEST PUSH2 0x13A3 JUMP JUMPDEST CALLVALUE DUP1 ISZERO PUSH2 0x5D2 JUMPI PUSH0 PUSH0 REVERT JUMPDEST POP PUSH2 0x228 PUSH32 0x0 DUP2 JUMP JUMPDEST CALLVALUE DUP1 ISZERO PUSH2 0x605 JUMPI PUSH0 PUSH0 REVERT JUMPDEST POP PUSH2 0x3CB PUSH2 0x614 CALLDATASIZE PUSH1 0x4 PUSH2 0x1F5A JUMP JUMPDEST PUSH1 0x7 PUSH1 0x20 MSTORE PUSH0 SWAP1 DUP2 MSTORE PUSH1 0x40 SWAP1 KECCAK256 SLOAD PUSH1 0x1 PUSH1 0x1 PUSH1 0xA0 SHL SUB AND DUP2 JUMP JUMPDEST CALLVALUE DUP1 ISZERO PUSH2 0x639 JUMPI PUSH0 PUSH0 REVERT JUMPDEST POP PUSH2 0x228 PUSH32 0x0 DUP2 JUMP JUMPDEST CALLVALUE DUP1 ISZERO PUSH2 0x66C JUMPI PUSH0 PUSH0 REVERT JUMPDEST POP PUSH2 0x272 PUSH2 0x67B CALLDATASIZE PUSH1 0x4 PUSH2 0x1F5A JUMP JUMPDEST PUSH1 0x5 PUSH1 0x20 MSTORE PUSH0 SWAP1 DUP2 MSTORE PUSH1 0x40 SWAP1 KECCAK256 SLOAD PUSH1 0xFF AND DUP2 JUMP JUMPDEST CALLVALUE DUP1 ISZERO PUSH2 0x69A JUMPI PUSH0 PUSH0 REVERT JUMPDEST POP PUSH2 0x402 PUSH2 0x6A9 CALLDATASIZE PUSH1 0x4 PUSH2 0x1F5A JUMP JUMPDEST PUSH2 0x14BB JUMP JUMPDEST PUSH2 0x402 PUSH2 0x6BC CALLDATASIZE PUSH1 0x4 PUSH2 0x1F5A JUMP JUMPDEST PUSH2 0x155C JUMP JUMPDEST CALLVALUE DUP1 ISZERO PUSH2 0x6CC JUMPI PUSH0 PUSH0 REVERT JUMPDEST POP PUSH2 0x402 PUSH2 0x6DB CALLDATASIZE PUSH1 0x4 PUSH2 0x1F5A JUMP JUMPDEST PUSH2 0x1B68 JUMP JUMPDEST CALLVALUE DUP1 ISZERO PUSH2 0x6EB JUMPI PUSH0 PUSH0 REVERT JUMPDEST POP PUSH2 0x228 PUSH2 0x6FA CALLDATASIZE PUSH1 0x4 PUSH2 0x1F5A JUMP JUMPDEST PUSH1 0x8 PUSH1 0x20 MSTORE PUSH0 SWAP1 DUP2 MSTORE PUSH1 0x40 SWAP1 KECCAK256 SLOAD DUP2 JUMP JUMPDEST CALLVALUE DUP1 ISZERO PUSH2 0x716 JUMPI PUSH0 PUSH0 REVERT JUMPDEST POP PUSH2 0x228 PUSH2 0x725 CALLDATASIZE PUSH1 0x4 PUSH2 0x200F JUMP JUMPDEST PUSH2 0x1BA2 JUMP JUMPDEST PUSH1 0x60 PUSH1 0x4 DUP1 SLOAD DUP1 PUSH1 0x20 MUL PUSH1 0x20 ADD PUSH1 0x40 MLOAD SWAP1 DUP2 ADD PUSH1 0x40 MSTORE DUP1 SWAP3 SWAP2 SWAP1 DUP2 DUP2 MSTORE PUSH1 0x20 ADD DUP3 DUP1 SLOAD DUP1 ISZERO PUSH2 0x780 JUMPI PUSH1 0x20 MUL DUP3 ADD SWAP2 SWAP1 PUSH0 MSTORE PUSH1 0x20 PUSH0 KECCAK256 SWAP1 JUMPDEST DUP2 SLOAD PUSH1 0x1 PUSH1 0x1 PUSH1 0xA0 SHL SUB AND DUP2 MSTORE PUSH1 0x1 SWAP1 SWAP2 ADD SWAP1 PUSH1 0x20 ADD DUP1 DUP4 GT PUSH2 0x762 JUMPI JUMPDEST POP POP POP POP POP SWAP1 POP SWAP1 JUMP JUMPDEST PUSH2 0x792 PUSH2 0x1C53 JUMP JUMPDEST PUSH0 DUP2 GT PUSH2 0x7DD JUMPI PUSH1 0x40 MLOAD PUSH3 0x461BCD PUSH1 0xE5 SHL DUP2 MSTORE PUSH1 0x20 PUSH1 0x4 DUP3 ADD MSTORE PUSH1 0x14 PUSH1 0x24 DUP3 ADD MSTORE PUSH20 0x125B9D985B1A5908199D5B991A5B99C819DBD85B PUSH1 0x62 SHL PUSH1 0x44 DUP3 ADD MSTORE PUSH1 0x64 ADD JUMPDEST PUSH1 0x40 MLOAD DUP1 SWAP2 SUB SWAP1 REVERT JUMPDEST PUSH1 0x2 DUP1 SLOAD SWAP1 DUP3 SWAP1 SSTORE PUSH1 0x40 DUP1 MLOAD DUP3 DUP2 MSTORE PUSH1 0x20 DUP2 ADD DUP5 SWAP1 MSTORE PUSH32 0x197932DDF4F464ECD1CC0DE6099B902967ACAE1A408C4E4FF35CBDB80E32170D SWAP2 ADD PUSH1 0x40 MLOAD DUP1 SWAP2 SUB SWAP1 LOG1 POP POP JUMP JUMPDEST PUSH2 0x82A PUSH2 0x1C7F JUMP JUMPDEST DUP2 PUSH0 PUSH1 0x1 PUSH1 0x1 PUSH1 0xA0 SHL SUB DUP3 AND PUSH0 SWAP1 DUP2 MSTORE PUSH1 0x5 PUSH1 0x20 MSTORE PUSH1 0x40 SWAP1 KECCAK256 SLOAD PUSH1 0xFF AND PUSH1 0x4 DUP2 GT ISZERO PUSH2 0x858 JUMPI PUSH2 0x858 PUSH2 0x1F73 JUMP JUMPDEST SUB PUSH2 0x875 JUMPI PUSH1 0x40 MLOAD PUSH3 0x461BCD PUSH1 0xE5 SHL DUP2 MSTORE PUSH1 0x4 ADD PUSH2 0x7D4 SWAP1 PUSH2 0x212B JUMP JUMPDEST PUSH1 0x1 PUSH1 0x1 PUSH1 0x1 PUSH1 0xA0 SHL SUB DUP5 AND PUSH0 SWAP1 DUP2 MSTORE PUSH1 0x5 PUSH1 0x20 MSTORE PUSH1 0x40 SWAP1 KECCAK256 SLOAD PUSH1 0xFF AND PUSH1 0x4 DUP2 GT ISZERO PUSH2 0x8A3 JUMPI PUSH2 0x8A3 PUSH2 0x1F73 JUMP JUMPDEST EQ DUP1 PUSH2 0x8DA JUMPI POP PUSH1 0x4 PUSH1 0x1 PUSH1 0x1 PUSH1 0xA0 SHL SUB DUP5 AND PUSH0 SWAP1 DUP2 MSTORE PUSH1 0x5 PUSH1 0x20 MSTORE PUSH1 0x40 SWAP1 KECCAK256 SLOAD PUSH1 0xFF AND PUSH1 0x4 DUP2 GT ISZERO PUSH2 0x8D8 JUMPI PUSH2 0x8D8 PUSH2 0x1F73 JUMP JUMPDEST EQ JUMPDEST PUSH2 0x914 JUMPI PUSH1 0x40 MLOAD PUSH3 0x461BCD PUSH1 0xE5 SHL DUP2 MSTORE PUSH1 0x20 PUSH1 0x4 DUP3 ADD MSTORE PUSH1 0xB PUSH1 0x24 DUP3 ADD MSTORE PUSH11 0x4E6F742074726164696E67 PUSH1 0xA8 SHL PUSH1 0x44 DUP3 ADD MSTORE PUSH1 0x64 ADD PUSH2 0x7D4 JUMP JUMPDEST PUSH0 DUP3 GT PUSH2 0x958 JUMPI PUSH1 0x40 MLOAD PUSH3 0x461BCD PUSH1 0xE5 SHL DUP2 MSTORE PUSH1 0x20 PUSH1 0x4 DUP3 ADD MSTORE PUSH1 0x12 PUSH1 0x24 DUP3 ADD MSTORE PUSH18 0x416D6F756E74206D757374206265203E203 PUSH1 0x74 SHL PUSH1 0x44 DUP3 ADD MSTORE PUSH1 0x64 ADD PUSH2 0x7D4 JUMP JUMPDEST PUSH1 0x40 MLOAD PUSH4 0x70A08231 PUSH1 0xE0 SHL DUP2 MSTORE CALLER PUSH1 0x4 DUP3 ADD MSTORE DUP4 SWAP1 DUP4 SWAP1 PUSH1 0x1 PUSH1 0x1 PUSH1 0xA0 SHL SUB DUP4 AND SWAP1 PUSH4 0x70A08231 SWAP1 PUSH1 0x24 ADD PUSH1 0x20 PUSH1 0x40 MLOAD DUP1 DUP4 SUB DUP2 DUP7 GAS STATICCALL ISZERO DUP1 ISZERO PUSH2 0x99E JUMPI RETURNDATASIZE PUSH0 PUSH0 RETURNDATACOPY RETURNDATASIZE PUSH0 REVERT JUMPDEST POP POP POP POP PUSH1 0x40 MLOAD RETURNDATASIZE PUSH1 0x1F NOT PUSH1 0x1F DUP3 ADD AND DUP3 ADD DUP1 PUSH1 0x40 MSTORE POP DUP2 ADD SWAP1 PUSH2 0x9C2 SWAP2 SWAP1 PUSH2 0x2152 JUMP JUMPDEST LT ISZERO PUSH2 0xA07 JUMPI PUSH1 0x40 MLOAD PUSH3 0x461BCD PUSH1 0xE5 SHL DUP2 MSTORE PUSH1 0x20 PUSH1 0x4 DUP3 ADD MSTORE PUSH1 0x14 PUSH1 0x24 DUP3 ADD MSTORE PUSH20 0x496E73756666696369656E742062616C616E6365 PUSH1 0x60 SHL PUSH1 0x44 DUP3 ADD MSTORE PUSH1 0x64 ADD PUSH2 0x7D4 JUMP JUMPDEST PUSH0 PUSH2 0xA12 DUP6 DUP6 PUSH2 0x1BA2 JUMP JUMPDEST SWAP1 POP PUSH0 PUSH2 0xA1E DUP3 PUSH2 0x130B JUMP JUMPDEST SWAP1 POP PUSH0 PUSH2 0xA2B DUP3 DUP5 PUSH2 0x217D JUMP JUMPDEST PUSH1 0x1 PUSH1 0x1 PUSH1 0xA0 SHL SUB DUP9 AND PUSH0 SWAP1 DUP2 MSTORE PUSH1 0x6 PUSH1 0x20 MSTORE PUSH1 0x40 SWAP1 KECCAK256 SLOAD SWAP1 SWAP2 POP DUP4 GT ISZERO PUSH2 0xA95 JUMPI PUSH1 0x40 MLOAD PUSH3 0x461BCD PUSH1 0xE5 SHL DUP2 MSTORE PUSH1 0x20 PUSH1 0x4 DUP3 ADD MSTORE PUSH1 0x1D PUSH1 0x24 DUP3 ADD MSTORE PUSH32 0x496E73756666696369656E7420746F6B656E20636F6C6C61746572616C000000 PUSH1 0x44 DUP3 ADD MSTORE PUSH1 0x64 ADD PUSH2 0x7D4 JUMP JUMPDEST PUSH1 0x40 MLOAD PUSH4 0x6819CD19 PUSH1 0xE0 SHL DUP2 MSTORE CALLER PUSH1 0x4 DUP3 ADD MSTORE PUSH1 0x24 DUP2 ADD DUP8 SWAP1 MSTORE PUSH1 0x1 PUSH1 0x1 PUSH1 0xA0 SHL SUB DUP6 AND SWAP1 PUSH4 0x6819CD19 SWAP1 PUSH1 0x44 ADD PUSH0 PUSH1 0x40 MLOAD DUP1 DUP4 SUB DUP2 PUSH0 DUP8 DUP1 EXTCODESIZE ISZERO DUP1 ISZERO PUSH2 0xADA JUMPI PUSH0 PUSH0 REVERT JUMPDEST POP GAS CALL ISZERO DUP1 ISZERO PUSH2 0xAEC JUMPI RETURNDATASIZE PUSH0 PUSH0 RETURNDATACOPY RETURNDATASIZE PUSH0 REVERT JUMPDEST POP POP POP POP PUSH1 0x1 PUSH1 0x1 PUSH1 0xA0 SHL SUB DUP8 AND PUSH0 SWAP1 DUP2 MSTORE PUSH1 0xA PUSH1 0x20 MSTORE PUSH1 0x40 DUP2 KECCAK256 DUP1 SLOAD DUP9 SWAP3 SWAP1 PUSH2 0xB17 SWAP1 DUP5 SWAP1 PUSH2 0x217D JUMP JUMPDEST SWAP1 SWAP2 SSTORE POP POP PUSH1 0x1 PUSH1 0x1 PUSH1 0xA0 SHL SUB DUP8 AND PUSH0 SWAP1 DUP2 MSTORE PUSH1 0x6 PUSH1 0x20 MSTORE PUSH1 0x40 DUP2 KECCAK256 DUP1 SLOAD DUP6 SWAP3 SWAP1 PUSH2 0xB43 SWAP1 DUP5 SWAP1 PUSH2 0x217D JUMP JUMPDEST SWAP1 SWAP2 SSTORE POP DUP7 SWAP1 POP PUSH2 0xB74 PUSH32 0x0 DUP6 PUSH2 0x2190 JUMP JUMPDEST PUSH2 0xB7E SWAP2 SWAP1 PUSH2 0x21A7 JUMP JUMPDEST PUSH1 0x1 PUSH1 0x1 PUSH1 0xA0 SHL SUB DUP9 DUP2 AND PUSH0 SWAP1 DUP2 MSTORE PUSH1 0x8 PUSH1 0x20 MSTORE PUSH1 0x40 DUP1 DUP3 KECCAK256 SWAP4 SWAP1 SWAP4 SSTORE PUSH1 0x3 SLOAD SWAP3 MLOAD SWAP1 SWAP3 SWAP1 SWAP2 AND SWAP1 DUP5 SWAP1 DUP4 DUP2 DUP2 DUP2 DUP6 DUP8 GAS CALL SWAP3 POP POP POP RETURNDATASIZE DUP1 PUSH0 DUP2 EQ PUSH2 0xBDE JUMPI PUSH1 0x40 MLOAD SWAP2 POP PUSH1 0x1F NOT PUSH1 0x3F RETURNDATASIZE ADD AND DUP3 ADD PUSH1 0x40 MSTORE RETURNDATASIZE DUP3 MSTORE RETURNDATASIZE PUSH0 PUSH1 0x20 DUP5 ADD RETURNDATACOPY PUSH2 0xBE3 JUMP JUMPDEST PUSH1 0x60 SWAP2 POP JUMPDEST POP POP SWAP1 POP DUP1 PUSH2 0xC2A JUMPI PUSH1 0x40 MLOAD PUSH3 0x461BCD PUSH1 0xE5 SHL DUP2 MSTORE PUSH1 0x20 PUSH1 0x4 DUP3 ADD MSTORE PUSH1 0x13 PUSH1 0x24 DUP3 ADD MSTORE PUSH19 0x119959481D1C985B9CD9995C8819985A5B1959 PUSH1 0x6A SHL PUSH1 0x44 DUP3 ADD MSTORE PUSH1 0x64 ADD PUSH2 0x7D4 JUMP JUMPDEST PUSH1 0x40 MLOAD PUSH0 SWAP1 CALLER SWAP1 DUP5 SWAP1 DUP4 DUP2 DUP2 DUP2 DUP6 DUP8 GAS CALL SWAP3 POP POP POP RETURNDATASIZE DUP1 PUSH0 DUP2 EQ PUSH2 0xC69 JUMPI PUSH1 0x40 MLOAD SWAP2 POP PUSH1 0x1F NOT PUSH1 0x3F RETURNDATASIZE ADD AND DUP3 ADD PUSH1 0x40 MSTORE RETURNDATASIZE DUP3 MSTORE RETURNDATASIZE PUSH0 PUSH1 0x20 DUP5 ADD RETURNDATACOPY PUSH2 0xC6E JUMP JUMPDEST PUSH1 0x60 SWAP2 POP JUMPDEST POP POP SWAP1 POP DUP1 PUSH2 0xCB1 JUMPI PUSH1 0x40 MLOAD PUSH3 0x461BCD PUSH1 0xE5 SHL DUP2 MSTORE PUSH1 0x20 PUSH1 0x4 DUP3 ADD MSTORE PUSH1 0xF PUSH1 0x24 DUP3 ADD MSTORE PUSH15 0x151C985B9CD9995C8819985A5B1959 PUSH1 0x8A SHL PUSH1 0x44 DUP3 ADD MSTORE PUSH1 0x64 ADD PUSH2 0x7D4 JUMP JUMPDEST PUSH1 0x40 DUP1 MLOAD DUP10 DUP2 MSTORE PUSH1 0x20 DUP2 ADD DUP8 SWAP1 MSTORE SWAP1 DUP2 ADD DUP6 SWAP1 MSTORE CALLER SWAP1 PUSH1 0x1 PUSH1 0x1 PUSH1 0xA0 SHL SUB DUP12 AND SWAP1 PUSH32 0xA0FE9740856690637D999C103293D3C823FC3B81443C34C6004BB582AB4B6166 SWAP1 PUSH1 0x60 ADD PUSH1 0x40 MLOAD DUP1 SWAP2 SUB SWAP1 LOG3 POP POP POP POP POP POP POP PUSH2 0xD0F PUSH1 0x1 DUP1 SSTORE JUMP JUMPDEST POP POP JUMP JUMPDEST PUSH2 0xD1B PUSH2 0x1C53 JUMP JUMPDEST PUSH2 0xD24 PUSH0 PUSH2 0x1CA9 JUMP JUMPDEST JUMP JUMPDEST PUSH0 DUP7 ISZERO DUP1 ISZERO SWAP1 PUSH2 0xD37 JUMPI POP PUSH1 0x20 DUP8 GT ISZERO JUMPDEST PUSH2 0xD72 JUMPI PUSH1 0x40 MLOAD PUSH3 0x461BCD PUSH1 0xE5 SHL DUP2 MSTORE PUSH1 0x20 PUSH1 0x4 DUP3 ADD MSTORE PUSH1 0xC PUSH1 0x24 DUP3 ADD MSTORE PUSH12 0x496E76616C6964206E616D65 PUSH1 0xA0 SHL PUSH1 0x44 DUP3 ADD MSTORE PUSH1 0x64 ADD PUSH2 0x7D4 JUMP JUMPDEST DUP5 ISZERO DUP1 ISZERO SWAP1 PUSH2 0xD82 JUMPI POP PUSH1 0x8 DUP6 GT ISZERO JUMPDEST PUSH2 0xDBF JUMPI PUSH1 0x40 MLOAD PUSH3 0x461BCD PUSH1 0xE5 SHL DUP2 MSTORE PUSH1 0x20 PUSH1 0x4 DUP3 ADD MSTORE PUSH1 0xE PUSH1 0x24 DUP3 ADD MSTORE PUSH14 0x125B9D985B1A59081CDE5B589BDB PUSH1 0x92 SHL PUSH1 0x44 DUP3 ADD MSTORE PUSH1 0x64 ADD PUSH2 0x7D4 JUMP JUMPDEST DUP3 PUSH2 0xE00 JUMPI PUSH1 0x40 MLOAD PUSH3 0x461BCD PUSH1 0xE5 SHL DUP2 MSTORE PUSH1 0x20 PUSH1 0x4 DUP3 ADD MSTORE PUSH1 0x11 PUSH1 0x24 DUP3 ADD MSTORE PUSH17 0x125B9D985B1A59081A5B5859D948155493 PUSH1 0x7A SHL PUSH1 0x44 DUP3 ADD MSTORE PUSH1 0x64 ADD PUSH2 0x7D4 JUMP JUMPDEST PUSH0 ADDRESS CALLER DUP11 DUP11 DUP11 DUP11 DUP11 DUP11 DUP11 PUSH1 0x40 MLOAD PUSH2 0xE16 SWAP1 PUSH2 0x1F32 JUMP JUMPDEST PUSH2 0xE28 SWAP10 SWAP9 SWAP8 SWAP7 SWAP6 SWAP5 SWAP4 SWAP3 SWAP2 SWAP1 PUSH2 0x21EE JUMP JUMPDEST PUSH1 0x40 MLOAD DUP1 SWAP2 SUB SWAP1 PUSH0 CREATE DUP1 ISZERO DUP1 ISZERO PUSH2 0xE41 JUMPI RETURNDATASIZE PUSH0 PUSH0 RETURNDATACOPY RETURNDATASIZE PUSH0 REVERT JUMPDEST POP PUSH1 0x1 PUSH1 0x1 PUSH1 0xA0 SHL SUB DUP2 AND PUSH0 DUP2 DUP2 MSTORE PUSH1 0x5 PUSH1 0x20 SWAP1 DUP2 MSTORE PUSH1 0x40 DUP1 DUP4 KECCAK256 DUP1 SLOAD PUSH1 0x1 PUSH1 0xFF NOT SWAP1 SWAP2 AND DUP2 OR SWAP1 SWAP2 SSTORE PUSH1 0x4 DUP1 SLOAD SWAP2 DUP3 ADD SWAP1 SSTORE PUSH32 0x8A35ACFBC15FF81A39AE7D344FD709F28E8600B4AA8C65C6B64BFE7FE36BD19B ADD DUP1 SLOAD PUSH1 0x1 PUSH1 0x1 PUSH1 0xA0 SHL SUB NOT SWAP1 DUP2 AND DUP7 OR SWAP1 SWAP2 SSTORE PUSH1 0x7 DUP4 MSTORE DUP2 DUP5 KECCAK256 DUP1 SLOAD CALLER SWAP3 AND DUP3 OR SWAP1 SSTORE PUSH1 0x8 DUP4 MSTORE DUP2 DUP5 KECCAK256 PUSH32 0x0 SWAP1 SSTORE PUSH1 0x2 DUP1 SLOAD PUSH1 0x9 DUP6 MSTORE DUP4 DUP7 KECCAK256 SSTORE PUSH1 0xA SWAP1 SWAP4 MSTORE SWAP3 DUP2 SWAP1 KECCAK256 PUSH32 0x0 SWAP1 SSTORE SWAP1 SLOAD SWAP1 MLOAD SWAP4 SWAP5 POP DUP5 SWAP4 PUSH32 0xE8CC4B226B8752D338D6E23E7E14F71E6DD2480FAF8BFAE44848D7FC596E3BF SWAP3 PUSH2 0xF5F SWAP3 DUP16 SWAP3 DUP16 SWAP3 DUP16 SWAP3 DUP16 SWAP3 DUP16 SWAP3 DUP16 SWAP3 SWAP1 SWAP2 DUP16 SWAP1 PUSH2 0x2261 JUMP JUMPDEST PUSH1 0x40 MLOAD DUP1 SWAP2 SUB SWAP1 LOG2 SWAP10 SWAP9 POP POP POP POP POP POP POP POP POP JUMP JUMPDEST PUSH2 0xF7C PUSH2 0x1C53 JUMP JUMPDEST SELFBALANCE DUP1 PUSH2 0xFC3 JUMPI PUSH1 0x40 MLOAD PUSH3 0x461BCD PUSH1 0xE5 SHL DUP2 MSTORE PUSH1 0x20 PUSH1 0x4 DUP3 ADD MSTORE PUSH1 0x16 PUSH1 0x24 DUP3 ADD MSTORE PUSH22 0x4E6F2062616C616E636520746F207769746864726177 PUSH1 0x50 SHL PUSH1 0x44 DUP3 ADD MSTORE PUSH1 0x64 ADD PUSH2 0x7D4 JUMP JUMPDEST PUSH1 0x40 MLOAD PUSH0 SWAP1 CALLER SWAP1 DUP4 SWAP1 DUP4 DUP2 DUP2 DUP2 DUP6 DUP8 GAS CALL SWAP3 POP POP POP RETURNDATASIZE DUP1 PUSH0 DUP2 EQ PUSH2 0x1002 JUMPI PUSH1 0x40 MLOAD SWAP2 POP PUSH1 0x1F NOT PUSH1 0x3F RETURNDATASIZE ADD AND DUP3 ADD PUSH1 0x40 MSTORE RETURNDATASIZE DUP3 MSTORE RETURNDATASIZE PUSH0 PUSH1 0x20 DUP5 ADD RETURNDATACOPY PUSH2 0x1007 JUMP JUMPDEST PUSH1 0x60 SWAP2 POP JUMPDEST POP POP SWAP1 POP DUP1 PUSH2 0x104C JUMPI PUSH1 0x40 MLOAD PUSH3 0x461BCD PUSH1 0xE5 SHL DUP2 MSTORE PUSH1 0x20 PUSH1 0x4 DUP3 ADD MSTORE PUSH1 0x11 PUSH1 0x24 DUP3 ADD MSTORE PUSH17 0x15DA5D1A191C985DD85B0819985A5B1959 PUSH1 0x7A SHL PUSH1 0x44 DUP3 ADD MSTORE PUSH1 0x64 ADD PUSH2 0x7D4 JUMP JUMPDEST PUSH1 0x40 MLOAD DUP3 DUP2 MSTORE CALLER SWAP1 PUSH32 0x23D6711A1D031134A36921253C75AA59E967D38E369AC625992824315E204F20 SWAP1 PUSH1 0x20 ADD PUSH1 0x40 MLOAD DUP1 SWAP2 SUB SWAP1 LOG2 POP POP JUMP JUMPDEST PUSH2 0x108D PUSH2 0x1C53 JUMP JUMPDEST DUP2 PUSH0 PUSH1 0x1 PUSH1 0x1 PUSH1 0xA0 SHL SUB DUP3 AND PUSH0 SWAP1 DUP2 MSTORE PUSH1 0x5 PUSH1 0x20 MSTORE PUSH1 0x40 SWAP1 KECCAK256 SLOAD PUSH1 0xFF AND PUSH1 0x4 DUP2 GT ISZERO PUSH2 0x10BB JUMPI PUSH2 0x10BB PUSH2 0x1F73 JUMP JUMPDEST SUB PUSH2 0x10D8 JUMPI PUSH1 0x40 MLOAD PUSH3 0x461BCD PUSH1 0xE5 SHL DUP2 MSTORE PUSH1 0x4 ADD PUSH2 0x7D4 SWAP1 PUSH2 0x212B JUMP JUMPDEST PUSH0 DUP3 GT PUSH2 0x111E JUMPI PUSH1 0x40 MLOAD PUSH3 0x461BCD PUSH1 0xE5 SHL DUP2 MSTORE PUSH1 0x20 PUSH1 0x4 DUP3 ADD MSTORE PUSH1 0x14 PUSH1 0x24 DUP3 ADD MSTORE PUSH20 0x125B9D985B1A5908199D5B991A5B99C819DBD85B PUSH1 0x62 SHL PUSH1 0x44 DUP3 ADD MSTORE PUSH1 0x64 ADD PUSH2 0x7D4 JUMP JUMPDEST PUSH1 0x1 PUSH1 0x1 PUSH1 0x1 PUSH1 0xA0 SHL SUB DUP5 AND PUSH0 SWAP1 DUP2 MSTORE PUSH1 0x5 PUSH1 0x20 MSTORE PUSH1 0x40 SWAP1 KECCAK256 SLOAD PUSH1 0xFF AND PUSH1 0x4 DUP2 GT ISZERO PUSH2 0x114C JUMPI PUSH2 0x114C PUSH2 0x1F73 JUMP JUMPDEST EQ DUP1 PUSH2 0x1183 JUMPI POP PUSH1 0x4 PUSH1 0x1 PUSH1 0x1 PUSH1 0xA0 SHL SUB DUP5 AND PUSH0 SWAP1 DUP2 MSTORE PUSH1 0x5 PUSH1 0x20 MSTORE PUSH1 0x40 SWAP1 KECCAK256 SLOAD PUSH1 0xFF AND PUSH1 0x4 DUP2 GT ISZERO PUSH2 0x1181 JUMPI PUSH2 0x1181 PUSH2 0x1F73 JUMP JUMPDEST EQ JUMPDEST PUSH2 0x11CF JUMPI PUSH1 0x40 MLOAD PUSH3 0x461BCD PUSH1 0xE5 SHL DUP2 MSTORE PUSH1 0x20 PUSH1 0x4 DUP3 ADD MSTORE PUSH1 0x18 PUSH1 0x24 DUP3 ADD MSTORE PUSH32 0x546F6B656E206E6F7420696E2076616C69642073746174650000000000000000 PUSH1 0x44 DUP3 ADD MSTORE PUSH1 0x64 ADD PUSH2 0x7D4 JUMP JUMPDEST PUSH1 0x1 PUSH1 0x1 PUSH1 0xA0 SHL SUB DUP4 AND PUSH0 SWAP1 DUP2 MSTORE PUSH1 0x9 PUSH1 0x20 SWAP1 DUP2 MSTORE PUSH1 0x40 DUP1 DUP4 KECCAK256 SLOAD PUSH1 0x6 SWAP1 SWAP3 MSTORE SWAP1 SWAP2 KECCAK256 SLOAD LT PUSH2 0x1237 JUMPI PUSH1 0x40 MLOAD PUSH3 0x461BCD PUSH1 0xE5 SHL DUP2 MSTORE PUSH1 0x20 PUSH1 0x4 DUP3 ADD MSTORE PUSH1 0x14 PUSH1 0x24 DUP3 ADD MSTORE PUSH20 0x11DBD85B08185B1C9958591E481C995858DA1959 PUSH1 0x62 SHL PUSH1 0x44 DUP3 ADD MSTORE PUSH1 0x64 ADD PUSH2 0x7D4 JUMP JUMPDEST PUSH1 0x1 PUSH1 0x1 PUSH1 0xA0 SHL SUB DUP4 AND PUSH0 DUP2 DUP2 MSTORE PUSH1 0x9 PUSH1 0x20 SWAP1 DUP2 MSTORE PUSH1 0x40 SWAP2 DUP3 SWAP1 KECCAK256 DUP1 SLOAD SWAP1 DUP7 SWAP1 SSTORE DUP3 MLOAD DUP2 DUP2 MSTORE SWAP2 DUP3 ADD DUP7 SWAP1 MSTORE SWAP3 SWAP2 PUSH32 0xAC213D8317A98761D5BEB43177FA39F5DBF9F93D273788AA26DE83FF47A31A00 SWAP2 ADD PUSH1 0x40 MLOAD DUP1 SWAP2 SUB SWAP1 LOG2 PUSH1 0x1 PUSH1 0x1 PUSH1 0xA0 SHL SUB DUP5 AND PUSH0 SWAP1 DUP2 MSTORE PUSH1 0x6 PUSH1 0x20 MSTORE PUSH1 0x40 SWAP1 KECCAK256 SLOAD DUP4 GT PUSH2 0x1305 JUMPI PUSH1 0x1 PUSH1 0x1 PUSH1 0xA0 SHL SUB DUP5 AND PUSH0 DUP2 DUP2 MSTORE PUSH1 0x5 PUSH1 0x20 SWAP1 DUP2 MSTORE PUSH1 0x40 SWAP2 DUP3 SWAP1 KECCAK256 DUP1 SLOAD PUSH1 0xFF NOT AND PUSH1 0x2 OR SWAP1 SSTORE SWAP1 MLOAD DUP6 DUP2 MSTORE PUSH32 0xB88B7874F043C64F2F74FF66DF3CA7559F7253821A4F862A4A7AF74E9C147170 SWAP2 ADD PUSH1 0x40 MLOAD DUP1 SWAP2 SUB SWAP1 LOG2 JUMPDEST POP POP POP POP JUMP JUMPDEST PUSH0 PUSH2 0x2710 PUSH2 0x131A PUSH1 0x1E DUP5 PUSH2 0x2190 JUMP JUMPDEST PUSH2 0x1324 SWAP2 SWAP1 PUSH2 0x21A7 JUMP JUMPDEST SWAP3 SWAP2 POP POP JUMP JUMPDEST PUSH1 0x1 PUSH1 0x1 PUSH1 0xA0 SHL SUB DUP3 AND PUSH0 SWAP1 DUP2 MSTORE PUSH1 0xA PUSH1 0x20 MSTORE PUSH1 0x40 DUP2 KECCAK256 SLOAD DUP2 SWAP1 PUSH2 0x136F SWAP1 PUSH32 0x0 SWAP1 PUSH2 0x217D JUMP JUMPDEST SWAP1 POP PUSH0 PUSH2 0x137C DUP5 DUP4 PUSH2 0x22CB JUMP JUMPDEST SWAP1 POP PUSH2 0x1388 DUP3 DUP3 PUSH2 0x1CF8 JUMP JUMPDEST SWAP6 SWAP5 POP POP POP POP POP JUMP JUMPDEST PUSH0 PUSH2 0x139C DUP4 DUP4 PUSH2 0x1E68 JUMP JUMPDEST SWAP4 SWAP3 POP POP POP JUMP JUMPDEST PUSH1 0x1 PUSH1 0x1 PUSH1 0xA0 SHL SUB DUP2 DUP2 AND PUSH0 SWAP1 DUP2 MSTORE PUSH1 0x7 PUSH1 0x20 MSTORE PUSH1 0x40 SWAP1 KECCAK256 SLOAD AND CALLER EQ PUSH2 0x13FF JUMPI PUSH1 0x40 MLOAD PUSH3 0x461BCD PUSH1 0xE5 SHL DUP2 MSTORE PUSH1 0x20 PUSH1 0x4 DUP3 ADD MSTORE PUSH1 0x11 PUSH1 0x24 DUP3 ADD MSTORE PUSH17 0x2737BA103A37B5B2B71031B932B0BA37B9 PUSH1 0x79 SHL PUSH1 0x44 DUP3 ADD MSTORE PUSH1 0x64 ADD PUSH2 0x7D4 JUMP JUMPDEST PUSH1 0x2 PUSH1 0x1 PUSH1 0x1 PUSH1 0xA0 SHL SUB DUP3 AND PUSH0 SWAP1 DUP2 MSTORE PUSH1 0x5 PUSH1 0x20 MSTORE PUSH1 0x40 SWAP1 KECCAK256 SLOAD PUSH1 0xFF AND PUSH1 0x4 DUP2 GT ISZERO PUSH2 0x142D JUMPI PUSH2 0x142D PUSH2 0x1F73 JUMP JUMPDEST EQ PUSH2 0x1470 JUMPI PUSH1 0x40 MLOAD PUSH3 0x461BCD PUSH1 0xE5 SHL DUP2 MSTORE PUSH1 0x20 PUSH1 0x4 DUP3 ADD MSTORE PUSH1 0x13 PUSH1 0x24 DUP3 ADD MSTORE PUSH19 0x4E6F7420726561647920746F20726573756D65 PUSH1 0x68 SHL PUSH1 0x44 DUP3 ADD MSTORE PUSH1 0x64 ADD PUSH2 0x7D4 JUMP JUMPDEST PUSH1 0x1 PUSH1 0x1 PUSH1 0xA0 SHL SUB DUP2 AND PUSH0 DUP2 DUP2 MSTORE PUSH1 0x5 PUSH1 0x20 MSTORE PUSH1 0x40 DUP1 DUP3 KECCAK256 DUP1 SLOAD PUSH1 0xFF NOT AND PUSH1 0x4 OR SWAP1 SSTORE MLOAD PUSH32 0xD0E147A2C5AE727118C4A9359445A77D77D81945CCC12A8FEEC087160DAE00A5 SWAP2 SWAP1 LOG2 POP JUMP JUMPDEST PUSH2 0x14C3 PUSH2 0x1C53 JUMP JUMPDEST PUSH1 0x1 PUSH1 0x1 PUSH1 0xA0 SHL SUB DUP2 AND PUSH2 0x150B JUMPI PUSH1 0x40 MLOAD PUSH3 0x461BCD PUSH1 0xE5 SHL DUP2 MSTORE PUSH1 0x20 PUSH1 0x4 DUP3 ADD MSTORE PUSH1 0xF PUSH1 0x24 DUP3 ADD MSTORE PUSH15 0x496E76616C69642061646472657373 PUSH1 0x88 SHL PUSH1 0x44 DUP3 ADD MSTORE PUSH1 0x64 ADD PUSH2 0x7D4 JUMP JUMPDEST PUSH1 0x3 DUP1 SLOAD PUSH1 0x1 PUSH1 0x1 PUSH1 0xA0 SHL SUB DUP4 DUP2 AND PUSH1 0x1 PUSH1 0x1 PUSH1 0xA0 SHL SUB NOT DUP4 AND DUP2 OR SWAP1 SWAP4 SSTORE PUSH1 0x40 MLOAD SWAP2 AND SWAP2 SWAP1 DUP3 SWAP1 PUSH32 0xAAEBCF1BFA00580E41D966056B48521FA9F202645C86D4DDF28113E617C1B1D3 SWAP1 PUSH0 SWAP1 LOG3 POP POP JUMP JUMPDEST PUSH2 0x1564 PUSH2 0x1C7F JUMP JUMPDEST DUP1 PUSH0 PUSH1 0x1 PUSH1 0x1 PUSH1 0xA0 SHL SUB DUP3 AND PUSH0 SWAP1 DUP2 MSTORE PUSH1 0x5 PUSH1 0x20 MSTORE PUSH1 0x40 SWAP1 KECCAK256 SLOAD PUSH1 0xFF AND PUSH1 0x4 DUP2 GT ISZERO PUSH2 0x1592 JUMPI PUSH2 0x1592 PUSH2 0x1F73 JUMP JUMPDEST SUB PUSH2 0x15AF JUMPI PUSH1 0x40 MLOAD PUSH3 0x461BCD PUSH1 0xE5 SHL DUP2 MSTORE PUSH1 0x4 ADD PUSH2 0x7D4 SWAP1 PUSH2 0x212B JUMP JUMPDEST PUSH1 0x1 PUSH1 0x1 PUSH1 0x1 PUSH1 0xA0 SHL SUB DUP4 AND PUSH0 SWAP1 DUP2 MSTORE PUSH1 0x5 PUSH1 0x20 MSTORE PUSH1 0x40 SWAP1 KECCAK256 SLOAD PUSH1 0xFF AND PUSH1 0x4 DUP2 GT ISZERO PUSH2 0x15DD JUMPI PUSH2 0x15DD PUSH2 0x1F73 JUMP JUMPDEST EQ DUP1 PUSH2 0x1614 JUMPI POP PUSH1 0x4 PUSH1 0x1 PUSH1 0x1 PUSH1 0xA0 SHL SUB DUP4 AND PUSH0 SWAP1 DUP2 MSTORE PUSH1 0x5 PUSH1 0x20 MSTORE PUSH1 0x40 SWAP1 KECCAK256 SLOAD PUSH1 0xFF AND PUSH1 0x4 DUP2 GT ISZERO PUSH2 0x1612 JUMPI PUSH2 0x1612 PUSH2 0x1F73 JUMP JUMPDEST EQ JUMPDEST PUSH2 0x164E JUMPI PUSH1 0x40 MLOAD PUSH3 0x461BCD PUSH1 0xE5 SHL DUP2 MSTORE PUSH1 0x20 PUSH1 0x4 DUP3 ADD MSTORE PUSH1 0xB PUSH1 0x24 DUP3 ADD MSTORE PUSH11 0x4E6F742074726164696E67 PUSH1 0xA8 SHL PUSH1 0x44 DUP3 ADD MSTORE PUSH1 0x64 ADD PUSH2 0x7D4 JUMP JUMPDEST PUSH32 0x0 CALLVALUE LT ISZERO DUP1 ISZERO PUSH2 0x169E JUMPI POP PUSH32 0x0 CALLVALUE GT ISZERO JUMPDEST PUSH2 0x16DB JUMPI PUSH1 0x40 MLOAD PUSH3 0x461BCD PUSH1 0xE5 SHL DUP2 MSTORE PUSH1 0x20 PUSH1 0x4 DUP3 ADD MSTORE PUSH1 0xE PUSH1 0x24 DUP3 ADD MSTORE PUSH14 0x125B9D985B1A5908185B5BDD5B9D PUSH1 0x92 SHL PUSH1 0x44 DUP3 ADD MSTORE PUSH1 0x64 ADD PUSH2 0x7D4 JUMP JUMPDEST PUSH0 PUSH2 0x16E5 CALLVALUE PUSH2 0x130B JUMP JUMPDEST SWAP1 POP PUSH0 PUSH2 0x16F2 DUP3 CALLVALUE PUSH2 0x217D JUMP JUMPDEST SWAP1 POP PUSH0 PUSH2 0x16FF DUP6 DUP4 PUSH2 0x1391 JUMP JUMPDEST SWAP1 POP PUSH0 DUP2 GT PUSH2 0x175C JUMPI PUSH1 0x40 MLOAD PUSH3 0x461BCD PUSH1 0xE5 SHL DUP2 MSTORE PUSH1 0x20 PUSH1 0x4 DUP3 ADD MSTORE PUSH1 0x24 DUP1 DUP3 ADD MSTORE PUSH32 0x45544820616D6F756E7420746F6F206C6F7720746F2062757920616E7920746F PUSH1 0x44 DUP3 ADD MSTORE PUSH4 0x6B656E73 PUSH1 0xE0 SHL PUSH1 0x64 DUP3 ADD MSTORE PUSH1 0x84 ADD PUSH2 0x7D4 JUMP JUMPDEST PUSH1 0x1 PUSH1 0x1 PUSH1 0xA0 SHL SUB DUP6 AND PUSH0 SWAP1 DUP2 MSTORE PUSH1 0xA PUSH1 0x20 MSTORE PUSH1 0x40 SWAP1 KECCAK256 SLOAD DUP6 SWAP1 PUSH32 0x0 SWAP1 PUSH2 0x17A3 SWAP1 DUP5 SWAP1 PUSH2 0x22CB JUMP JUMPDEST GT ISZERO PUSH2 0x17DE JUMPI PUSH1 0x40 MLOAD PUSH3 0x461BCD PUSH1 0xE5 SHL DUP2 MSTORE PUSH1 0x20 PUSH1 0x4 DUP3 ADD MSTORE PUSH1 0xA PUSH1 0x24 DUP3 ADD MSTORE PUSH10 0x4D617820737570706C79 PUSH1 0xB0 SHL PUSH1 0x44 DUP3 ADD MSTORE PUSH1 0x64 ADD PUSH2 0x7D4 JUMP JUMPDEST PUSH1 0x40 MLOAD PUSH4 0x70A08231 PUSH1 0xE0 SHL DUP2 MSTORE CALLER PUSH1 0x4 DUP3 ADD MSTORE PUSH0 SWAP1 DUP4 SWAP1 PUSH1 0x1 PUSH1 0x1 PUSH1 0xA0 SHL SUB DUP5 AND SWAP1 PUSH4 0x70A08231 SWAP1 PUSH1 0x24 ADD PUSH1 0x20 PUSH1 0x40 MLOAD DUP1 DUP4 SUB DUP2 DUP7 GAS STATICCALL ISZERO DUP1 ISZERO PUSH2 0x1824 JUMPI RETURNDATASIZE PUSH0 PUSH0 RETURNDATACOPY RETURNDATASIZE PUSH0 REVERT JUMPDEST POP POP POP POP PUSH1 0x40 MLOAD RETURNDATASIZE PUSH1 0x1F NOT PUSH1 0x1F DUP3 ADD AND DUP3 ADD DUP1 PUSH1 0x40 MSTORE POP DUP2 ADD SWAP1 PUSH2 0x1848 SWAP2 SWAP1 PUSH2 0x2152 JUMP JUMPDEST PUSH2 0x1852 SWAP2 SWAP1 PUSH2 0x22CB JUMP JUMPDEST SWAP1 POP PUSH1 0x64 PUSH2 0x18A0 PUSH32 0x0 PUSH32 0x0 PUSH2 0x2190 JUMP JUMPDEST PUSH2 0x18AA SWAP2 SWAP1 PUSH2 0x21A7 JUMP JUMPDEST DUP2 GT ISZERO PUSH2 0x18EE JUMPI PUSH1 0x40 MLOAD PUSH3 0x461BCD PUSH1 0xE5 SHL DUP2 MSTORE PUSH1 0x20 PUSH1 0x4 DUP3 ADD MSTORE PUSH1 0x12 PUSH1 0x24 DUP3 ADD MSTORE PUSH18 0x115E18D959591CC81B585E081DD85B1B195D PUSH1 0x72 SHL PUSH1 0x44 DUP3 ADD MSTORE PUSH1 0x64 ADD PUSH2 0x7D4 JUMP JUMPDEST PUSH1 0x3 SLOAD PUSH1 0x40 MLOAD PUSH0 SWAP2 PUSH1 0x1 PUSH1 0x1 PUSH1 0xA0 SHL SUB AND SWAP1 DUP8 SWAP1 DUP4 DUP2 DUP2 DUP2 DUP6 DUP8 GAS CALL SWAP3 POP POP POP RETURNDATASIZE DUP1 PUSH0 DUP2 EQ PUSH2 0x1938 JUMPI PUSH1 0x40 MLOAD SWAP2 POP PUSH1 0x1F NOT PUSH1 0x3F RETURNDATASIZE ADD AND DUP3 ADD PUSH1 0x40 MSTORE RETURNDATASIZE DUP3 MSTORE RETURNDATASIZE PUSH0 PUSH1 0x20 DUP5 ADD RETURNDATACOPY PUSH2 0x193D JUMP JUMPDEST PUSH1 0x60 SWAP2 POP JUMPDEST POP POP SWAP1 POP DUP1 PUSH2 0x1984 JUMPI PUSH1 0x40 MLOAD PUSH3 0x461BCD PUSH1 0xE5 SHL DUP2 MSTORE PUSH1 0x20 PUSH1 0x4 DUP3 ADD MSTORE PUSH1 0x13 PUSH1 0x24 DUP3 ADD MSTORE PUSH19 0x119959481D1C985B9CD9995C8819985A5B1959 PUSH1 0x6A SHL PUSH1 0x44 DUP3 ADD MSTORE PUSH1 0x64 ADD PUSH2 0x7D4 JUMP JUMPDEST PUSH1 0x1 PUSH1 0x1 PUSH1 0xA0 SHL SUB DUP9 AND PUSH0 SWAP1 DUP2 MSTORE PUSH1 0xA PUSH1 0x20 MSTORE PUSH1 0x40 DUP2 KECCAK256 DUP1 SLOAD DUP7 SWAP3 SWAP1 PUSH2 0x19AB SWAP1 DUP5 SWAP1 PUSH2 0x22CB JUMP JUMPDEST SWAP1 SWAP2 SSTORE POP POP PUSH1 0x40 MLOAD PUSH4 0x40C10F19 PUSH1 0xE0 SHL DUP2 MSTORE CALLER PUSH1 0x4 DUP3 ADD MSTORE PUSH1 0x24 DUP2 ADD DUP6 SWAP1 MSTORE PUSH1 0x1 PUSH1 0x1 PUSH1 0xA0 SHL SUB DUP5 AND SWAP1 PUSH4 0x40C10F19 SWAP1 PUSH1 0x44 ADD PUSH0 PUSH1 0x40 MLOAD DUP1 DUP4 SUB DUP2 PUSH0 DUP8 DUP1 EXTCODESIZE ISZERO DUP1 ISZERO PUSH2 0x19F5 JUMPI PUSH0 PUSH0 REVERT JUMPDEST POP GAS CALL ISZERO DUP1 ISZERO PUSH2 0x1A07 JUMPI RETURNDATASIZE PUSH0 PUSH0 RETURNDATACOPY RETURNDATASIZE PUSH0 REVERT JUMPDEST POP POP POP POP PUSH1 0x1 PUSH1 0x1 PUSH1 0xA0 SHL SUB DUP9 AND PUSH0 SWAP1 DUP2 MSTORE PUSH1 0x6 PUSH1 0x20 MSTORE PUSH1 0x40 DUP2 KECCAK256 DUP1 SLOAD DUP8 SWAP3 SWAP1 PUSH2 0x1A32 SWAP1 DUP5 SWAP1 PUSH2 0x22CB JUMP JUMPDEST SWAP1 SWAP2 SSTORE POP DUP5 SWAP1 POP PUSH2 0x1A63 PUSH32 0x0 DUP8 PUSH2 0x2190 JUMP JUMPDEST PUSH2 0x1A6D SWAP2 SWAP1 PUSH2 0x21A7 JUMP JUMPDEST PUSH1 0x1 PUSH1 0x1 PUSH1 0xA0 SHL SUB DUP10 AND PUSH0 DUP2 DUP2 MSTORE PUSH1 0x8 PUSH1 0x20 SWAP1 DUP2 MSTORE PUSH1 0x40 SWAP2 DUP3 SWAP1 KECCAK256 SWAP4 SWAP1 SWAP4 SSTORE DUP1 MLOAD DUP8 DUP2 MSTORE CALLVALUE SWAP4 DUP2 ADD SWAP4 SWAP1 SWAP4 MSTORE DUP3 ADD DUP9 SWAP1 MSTORE CALLER SWAP2 PUSH32 0x377AADEDB6B2A771959584D10A6A36ECCB5F56B4EB3A48525F76108D2660D8D4 SWAP1 PUSH1 0x60 ADD PUSH1 0x40 MLOAD DUP1 SWAP2 SUB SWAP1 LOG3 PUSH1 0x1 PUSH1 0x1 PUSH1 0xA0 SHL SUB DUP9 AND PUSH0 SWAP1 DUP2 MSTORE PUSH1 0x9 PUSH1 0x20 SWAP1 DUP2 MSTORE PUSH1 0x40 DUP1 DUP4 KECCAK256 SLOAD PUSH1 0x6 SWAP1 SWAP3 MSTORE SWAP1 SWAP2 KECCAK256 SLOAD LT PUSH2 0x1B55 JUMPI PUSH1 0x1 PUSH1 0x1 PUSH1 0xA0 SHL SUB DUP9 AND PUSH0 DUP2 DUP2 MSTORE PUSH1 0x5 PUSH1 0x20 SWAP1 DUP2 MSTORE PUSH1 0x40 DUP1 DUP4 KECCAK256 DUP1 SLOAD PUSH1 0xFF NOT AND PUSH1 0x2 OR SWAP1 SSTORE PUSH1 0x9 DUP3 MSTORE SWAP2 DUP3 SWAP1 KECCAK256 SLOAD SWAP2 MLOAD SWAP2 DUP3 MSTORE PUSH32 0xB88B7874F043C64F2F74FF66DF3CA7559F7253821A4F862A4A7AF74E9C147170 SWAP2 ADD PUSH1 0x40 MLOAD DUP1 SWAP2 SUB SWAP1 LOG2 JUMPDEST POP POP POP POP POP POP POP PUSH2 0x1B65 PUSH1 0x1 DUP1 SSTORE JUMP JUMPDEST POP JUMP JUMPDEST PUSH2 0x1B70 PUSH2 0x1C53 JUMP JUMPDEST PUSH1 0x1 PUSH1 0x1 PUSH1 0xA0 SHL SUB DUP2 AND PUSH2 0x1B99 JUMPI PUSH1 0x40 MLOAD PUSH4 0x1E4FBDF7 PUSH1 0xE0 SHL DUP2 MSTORE PUSH0 PUSH1 0x4 DUP3 ADD MSTORE PUSH1 0x24 ADD PUSH2 0x7D4 JUMP JUMPDEST PUSH2 0x1B65 DUP2 PUSH2 0x1CA9 JUMP JUMPDEST PUSH1 0x1 PUSH1 0x1 PUSH1 0xA0 SHL SUB DUP3 AND PUSH0 SWAP1 DUP2 MSTORE PUSH1 0xA PUSH1 0x20 MSTORE PUSH1 0x40 DUP2 KECCAK256 SLOAD DUP2 SWAP1 PUSH2 0x1BE7 SWAP1 PUSH32 0x0 SWAP1 PUSH2 0x217D JUMP JUMPDEST SWAP1 POP DUP3 DUP2 LT ISZERO PUSH2 0x1C48 JUMPI PUSH1 0x40 MLOAD PUSH3 0x461BCD PUSH1 0xE5 SHL DUP2 MSTORE PUSH1 0x20 PUSH1 0x4 DUP3 ADD MSTORE PUSH1 0x26 PUSH1 0x24 DUP3 ADD MSTORE PUSH32 0x43616E6E6F742073656C6C206D6F7265207468616E2065666665637469766520 PUSH1 0x44 DUP3 ADD MSTORE PUSH6 0x737570706C79 PUSH1 0xD0 SHL PUSH1 0x64 DUP3 ADD MSTORE PUSH1 0x84 ADD PUSH2 0x7D4 JUMP JUMPDEST PUSH0 PUSH2 0x137C DUP5 DUP4 PUSH2 0x217D JUMP JUMPDEST PUSH0 SLOAD PUSH1 0x1 PUSH1 0x1 PUSH1 0xA0 SHL SUB AND CALLER EQ PUSH2 0xD24 JUMPI PUSH1 0x40 MLOAD PUSH4 0x118CDAA7 PUSH1 0xE0 SHL DUP2 MSTORE CALLER PUSH1 0x4 DUP3 ADD MSTORE PUSH1 0x24 ADD PUSH2 0x7D4 JUMP JUMPDEST PUSH1 0x2 PUSH1 0x1 SLOAD SUB PUSH2 0x1CA2 JUMPI PUSH1 0x40 MLOAD PUSH4 0x3EE5AEB5 PUSH1 0xE0 SHL DUP2 MSTORE PUSH1 0x4 ADD PUSH1 0x40 MLOAD DUP1 SWAP2 SUB SWAP1 REVERT JUMPDEST PUSH1 0x2 PUSH1 0x1 SSTORE JUMP JUMPDEST PUSH0 DUP1 SLOAD PUSH1 0x1 PUSH1 0x1 PUSH1 0xA0 SHL SUB DUP4 DUP2 AND PUSH1 0x1 PUSH1 0x1 PUSH1 0xA0 SHL SUB NOT DUP4 AND DUP2 OR DUP5 SSTORE PUSH1 0x40 MLOAD SWAP2 SWAP1 SWAP3 AND SWAP3 DUP4 SWAP2 PUSH32 0x8BE0079C531659141344CD1FD0A4F28419497F9722A3DAAFE3B4186F6B6457E0 SWAP2 SWAP1 LOG3 POP POP JUMP JUMPDEST PUSH0 DUP1 PUSH2 0x1D44 PUSH32 0x0 PUSH32 0x0 PUSH2 0x217D JUMP JUMPDEST SWAP1 POP PUSH0 DUP2 GT PUSH2 0x1D95 JUMPI PUSH1 0x40 MLOAD PUSH3 0x461BCD PUSH1 0xE5 SHL DUP2 MSTORE PUSH1 0x20 PUSH1 0x4 DUP3 ADD MSTORE PUSH1 0x1B PUSH1 0x24 DUP3 ADD MSTORE PUSH32 0x537570706C792072616E67652063616E6E6F74206265207A65726F0000000000 PUSH1 0x44 DUP3 ADD MSTORE PUSH1 0x64 ADD PUSH2 0x7D4 JUMP JUMPDEST PUSH0 DUP5 DUP5 GT ISZERO PUSH2 0x1DAF JUMPI PUSH2 0x1DA8 DUP6 DUP6 PUSH2 0x217D JUMP JUMPDEST SWAP1 POP PUSH2 0x1DBC JUMP JUMPDEST PUSH2 0x1DB9 DUP5 DUP7 PUSH2 0x217D JUMP JUMPDEST SWAP1 POP JUMPDEST PUSH0 PUSH2 0x1DC7 DUP7 DUP7 PUSH2 0x22CB JUMP JUMPDEST SWAP1 POP PUSH0 PUSH2 0x1DF4 DUP3 PUSH32 0x0 PUSH2 0x2190 JUMP JUMPDEST SWAP1 POP PUSH0 DUP2 PUSH2 0x1E03 DUP7 PUSH1 0x2 PUSH2 0x2190 JUMP JUMPDEST PUSH2 0x1E0D SWAP2 SWAP1 PUSH2 0x22CB JUMP JUMPDEST PUSH2 0x1E37 DUP6 PUSH32 0x0 PUSH2 0x2190 JUMP JUMPDEST PUSH2 0x1E41 SWAP2 SWAP1 PUSH2 0x2190 JUMP JUMPDEST SWAP1 POP PUSH0 PUSH2 0x1E4F DUP7 PUSH1 0x2 PUSH2 0x2190 JUMP JUMPDEST SWAP1 POP PUSH2 0x1E5B DUP2 DUP4 PUSH2 0x21A7 JUMP JUMPDEST SWAP10 SWAP9 POP POP POP POP POP POP POP POP POP JUMP JUMPDEST PUSH1 0x1 PUSH1 0x1 PUSH1 0xA0 SHL SUB DUP3 AND PUSH0 SWAP1 DUP2 MSTORE PUSH1 0xA PUSH1 0x20 MSTORE PUSH1 0x40 DUP2 KECCAK256 SLOAD DUP2 SWAP1 DUP2 SWAP1 PUSH2 0x1EAE SWAP1 PUSH32 0x0 PUSH2 0x217D JUMP JUMPDEST SWAP1 POP PUSH0 JUMPDEST PUSH1 0x64 DUP2 LT ISZERO PUSH2 0x1F28 JUMPI DUP2 DUP4 LT ISZERO PUSH2 0x1F28 JUMPI PUSH0 PUSH1 0x2 PUSH2 0x1ED0 DUP5 DUP7 PUSH2 0x22CB JUMP JUMPDEST PUSH2 0x1EDB SWAP1 PUSH1 0x1 PUSH2 0x22CB JUMP JUMPDEST PUSH2 0x1EE5 SWAP2 SWAP1 PUSH2 0x21A7 JUMP JUMPDEST SWAP1 POP DUP1 PUSH0 SUB PUSH2 0x1EF4 JUMPI POP PUSH2 0x1F28 JUMP JUMPDEST PUSH0 PUSH2 0x1EFF DUP9 DUP4 PUSH2 0x132A JUMP JUMPDEST SWAP1 POP DUP7 DUP2 GT PUSH2 0x1F10 JUMPI DUP2 SWAP5 POP PUSH2 0x1F1E JUMP JUMPDEST PUSH2 0x1F1B PUSH1 0x1 DUP4 PUSH2 0x217D JUMP JUMPDEST SWAP4 POP JUMPDEST POP POP PUSH1 0x1 ADD PUSH2 0x1EB2 JUMP JUMPDEST POP SWAP1 SWAP5 SWAP4 POP POP POP POP JUMP JUMPDEST PUSH2 0x14A4 DUP1 PUSH2 0x22DF DUP4 CODECOPY ADD SWAP1 JUMP JUMPDEST DUP1 CALLDATALOAD PUSH1 0x1 PUSH1 0x1 PUSH1 0xA0 SHL SUB DUP2 AND DUP2 EQ PUSH2 0x1F55 JUMPI PUSH0 PUSH0 REVERT JUMPDEST SWAP2 SWAP1 POP JUMP JUMPDEST PUSH0 PUSH1 0x20 DUP3 DUP5 SUB SLT ISZERO PUSH2 0x1F6A JUMPI PUSH0 PUSH0 REVERT JUMPDEST PUSH2 0x139C DUP3 PUSH2 0x1F3F JUMP JUMPDEST PUSH4 0x4E487B71 PUSH1 0xE0 SHL PUSH0 MSTORE PUSH1 0x21 PUSH1 0x4 MSTORE PUSH1 0x24 PUSH0 REVERT JUMPDEST PUSH1 0x20 DUP2 ADD PUSH1 0x5 DUP4 LT PUSH2 0x1FA7 JUMPI PUSH4 0x4E487B71 PUSH1 0xE0 SHL PUSH0 MSTORE PUSH1 0x21 PUSH1 0x4 MSTORE PUSH1 0x24 PUSH0 REVERT JUMPDEST SWAP2 SWAP1 MSTORE SWAP1 JUMP JUMPDEST PUSH1 0x20 DUP1 DUP3 MSTORE DUP3 MLOAD DUP3 DUP3 ADD DUP2 SWAP1 MSTORE PUSH0 SWAP2 DUP5 ADD SWAP1 PUSH1 0x40 DUP5 ADD SWAP1 DUP4 JUMPDEST DUP2 DUP2 LT ISZERO PUSH2 0x1FED JUMPI DUP4 MLOAD PUSH1 0x1 PUSH1 0x1 PUSH1 0xA0 SHL SUB AND DUP4 MSTORE PUSH1 0x20 SWAP4 DUP5 ADD SWAP4 SWAP1 SWAP3 ADD SWAP2 PUSH1 0x1 ADD PUSH2 0x1FC6 JUMP JUMPDEST POP SWAP1 SWAP6 SWAP5 POP POP POP POP POP JUMP JUMPDEST PUSH0 PUSH1 0x20 DUP3 DUP5 SUB SLT ISZERO PUSH2 0x2008 JUMPI PUSH0 PUSH0 REVERT JUMPDEST POP CALLDATALOAD SWAP2 SWAP1 POP JUMP JUMPDEST PUSH0 PUSH0 PUSH1 0x40 DUP4 DUP6 SUB SLT ISZERO PUSH2 0x2020 JUMPI PUSH0 PUSH0 REVERT JUMPDEST PUSH2 0x2029 DUP4 PUSH2 0x1F3F JUMP JUMPDEST SWAP5 PUSH1 0x20 SWAP4 SWAP1 SWAP4 ADD CALLDATALOAD SWAP4 POP POP POP JUMP JUMPDEST PUSH0 PUSH0 DUP4 PUSH1 0x1F DUP5 ADD SLT PUSH2 0x2047 JUMPI PUSH0 PUSH0 REVERT JUMPDEST POP DUP2 CALLDATALOAD PUSH8 0xFFFFFFFFFFFFFFFF DUP2 GT ISZERO PUSH2 0x205E JUMPI PUSH0 PUSH0 REVERT JUMPDEST PUSH1 0x20 DUP4 ADD SWAP2 POP DUP4 PUSH1 0x20 DUP3 DUP6 ADD ADD GT ISZERO PUSH2 0x2075 JUMPI PUSH0 PUSH0 REVERT JUMPDEST SWAP3 POP SWAP3 SWAP1 POP JUMP JUMPDEST PUSH0 PUSH0 PUSH0 PUSH0 PUSH0 PUSH0 PUSH0 PUSH1 0x80 DUP9 DUP11 SUB SLT ISZERO PUSH2 0x2092 JUMPI PUSH0 PUSH0 REVERT JUMPDEST DUP8 CALLDATALOAD PUSH8 0xFFFFFFFFFFFFFFFF DUP2 GT ISZERO PUSH2 0x20A8 JUMPI PUSH0 PUSH0 REVERT JUMPDEST PUSH2 0x20B4 DUP11 DUP3 DUP12 ADD PUSH2 0x2037 JUMP JUMPDEST SWAP1 SWAP9 POP SWAP7 POP POP PUSH1 0x20 DUP9 ADD CALLDATALOAD PUSH8 0xFFFFFFFFFFFFFFFF DUP2 GT ISZERO PUSH2 0x20D3 JUMPI PUSH0 PUSH0 REVERT JUMPDEST PUSH2 0x20DF DUP11 DUP3 DUP12 ADD PUSH2 0x2037 JUMP JUMPDEST SWAP1 SWAP7 POP SWAP5 POP POP PUSH1 0x40 DUP9 ADD CALLDATALOAD PUSH8 0xFFFFFFFFFFFFFFFF DUP2 GT ISZERO PUSH2 0x20FE JUMPI PUSH0 PUSH0 REVERT JUMPDEST PUSH2 0x210A DUP11 DUP3 DUP12 ADD PUSH2 0x2037 JUMP JUMPDEST SWAP1 SWAP5 POP SWAP3 POP PUSH2 0x211D SWAP1 POP PUSH1 0x60 DUP10 ADD PUSH2 0x1F3F JUMP JUMPDEST SWAP1 POP SWAP3 SWAP6 SWAP9 SWAP2 SWAP5 SWAP8 POP SWAP3 SWAP6 POP JUMP JUMPDEST PUSH1 0x20 DUP1 DUP3 MSTORE PUSH1 0xD SWAP1 DUP3 ADD MSTORE PUSH13 0x24B73B30B634B2103A37B5B2B7 PUSH1 0x99 SHL PUSH1 0x40 DUP3 ADD MSTORE PUSH1 0x60 ADD SWAP1 JUMP JUMPDEST PUSH0 PUSH1 0x20 DUP3 DUP5 SUB SLT ISZERO PUSH2 0x2162 JUMPI PUSH0 PUSH0 REVERT JUMPDEST POP MLOAD SWAP2 SWAP1 POP JUMP JUMPDEST PUSH4 0x4E487B71 PUSH1 0xE0 SHL PUSH0 MSTORE PUSH1 0x11 PUSH1 0x4 MSTORE PUSH1 0x24 PUSH0 REVERT JUMPDEST DUP2 DUP2 SUB DUP2 DUP2 GT ISZERO PUSH2 0x1324 JUMPI PUSH2 0x1324 PUSH2 0x2169 JUMP JUMPDEST DUP1 DUP3 MUL DUP2 ISZERO DUP3 DUP3 DIV DUP5 EQ OR PUSH2 0x1324 JUMPI PUSH2 0x1324 PUSH2 0x2169 JUMP JUMPDEST PUSH0 DUP3 PUSH2 0x21C1 JUMPI PUSH4 0x4E487B71 PUSH1 0xE0 SHL PUSH0 MSTORE PUSH1 0x12 PUSH1 0x4 MSTORE PUSH1 0x24 PUSH0 REVERT JUMPDEST POP DIV SWAP1 JUMP JUMPDEST DUP2 DUP4 MSTORE DUP2 DUP2 PUSH1 0x20 DUP6 ADD CALLDATACOPY POP PUSH0 DUP3 DUP3 ADD PUSH1 0x20 SWAP1 DUP2 ADD SWAP2 SWAP1 SWAP2 MSTORE PUSH1 0x1F SWAP1 SWAP2 ADD PUSH1 0x1F NOT AND SWAP1 SWAP2 ADD ADD SWAP1 JUMP JUMPDEST PUSH1 0x1 PUSH1 0x1 PUSH1 0xA0 SHL SUB DUP11 DUP2 AND DUP3 MSTORE DUP10 AND PUSH1 0x20 DUP3 ADD MSTORE PUSH1 0xC0 PUSH1 0x40 DUP3 ADD DUP2 SWAP1 MSTORE PUSH0 SWAP1 PUSH2 0x221A SWAP1 DUP4 ADD DUP10 DUP12 PUSH2 0x21C6 JUMP JUMPDEST DUP3 DUP2 SUB PUSH1 0x60 DUP5 ADD MSTORE PUSH2 0x222D DUP2 DUP9 DUP11 PUSH2 0x21C6 JUMP JUMPDEST SWAP1 POP DUP3 DUP2 SUB PUSH1 0x80 DUP5 ADD MSTORE PUSH2 0x2242 DUP2 DUP7 DUP9 PUSH2 0x21C6 JUMP JUMPDEST SWAP2 POP POP PUSH1 0x1 DUP1 PUSH1 0xA0 SHL SUB DUP4 AND PUSH1 0xA0 DUP4 ADD MSTORE SWAP11 SWAP10 POP POP POP POP POP POP POP POP POP POP JUMP JUMPDEST PUSH1 0xC0 DUP2 MSTORE PUSH0 PUSH2 0x2274 PUSH1 0xC0 DUP4 ADD DUP12 DUP14 PUSH2 0x21C6 JUMP JUMPDEST DUP3 DUP2 SUB PUSH1 0x20 DUP5 ADD MSTORE PUSH2 0x2287 DUP2 DUP11 DUP13 PUSH2 0x21C6 JUMP JUMPDEST SWAP1 POP DUP3 DUP2 SUB PUSH1 0x40 DUP5 ADD MSTORE PUSH2 0x229C DUP2 DUP9 DUP11 PUSH2 0x21C6 JUMP JUMPDEST PUSH1 0x1 PUSH1 0x1 PUSH1 0xA0 SHL SUB SWAP7 DUP8 AND PUSH1 0x60 DUP6 ADD MSTORE PUSH1 0x80 DUP5 ADD SWAP6 SWAP1 SWAP6 MSTORE POP POP SWAP3 AND PUSH1 0xA0 SWAP1 SWAP3 ADD SWAP2 SWAP1 SWAP2 MSTORE SWAP7 SWAP6 POP POP POP POP POP POP JUMP JUMPDEST DUP1 DUP3 ADD DUP1 DUP3 GT ISZERO PUSH2 0x1324 JUMPI PUSH2 0x1324 PUSH2 0x2169 JUMP INVALID PUSH1 0xC0 PUSH1 0x40 MSTORE CALLVALUE DUP1 ISZERO PUSH2 0xF JUMPI PUSH0 PUSH0 REVERT JUMPDEST POP PUSH1 0x40 MLOAD PUSH2 0x14A4 CODESIZE SUB DUP1 PUSH2 0x14A4 DUP4 CODECOPY DUP2 ADD PUSH1 0x40 DUP2 SWAP1 MSTORE PUSH2 0x2E SWAP2 PUSH2 0x341 JUMP JUMPDEST DUP6 DUP5 DUP5 PUSH1 0x3 PUSH2 0x3D DUP4 DUP3 PUSH2 0x485 JUMP JUMPDEST POP PUSH1 0x4 PUSH2 0x4A DUP3 DUP3 PUSH2 0x485 JUMP JUMPDEST POP POP POP PUSH1 0x1 PUSH1 0x1 PUSH1 0xA0 SHL SUB DUP2 AND PUSH2 0x7B JUMPI PUSH1 0x40 MLOAD PUSH4 0x1E4FBDF7 PUSH1 0xE0 SHL DUP2 MSTORE PUSH0 PUSH1 0x4 DUP3 ADD MSTORE PUSH1 0x24 ADD JUMPDEST PUSH1 0x40 MLOAD DUP1 SWAP2 SUB SWAP1 REVERT JUMPDEST PUSH2 0x84 DUP2 PUSH2 0x238 JUMP JUMPDEST POP PUSH1 0x1 PUSH1 0x1 PUSH1 0xA0 SHL SUB DUP7 AND PUSH2 0xDB JUMPI PUSH1 0x40 MLOAD PUSH3 0x461BCD PUSH1 0xE5 SHL DUP2 MSTORE PUSH1 0x20 PUSH1 0x4 DUP3 ADD MSTORE PUSH1 0x17 PUSH1 0x24 DUP3 ADD MSTORE PUSH32 0x496E76616C696420666163746F72792061646472657373000000000000000000 PUSH1 0x44 DUP3 ADD MSTORE PUSH1 0x64 ADD PUSH2 0x72 JUMP JUMPDEST PUSH1 0x1 PUSH1 0x1 PUSH1 0xA0 SHL SUB DUP6 AND PUSH2 0x131 JUMPI PUSH1 0x40 MLOAD PUSH3 0x461BCD PUSH1 0xE5 SHL DUP2 MSTORE PUSH1 0x20 PUSH1 0x4 DUP3 ADD MSTORE PUSH1 0x17 PUSH1 0x24 DUP3 ADD MSTORE PUSH32 0x496E76616C69642063726561746F722061646472657373000000000000000000 PUSH1 0x44 DUP3 ADD MSTORE PUSH1 0x64 ADD PUSH2 0x72 JUMP JUMPDEST PUSH1 0x1 PUSH1 0x1 PUSH1 0xA0 SHL SUB DUP1 DUP8 AND PUSH1 0x80 MSTORE DUP6 AND PUSH1 0xA0 MSTORE PUSH1 0x6 PUSH2 0x150 DUP4 DUP3 PUSH2 0x485 JUMP JUMPDEST POP PUSH1 0x1 PUSH1 0x1 PUSH1 0xA0 SHL SUB DUP2 AND ISZERO PUSH2 0x22D JUMPI PUSH1 0x40 MLOAD PUSH3 0x61F765 PUSH1 0xE4 SHL DUP2 MSTORE ADDRESS PUSH1 0x4 DUP3 ADD MSTORE PUSH1 0x1 PUSH1 0x1 PUSH1 0xA0 SHL SUB DUP3 AND SWAP1 PUSH4 0x61F7650 SWAP1 PUSH1 0x24 ADD PUSH1 0x20 PUSH1 0x40 MLOAD DUP1 DUP4 SUB DUP2 DUP7 GAS STATICCALL ISZERO DUP1 ISZERO PUSH2 0x1A1 JUMPI RETURNDATASIZE PUSH0 PUSH0 RETURNDATACOPY RETURNDATASIZE PUSH0 REVERT JUMPDEST POP POP POP POP PUSH1 0x40 MLOAD RETURNDATASIZE PUSH1 0x1F NOT PUSH1 0x1F DUP3 ADD AND DUP3 ADD DUP1 PUSH1 0x40 MSTORE POP DUP2 ADD SWAP1 PUSH2 0x1C5 SWAP2 SWAP1 PUSH2 0x53F JUMP JUMPDEST PUSH2 0x211 JUMPI PUSH1 0x40 MLOAD PUSH3 0x461BCD PUSH1 0xE5 SHL DUP2 MSTORE PUSH1 0x20 PUSH1 0x4 DUP3 ADD MSTORE PUSH1 0x1B PUSH1 0x24 DUP3 ADD MSTORE PUSH32 0x4275726E206D616E61676572206E6F7420636F6D70617469626C650000000000 PUSH1 0x44 DUP3 ADD MSTORE PUSH1 0x64 ADD PUSH2 0x72 JUMP JUMPDEST PUSH1 0x7 DUP1 SLOAD PUSH1 0x1 PUSH1 0x1 PUSH1 0xA0 SHL SUB NOT AND PUSH1 0x1 PUSH1 0x1 PUSH1 0xA0 SHL SUB DUP4 AND OR SWAP1 SSTORE JUMPDEST POP POP POP POP POP POP PUSH2 0x565 JUMP JUMPDEST PUSH1 0x5 DUP1 SLOAD PUSH1 0x1 PUSH1 0x1 PUSH1 0xA0 SHL SUB DUP4 DUP2 AND PUSH1 0x1 PUSH1 0x1 PUSH1 0xA0 SHL SUB NOT DUP4 AND DUP2 OR SWAP1 SWAP4 SSTORE PUSH1 0x40 MLOAD SWAP2 AND SWAP2 SWAP1 DUP3 SWAP1 PUSH32 0x8BE0079C531659141344CD1FD0A4F28419497F9722A3DAAFE3B4186F6B6457E0 SWAP1 PUSH0 SWAP1 LOG3 POP POP JUMP JUMPDEST DUP1 MLOAD PUSH1 0x1 PUSH1 0x1 PUSH1 0xA0 SHL SUB DUP2 AND DUP2 EQ PUSH2 0x29F JUMPI PUSH0 PUSH0 REVERT JUMPDEST SWAP2 SWAP1 POP JUMP JUMPDEST PUSH4 0x4E487B71 PUSH1 0xE0 SHL PUSH0 MSTORE PUSH1 0x41 PUSH1 0x4 MSTORE PUSH1 0x24 PUSH0 REVERT JUMPDEST PUSH0 DUP3 PUSH1 0x1F DUP4 ADD SLT PUSH2 0x2C7 JUMPI PUSH0 PUSH0 REVERT JUMPDEST DUP2 MLOAD PUSH1 0x1 PUSH1 0x1 PUSH1 0x40 SHL SUB DUP2 GT ISZERO PUSH2 0x2E0 JUMPI PUSH2 0x2E0 PUSH2 0x2A4 JUMP JUMPDEST PUSH1 0x40 MLOAD PUSH1 0x1F DUP3 ADD PUSH1 0x1F NOT SWAP1 DUP2 AND PUSH1 0x3F ADD AND DUP2 ADD PUSH1 0x1 PUSH1 0x1 PUSH1 0x40 SHL SUB DUP2 GT DUP3 DUP3 LT OR ISZERO PUSH2 0x30E JUMPI PUSH2 0x30E PUSH2 0x2A4 JUMP JUMPDEST PUSH1 0x40 MSTORE DUP2 DUP2 MSTORE DUP4 DUP3 ADD PUSH1 0x20 ADD DUP6 LT ISZERO PUSH2 0x325 JUMPI PUSH0 PUSH0 REVERT JUMPDEST DUP2 PUSH1 0x20 DUP6 ADD PUSH1 0x20 DUP4 ADD MCOPY PUSH0 SWAP2 DUP2 ADD PUSH1 0x20 ADD SWAP2 SWAP1 SWAP2 MSTORE SWAP4 SWAP3 POP POP POP JUMP JUMPDEST PUSH0 PUSH0 PUSH0 PUSH0 PUSH0 PUSH0 PUSH1 0xC0 DUP8 DUP10 SUB SLT ISZERO PUSH2 0x356 JUMPI PUSH0 PUSH0 REVERT JUMPDEST PUSH2 0x35F DUP8 PUSH2 0x289 JUMP JUMPDEST SWAP6 POP PUSH2 0x36D PUSH1 0x20 DUP9 ADD PUSH2 0x289 JUMP JUMPDEST PUSH1 0x40 DUP9 ADD MLOAD SWAP1 SWAP6 POP PUSH1 0x1 PUSH1 0x1 PUSH1 0x40 SHL SUB DUP2 GT ISZERO PUSH2 0x388 JUMPI PUSH0 PUSH0 REVERT JUMPDEST PUSH2 0x394 DUP10 DUP3 DUP11 ADD PUSH2 0x2B8 JUMP JUMPDEST PUSH1 0x60 DUP10 ADD MLOAD SWAP1 SWAP6 POP SWAP1 POP PUSH1 0x1 PUSH1 0x1 PUSH1 0x40 SHL SUB DUP2 GT ISZERO PUSH2 0x3B1 JUMPI PUSH0 PUSH0 REVERT JUMPDEST PUSH2 0x3BD DUP10 DUP3 DUP11 ADD PUSH2 0x2B8 JUMP JUMPDEST PUSH1 0x80 DUP10 ADD MLOAD SWAP1 SWAP5 POP SWAP1 POP PUSH1 0x1 PUSH1 0x1 PUSH1 0x40 SHL SUB DUP2 GT ISZERO PUSH2 0x3DA JUMPI PUSH0 PUSH0 REVERT JUMPDEST PUSH2 0x3E6 DUP10 DUP3 DUP11 ADD PUSH2 0x2B8 JUMP JUMPDEST SWAP3 POP POP PUSH2 0x3F5 PUSH1 0xA0 DUP9 ADD PUSH2 0x289 JUMP JUMPDEST SWAP1 POP SWAP3 SWAP6 POP SWAP3 SWAP6 POP SWAP3 SWAP6 JUMP JUMPDEST PUSH1 0x1 DUP2 DUP2 SHR SWAP1 DUP3 AND DUP1 PUSH2 0x415 JUMPI PUSH1 0x7F DUP3 AND SWAP2 POP JUMPDEST PUSH1 0x20 DUP3 LT DUP2 SUB PUSH2 0x433 JUMPI PUSH4 0x4E487B71 PUSH1 0xE0 SHL PUSH0 MSTORE PUSH1 0x22 PUSH1 0x4 MSTORE PUSH1 0x24 PUSH0 REVERT JUMPDEST POP SWAP2 SWAP1 POP JUMP JUMPDEST PUSH1 0x1F DUP3 GT ISZERO PUSH2 0x480 JUMPI DUP1 PUSH0 MSTORE PUSH1 0x20 PUSH0 KECCAK256 PUSH1 0x1F DUP5 ADD PUSH1 0x5 SHR DUP2 ADD PUSH1 0x20 DUP6 LT ISZERO PUSH2 0x45E JUMPI POP DUP1 JUMPDEST PUSH1 0x1F DUP5 ADD PUSH1 0x5 SHR DUP3 ADD SWAP2 POP JUMPDEST DUP2 DUP2 LT ISZERO PUSH2 0x47D JUMPI PUSH0 DUP2 SSTORE PUSH1 0x1 ADD PUSH2 0x46A JUMP JUMPDEST POP POP JUMPDEST POP POP POP JUMP JUMPDEST DUP2 MLOAD PUSH1 0x1 PUSH1 0x1 PUSH1 0x40 SHL SUB DUP2 GT ISZERO PUSH2 0x49E JUMPI PUSH2 0x49E PUSH2 0x2A4 JUMP JUMPDEST PUSH2 0x4B2 DUP2 PUSH2 0x4AC DUP5 SLOAD PUSH2 0x401 JUMP JUMPDEST DUP5 PUSH2 0x439 JUMP JUMPDEST PUSH1 0x20 PUSH1 0x1F DUP3 GT PUSH1 0x1 DUP2 EQ PUSH2 0x4E4 JUMPI PUSH0 DUP4 ISZERO PUSH2 0x4CD JUMPI POP DUP5 DUP3 ADD MLOAD JUMPDEST PUSH0 NOT PUSH1 0x3 DUP6 SWAP1 SHL SHR NOT AND PUSH1 0x1 DUP5 SWAP1 SHL OR DUP5 SSTORE PUSH2 0x47D JUMP JUMPDEST PUSH0 DUP5 DUP2 MSTORE PUSH1 0x20 DUP2 KECCAK256 PUSH1 0x1F NOT DUP6 AND SWAP2 JUMPDEST DUP3 DUP2 LT ISZERO PUSH2 0x513 JUMPI DUP8 DUP6 ADD MLOAD DUP3 SSTORE PUSH1 0x20 SWAP5 DUP6 ADD SWAP5 PUSH1 0x1 SWAP1 SWAP3 ADD SWAP2 ADD PUSH2 0x4F3 JUMP JUMPDEST POP DUP5 DUP3 LT ISZERO PUSH2 0x530 JUMPI DUP7 DUP5 ADD MLOAD PUSH0 NOT PUSH1 0x3 DUP8 SWAP1 SHL PUSH1 0xF8 AND SHR NOT AND DUP2 SSTORE JUMPDEST POP POP POP POP PUSH1 0x1 SWAP1 DUP2 SHL ADD SWAP1 SSTORE POP JUMP JUMPDEST PUSH0 PUSH1 0x20 DUP3 DUP5 SUB SLT ISZERO PUSH2 0x54F JUMPI PUSH0 PUSH0 REVERT JUMPDEST DUP2 MLOAD DUP1 ISZERO ISZERO DUP2 EQ PUSH2 0x55E JUMPI PUSH0 PUSH0 REVERT JUMPDEST SWAP4 SWAP3 POP POP POP JUMP JUMPDEST PUSH1 0x80 MLOAD PUSH1 0xA0 MLOAD PUSH2 0xF09 PUSH2 0x59B PUSH0 CODECOPY PUSH0 DUP2 DUP2 PUSH2 0x13B ADD MSTORE PUSH2 0x6D2 ADD MSTORE PUSH0 DUP2 DUP2 PUSH2 0x2E8 ADD MSTORE DUP2 DUP2 PUSH2 0x3FC ADD MSTORE PUSH2 0x5DC ADD MSTORE PUSH2 0xF09 PUSH0 RETURN INVALID PUSH1 0x80 PUSH1 0x40 MSTORE CALLVALUE DUP1 ISZERO PUSH2 0xF JUMPI PUSH0 PUSH0 REVERT JUMPDEST POP PUSH1 0x4 CALLDATASIZE LT PUSH2 0x132 JUMPI PUSH0 CALLDATALOAD PUSH1 0xE0 SHR DUP1 PUSH4 0x70A08231 GT PUSH2 0xB4 JUMPI DUP1 PUSH4 0xA9059CBB GT PUSH2 0x79 JUMPI DUP1 PUSH4 0xA9059CBB EQ PUSH2 0x290 JUMPI DUP1 PUSH4 0xABA83150 EQ PUSH2 0x2A3 JUMPI DUP1 PUSH4 0xDD62ED3E EQ PUSH2 0x2AB JUMPI DUP1 PUSH4 0xE77772FE EQ PUSH2 0x2E3 JUMPI DUP1 PUSH4 0xF2FDE38B EQ PUSH2 0x30A JUMPI DUP1 PUSH4 0xF8A8FD6D EQ PUSH2 0x31D JUMPI PUSH0 PUSH0 REVERT JUMPDEST DUP1 PUSH4 0x70A08231 EQ PUSH2 0x234 JUMPI DUP1 PUSH4 0x715018A6 EQ PUSH2 0x25C JUMPI DUP1 PUSH4 0x8DA5CB5B EQ PUSH2 0x264 JUMPI DUP1 PUSH4 0x95D89B41 EQ PUSH2 0x275 JUMPI DUP1 PUSH4 0x96B5059D EQ PUSH2 0x27D JUMPI PUSH0 PUSH0 REVERT JUMPDEST DUP1 PUSH4 0x23B872DD GT PUSH2 0xFA JUMPI DUP1 PUSH4 0x23B872DD EQ PUSH2 0x1D7 JUMPI DUP1 PUSH4 0x313CE567 EQ PUSH2 0x1EA JUMPI DUP1 PUSH4 0x40C10F19 EQ PUSH2 0x1F9 JUMPI DUP1 PUSH4 0x42966C68 EQ PUSH2 0x20E JUMPI DUP1 PUSH4 0x6819CD19 EQ PUSH2 0x221 JUMPI PUSH0 PUSH0 REVERT JUMPDEST DUP1 PUSH4 0x2D05D3F EQ PUSH2 0x136 JUMPI DUP1 PUSH4 0x6FDDE03 EQ PUSH2 0x17A JUMPI DUP1 PUSH4 0x95EA7B3 EQ PUSH2 0x18F JUMPI DUP1 PUSH4 0x18160DDD EQ PUSH2 0x1B2 JUMPI DUP1 PUSH4 0x1FAA49C3 EQ PUSH2 0x1C4 JUMPI JUMPDEST PUSH0 PUSH0 REVERT JUMPDEST PUSH2 0x15D PUSH32 0x0 DUP2 JUMP JUMPDEST PUSH1 0x40 MLOAD PUSH1 0x1 PUSH1 0x1 PUSH1 0xA0 SHL SUB SWAP1 SWAP2 AND DUP2 MSTORE PUSH1 0x20 ADD JUMPDEST PUSH1 0x40 MLOAD DUP1 SWAP2 SUB SWAP1 RETURN JUMPDEST PUSH2 0x182 PUSH2 0x325 JUMP JUMPDEST PUSH1 0x40 MLOAD PUSH2 0x171 SWAP2 SWAP1 PUSH2 0xD43 JUMP JUMPDEST PUSH2 0x1A2 PUSH2 0x19D CALLDATASIZE PUSH1 0x4 PUSH2 0xD93 JUMP JUMPDEST PUSH2 0x3B5 JUMP JUMPDEST PUSH1 0x40 MLOAD SWAP1 ISZERO ISZERO DUP2 MSTORE PUSH1 0x20 ADD PUSH2 0x171 JUMP JUMPDEST PUSH1 0x2 SLOAD JUMPDEST PUSH1 0x40 MLOAD SWAP1 DUP2 MSTORE PUSH1 0x20 ADD PUSH2 0x171 JUMP JUMPDEST PUSH1 0x7 SLOAD PUSH2 0x15D SWAP1 PUSH1 0x1 PUSH1 0x1 PUSH1 0xA0 SHL SUB AND DUP2 JUMP JUMPDEST PUSH2 0x1A2 PUSH2 0x1E5 CALLDATASIZE PUSH1 0x4 PUSH2 0xDBB JUMP JUMPDEST PUSH2 0x3CE JUMP JUMPDEST PUSH1 0x40 MLOAD PUSH1 0x12 DUP2 MSTORE PUSH1 0x20 ADD PUSH2 0x171 JUMP JUMPDEST PUSH2 0x20C PUSH2 0x207 CALLDATASIZE PUSH1 0x4 PUSH2 0xD93 JUMP JUMPDEST PUSH2 0x3F1 JUMP JUMPDEST STOP JUMPDEST PUSH2 0x20C PUSH2 0x21C CALLDATASIZE PUSH1 0x4 PUSH2 0xDF5 JUMP JUMPDEST PUSH2 0x474 JUMP JUMPDEST PUSH2 0x20C PUSH2 0x22F CALLDATASIZE PUSH1 0x4 PUSH2 0xD93 JUMP JUMPDEST PUSH2 0x5D1 JUMP JUMPDEST PUSH2 0x1B6 PUSH2 0x242 CALLDATASIZE PUSH1 0x4 PUSH2 0xE0C JUMP JUMPDEST PUSH1 0x1 PUSH1 0x1 PUSH1 0xA0 SHL SUB AND PUSH0 SWAP1 DUP2 MSTORE PUSH1 0x20 DUP2 SWAP1 MSTORE PUSH1 0x40 SWAP1 KECCAK256 SLOAD SWAP1 JUMP JUMPDEST PUSH2 0x20C PUSH2 0x6A5 JUMP JUMPDEST PUSH1 0x5 SLOAD PUSH1 0x1 PUSH1 0x1 PUSH1 0xA0 SHL SUB AND PUSH2 0x15D JUMP JUMPDEST PUSH2 0x182 PUSH2 0x6B8 JUMP JUMPDEST PUSH2 0x20C PUSH2 0x28B CALLDATASIZE PUSH1 0x4 PUSH2 0xE0C JUMP JUMPDEST PUSH2 0x6C7 JUMP JUMPDEST PUSH2 0x1A2 PUSH2 0x29E CALLDATASIZE PUSH1 0x4 PUSH2 0xD93 JUMP JUMPDEST PUSH2 0x89A JUMP JUMPDEST PUSH2 0x182 PUSH2 0x8A7 JUMP JUMPDEST PUSH2 0x1B6 PUSH2 0x2B9 CALLDATASIZE PUSH1 0x4 PUSH2 0xE2C JUMP JUMPDEST PUSH1 0x1 PUSH1 0x1 PUSH1 0xA0 SHL SUB SWAP2 DUP3 AND PUSH0 SWAP1 DUP2 MSTORE PUSH1 0x1 PUSH1 0x20 SWAP1 DUP2 MSTORE PUSH1 0x40 DUP1 DUP4 KECCAK256 SWAP4 SWAP1 SWAP5 AND DUP3 MSTORE SWAP2 SWAP1 SWAP2 MSTORE KECCAK256 SLOAD SWAP1 JUMP JUMPDEST PUSH2 0x15D PUSH32 0x0 DUP2 JUMP JUMPDEST PUSH2 0x20C PUSH2 0x318 CALLDATASIZE PUSH1 0x4 PUSH2 0xE0C JUMP JUMPDEST PUSH2 0x933 JUMP JUMPDEST PUSH2 0x182 PUSH2 0x96D JUMP JUMPDEST PUSH1 0x60 PUSH1 0x3 DUP1 SLOAD PUSH2 0x334 SWAP1 PUSH2 0xE5D JUMP JUMPDEST DUP1 PUSH1 0x1F ADD PUSH1 0x20 DUP1 SWAP2 DIV MUL PUSH1 0x20 ADD PUSH1 0x40 MLOAD SWAP1 DUP2 ADD PUSH1 0x40 MSTORE DUP1 SWAP3 SWAP2 SWAP1 DUP2 DUP2 MSTORE PUSH1 0x20 ADD DUP3 DUP1 SLOAD PUSH2 0x360 SWAP1 PUSH2 0xE5D JUMP JUMPDEST DUP1 ISZERO PUSH2 0x3AB JUMPI DUP1 PUSH1 0x1F LT PUSH2 0x382 JUMPI PUSH2 0x100 DUP1 DUP4 SLOAD DIV MUL DUP4 MSTORE SWAP2 PUSH1 0x20 ADD SWAP2 PUSH2 0x3AB JUMP JUMPDEST DUP3 ADD SWAP2 SWAP1 PUSH0 MSTORE PUSH1 0x20 PUSH0 KECCAK256 SWAP1 JUMPDEST DUP2 SLOAD DUP2 MSTORE SWAP1 PUSH1 0x1 ADD SWAP1 PUSH1 0x20 ADD DUP1 DUP4 GT PUSH2 0x38E JUMPI DUP3 SWAP1 SUB PUSH1 0x1F AND DUP3 ADD SWAP2 JUMPDEST POP POP POP POP POP SWAP1 POP SWAP1 JUMP JUMPDEST PUSH0 CALLER PUSH2 0x3C2 DUP2 DUP6 DUP6 PUSH2 0x97A JUMP JUMPDEST PUSH1 0x1 SWAP2 POP POP JUMPDEST SWAP3 SWAP2 POP POP JUMP JUMPDEST PUSH0 CALLER PUSH2 0x3DB DUP6 DUP3 DUP6 PUSH2 0x98C JUMP JUMPDEST PUSH2 0x3E6 DUP6 DUP6 DUP6 PUSH2 0xA08 JUMP JUMPDEST POP PUSH1 0x1 SWAP5 SWAP4 POP POP POP POP JUMP JUMPDEST CALLER PUSH1 0x1 PUSH1 0x1 PUSH1 0xA0 SHL SUB PUSH32 0x0 AND EQ PUSH2 0x466 JUMPI PUSH1 0x40 MLOAD PUSH3 0x461BCD PUSH1 0xE5 SHL DUP2 MSTORE PUSH1 0x20 PUSH1 0x4 DUP3 ADD MSTORE PUSH1 0x15 PUSH1 0x24 DUP3 ADD MSTORE PUSH21 0x13DB9B1E48199858DD1BDC9E4818D85B881B5A5B9D PUSH1 0x5A SHL PUSH1 0x44 DUP3 ADD MSTORE PUSH1 0x64 ADD JUMPDEST PUSH1 0x40 MLOAD DUP1 SWAP2 SUB SWAP1 REVERT JUMPDEST PUSH2 0x470 DUP3 DUP3 PUSH2 0xA65 JUMP JUMPDEST POP POP JUMP JUMPDEST PUSH0 DUP2 GT PUSH2 0x4B8 JUMPI PUSH1 0x40 MLOAD PUSH3 0x461BCD PUSH1 0xE5 SHL DUP2 MSTORE PUSH1 0x20 PUSH1 0x4 DUP3 ADD MSTORE PUSH1 0x12 PUSH1 0x24 DUP3 ADD MSTORE PUSH18 0x416D6F756E74206D757374206265203E203 PUSH1 0x74 SHL PUSH1 0x44 DUP3 ADD MSTORE PUSH1 0x64 ADD PUSH2 0x45D JUMP JUMPDEST CALLER PUSH0 SWAP1 DUP2 MSTORE PUSH1 0x20 DUP2 SWAP1 MSTORE PUSH1 0x40 SWAP1 KECCAK256 SLOAD DUP2 GT ISZERO PUSH2 0x50D JUMPI PUSH1 0x40 MLOAD PUSH3 0x461BCD PUSH1 0xE5 SHL DUP2 MSTORE PUSH1 0x20 PUSH1 0x4 DUP3 ADD MSTORE PUSH1 0x14 PUSH1 0x24 DUP3 ADD MSTORE PUSH20 0x496E73756666696369656E742062616C616E6365 PUSH1 0x60 SHL PUSH1 0x44 DUP3 ADD MSTORE PUSH1 0x64 ADD PUSH2 0x45D JUMP JUMPDEST PUSH2 0x517 CALLER DUP3 PUSH2 0xA99 JUMP JUMPDEST PUSH1 0x1 CALLER PUSH32 0x14C08AE9F74E8B735A667822FEB792C4E1324D0DD5887AF1528665F8C2357F86 DUP4 PUSH2 0x545 PUSH1 0x2 SLOAD SWAP1 JUMP JUMPDEST PUSH1 0x40 DUP1 MLOAD SWAP3 DUP4 MSTORE PUSH1 0x20 DUP4 ADD SWAP2 SWAP1 SWAP2 MSTORE ADD PUSH1 0x40 MLOAD DUP1 SWAP2 SUB SWAP1 LOG3 PUSH1 0x7 SLOAD PUSH1 0x1 PUSH1 0x1 PUSH1 0xA0 SHL SUB AND ISZERO PUSH2 0x5CE JUMPI PUSH1 0x7 SLOAD PUSH1 0x40 MLOAD PUSH4 0x1ED1028B PUSH1 0xE0 SHL DUP2 MSTORE CALLER PUSH1 0x4 DUP3 ADD MSTORE PUSH1 0x24 DUP2 ADD DUP4 SWAP1 MSTORE PUSH1 0x1 PUSH1 0x1 PUSH1 0xA0 SHL SUB SWAP1 SWAP2 AND SWAP1 PUSH4 0x1ED1028B SWAP1 PUSH1 0x44 ADD PUSH0 PUSH1 0x40 MLOAD DUP1 DUP4 SUB DUP2 PUSH0 DUP8 DUP1 EXTCODESIZE ISZERO DUP1 ISZERO PUSH2 0x5B7 JUMPI PUSH0 PUSH0 REVERT JUMPDEST POP GAS CALL ISZERO DUP1 ISZERO PUSH2 0x5C9 JUMPI RETURNDATASIZE PUSH0 PUSH0 RETURNDATACOPY RETURNDATASIZE PUSH0 REVERT JUMPDEST POP POP POP POP JUMPDEST POP JUMP JUMPDEST CALLER PUSH1 0x1 PUSH1 0x1 PUSH1 0xA0 SHL SUB PUSH32 0x0 AND EQ PUSH2 0x649 JUMPI PUSH1 0x40 MLOAD PUSH3 0x461BCD PUSH1 0xE5 SHL DUP2 MSTORE PUSH1 0x20 PUSH1 0x4 DUP3 ADD MSTORE PUSH1 0x1D PUSH1 0x24 DUP3 ADD MSTORE PUSH32 0x4F6E6C7920666163746F72792063616E20666163746F7279206275726E000000 PUSH1 0x44 DUP3 ADD MSTORE PUSH1 0x64 ADD PUSH2 0x45D JUMP JUMPDEST PUSH2 0x653 DUP3 DUP3 PUSH2 0xA99 JUMP JUMPDEST PUSH0 DUP3 PUSH1 0x1 PUSH1 0x1 PUSH1 0xA0 SHL SUB AND PUSH32 0x14C08AE9F74E8B735A667822FEB792C4E1324D0DD5887AF1528665F8C2357F86 DUP4 PUSH2 0x689 PUSH1 0x2 SLOAD SWAP1 JUMP JUMPDEST PUSH1 0x40 DUP1 MLOAD SWAP3 DUP4 MSTORE PUSH1 0x20 DUP4 ADD SWAP2 SWAP1 SWAP2 MSTORE ADD PUSH1 0x40 MLOAD DUP1 SWAP2 SUB SWAP1 LOG3 POP POP JUMP JUMPDEST PUSH2 0x6AD PUSH2 0xACD JUMP JUMPDEST PUSH2 0x6B6 PUSH0 PUSH2 0xAFA JUMP JUMPDEST JUMP JUMPDEST PUSH1 0x60 PUSH1 0x4 DUP1 SLOAD PUSH2 0x334 SWAP1 PUSH2 0xE5D JUMP JUMPDEST CALLER PUSH1 0x1 PUSH1 0x1 PUSH1 0xA0 SHL SUB PUSH32 0x0 AND EQ PUSH2 0x749 JUMPI PUSH1 0x40 MLOAD PUSH3 0x461BCD PUSH1 0xE5 SHL DUP2 MSTORE PUSH1 0x20 PUSH1 0x4 DUP3 ADD MSTORE PUSH1 0x21 PUSH1 0x24 DUP3 ADD MSTORE PUSH32 0x4F6E6C792063726561746F722063616E20736574206275726E206D616E616765 PUSH1 0x44 DUP3 ADD MSTORE PUSH1 0x39 PUSH1 0xF9 SHL PUSH1 0x64 DUP3 ADD MSTORE PUSH1 0x84 ADD PUSH2 0x45D JUMP JUMPDEST PUSH1 0x1 PUSH1 0x1 PUSH1 0xA0 SHL SUB DUP2 AND PUSH2 0x798 JUMPI PUSH1 0x40 MLOAD PUSH3 0x461BCD PUSH1 0xE5 SHL DUP2 MSTORE PUSH1 0x20 PUSH1 0x4 DUP3 ADD MSTORE PUSH1 0x16 PUSH1 0x24 DUP3 ADD MSTORE PUSH22 0x43616E6E6F74206265207A65726F2061646472657373 PUSH1 0x50 SHL PUSH1 0x44 DUP3 ADD MSTORE PUSH1 0x64 ADD PUSH2 0x45D JUMP JUMPDEST PUSH1 0x40 MLOAD PUSH3 0x61F765 PUSH1 0xE4 SHL DUP2 MSTORE ADDRESS PUSH1 0x4 DUP3 ADD MSTORE PUSH1 0x1 PUSH1 0x1 PUSH1 0xA0 SHL SUB DUP3 AND SWAP1 PUSH4 0x61F7650 SWAP1 PUSH1 0x24 ADD PUSH1 0x20 PUSH1 0x40 MLOAD DUP1 DUP4 SUB DUP2 DUP7 GAS STATICCALL ISZERO DUP1 ISZERO PUSH2 0x7D9 JUMPI RETURNDATASIZE PUSH0 PUSH0 RETURNDATACOPY RETURNDATASIZE PUSH0 REVERT JUMPDEST POP POP POP POP PUSH1 0x40 MLOAD RETURNDATASIZE PUSH1 0x1F NOT PUSH1 0x1F DUP3 ADD AND DUP3 ADD DUP1 PUSH1 0x40 MSTORE POP DUP2 ADD SWAP1 PUSH2 0x7FD SWAP2 SWAP1 PUSH2 0xE95 JUMP JUMPDEST PUSH2 0x849 JUMPI PUSH1 0x40 MLOAD PUSH3 0x461BCD PUSH1 0xE5 SHL DUP2 MSTORE PUSH1 0x20 PUSH1 0x4 DUP3 ADD MSTORE PUSH1 0x1B PUSH1 0x24 DUP3 ADD MSTORE PUSH32 0x4275726E206D616E61676572206E6F7420636F6D70617469626C650000000000 PUSH1 0x44 DUP3 ADD MSTORE PUSH1 0x64 ADD PUSH2 0x45D JUMP JUMPDEST PUSH1 0x7 DUP1 SLOAD PUSH1 0x1 PUSH1 0x1 PUSH1 0xA0 SHL SUB DUP4 DUP2 AND PUSH1 0x1 PUSH1 0x1 PUSH1 0xA0 SHL SUB NOT DUP4 AND DUP2 OR SWAP1 SWAP4 SSTORE PUSH1 0x40 MLOAD SWAP2 AND SWAP2 SWAP1 DUP3 SWAP1 PUSH32 0xA216B4AE65E96DA40ADB74D7D42EC050B88E0DA645103A084647ED55EB3E0D9 SWAP1 PUSH0 SWAP1 LOG3 POP POP JUMP JUMPDEST PUSH0 CALLER PUSH2 0x3C2 DUP2 DUP6 DUP6 PUSH2 0xA08 JUMP JUMPDEST PUSH1 0x6 DUP1 SLOAD PUSH2 0x8B4 SWAP1 PUSH2 0xE5D JUMP JUMPDEST DUP1 PUSH1 0x1F ADD PUSH1 0x20 DUP1 SWAP2 DIV MUL PUSH1 0x20 ADD PUSH1 0x40 MLOAD SWAP1 DUP2 ADD PUSH1 0x40 MSTORE DUP1 SWAP3 SWAP2 SWAP1 DUP2 DUP2 MSTORE PUSH1 0x20 ADD DUP3 DUP1 SLOAD PUSH2 0x8E0 SWAP1 PUSH2 0xE5D JUMP JUMPDEST DUP1 ISZERO PUSH2 0x92B JUMPI DUP1 PUSH1 0x1F LT PUSH2 0x902 JUMPI PUSH2 0x100 DUP1 DUP4 SLOAD DIV MUL DUP4 MSTORE SWAP2 PUSH1 0x20 ADD SWAP2 PUSH2 0x92B JUMP JUMPDEST DUP3 ADD SWAP2 SWAP1 PUSH0 MSTORE PUSH1 0x20 PUSH0 KECCAK256 SWAP1 JUMPDEST DUP2 SLOAD DUP2 MSTORE SWAP1 PUSH1 0x1 ADD SWAP1 PUSH1 0x20 ADD DUP1 DUP4 GT PUSH2 0x90E JUMPI DUP3 SWAP1 SUB PUSH1 0x1F AND DUP3 ADD SWAP2 JUMPDEST POP POP POP POP POP DUP2 JUMP JUMPDEST PUSH2 0x93B PUSH2 0xACD JUMP JUMPDEST PUSH1 0x1 PUSH1 0x1 PUSH1 0xA0 SHL SUB DUP2 AND PUSH2 0x964 JUMPI PUSH1 0x40 MLOAD PUSH4 0x1E4FBDF7 PUSH1 0xE0 SHL DUP2 MSTORE PUSH0 PUSH1 0x4 DUP3 ADD MSTORE PUSH1 0x24 ADD PUSH2 0x45D JUMP JUMPDEST PUSH2 0x5CE DUP2 PUSH2 0xAFA JUMP JUMPDEST PUSH1 0x8 DUP1 SLOAD PUSH2 0x8B4 SWAP1 PUSH2 0xE5D JUMP JUMPDEST PUSH2 0x987 DUP4 DUP4 DUP4 PUSH1 0x1 PUSH2 0xB4B JUMP JUMPDEST POP POP POP JUMP JUMPDEST PUSH1 0x1 PUSH1 0x1 PUSH1 0xA0 SHL SUB DUP4 DUP2 AND PUSH0 SWAP1 DUP2 MSTORE PUSH1 0x1 PUSH1 0x20 SWAP1 DUP2 MSTORE PUSH1 0x40 DUP1 DUP4 KECCAK256 SWAP4 DUP7 AND DUP4 MSTORE SWAP3 SWAP1 MSTORE KECCAK256 SLOAD PUSH0 NOT DUP2 LT ISZERO PUSH2 0xA02 JUMPI DUP2 DUP2 LT ISZERO PUSH2 0x9F4 JUMPI PUSH1 0x40 MLOAD PUSH4 0x7DC7A0D9 PUSH1 0xE1 SHL DUP2 MSTORE PUSH1 0x1 PUSH1 0x1 PUSH1 0xA0 SHL SUB DUP5 AND PUSH1 0x4 DUP3 ADD MSTORE PUSH1 0x24 DUP2 ADD DUP3 SWAP1 MSTORE PUSH1 0x44 DUP2 ADD DUP4 SWAP1 MSTORE PUSH1 0x64 ADD PUSH2 0x45D JUMP JUMPDEST PUSH2 0xA02 DUP5 DUP5 DUP5 DUP5 SUB PUSH0 PUSH2 0xB4B JUMP JUMPDEST POP POP POP POP JUMP JUMPDEST PUSH1 0x1 PUSH1 0x1 PUSH1 0xA0 SHL SUB DUP4 AND PUSH2 0xA31 JUMPI PUSH1 0x40 MLOAD PUSH4 0x4B637E8F PUSH1 0xE1 SHL DUP2 MSTORE PUSH0 PUSH1 0x4 DUP3 ADD MSTORE PUSH1 0x24 ADD PUSH2 0x45D JUMP JUMPDEST PUSH1 0x1 PUSH1 0x1 PUSH1 0xA0 SHL SUB DUP3 AND PUSH2 0xA5A JUMPI PUSH1 0x40 MLOAD PUSH4 0xEC442F05 PUSH1 0xE0 SHL DUP2 MSTORE PUSH0 PUSH1 0x4 DUP3 ADD MSTORE PUSH1 0x24 ADD PUSH2 0x45D JUMP JUMPDEST PUSH2 0x987 DUP4 DUP4 DUP4 PUSH2 0xC1D JUMP JUMPDEST PUSH1 0x1 PUSH1 0x1 PUSH1 0xA0 SHL SUB DUP3 AND PUSH2 0xA8E JUMPI PUSH1 0x40 MLOAD PUSH4 0xEC442F05 PUSH1 0xE0 SHL DUP2 MSTORE PUSH0 PUSH1 0x4 DUP3 ADD MSTORE PUSH1 0x24 ADD PUSH2 0x45D JUMP JUMPDEST PUSH2 0x470 PUSH0 DUP4 DUP4 PUSH2 0xC1D JUMP JUMPDEST PUSH1 0x1 PUSH1 0x1 PUSH1 0xA0 SHL SUB DUP3 AND PUSH2 0xAC2 JUMPI PUSH1 0x40 MLOAD PUSH4 0x4B637E8F PUSH1 0xE1 SHL DUP2 MSTORE PUSH0 PUSH1 0x4 DUP3 ADD MSTORE PUSH1 0x24 ADD PUSH2 0x45D JUMP JUMPDEST PUSH2 0x470 DUP3 PUSH0 DUP4 PUSH2 0xC1D JUMP JUMPDEST PUSH1 0x5 SLOAD PUSH1 0x1 PUSH1 0x1 PUSH1 0xA0 SHL SUB AND CALLER EQ PUSH2 0x6B6 JUMPI PUSH1 0x40 MLOAD PUSH4 0x118CDAA7 PUSH1 0xE0 SHL DUP2 MSTORE CALLER PUSH1 0x4 DUP3 ADD MSTORE PUSH1 0x24 ADD PUSH2 0x45D JUMP JUMPDEST PUSH1 0x5 DUP1 SLOAD PUSH1 0x1 PUSH1 0x1 PUSH1 0xA0 SHL SUB DUP4 DUP2 AND PUSH1 0x1 PUSH1 0x1 PUSH1 0xA0 SHL SUB NOT DUP4 AND DUP2 OR SWAP1 SWAP4 SSTORE PUSH1 0x40 MLOAD SWAP2 AND SWAP2 SWAP1 DUP3 SWAP1 PUSH32 0x8BE0079C531659141344CD1FD0A4F28419497F9722A3DAAFE3B4186F6B6457E0 SWAP1 PUSH0 SWAP1 LOG3 POP POP JUMP JUMPDEST PUSH1 0x1 PUSH1 0x1 PUSH1 0xA0 SHL SUB DUP5 AND PUSH2 0xB74 JUMPI PUSH1 0x40 MLOAD PUSH4 0xE602DF05 PUSH1 0xE0 SHL DUP2 MSTORE PUSH0 PUSH1 0x4 DUP3 ADD MSTORE PUSH1 0x24 ADD PUSH2 0x45D JUMP JUMPDEST PUSH1 0x1 PUSH1 0x1 PUSH1 0xA0 SHL SUB DUP4 AND PUSH2 0xB9D JUMPI PUSH1 0x40 MLOAD PUSH4 0x4A1406B1 PUSH1 0xE1 SHL DUP2 MSTORE PUSH0 PUSH1 0x4 DUP3 ADD MSTORE PUSH1 0x24 ADD PUSH2 0x45D JUMP JUMPDEST PUSH1 0x1 PUSH1 0x1 PUSH1 0xA0 SHL SUB DUP1 DUP6 AND PUSH0 SWAP1 DUP2 MSTORE PUSH1 0x1 PUSH1 0x20 SWAP1 DUP2 MSTORE PUSH1 0x40 DUP1 DUP4 KECCAK256 SWAP4 DUP8 AND DUP4 MSTORE SWAP3 SWAP1 MSTORE KECCAK256 DUP3 SWAP1 SSTORE DUP1 ISZERO PUSH2 0xA02 JUMPI DUP3 PUSH1 0x1 PUSH1 0x1 PUSH1 0xA0 SHL SUB AND DUP5 PUSH1 0x1 PUSH1 0x1 PUSH1 0xA0 SHL SUB AND PUSH32 0x8C5BE1E5EBEC7D5BD14F71427D1E84F3DD0314C0F7B2291E5B200AC8C7C3B925 DUP5 PUSH1 0x40 MLOAD PUSH2 0xC0F SWAP2 DUP2 MSTORE PUSH1 0x20 ADD SWAP1 JUMP JUMPDEST PUSH1 0x40 MLOAD DUP1 SWAP2 SUB SWAP1 LOG3 POP POP POP POP JUMP JUMPDEST PUSH1 0x1 PUSH1 0x1 PUSH1 0xA0 SHL SUB DUP4 AND PUSH2 0xC47 JUMPI DUP1 PUSH1 0x2 PUSH0 DUP3 DUP3 SLOAD PUSH2 0xC3C SWAP2 SWAP1 PUSH2 0xEB4 JUMP JUMPDEST SWAP1 SWAP2 SSTORE POP PUSH2 0xCB7 SWAP1 POP JUMP JUMPDEST PUSH1 0x1 PUSH1 0x1 PUSH1 0xA0 SHL SUB DUP4 AND PUSH0 SWAP1 DUP2 MSTORE PUSH1 0x20 DUP2 SWAP1 MSTORE PUSH1 0x40 SWAP1 KECCAK256 SLOAD DUP2 DUP2 LT ISZERO PUSH2 0xC99 JUMPI PUSH1 0x40 MLOAD PUSH4 0x391434E3 PUSH1 0xE2 SHL DUP2 MSTORE PUSH1 0x1 PUSH1 0x1 PUSH1 0xA0 SHL SUB DUP6 AND PUSH1 0x4 DUP3 ADD MSTORE PUSH1 0x24 DUP2 ADD DUP3 SWAP1 MSTORE PUSH1 0x44 DUP2 ADD DUP4 SWAP1 MSTORE PUSH1 0x64 ADD PUSH2 0x45D JUMP JUMPDEST PUSH1 0x1 PUSH1 0x1 PUSH1 0xA0 SHL SUB DUP5 AND PUSH0 SWAP1 DUP2 MSTORE PUSH1 0x20 DUP2 SWAP1 MSTORE PUSH1 0x40 SWAP1 KECCAK256 SWAP1 DUP3 SWAP1 SUB SWAP1 SSTORE JUMPDEST PUSH1 0x1 PUSH1 0x1 PUSH1 0xA0 SHL SUB DUP3 AND PUSH2 0xCD3 JUMPI PUSH1 0x2 DUP1 SLOAD DUP3 SWAP1 SUB SWAP1 SSTORE PUSH2 0xCF1 JUMP JUMPDEST PUSH1 0x1 PUSH1 0x1 PUSH1 0xA0 SHL SUB DUP3 AND PUSH0 SWAP1 DUP2 MSTORE PUSH1 0x20 DUP2 SWAP1 MSTORE PUSH1 0x40 SWAP1 KECCAK256 DUP1 SLOAD DUP3 ADD SWAP1 SSTORE JUMPDEST DUP2 PUSH1 0x1 PUSH1 0x1 PUSH1 0xA0 SHL SUB AND DUP4 PUSH1 0x1 PUSH1 0x1 PUSH1 0xA0 SHL SUB AND PUSH32 0xDDF252AD1BE2C89B69C2B068FC378DAA952BA7F163C4A11628F55A4DF523B3EF DUP4 PUSH1 0x40 MLOAD PUSH2 0xD36 SWAP2 DUP2 MSTORE PUSH1 0x20 ADD SWAP1 JUMP JUMPDEST PUSH1 0x40 MLOAD DUP1 SWAP2 SUB SWAP1 LOG3 POP POP POP JUMP JUMPDEST PUSH1 0x20 DUP2 MSTORE PUSH0 DUP3 MLOAD DUP1 PUSH1 0x20 DUP5 ADD MSTORE DUP1 PUSH1 0x20 DUP6 ADD PUSH1 0x40 DUP6 ADD MCOPY PUSH0 PUSH1 0x40 DUP3 DUP6 ADD ADD MSTORE PUSH1 0x40 PUSH1 0x1F NOT PUSH1 0x1F DUP4 ADD AND DUP5 ADD ADD SWAP2 POP POP SWAP3 SWAP2 POP POP JUMP JUMPDEST DUP1 CALLDATALOAD PUSH1 0x1 PUSH1 0x1 PUSH1 0xA0 SHL SUB DUP2 AND DUP2 EQ PUSH2 0xD8E JUMPI PUSH0 PUSH0 REVERT JUMPDEST SWAP2 SWAP1 POP JUMP JUMPDEST PUSH0 PUSH0 PUSH1 0x40 DUP4 DUP6 SUB SLT ISZERO PUSH2 0xDA4 JUMPI PUSH0 PUSH0 REVERT JUMPDEST PUSH2 0xDAD DUP4 PUSH2 0xD78 JUMP JUMPDEST SWAP5 PUSH1 0x20 SWAP4 SWAP1 SWAP4 ADD CALLDATALOAD SWAP4 POP POP POP JUMP JUMPDEST PUSH0 PUSH0 PUSH0 PUSH1 0x60 DUP5 DUP7 SUB SLT ISZERO PUSH2 0xDCD JUMPI PUSH0 PUSH0 REVERT JUMPDEST PUSH2 0xDD6 DUP5 PUSH2 0xD78 JUMP JUMPDEST SWAP3 POP PUSH2 0xDE4 PUSH1 0x20 DUP6 ADD PUSH2 0xD78 JUMP JUMPDEST SWAP3 SWAP6 SWAP3 SWAP5 POP POP POP PUSH1 0x40 SWAP2 SWAP1 SWAP2 ADD CALLDATALOAD SWAP1 JUMP JUMPDEST PUSH0 PUSH1 0x20 DUP3 DUP5 SUB SLT ISZERO PUSH2 0xE05 JUMPI PUSH0 PUSH0 REVERT JUMPDEST POP CALLDATALOAD SWAP2 SWAP1 POP JUMP JUMPDEST PUSH0 PUSH1 0x20 DUP3 DUP5 SUB SLT ISZERO PUSH2 0xE1C JUMPI PUSH0 PUSH0 REVERT JUMPDEST PUSH2 0xE25 DUP3 PUSH2 0xD78 JUMP JUMPDEST SWAP4 SWAP3 POP POP POP JUMP JUMPDEST PUSH0 PUSH0 PUSH1 0x40 DUP4 DUP6 SUB SLT ISZERO PUSH2 0xE3D JUMPI PUSH0 PUSH0 REVERT JUMPDEST PUSH2 0xE46 DUP4 PUSH2 0xD78 JUMP JUMPDEST SWAP2 POP PUSH2 0xE54 PUSH1 0x20 DUP5 ADD PUSH2 0xD78 JUMP JUMPDEST SWAP1 POP SWAP3 POP SWAP3 SWAP1 POP JUMP JUMPDEST PUSH1 0x1 DUP2 DUP2 SHR SWAP1 DUP3 AND DUP1 PUSH2 0xE71 JUMPI PUSH1 0x7F DUP3 AND SWAP2 POP JUMPDEST PUSH1 0x20 DUP3 LT DUP2 SUB PUSH2 0xE8F JUMPI PUSH4 0x4E487B71 PUSH1 0xE0 SHL PUSH0 MSTORE PUSH1 0x22 PUSH1 0x4 MSTORE PUSH1 0x24 PUSH0 REVERT JUMPDEST POP SWAP2 SWAP1 POP JUMP JUMPDEST PUSH0 PUSH1 0x20 DUP3 DUP5 SUB SLT ISZERO PUSH2 0xEA5 JUMPI PUSH0 PUSH0 REVERT JUMPDEST DUP2 MLOAD DUP1 ISZERO ISZERO DUP2 EQ PUSH2 0xE25 JUMPI PUSH0 PUSH0 REVERT JUMPDEST DUP1 DUP3 ADD DUP1 DUP3 GT ISZERO PUSH2 0x3C8 JUMPI PUSH4 0x4E487B71 PUSH1 0xE0 SHL PUSH0 MSTORE PUSH1 0x11 PUSH1 0x4 MSTORE PUSH1 0x24 PUSH0 REVERT INVALID LOG2 PUSH5 0x6970667358 0x22 SLT KECCAK256 DUP10 0x2D DUPN 0xAA PUSH6 0xA75E2CA4FF6D PUSH31 0xD0E0E0910822F908E2C58B460A4F9166A4EF3BE164736F6C634300081E0033 LOG2 PUSH5 0x6970667358 0x22 SLT KECCAK256 0xE8 0xCB LOG0 0xB2 0xDF DUP10 0xC DUP11 RJUMPI 0xC1FE 0x4D 0x2F PUSH0 TSTORE BASEFEE CREATE2 0xBA BASEFEE ORIGIN BLOCKHASH 0xDE DUP4 SMOD SWAP9 ORIGIN ADDMOD 0x21 0xBD DUP10 0x2E RETURN PUSH5 0x736F6C6343 STOP ADDMOD 0x1E STOP CALLER "
		},
		"gasEstimates": {
			"creation": {
				"codeDepositCost": "2852800",
				"executionCost": "infinite",
				"totalCost": "infinite"
			},
			"external": {
				"DECIMALS()": "infinite",
				"INITIAL_MINT()": "infinite",
				"INITIAL_PRICE()": "infinite",
				"MAX_PURCHASE()": "infinite",
				"MAX_SUPPLY()": "infinite",
				"MAX_WALLET_PERCENTAGE()": "infinite",
				"MIN_PURCHASE()": "infinite",
				"PRICE_RATE()": "infinite",
				"TRADING_FEE()": "296",
				"buy(address)": "infinite",
				"calculateBuyPrice(address,uint256)": "infinite",
				"calculateFee(uint256)": "infinite",
				"calculateSellPrice(address,uint256)": "infinite",
				"calculateTokenAmount(address,uint256)": "infinite",
				"collateral(address)": "2572",
				"createToken(string,string,string,address)": "infinite",
				"defaultFundingGoal()": "2372",
				"feeRecipient()": "2404",
				"getAllTokens()": "infinite",
				"getFundingGoal(address)": "2614",
				"getTokenState(address)": "2656",
				"lastPrice(address)": "2615",
				"owner()": "2397",
				"renounceOwnership()": "infinite",
				"resumeTrading(address)": "30318",
				"sell(address,uint256)": "infinite",
				"setDefaultFundingGoal(uint256)": "28047",
				"setFeeRecipient(address)": "28347",
				"setTokenFundingGoal(address,uint256)": "67687",
				"tokenCreators(address)": "2622",
				"tokens(address)": "2680",
				"transferOwnership(address)": "28417",
				"virtualSupply(address)": "2551",
				"withdrawAll()": "infinite"
			},
			"internal": {
				"_calculatePrice(uint256,uint256)": "infinite",
				"calculateTokensForETH(address,uint256)": "infinite"
			}
		},
		"methodIdentifiers": {
			"DECIMALS()": "2e0f2625",
			"INITIAL_MINT()": "ca7df92c",
			"INITIAL_PRICE()": "7c5e2795",
			"MAX_PURCHASE()": "7146bd08",
			"MAX_SUPPLY()": "32cb6b0c",
			"MAX_WALLET_PERCENTAGE()": "06647125",
			"MIN_PURCHASE()": "d439390c",
			"PRICE_RATE()": "3d69229a",
			"TRADING_FEE()": "23531b90",
			"buy(address)": "f088d547",
			"calculateBuyPrice(address,uint256)": "9e52270b",
			"calculateFee(uint256)": "99a5d747",
			"calculateSellPrice(address,uint256)": "f8fc2330",
			"calculateTokenAmount(address,uint256)": "aac61a1f",
			"collateral(address)": "a5fdc5de",
			"createToken(string,string,string,address)": "7b155afa",
			"defaultFundingGoal()": "74a56292",
			"feeRecipient()": "46904840",
			"getAllTokens()": "2a5c792a",
			"getFundingGoal(address)": "212193f6",
			"getTokenState(address)": "0b3eb970",
			"lastPrice(address)": "f5a6ba2e",
			"owner()": "8da5cb5b",
			"renounceOwnership()": "715018a6",
			"resumeTrading(address)": "c5651cc6",
			"sell(address,uint256)": "6c197ff5",
			"setDefaultFundingGoal(uint256)": "58d41bf7",
			"setFeeRecipient(address)": "e74b981b",
			"setTokenFundingGoal(address,uint256)": "96cb2e40",
			"tokenCreators(address)": "ce7e8de8",
			"tokens(address)": "e4860339",
			"transferOwnership(address)": "f2fde38b",
			"virtualSupply(address)": "43267e7a",
			"withdrawAll()": "853828b6"
		}
	},
	"abi": [
		{
			"inputs": [
				{
					"internalType": "address",
					"name": "initialOwner",
					"type": "address"
				}
			],
			"stateMutability": "nonpayable",
			"type": "constructor"
		},
		{
			"inputs": [
				{
					"internalType": "address",
					"name": "owner",
					"type": "address"
				}
			],
			"name": "OwnableInvalidOwner",
			"type": "error"
		},
		{
			"inputs": [
				{
					"internalType": "address",
					"name": "account",
					"type": "address"
				}
			],
			"name": "OwnableUnauthorizedAccount",
			"type": "error"
		},
		{
			"inputs": [],
			"name": "ReentrancyGuardReentrantCall",
			"type": "error"
		},
		{
			"anonymous": false,
			"inputs": [
				{
					"indexed": false,
					"internalType": "uint256",
					"name": "oldGoal",
					"type": "uint256"
				},
				{
					"indexed": false,
					"internalType": "uint256",
					"name": "newGoal",
					"type": "uint256"
				}
			],
			"name": "DefaultFundingGoalUpdated",
			"type": "event"
		},
		{
			"anonymous": false,
			"inputs": [
				{
					"indexed": true,
					"internalType": "address",
					"name": "owner",
					"type": "address"
				},
				{
					"indexed": false,
					"internalType": "uint256",
					"name": "amount",
					"type": "uint256"
				}
			],
			"name": "EmergencyWithdrawal",
			"type": "event"
		},
		{
			"anonymous": false,
			"inputs": [
				{
					"indexed": true,
					"internalType": "address",
					"name": "oldRecipient",
					"type": "address"
				},
				{
					"indexed": true,
					"internalType": "address",
					"name": "newRecipient",
					"type": "address"
				}
			],
			"name": "FeeRecipientUpdated",
			"type": "event"
		},
		{
			"anonymous": false,
			"inputs": [
				{
					"indexed": true,
					"internalType": "address",
					"name": "previousOwner",
					"type": "address"
				},
				{
					"indexed": true,
					"internalType": "address",
					"name": "newOwner",
					"type": "address"
				}
			],
			"name": "OwnershipTransferred",
			"type": "event"
		},
		{
			"anonymous": false,
			"inputs": [
				{
					"indexed": true,
					"internalType": "address",
					"name": "tokenAddress",
					"type": "address"
				},
				{
					"indexed": false,
					"internalType": "string",
					"name": "name",
					"type": "string"
				},
				{
					"indexed": false,
					"internalType": "string",
					"name": "symbol",
					"type": "string"
				},
				{
					"indexed": false,
					"internalType": "string",
					"name": "imageUrl",
					"type": "string"
				},
				{
					"indexed": false,
					"internalType": "address",
					"name": "creator",
					"type": "address"
				},
				{
					"indexed": false,
					"internalType": "uint256",
					"name": "fundingGoal",
					"type": "uint256"
				},
				{
					"indexed": false,
					"internalType": "address",
					"name": "burnManager",
					"type": "address"
				}
			],
			"name": "TokenCreated",
			"type": "event"
		},
		{
			"anonymous": false,
			"inputs": [
				{
					"indexed": true,
					"internalType": "address",
					"name": "token",
					"type": "address"
				},
				{
					"indexed": false,
					"internalType": "uint256",
					"name": "oldGoal",
					"type": "uint256"
				},
				{
					"indexed": false,
					"internalType": "uint256",
					"name": "newGoal",
					"type": "uint256"
				}
			],
			"name": "TokenFundingGoalUpdated",
			"type": "event"
		},
		{
			"anonymous": false,
			"inputs": [
				{
					"indexed": true,
					"internalType": "address",
					"name": "token",
					"type": "address"
				},
				{
					"indexed": true,
					"internalType": "address",
					"name": "buyer",
					"type": "address"
				},
				{
					"indexed": false,
					"internalType": "uint256",
					"name": "amount",
					"type": "uint256"
				},
				{
					"indexed": false,
					"internalType": "uint256",
					"name": "price",
					"type": "uint256"
				},
				{
					"indexed": false,
					"internalType": "uint256",
					"name": "fee",
					"type": "uint256"
				}
			],
			"name": "TokensPurchased",
			"type": "event"
		},
		{
			"anonymous": false,
			"inputs": [
				{
					"indexed": true,
					"internalType": "address",
					"name": "token",
					"type": "address"
				},
				{
					"indexed": true,
					"internalType": "address",
					"name": "seller",
					"type": "address"
				},
				{
					"indexed": false,
					"internalType": "uint256",
					"name": "tokenAmount",
					"type": "uint256"
				},
				{
					"indexed": false,
					"internalType": "uint256",
					"name": "ethAmount",
					"type": "uint256"
				},
				{
					"indexed": false,
					"internalType": "uint256",
					"name": "fee",
					"type": "uint256"
				}
			],
			"name": "TokensSold",
			"type": "event"
		},
		{
			"anonymous": false,
			"inputs": [
				{
					"indexed": true,
					"internalType": "address",
					"name": "token",
					"type": "address"
				},
				{
					"indexed": false,
					"internalType": "uint256",
					"name": "collateral",
					"type": "uint256"
				}
			],
			"name": "TradingHalted",
			"type": "event"
		},
		{
			"anonymous": false,
			"inputs": [
				{
					"indexed": true,
					"internalType": "address",
					"name": "token",
					"type": "address"
				}
			],
			"name": "TradingResumed",
			"type": "event"
		},
		{
			"inputs": [],
			"name": "DECIMALS",
			"outputs": [
				{
					"internalType": "uint256",
					"name": "",
					"type": "uint256"
				}
			],
			"stateMutability": "view",
			"type": "function"
		},
		{
			"inputs": [],
			"name": "INITIAL_MINT",
			"outputs": [
				{
					"internalType": "uint256",
					"name": "",
					"type": "uint256"
				}
			],
			"stateMutability": "view",
			"type": "function"
		},
		{
			"inputs": [],
			"name": "INITIAL_PRICE",
			"outputs": [
				{
					"internalType": "uint256",
					"name": "",
					"type": "uint256"
				}
			],
			"stateMutability": "view",
			"type": "function"
		},
		{
			"inputs": [],
			"name": "MAX_PURCHASE",
			"outputs": [
				{
					"internalType": "uint256",
					"name": "",
					"type": "uint256"
				}
			],
			"stateMutability": "view",
			"type": "function"
		},
		{
			"inputs": [],
			"name": "MAX_SUPPLY",
			"outputs": [
				{
					"internalType": "uint256",
					"name": "",
					"type": "uint256"
				}
			],
			"stateMutability": "view",
			"type": "function"
		},
		{
			"inputs": [],
			"name": "MAX_WALLET_PERCENTAGE",
			"outputs": [
				{
					"internalType": "uint256",
					"name": "",
					"type": "uint256"
				}
			],
			"stateMutability": "view",
			"type": "function"
		},
		{
			"inputs": [],
			"name": "MIN_PURCHASE",
			"outputs": [
				{
					"internalType": "uint256",
					"name": "",
					"type": "uint256"
				}
			],
			"stateMutability": "view",
			"type": "function"
		},
		{
			"inputs": [],
			"name": "PRICE_RATE",
			"outputs": [
				{
					"internalType": "uint256",
					"name": "",
					"type": "uint256"
				}
			],
			"stateMutability": "view",
			"type": "function"
		},
		{
			"inputs": [],
			"name": "TRADING_FEE",
			"outputs": [
				{
					"internalType": "uint256",
					"name": "",
					"type": "uint256"
				}
			],
			"stateMutability": "view",
			"type": "function"
		},
		{
			"inputs": [
				{
					"internalType": "address",
					"name": "tokenAddress",
					"type": "address"
				}
			],
			"name": "buy",
			"outputs": [],
			"stateMutability": "payable",
			"type": "function"
		},
		{
			"inputs": [
				{
					"internalType": "address",
					"name": "tokenAddress",
					"type": "address"
				},
				{
					"internalType": "uint256",
					"name": "tokenAmount",
					"type": "uint256"
				}
			],
			"name": "calculateBuyPrice",
			"outputs": [
				{
					"internalType": "uint256",
					"name": "",
					"type": "uint256"
				}
			],
			"stateMutability": "view",
			"type": "function"
		},
		{
			"inputs": [
				{
					"internalType": "uint256",
					"name": "amount",
					"type": "uint256"
				}
			],
			"name": "calculateFee",
			"outputs": [
				{
					"internalType": "uint256",
					"name": "",
					"type": "uint256"
				}
			],
			"stateMutability": "pure",
			"type": "function"
		},
		{
			"inputs": [
				{
					"internalType": "address",
					"name": "tokenAddress",
					"type": "address"
				},
				{
					"internalType": "uint256",
					"name": "tokenAmount",
					"type": "uint256"
				}
			],
			"name": "calculateSellPrice",
			"outputs": [
				{
					"internalType": "uint256",
					"name": "",
					"type": "uint256"
				}
			],
			"stateMutability": "view",
			"type": "function"
		},
		{
			"inputs": [
				{
					"internalType": "address",
					"name": "tokenAddress",
					"type": "address"
				},
				{
					"internalType": "uint256",
					"name": "ethAmount",
					"type": "uint256"
				}
			],
			"name": "calculateTokenAmount",
			"outputs": [
				{
					"internalType": "uint256",
					"name": "",
					"type": "uint256"
				}
			],
			"stateMutability": "view",
			"type": "function"
		},
		{
			"inputs": [
				{
					"internalType": "address",
					"name": "",
					"type": "address"
				}
			],
			"name": "collateral",
			"outputs": [
				{
					"internalType": "uint256",
					"name": "",
					"type": "uint256"
				}
			],
			"stateMutability": "view",
			"type": "function"
		},
		{
			"inputs": [
				{
					"internalType": "string",
					"name": "name",
					"type": "string"
				},
				{
					"internalType": "string",
					"name": "symbol",
					"type": "string"
				},
				{
					"internalType": "string",
					"name": "imageUrl",
					"type": "string"
				},
				{
					"internalType": "address",
					"name": "burnManager",
					"type": "address"
				}
			],
			"name": "createToken",
			"outputs": [
				{
					"internalType": "address",
					"name": "",
					"type": "address"
				}
			],
			"stateMutability": "nonpayable",
			"type": "function"
		},
		{
			"inputs": [],
			"name": "defaultFundingGoal",
			"outputs": [
				{
					"internalType": "uint256",
					"name": "",
					"type": "uint256"
				}
			],
			"stateMutability": "view",
			"type": "function"
		},
		{
			"inputs": [],
			"name": "feeRecipient",
			"outputs": [
				{
					"internalType": "address",
					"name": "",
					"type": "address"
				}
			],
			"stateMutability": "view",
			"type": "function"
		},
		{
			"inputs": [],
			"name": "getAllTokens",
			"outputs": [
				{
					"internalType": "address[]",
					"name": "",
					"type": "address[]"
				}
			],
			"stateMutability": "view",
			"type": "function"
		},
		{
			"inputs": [
				{
					"internalType": "address",
					"name": "token",
					"type": "address"
				}
			],
			"name": "getFundingGoal",
			"outputs": [
				{
					"internalType": "uint256",
					"name": "",
					"type": "uint256"
				}
			],
			"stateMutability": "view",
			"type": "function"
		},
		{
			"inputs": [
				{
					"internalType": "address",
					"name": "token",
					"type": "address"
				}
			],
			"name": "getTokenState",
			"outputs": [
				{
					"internalType": "enum TokenFactory.TokenState",
					"name": "",
					"type": "uint8"
				}
			],
			"stateMutability": "view",
			"type": "function"
		},
		{
			"inputs": [
				{
					"internalType": "address",
					"name": "",
					"type": "address"
				}
			],
			"name": "lastPrice",
			"outputs": [
				{
					"internalType": "uint256",
					"name": "",
					"type": "uint256"
				}
			],
			"stateMutability": "view",
			"type": "function"
		},
		{
			"inputs": [],
			"name": "owner",
			"outputs": [
				{
					"internalType": "address",
					"name": "",
					"type": "address"
				}
			],
			"stateMutability": "view",
			"type": "function"
		},
		{
			"inputs": [],
			"name": "renounceOwnership",
			"outputs": [],
			"stateMutability": "nonpayable",
			"type": "function"
		},
		{
			"inputs": [
				{
					"internalType": "address",
					"name": "tokenAddress",
					"type": "address"
				}
			],
			"name": "resumeTrading",
			"outputs": [],
			"stateMutability": "nonpayable",
			"type": "function"
		},
		{
			"inputs": [
				{
					"internalType": "address",
					"name": "tokenAddress",
					"type": "address"
				},
				{
					"internalType": "uint256",
					"name": "tokenAmount",
					"type": "uint256"
				}
			],
			"name": "sell",
			"outputs": [],
			"stateMutability": "nonpayable",
			"type": "function"
		},
		{
			"inputs": [
				{
					"internalType": "uint256",
					"name": "newGoal",
					"type": "uint256"
				}
			],
			"name": "setDefaultFundingGoal",
			"outputs": [],
			"stateMutability": "nonpayable",
			"type": "function"
		},
		{
			"inputs": [
				{
					"internalType": "address",
					"name": "newRecipient",
					"type": "address"
				}
			],
			"name": "setFeeRecipient",
			"outputs": [],
			"stateMutability": "nonpayable",
			"type": "function"
		},
		{
			"inputs": [
				{
					"internalType": "address",
					"name": "tokenAddress",
					"type": "address"
				},
				{
					"internalType": "uint256",
					"name": "newGoal",
					"type": "uint256"
				}
			],
			"name": "setTokenFundingGoal",
			"outputs": [],
			"stateMutability": "nonpayable",
			"type": "function"
		},
		{
			"inputs": [
				{
					"internalType": "address",
					"name": "",
					"type": "address"
				}
			],
			"name": "tokenCreators",
			"outputs": [
				{
					"internalType": "address",
					"name": "",
					"type": "address"
				}
			],
			"stateMutability": "view",
			"type": "function"
		},
		{
			"inputs": [
				{
					"internalType": "address",
					"name": "",
					"type": "address"
				}
			],
			"name": "tokens",
			"outputs": [
				{
					"internalType": "enum TokenFactory.TokenState",
					"name": "",
					"type": "uint8"
				}
			],
			"stateMutability": "view",
			"type": "function"
		},
		{
			"inputs": [
				{
					"internalType": "address",
					"name": "newOwner",
					"type": "address"
				}
			],
			"name": "transferOwnership",
			"outputs": [],
			"stateMutability": "nonpayable",
			"type": "function"
		},
		{
			"inputs": [
				{
					"internalType": "address",
					"name": "",
					"type": "address"
				}
			],
			"name": "virtualSupply",
			"outputs": [
				{
					"internalType": "uint256",
					"name": "",
					"type": "uint256"
				}
			],
			"stateMutability": "view",
			"type": "function"
		},
		{
			"inputs": [],
			"name": "withdrawAll",
			"outputs": [],
			"stateMutability": "nonpayable",
			"type": "function"
		}
	]
}