{
	"VettedToken.sol": {
		"Token": {
			"abi": [
				{
					"inputs": [
						{
							"internalType": "address",
							"name": "initialOwner",
							"type": "address"
						},
						{
							"internalType": "address",
							"name": "_creator",
							"type": "address"
						},
						{
							"internalType": "string",
							"name": "name",
							"type": "string"
						},
						{
							"internalType": "string",
							"name": "symbol",
							"type": "string"
						},
						{
							"internalType": "string",
							"name": "_imageUrl",
							"type": "string"
						},
						{
							"internalType": "address",
							"name": "_burnManager",
							"type": "address"
						}
					],
					"stateMutability": "nonpayable",
					"type": "constructor"
				},
				{
					"inputs": [
						{
							"internalType": "address",
							"name": "spender",
							"type": "address"
						},
						{
							"internalType": "uint256",
							"name": "allowance",
							"type": "uint256"
						},
						{
							"internalType": "uint256",
							"name": "needed",
							"type": "uint256"
						}
					],
					"name": "ERC20InsufficientAllowance",
					"type": "error"
				},
				{
					"inputs": [
						{
							"internalType": "address",
							"name": "sender",
							"type": "address"
						},
						{
							"internalType": "uint256",
							"name": "balance",
							"type": "uint256"
						},
						{
							"internalType": "uint256",
							"name": "needed",
							"type": "uint256"
						}
					],
					"name": "ERC20InsufficientBalance",
					"type": "error"
				},
				{
					"inputs": [
						{
							"internalType": "address",
							"name": "approver",
							"type": "address"
						}
					],
					"name": "ERC20InvalidApprover",
					"type": "error"
				},
				{
					"inputs": [
						{
							"internalType": "address",
							"name": "receiver",
							"type": "address"
						}
					],
					"name": "ERC20InvalidReceiver",
					"type": "error"
				},
				{
					"inputs": [
						{
							"internalType": "address",
							"name": "sender",
							"type": "address"
						}
					],
					"name": "ERC20InvalidSender",
					"type": "error"
				},
				{
					"inputs": [
						{
							"internalType": "address",
							"name": "spender",
							"type": "address"
						}
					],
					"name": "ERC20InvalidSpender",
					"type": "error"
				},
				{
					"inputs": [
						{
							"internalType": "address",
							"name": "owner",
							"type": "address"
						}
					],
					"name": "OwnableInvalidOwner",
					"type": "error"
				},
				{
					"inputs": [
						{
							"internalType": "address",
							"name": "account",
							"type": "address"
						}
					],
					"name": "OwnableUnauthorizedAccount",
					"type": "error"
				},
				{
					"anonymous": false,
					"inputs": [
						{
							"indexed": true,
							"internalType": "address",
							"name": "owner",
							"type": "address"
						},
						{
							"indexed": true,
							"internalType": "address",
							"name": "spender",
							"type": "address"
						},
						{
							"indexed": false,
							"internalType": "uint256",
							"name": "value",
							"type": "uint256"
						}
					],
					"name": "Approval",
					"type": "event"
				},
				{
					"anonymous": false,
					"inputs": [
						{
							"indexed": true,
							"internalType": "address",
							"name": "oldManager",
							"type": "address"
						},
						{
							"indexed": true,
							"internalType": "address",
							"name": "newManager",
							"type": "address"
						}
					],
					"name": "BurnManagerSet",
					"type": "event"
				},
				{
					"anonymous": false,
					"inputs": [
						{
							"indexed": true,
							"internalType": "address",
							"name": "previousOwner",
							"type": "address"
						},
						{
							"indexed": true,
							"internalType": "address",
							"name": "newOwner",
							"type": "address"
						}
					],
					"name": "OwnershipTransferred",
					"type": "event"
				},
				{
					"anonymous": false,
					"inputs": [
						{
							"indexed": true,
							"internalType": "address",
							"name": "burner",
							"type": "address"
						},
						{
							"indexed": false,
							"internalType": "uint256",
							"name": "amount",
							"type": "uint256"
						},
						{
							"indexed": true,
							"internalType": "enum Token.BurnType",
							"name": "burnType",
							"type": "uint8"
						},
						{
							"indexed": false,
							"internalType": "uint256",
							"name": "newTotalSupply",
							"type": "uint256"
						}
					],
					"name": "TokensBurned",
					"type": "event"
				},
				{
					"anonymous": false,
					"inputs": [
						{
							"indexed": true,
							"internalType": "address",
							"name": "from",
							"type": "address"
						},
						{
							"indexed": true,
							"internalType": "address",
							"name": "to",
							"type": "address"
						},
						{
							"indexed": false,
							"internalType": "uint256",
							"name": "value",
							"type": "uint256"
						}
					],
					"name": "Transfer",
					"type": "event"
				},
				{
					"inputs": [
						{
							"internalType": "address",
							"name": "owner",
							"type": "address"
						},
						{
							"internalType": "address",
							"name": "spender",
							"type": "address"
						}
					],
					"name": "allowance",
					"outputs": [
						{
							"internalType": "uint256",
							"name": "",
							"type": "uint256"
						}
					],
					"stateMutability": "view",
					"type": "function"
				},
				{
					"inputs": [
						{
							"internalType": "address",
							"name": "spender",
							"type": "address"
						},
						{
							"internalType": "uint256",
							"name": "value",
							"type": "uint256"
						}
					],
					"name": "approve",
					"outputs": [
						{
							"internalType": "bool",
							"name": "",
							"type": "bool"
						}
					],
					"stateMutability": "nonpayable",
					"type": "function"
				},
				{
					"inputs": [
						{
							"internalType": "address",
							"name": "account",
							"type": "address"
						}
					],
					"name": "balanceOf",
					"outputs": [
						{
							"internalType": "uint256",
							"name": "",
							"type": "uint256"
						}
					],
					"stateMutability": "view",
					"type": "function"
				},
				{
					"inputs": [
						{
							"internalType": "uint256",
							"name": "amount",
							"type": "uint256"
						}
					],
					"name": "burn",
					"outputs": [],
					"stateMutability": "nonpayable",
					"type": "function"
				},
				{
					"inputs": [],
					"name": "burnManager",
					"outputs": [
						{
							"internalType": "address",
							"name": "",
							"type": "address"
						}
					],
					"stateMutability": "view",
					"type": "function"
				},
				{
					"inputs": [],
					"name": "creator",
					"outputs": [
						{
							"internalType": "address",
							"name": "",
							"type": "address"
						}
					],
					"stateMutability": "view",
					"type": "function"
				},
				{
					"inputs": [],
					"name": "decimals",
					"outputs": [
						{
							"internalType": "uint8",
							"name": "",
							"type": "uint8"
						}
					],
					"stateMutability": "view",
					"type": "function"
				},
				{
					"inputs": [
						{
							"internalType": "address",
							"name": "from",
							"type": "address"
						},
						{
							"internalType": "uint256",
							"name": "amount",
							"type": "uint256"
						}
					],
					"name": "factoryBurn",
					"outputs": [],
					"stateMutability": "nonpayable",
					"type": "function"
				},
				{
					"inputs": [],
					"name": "imageUrl",
					"outputs": [
						{
							"internalType": "string",
							"name": "",
							"type": "string"
						}
					],
					"stateMutability": "view",
					"type": "function"
				},
				{
					"inputs": [
						{
							"internalType": "address",
							"name": "to",
							"type": "address"
						},
						{
							"internalType": "uint256",
							"name": "amount",
							"type": "uint256"
						}
					],
					"name": "mint",
					"outputs": [],
					"stateMutability": "nonpayable",
					"type": "function"
				},
				{
					"inputs": [],
					"name": "name",
					"outputs": [
						{
							"internalType": "string",
							"name": "",
							"type": "string"
						}
					],
					"stateMutability": "view",
					"type": "function"
				},
				{
					"inputs": [],
					"name": "owner",
					"outputs": [
						{
							"internalType": "address",
							"name": "",
							"type": "address"
						}
					],
					"stateMutability": "view",
					"type": "function"
				},
				{
					"inputs": [],
					"name": "renounceOwnership",
					"outputs": [],
					"stateMutability": "nonpayable",
					"type": "function"
				},
				{
					"inputs": [
						{
							"internalType": "address",
							"name": "newManager",
							"type": "address"
						}
					],
					"name": "setBurnManager",
					"outputs": [],
					"stateMutability": "nonpayable",
					"type": "function"
				},
				{
					"inputs": [],
					"name": "symbol",
					"outputs": [
						{
							"internalType": "string",
							"name": "",
							"type": "string"
						}
					],
					"stateMutability": "view",
					"type": "function"
				},
				{
					"inputs": [],
					"name": "test",
					"outputs": [
						{
							"internalType": "string",
							"name": "",
							"type": "string"
						}
					],
					"stateMutability": "view",
					"type": "function"
				},
				{
					"inputs": [],
					"name": "tokenFactory",
					"outputs": [
						{
							"internalType": "address",
							"name": "",
							"type": "address"
						}
					],
					"stateMutability": "view",
					"type": "function"
				},
				{
					"inputs": [],
					"name": "totalSupply",
					"outputs": [
						{
							"internalType": "uint256",
							"name": "",
							"type": "uint256"
						}
					],
					"stateMutability": "view",
					"type": "function"
				},
				{
					"inputs": [
						{
							"internalType": "address",
							"name": "to",
							"type": "address"
						},
						{
							"internalType": "uint256",
							"name": "value",
							"type": "uint256"
						}
					],
					"name": "transfer",
					"outputs": [
						{
							"internalType": "bool",
							"name": "",
							"type": "bool"
						}
					],
					"stateMutability": "nonpayable",
					"type": "function"
				},
				{
					"inputs": [
						{
							"internalType": "address",
							"name": "from",
							"type": "address"
						},
						{
							"internalType": "address",
							"name": "to",
							"type": "address"
						},
						{
							"internalType": "uint256",
							"name": "value",
							"type": "uint256"
						}
					],
					"name": "transferFrom",
					"outputs": [
						{
							"internalType": "bool",
							"name": "",
							"type": "bool"
						}
					],
					"stateMutability": "nonpayable",
					"type": "function"
				},
				{
					"inputs": [
						{
							"internalType": "address",
							"name": "newOwner",
							"type": "address"
						}
					],
					"name": "transferOwnership",
					"outputs": [],
					"stateMutability": "nonpayable",
					"type": "function"
				}
			],
			"devdoc": {
				"errors": {
					"ERC20InsufficientAllowance(address,uint256,uint256)": [
						{
							"details": "Indicates a failure with the `spender`’s `allowance`. Used in transfers.",
							"params": {
								"allowance": "Amount of tokens a `spender` is allowed to operate with.",
								"needed": "Minimum amount required to perform a transfer.",
								"spender": "Address that may be allowed to operate on tokens without being their owner."
							}
						}
					],
					"ERC20InsufficientBalance(address,uint256,uint256)": [
						{
							"details": "Indicates an error related to the current `balance` of a `sender`. Used in transfers.",
							"params": {
								"balance": "Current balance for the interacting account.",
								"needed": "Minimum amount required to perform a transfer.",
								"sender": "Address whose tokens are being transferred."
							}
						}
					],
					"ERC20InvalidApprover(address)": [
						{
							"details": "Indicates a failure with the `approver` of a token to be approved. Used in approvals.",
							"params": {
								"approver": "Address initiating an approval operation."
							}
						}
					],
					"ERC20InvalidReceiver(address)": [
						{
							"details": "Indicates a failure with the token `receiver`. Used in transfers.",
							"params": {
								"receiver": "Address to which tokens are being transferred."
							}
						}
					],
					"ERC20InvalidSender(address)": [
						{
							"details": "Indicates a failure with the token `sender`. Used in transfers.",
							"params": {
								"sender": "Address whose tokens are being transferred."
							}
						}
					],
					"ERC20InvalidSpender(address)": [
						{
							"details": "Indicates a failure with the `spender` to be approved. Used in approvals.",
							"params": {
								"spender": "Address that may be allowed to operate on tokens without being their owner."
							}
						}
					],
					"OwnableInvalidOwner(address)": [
						{
							"details": "The owner is not a valid owner account. (eg. `address(0)`)"
						}
					],
					"OwnableUnauthorizedAccount(address)": [
						{
							"details": "The caller account is not authorized to perform an operation."
						}
					]
				},
				"events": {
					"Approval(address,address,uint256)": {
						"details": "Emitted when the allowance of a `spender` for an `owner` is set by a call to {approve}. `value` is the new allowance."
					},
					"Transfer(address,address,uint256)": {
						"details": "Emitted when `value` tokens are moved from one account (`from`) to another (`to`). Note that `value` may be zero."
					}
				},
				"kind": "dev",
				"methods": {
					"allowance(address,address)": {
						"details": "See {IERC20-allowance}."
					},
					"approve(address,uint256)": {
						"details": "See {IERC20-approve}. NOTE: If `value` is the maximum `uint256`, the allowance is not updated on `transferFrom`. This is semantically equivalent to an infinite approval. Requirements: - `spender` cannot be the zero address."
					},
					"balanceOf(address)": {
						"details": "See {IERC20-balanceOf}."
					},
					"decimals()": {
						"details": "Returns the number of decimals used to get its user representation. For example, if `decimals` equals `2`, a balance of `505` tokens should be displayed to a user as `5.05` (`505 / 10 ** 2`). Tokens usually opt for a value of 18, imitating the relationship between Ether and Wei. This is the default value returned by this function, unless it's overridden. NOTE: This information is only used for _display_ purposes: it in no way affects any of the arithmetic of the contract, including {IERC20-balanceOf} and {IERC20-transfer}."
					},
					"name()": {
						"details": "Returns the name of the token."
					},
					"owner()": {
						"details": "Returns the address of the current owner."
					},
					"renounceOwnership()": {
						"details": "Leaves the contract without owner. It will not be possible to call `onlyOwner` functions. Can only be called by the current owner. NOTE: Renouncing ownership will leave the contract without an owner, thereby disabling any functionality that is only available to the owner."
					},
					"symbol()": {
						"details": "Returns the symbol of the token, usually a shorter version of the name."
					},
					"totalSupply()": {
						"details": "See {IERC20-totalSupply}."
					},
					"transfer(address,uint256)": {
						"details": "See {IERC20-transfer}. Requirements: - `to` cannot be the zero address. - the caller must have a balance of at least `value`."
					},
					"transferFrom(address,address,uint256)": {
						"details": "See {IERC20-transferFrom}. Skips emitting an {Approval} event indicating an allowance update. This is not required by the ERC. See {xref-ERC20-_approve-address-address-uint256-bool-}[_approve]. NOTE: Does not update the allowance if the current allowance is the maximum `uint256`. Requirements: - `from` and `to` cannot be the zero address. - `from` must have a balance of at least `value`. - the caller must have allowance for ``from``'s tokens of at least `value`."
					},
					"transferOwnership(address)": {
						"details": "Transfers ownership of the contract to a new account (`newOwner`). Can only be called by the current owner."
					}
				},
				"version": 1
			},
			"evm": {
				"assembly": "    /* \"VettedToken.sol\":345:3231  contract Token is ERC20, Ownable {... */\n  mstore(0x40, 0xc0)\n    /* \"VettedToken.sol\":892:1704  constructor(... */\n  callvalue\n  dup1\n  iszero\n  tag_1\n  jumpi\n  revert(0x00, 0x00)\ntag_1:\n  pop\n  mload(0x40)\n  sub(codesize, bytecodeSize)\n  dup1\n  bytecodeSize\n  dup4\n  codecopy\n  dup2\n  add\n  0x40\n  dup2\n  swap1\n  mstore\n  tag_2\n  swap2\n  tag_3\n  jump\t// in\ntag_2:\n    /* \"VettedToken.sol\":1184:1196  initialOwner */\n  dup6\n    /* \"VettedToken.sol\":1162:1166  name */\n  dup5\n    /* \"VettedToken.sol\":1168:1174  symbol */\n  dup5\n    /* \"@openzeppelin/contracts/token/ERC20/ERC20.sol\":1648:1653  _name */\n  0x03\n    /* \"@openzeppelin/contracts/token/ERC20/ERC20.sol\":1648:1661  _name = name_ */\n  tag_8\n    /* \"VettedToken.sol\":1162:1166  name */\n  dup4\n    /* \"@openzeppelin/contracts/token/ERC20/ERC20.sol\":1648:1653  _name */\n  dup3\n    /* \"@openzeppelin/contracts/token/ERC20/ERC20.sol\":1648:1661  _name = name_ */\n  tag_9\n  jump\t// in\ntag_8:\n  pop\n    /* \"@openzeppelin/contracts/token/ERC20/ERC20.sol\":1671:1678  _symbol */\n  0x04\n    /* \"@openzeppelin/contracts/token/ERC20/ERC20.sol\":1671:1688  _symbol = symbol_ */\n  tag_10\n    /* \"@openzeppelin/contracts/token/ERC20/ERC20.sol\":1681:1688  symbol_ */\n  dup3\n    /* \"@openzeppelin/contracts/token/ERC20/ERC20.sol\":1671:1678  _symbol */\n  dup3\n    /* \"@openzeppelin/contracts/token/ERC20/ERC20.sol\":1671:1688  _symbol = symbol_ */\n  tag_9\n  jump\t// in\ntag_10:\n  pop\n  pop\n  pop\n  sub(shl(0xa0, 0x01), 0x01)\n    /* \"@openzeppelin/contracts/access/Ownable.sol\":1273:1299  initialOwner == address(0) */\n  dup2\n  and\n    /* \"@openzeppelin/contracts/access/Ownable.sol\":1269:1364  if (initialOwner == address(0)) {... */\n  tag_12\n  jumpi\n    /* \"@openzeppelin/contracts/access/Ownable.sol\":1322:1353  OwnableInvalidOwner(address(0)) */\n  mload(0x40)\n  shl(0xe0, 0x1e4fbdf7)\n  dup2\n  mstore\n    /* \"@openzeppelin/contracts/access/Ownable.sol\":1350:1351  0 */\n  0x00\n    /* \"@openzeppelin/contracts/access/Ownable.sol\":1322:1353  OwnableInvalidOwner(address(0)) */\n  0x04\n  dup3\n  add\n    /* \"#utility.yul\":4751:4802   */\n  mstore\n    /* \"#utility.yul\":4724:4742   */\n  0x24\n  add\n    /* \"@openzeppelin/contracts/access/Ownable.sol\":1322:1353  OwnableInvalidOwner(address(0)) */\ntag_13:\n  mload(0x40)\n  dup1\n  swap2\n  sub\n  swap1\n  revert\n    /* \"@openzeppelin/contracts/access/Ownable.sol\":1269:1364  if (initialOwner == address(0)) {... */\ntag_12:\n    /* \"@openzeppelin/contracts/access/Ownable.sol\":1373:1405  _transferOwnership(initialOwner) */\n  tag_15\n    /* \"@openzeppelin/contracts/access/Ownable.sol\":1392:1404  initialOwner */\n  dup2\n    /* \"@openzeppelin/contracts/access/Ownable.sol\":1373:1391  _transferOwnership */\n  tag_16\n    /* \"@openzeppelin/contracts/access/Ownable.sol\":1373:1405  _transferOwnership(initialOwner) */\n  jump\t// in\ntag_15:\n  pop\n  sub(shl(0xa0, 0x01), 0x01)\n    /* \"VettedToken.sol\":1217:1243  initialOwner != address(0) */\n  dup7\n  and\n    /* \"VettedToken.sol\":1209:1271  require(initialOwner != address(0), \"Invalid factory address\") */\n  tag_18\n  jumpi\n  mload(0x40)\n  shl(0xe5, 0x461bcd)\n  dup2\n  mstore\n    /* \"#utility.yul\":5015:5017   */\n  0x20\n    /* \"VettedToken.sol\":1209:1271  require(initialOwner != address(0), \"Invalid factory address\") */\n  0x04\n  dup3\n  add\n    /* \"#utility.yul\":4997:5018   */\n  mstore\n    /* \"#utility.yul\":5054:5056   */\n  0x17\n    /* \"#utility.yul\":5034:5052   */\n  0x24\n  dup3\n  add\n    /* \"#utility.yul\":5027:5057   */\n  mstore\n    /* \"#utility.yul\":5093:5118   */\n  0x496e76616c696420666163746f72792061646472657373000000000000000000\n    /* \"#utility.yul\":5073:5091   */\n  0x44\n  dup3\n  add\n    /* \"#utility.yul\":5066:5119   */\n  mstore\n    /* \"#utility.yul\":5136:5154   */\n  0x64\n  add\n    /* \"VettedToken.sol\":1209:1271  require(initialOwner != address(0), \"Invalid factory address\") */\n  tag_13\n    /* \"#utility.yul\":4813:5160   */\n  jump\n    /* \"VettedToken.sol\":1209:1271  require(initialOwner != address(0), \"Invalid factory address\") */\ntag_18:\n  sub(shl(0xa0, 0x01), 0x01)\n    /* \"VettedToken.sol\":1290:1312  _creator != address(0) */\n  dup6\n  and\n    /* \"VettedToken.sol\":1282:1340  require(_creator != address(0), \"Invalid creator address\") */\n  tag_21\n  jumpi\n  mload(0x40)\n  shl(0xe5, 0x461bcd)\n  dup2\n  mstore\n    /* \"#utility.yul\":5367:5369   */\n  0x20\n    /* \"VettedToken.sol\":1282:1340  require(_creator != address(0), \"Invalid creator address\") */\n  0x04\n  dup3\n  add\n    /* \"#utility.yul\":5349:5370   */\n  mstore\n    /* \"#utility.yul\":5406:5408   */\n  0x17\n    /* \"#utility.yul\":5386:5404   */\n  0x24\n  dup3\n  add\n    /* \"#utility.yul\":5379:5409   */\n  mstore\n    /* \"#utility.yul\":5445:5470   */\n  0x496e76616c69642063726561746f722061646472657373000000000000000000\n    /* \"#utility.yul\":5425:5443   */\n  0x44\n  dup3\n  add\n    /* \"#utility.yul\":5418:5471   */\n  mstore\n    /* \"#utility.yul\":5488:5506   */\n  0x64\n  add\n    /* \"VettedToken.sol\":1282:1340  require(_creator != address(0), \"Invalid creator address\") */\n  tag_13\n    /* \"#utility.yul\":5165:5512   */\n  jump\n    /* \"VettedToken.sol\":1282:1340  require(_creator != address(0), \"Invalid creator address\") */\ntag_21:\n  sub(shl(0xa0, 0x01), 0x01)\n    /* \"VettedToken.sol\":1353:1380  tokenFactory = initialOwner */\n  dup1\n  dup8\n  and\n  0x80\n  mstore\n    /* \"VettedToken.sol\":1391:1409  creator = _creator */\n  dup6\n  and\n  0xa0\n  mstore\n    /* \"VettedToken.sol\":1420:1428  imageUrl */\n  0x06\n    /* \"VettedToken.sol\":1420:1440  imageUrl = _imageUrl */\n  tag_24\n    /* \"VettedToken.sol\":1431:1440  _imageUrl */\n  dup4\n    /* \"VettedToken.sol\":1420:1428  imageUrl */\n  dup3\n    /* \"VettedToken.sol\":1420:1440  imageUrl = _imageUrl */\n  tag_9\n  jump\t// in\ntag_24:\n  pop\n  sub(shl(0xa0, 0x01), 0x01)\n    /* \"VettedToken.sol\":1457:1483  _burnManager != address(0) */\n  dup2\n  and\n  iszero\n    /* \"VettedToken.sol\":1453:1697  if (_burnManager != address(0)) {... */\n  tag_25\n  jumpi\n    /* \"VettedToken.sol\":1526:1581  IBurnManager(_burnManager).supportsToken(address(this)) */\n  mload(0x40)\n  shl(0xe4, 0x61f765)\n  dup2\n  mstore\n    /* \"VettedToken.sol\":1575:1579  this */\n  address\n    /* \"VettedToken.sol\":1526:1581  IBurnManager(_burnManager).supportsToken(address(this)) */\n  0x04\n  dup3\n  add\n    /* \"#utility.yul\":4751:4802   */\n  mstore\n  sub(shl(0xa0, 0x01), 0x01)\n    /* \"VettedToken.sol\":1526:1566  IBurnManager(_burnManager).supportsToken */\n  dup3\n  and\n  swap1\n  0x061f7650\n  swap1\n    /* \"#utility.yul\":4724:4742   */\n  0x24\n  add\n    /* \"VettedToken.sol\":1526:1581  IBurnManager(_burnManager).supportsToken(address(this)) */\n  0x20\n  mload(0x40)\n  dup1\n  dup4\n  sub\n  dup2\n  dup7\n  gas\n  staticcall\n  iszero\n  dup1\n  iszero\n  tag_28\n  jumpi\n  returndatacopy(0x00, 0x00, returndatasize)\n  revert(0x00, returndatasize)\ntag_28:\n  pop\n  pop\n  pop\n  pop\n  mload(0x40)\n  returndatasize\n  not(0x1f)\n  0x1f\n  dup3\n  add\n  and\n  dup3\n  add\n  dup1\n  0x40\n  mstore\n  pop\n  dup2\n  add\n  swap1\n  tag_29\n  swap2\n  swap1\n  tag_30\n  jump\t// in\ntag_29:\n    /* \"VettedToken.sol\":1500:1644  require(... */\n  tag_31\n  jumpi\n  mload(0x40)\n  shl(0xe5, 0x461bcd)\n  dup2\n  mstore\n    /* \"#utility.yul\":6001:6003   */\n  0x20\n    /* \"VettedToken.sol\":1500:1644  require(... */\n  0x04\n  dup3\n  add\n    /* \"#utility.yul\":5983:6004   */\n  mstore\n    /* \"#utility.yul\":6040:6042   */\n  0x1b\n    /* \"#utility.yul\":6020:6038   */\n  0x24\n  dup3\n  add\n    /* \"#utility.yul\":6013:6043   */\n  mstore\n    /* \"#utility.yul\":6079:6108   */\n  0x4275726e206d616e61676572206e6f7420636f6d70617469626c650000000000\n    /* \"#utility.yul\":6059:6077   */\n  0x44\n  dup3\n  add\n    /* \"#utility.yul\":6052:6109   */\n  mstore\n    /* \"#utility.yul\":6126:6144   */\n  0x64\n  add\n    /* \"VettedToken.sol\":1500:1644  require(... */\n  tag_13\n    /* \"#utility.yul\":5799:6150   */\n  jump\n    /* \"VettedToken.sol\":1500:1644  require(... */\ntag_31:\n    /* \"VettedToken.sol\":1659:1670  burnManager */\n  0x07\n    /* \"VettedToken.sol\":1659:1685  burnManager = _burnManager */\n  dup1\n  sload\n  not(sub(shl(0xa0, 0x01), 0x01))\n  and\n  sub(shl(0xa0, 0x01), 0x01)\n  dup4\n  and\n  or\n  swap1\n  sstore\n    /* \"VettedToken.sol\":1453:1697  if (_burnManager != address(0)) {... */\ntag_25:\n    /* \"VettedToken.sol\":892:1704  constructor(... */\n  pop\n  pop\n  pop\n  pop\n  pop\n  pop\n    /* \"VettedToken.sol\":345:3231  contract Token is ERC20, Ownable {... */\n  jump(tag_43)\n    /* \"@openzeppelin/contracts/access/Ownable.sol\":2912:3099  function _transferOwnership(address newOwner) internal virtual {... */\ntag_16:\n    /* \"@openzeppelin/contracts/access/Ownable.sol\":3004:3010  _owner */\n  0x05\n  dup1\n  sload\n  sub(shl(0xa0, 0x01), 0x01)\n    /* \"@openzeppelin/contracts/access/Ownable.sol\":3020:3037  _owner = newOwner */\n  dup4\n  dup2\n  and\n  not(sub(shl(0xa0, 0x01), 0x01))\n  dup4\n  and\n  dup2\n  or\n  swap1\n  swap4\n  sstore\n    /* \"@openzeppelin/contracts/access/Ownable.sol\":3052:3092  OwnershipTransferred(oldOwner, newOwner) */\n  mload(0x40)\n    /* \"@openzeppelin/contracts/access/Ownable.sol\":3004:3010  _owner */\n  swap2\n  and\n  swap2\n    /* \"@openzeppelin/contracts/access/Ownable.sol\":3020:3037  _owner = newOwner */\n  swap1\n    /* \"@openzeppelin/contracts/access/Ownable.sol\":3004:3010  _owner */\n  dup3\n  swap1\n    /* \"@openzeppelin/contracts/access/Ownable.sol\":3052:3092  OwnershipTransferred(oldOwner, newOwner) */\n  0x8be0079c531659141344cd1fd0a4f28419497f9722a3daafe3b4186f6b6457e0\n  swap1\n    /* \"@openzeppelin/contracts/access/Ownable.sol\":2985:3001  address oldOwner */\n  0x00\n  swap1\n    /* \"@openzeppelin/contracts/access/Ownable.sol\":3052:3092  OwnershipTransferred(oldOwner, newOwner) */\n  log3\n    /* \"@openzeppelin/contracts/access/Ownable.sol\":2975:3099  {... */\n  pop\n    /* \"@openzeppelin/contracts/access/Ownable.sol\":2912:3099  function _transferOwnership(address newOwner) internal virtual {... */\n  pop\n  jump\t// out\n    /* \"#utility.yul\":14:191   */\ntag_36:\n    /* \"#utility.yul\":93:106   */\n  dup1\n  mload\n  sub(shl(0xa0, 0x01), 0x01)\n    /* \"#utility.yul\":135:166   */\n  dup2\n  and\n    /* \"#utility.yul\":125:167   */\n  dup2\n  eq\n    /* \"#utility.yul\":115:185   */\n  tag_45\n  jumpi\n    /* \"#utility.yul\":181:182   */\n  0x00\n    /* \"#utility.yul\":178:179   */\n  0x00\n    /* \"#utility.yul\":171:183   */\n  revert\n    /* \"#utility.yul\":115:185   */\ntag_45:\n    /* \"#utility.yul\":14:191   */\n  swap2\n  swap1\n  pop\n  jump\t// out\n    /* \"#utility.yul\":196:323   */\ntag_37:\n    /* \"#utility.yul\":257:267   */\n  0x4e487b71\n    /* \"#utility.yul\":252:255   */\n  0xe0\n    /* \"#utility.yul\":248:268   */\n  shl\n    /* \"#utility.yul\":245:246   */\n  0x00\n    /* \"#utility.yul\":238:269   */\n  mstore\n    /* \"#utility.yul\":288:292   */\n  0x41\n    /* \"#utility.yul\":285:286   */\n  0x04\n    /* \"#utility.yul\":278:293   */\n  mstore\n    /* \"#utility.yul\":312:316   */\n  0x24\n    /* \"#utility.yul\":309:310   */\n  0x00\n    /* \"#utility.yul\":302:317   */\n  revert\n    /* \"#utility.yul\":328:1051   */\ntag_38:\n    /* \"#utility.yul\":382:387   */\n  0x00\n    /* \"#utility.yul\":435:438   */\n  dup3\n    /* \"#utility.yul\":428:432   */\n  0x1f\n    /* \"#utility.yul\":420:426   */\n  dup4\n    /* \"#utility.yul\":416:433   */\n  add\n    /* \"#utility.yul\":412:439   */\n  slt\n    /* \"#utility.yul\":402:457   */\n  tag_48\n  jumpi\n    /* \"#utility.yul\":453:454   */\n  0x00\n    /* \"#utility.yul\":450:451   */\n  0x00\n    /* \"#utility.yul\":443:455   */\n  revert\n    /* \"#utility.yul\":402:457   */\ntag_48:\n    /* \"#utility.yul\":480:493   */\n  dup2\n  mload\n  sub(shl(0x40, 0x01), 0x01)\n    /* \"#utility.yul\":505:535   */\n  dup2\n  gt\n    /* \"#utility.yul\":502:558   */\n  iszero\n  tag_50\n  jumpi\n    /* \"#utility.yul\":538:556   */\n  tag_50\n  tag_37\n  jump\t// in\ntag_50:\n    /* \"#utility.yul\":587:589   */\n  0x40\n    /* \"#utility.yul\":581:590   */\n  mload\n    /* \"#utility.yul\":679:681   */\n  0x1f\n    /* \"#utility.yul\":641:658   */\n  dup3\n  add\n  not(0x1f)\n    /* \"#utility.yul\":637:668   */\n  swap1\n  dup2\n  and\n    /* \"#utility.yul\":670:672   */\n  0x3f\n    /* \"#utility.yul\":633:673   */\n  add\n    /* \"#utility.yul\":629:683   */\n  and\n    /* \"#utility.yul\":617:684   */\n  dup2\n  add\n  sub(shl(0x40, 0x01), 0x01)\n    /* \"#utility.yul\":699:733   */\n  dup2\n  gt\n    /* \"#utility.yul\":735:757   */\n  dup3\n  dup3\n  lt\n    /* \"#utility.yul\":696:758   */\n  or\n    /* \"#utility.yul\":693:781   */\n  iszero\n  tag_52\n  jumpi\n    /* \"#utility.yul\":761:779   */\n  tag_52\n  tag_37\n  jump\t// in\ntag_52:\n    /* \"#utility.yul\":797:799   */\n  0x40\n    /* \"#utility.yul\":790:812   */\n  mstore\n    /* \"#utility.yul\":821:843   */\n  dup2\n  dup2\n  mstore\n    /* \"#utility.yul\":862:881   */\n  dup4\n  dup3\n  add\n    /* \"#utility.yul\":883:887   */\n  0x20\n    /* \"#utility.yul\":858:888   */\n  add\n    /* \"#utility.yul\":855:894   */\n  dup6\n  lt\n    /* \"#utility.yul\":852:911   */\n  iszero\n  tag_53\n  jumpi\n    /* \"#utility.yul\":907:908   */\n  0x00\n    /* \"#utility.yul\":904:905   */\n  0x00\n    /* \"#utility.yul\":897:909   */\n  revert\n    /* \"#utility.yul\":852:911   */\ntag_53:\n    /* \"#utility.yul\":964:970   */\n  dup2\n    /* \"#utility.yul\":957:961   */\n  0x20\n    /* \"#utility.yul\":949:955   */\n  dup6\n    /* \"#utility.yul\":945:962   */\n  add\n    /* \"#utility.yul\":938:942   */\n  0x20\n    /* \"#utility.yul\":930:936   */\n  dup4\n    /* \"#utility.yul\":926:943   */\n  add\n    /* \"#utility.yul\":920:971   */\n  mcopy\n    /* \"#utility.yul\":1019:1020   */\n  0x00\n    /* \"#utility.yul\":991:1010   */\n  swap2\n  dup2\n  add\n    /* \"#utility.yul\":1012:1016   */\n  0x20\n    /* \"#utility.yul\":987:1017   */\n  add\n    /* \"#utility.yul\":980:1021   */\n  swap2\n  swap1\n  swap2\n  mstore\n    /* \"#utility.yul\":995:1001   */\n  swap4\n    /* \"#utility.yul\":328:1051   */\n  swap3\n  pop\n  pop\n  pop\n  jump\t// out\n    /* \"#utility.yul\":1056:2091   */\ntag_3:\n    /* \"#utility.yul\":1201:1207   */\n  0x00\n    /* \"#utility.yul\":1209:1215   */\n  0x00\n    /* \"#utility.yul\":1217:1223   */\n  0x00\n    /* \"#utility.yul\":1225:1231   */\n  0x00\n    /* \"#utility.yul\":1233:1239   */\n  0x00\n    /* \"#utility.yul\":1241:1247   */\n  0x00\n    /* \"#utility.yul\":1294:1297   */\n  0xc0\n    /* \"#utility.yul\":1282:1291   */\n  dup8\n    /* \"#utility.yul\":1273:1280   */\n  dup10\n    /* \"#utility.yul\":1269:1292   */\n  sub\n    /* \"#utility.yul\":1265:1298   */\n  slt\n    /* \"#utility.yul\":1262:1315   */\n  iszero\n  tag_55\n  jumpi\n    /* \"#utility.yul\":1311:1312   */\n  0x00\n    /* \"#utility.yul\":1308:1309   */\n  0x00\n    /* \"#utility.yul\":1301:1313   */\n  revert\n    /* \"#utility.yul\":1262:1315   */\ntag_55:\n    /* \"#utility.yul\":1334:1374   */\n  tag_56\n    /* \"#utility.yul\":1364:1373   */\n  dup8\n    /* \"#utility.yul\":1334:1374   */\n  tag_36\n  jump\t// in\ntag_56:\n    /* \"#utility.yul\":1324:1374   */\n  swap6\n  pop\n    /* \"#utility.yul\":1393:1442   */\n  tag_57\n    /* \"#utility.yul\":1438:1440   */\n  0x20\n    /* \"#utility.yul\":1427:1436   */\n  dup9\n    /* \"#utility.yul\":1423:1441   */\n  add\n    /* \"#utility.yul\":1393:1442   */\n  tag_36\n  jump\t// in\ntag_57:\n    /* \"#utility.yul\":1486:1488   */\n  0x40\n    /* \"#utility.yul\":1471:1489   */\n  dup9\n  add\n    /* \"#utility.yul\":1465:1490   */\n  mload\n    /* \"#utility.yul\":1383:1442   */\n  swap1\n  swap6\n  pop\n  sub(shl(0x40, 0x01), 0x01)\n    /* \"#utility.yul\":1502:1532   */\n  dup2\n  gt\n    /* \"#utility.yul\":1499:1549   */\n  iszero\n  tag_58\n  jumpi\n    /* \"#utility.yul\":1545:1546   */\n  0x00\n    /* \"#utility.yul\":1542:1543   */\n  0x00\n    /* \"#utility.yul\":1535:1547   */\n  revert\n    /* \"#utility.yul\":1499:1549   */\ntag_58:\n    /* \"#utility.yul\":1568:1629   */\n  tag_59\n    /* \"#utility.yul\":1621:1628   */\n  dup10\n    /* \"#utility.yul\":1612:1618   */\n  dup3\n    /* \"#utility.yul\":1601:1610   */\n  dup11\n    /* \"#utility.yul\":1597:1619   */\n  add\n    /* \"#utility.yul\":1568:1629   */\n  tag_38\n  jump\t// in\ntag_59:\n    /* \"#utility.yul\":1675:1677   */\n  0x60\n    /* \"#utility.yul\":1660:1678   */\n  dup10\n  add\n    /* \"#utility.yul\":1654:1679   */\n  mload\n    /* \"#utility.yul\":1558:1629   */\n  swap1\n  swap6\n  pop\n    /* \"#utility.yul\":1654:1679   */\n  swap1\n  pop\n  sub(shl(0x40, 0x01), 0x01)\n    /* \"#utility.yul\":1691:1723   */\n  dup2\n  gt\n    /* \"#utility.yul\":1688:1740   */\n  iszero\n  tag_60\n  jumpi\n    /* \"#utility.yul\":1736:1737   */\n  0x00\n    /* \"#utility.yul\":1733:1734   */\n  0x00\n    /* \"#utility.yul\":1726:1738   */\n  revert\n    /* \"#utility.yul\":1688:1740   */\ntag_60:\n    /* \"#utility.yul\":1759:1822   */\n  tag_61\n    /* \"#utility.yul\":1814:1821   */\n  dup10\n    /* \"#utility.yul\":1803:1811   */\n  dup3\n    /* \"#utility.yul\":1792:1801   */\n  dup11\n    /* \"#utility.yul\":1788:1812   */\n  add\n    /* \"#utility.yul\":1759:1822   */\n  tag_38\n  jump\t// in\ntag_61:\n    /* \"#utility.yul\":1868:1871   */\n  0x80\n    /* \"#utility.yul\":1853:1872   */\n  dup10\n  add\n    /* \"#utility.yul\":1847:1873   */\n  mload\n    /* \"#utility.yul\":1749:1822   */\n  swap1\n  swap5\n  pop\n    /* \"#utility.yul\":1847:1873   */\n  swap1\n  pop\n  sub(shl(0x40, 0x01), 0x01)\n    /* \"#utility.yul\":1885:1917   */\n  dup2\n  gt\n    /* \"#utility.yul\":1882:1934   */\n  iszero\n  tag_62\n  jumpi\n    /* \"#utility.yul\":1930:1931   */\n  0x00\n    /* \"#utility.yul\":1927:1928   */\n  0x00\n    /* \"#utility.yul\":1920:1932   */\n  revert\n    /* \"#utility.yul\":1882:1934   */\ntag_62:\n    /* \"#utility.yul\":1953:2016   */\n  tag_63\n    /* \"#utility.yul\":2008:2015   */\n  dup10\n    /* \"#utility.yul\":1997:2005   */\n  dup3\n    /* \"#utility.yul\":1986:1995   */\n  dup11\n    /* \"#utility.yul\":1982:2006   */\n  add\n    /* \"#utility.yul\":1953:2016   */\n  tag_38\n  jump\t// in\ntag_63:\n    /* \"#utility.yul\":1943:2016   */\n  swap3\n  pop\n  pop\n    /* \"#utility.yul\":2035:2085   */\n  tag_64\n    /* \"#utility.yul\":2080:2083   */\n  0xa0\n    /* \"#utility.yul\":2069:2078   */\n  dup9\n    /* \"#utility.yul\":2065:2084   */\n  add\n    /* \"#utility.yul\":2035:2085   */\n  tag_36\n  jump\t// in\ntag_64:\n    /* \"#utility.yul\":2025:2085   */\n  swap1\n  pop\n    /* \"#utility.yul\":1056:2091   */\n  swap3\n  swap6\n  pop\n  swap3\n  swap6\n  pop\n  swap3\n  swap6\n  jump\t// out\n    /* \"#utility.yul\":2096:2476   */\ntag_39:\n    /* \"#utility.yul\":2175:2176   */\n  0x01\n    /* \"#utility.yul\":2171:2183   */\n  dup2\n  dup2\n  shr\n  swap1\n    /* \"#utility.yul\":2218:2230   */\n  dup3\n  and\n  dup1\n    /* \"#utility.yul\":2239:2300   */\n  tag_66\n  jumpi\n    /* \"#utility.yul\":2293:2297   */\n  0x7f\n    /* \"#utility.yul\":2285:2291   */\n  dup3\n    /* \"#utility.yul\":2281:2298   */\n  and\n    /* \"#utility.yul\":2271:2298   */\n  swap2\n  pop\n    /* \"#utility.yul\":2239:2300   */\ntag_66:\n    /* \"#utility.yul\":2346:2348   */\n  0x20\n    /* \"#utility.yul\":2338:2344   */\n  dup3\n    /* \"#utility.yul\":2335:2349   */\n  lt\n    /* \"#utility.yul\":2315:2333   */\n  dup2\n    /* \"#utility.yul\":2312:2350   */\n  sub\n    /* \"#utility.yul\":2309:2470   */\n  tag_67\n  jumpi\n    /* \"#utility.yul\":2392:2402   */\n  0x4e487b71\n    /* \"#utility.yul\":2387:2390   */\n  0xe0\n    /* \"#utility.yul\":2383:2403   */\n  shl\n    /* \"#utility.yul\":2380:2381   */\n  0x00\n    /* \"#utility.yul\":2373:2404   */\n  mstore\n    /* \"#utility.yul\":2427:2431   */\n  0x22\n    /* \"#utility.yul\":2424:2425   */\n  0x04\n    /* \"#utility.yul\":2417:2432   */\n  mstore\n    /* \"#utility.yul\":2455:2459   */\n  0x24\n    /* \"#utility.yul\":2452:2453   */\n  0x00\n    /* \"#utility.yul\":2445:2460   */\n  revert\n    /* \"#utility.yul\":2309:2470   */\ntag_67:\n  pop\n    /* \"#utility.yul\":2096:2476   */\n  swap2\n  swap1\n  pop\n  jump\t// out\n    /* \"#utility.yul\":2607:3125   */\ntag_41:\n    /* \"#utility.yul\":2709:2711   */\n  0x1f\n    /* \"#utility.yul\":2704:2707   */\n  dup3\n    /* \"#utility.yul\":2701:2712   */\n  gt\n    /* \"#utility.yul\":2698:3119   */\n  iszero\n  tag_70\n  jumpi\n    /* \"#utility.yul\":2745:2750   */\n  dup1\n    /* \"#utility.yul\":2742:2743   */\n  0x00\n    /* \"#utility.yul\":2735:2751   */\n  mstore\n    /* \"#utility.yul\":2789:2793   */\n  0x20\n    /* \"#utility.yul\":2786:2787   */\n  0x00\n    /* \"#utility.yul\":2776:2794   */\n  keccak256\n    /* \"#utility.yul\":2859:2861   */\n  0x1f\n    /* \"#utility.yul\":2847:2857   */\n  dup5\n    /* \"#utility.yul\":2843:2862   */\n  add\n    /* \"#utility.yul\":2840:2841   */\n  0x05\n    /* \"#utility.yul\":2836:2863   */\n  shr\n    /* \"#utility.yul\":2830:2834   */\n  dup2\n    /* \"#utility.yul\":2826:2864   */\n  add\n    /* \"#utility.yul\":2895:2899   */\n  0x20\n    /* \"#utility.yul\":2883:2893   */\n  dup6\n    /* \"#utility.yul\":2880:2900   */\n  lt\n    /* \"#utility.yul\":2877:2924   */\n  iszero\n  tag_71\n  jumpi\n  pop\n    /* \"#utility.yul\":2918:2922   */\n  dup1\n    /* \"#utility.yul\":2877:2924   */\ntag_71:\n    /* \"#utility.yul\":2973:2975   */\n  0x1f\n    /* \"#utility.yul\":2968:2971   */\n  dup5\n    /* \"#utility.yul\":2964:2976   */\n  add\n    /* \"#utility.yul\":2961:2962   */\n  0x05\n    /* \"#utility.yul\":2957:2977   */\n  shr\n    /* \"#utility.yul\":2951:2955   */\n  dup3\n    /* \"#utility.yul\":2947:2978   */\n  add\n    /* \"#utility.yul\":2937:2978   */\n  swap2\n  pop\n    /* \"#utility.yul\":3028:3109   */\ntag_72:\n    /* \"#utility.yul\":3046:3048   */\n  dup2\n    /* \"#utility.yul\":3039:3044   */\n  dup2\n    /* \"#utility.yul\":3036:3049   */\n  lt\n    /* \"#utility.yul\":3028:3109   */\n  iszero\n  tag_74\n  jumpi\n    /* \"#utility.yul\":3105:3106   */\n  0x00\n    /* \"#utility.yul\":3091:3107   */\n  dup2\n  sstore\n    /* \"#utility.yul\":3072:3073   */\n  0x01\n    /* \"#utility.yul\":3061:3074   */\n  add\n    /* \"#utility.yul\":3028:3109   */\n  jump(tag_72)\ntag_74:\n    /* \"#utility.yul\":3032:3035   */\n  pop\n  pop\n    /* \"#utility.yul\":2698:3119   */\ntag_70:\n    /* \"#utility.yul\":2607:3125   */\n  pop\n  pop\n  pop\n  jump\t// out\n    /* \"#utility.yul\":3301:4600   */\ntag_9:\n    /* \"#utility.yul\":3421:3431   */\n  dup2\n  mload\n  sub(shl(0x40, 0x01), 0x01)\n    /* \"#utility.yul\":3443:3473   */\n  dup2\n  gt\n    /* \"#utility.yul\":3440:3496   */\n  iszero\n  tag_78\n  jumpi\n    /* \"#utility.yul\":3476:3494   */\n  tag_78\n  tag_37\n  jump\t// in\ntag_78:\n    /* \"#utility.yul\":3505:3602   */\n  tag_79\n    /* \"#utility.yul\":3595:3601   */\n  dup2\n    /* \"#utility.yul\":3555:3593   */\n  tag_80\n    /* \"#utility.yul\":3587:3591   */\n  dup5\n    /* \"#utility.yul\":3581:3592   */\n  sload\n    /* \"#utility.yul\":3555:3593   */\n  tag_39\n  jump\t// in\ntag_80:\n    /* \"#utility.yul\":3549:3553   */\n  dup5\n    /* \"#utility.yul\":3505:3602   */\n  tag_41\n  jump\t// in\ntag_79:\n    /* \"#utility.yul\":3651:3655   */\n  0x20\n    /* \"#utility.yul\":3682:3684   */\n  0x1f\n    /* \"#utility.yul\":3671:3685   */\n  dup3\n  gt\n    /* \"#utility.yul\":3699:3700   */\n  0x01\n    /* \"#utility.yul\":3694:4343   */\n  dup2\n  eq\n  tag_82\n  jumpi\n    /* \"#utility.yul\":4387:4388   */\n  0x00\n    /* \"#utility.yul\":4404:4410   */\n  dup4\n    /* \"#utility.yul\":4401:4490   */\n  iszero\n  tag_83\n  jumpi\n  pop\n    /* \"#utility.yul\":4456:4475   */\n  dup5\n  dup3\n  add\n    /* \"#utility.yul\":4450:4476   */\n  mload\n    /* \"#utility.yul\":4401:4490   */\ntag_83:\n  not(0x00)\n    /* \"#utility.yul\":3258:3259   */\n  0x03\n    /* \"#utility.yul\":3254:3265   */\n  dup6\n  swap1\n  shl\n    /* \"#utility.yul\":3250:3274   */\n  shr\n    /* \"#utility.yul\":3246:3275   */\n  not\n    /* \"#utility.yul\":3236:3276   */\n  and\n    /* \"#utility.yul\":3282:3283   */\n  0x01\n    /* \"#utility.yul\":3278:3289   */\n  dup5\n  swap1\n  shl\n    /* \"#utility.yul\":3233:3290   */\n  or\n    /* \"#utility.yul\":4503:4584   */\n  dup5\n  sstore\n    /* \"#utility.yul\":3664:4594   */\n  jump(tag_74)\n    /* \"#utility.yul\":3694:4343   */\ntag_82:\n    /* \"#utility.yul\":2554:2555   */\n  0x00\n    /* \"#utility.yul\":2547:2561   */\n  dup5\n  dup2\n  mstore\n    /* \"#utility.yul\":2591:2595   */\n  0x20\n    /* \"#utility.yul\":2578:2596   */\n  dup2\n  keccak256\n  not(0x1f)\n    /* \"#utility.yul\":3730:3750   */\n  dup6\n  and\n  swap2\n    /* \"#utility.yul\":3848:4070   */\ntag_86:\n    /* \"#utility.yul\":3862:3869   */\n  dup3\n    /* \"#utility.yul\":3859:3860   */\n  dup2\n    /* \"#utility.yul\":3856:3870   */\n  lt\n    /* \"#utility.yul\":3848:4070   */\n  iszero\n  tag_88\n  jumpi\n    /* \"#utility.yul\":3944:3963   */\n  dup8\n  dup6\n  add\n    /* \"#utility.yul\":3938:3964   */\n  mload\n    /* \"#utility.yul\":3923:3965   */\n  dup3\n  sstore\n    /* \"#utility.yul\":4051:4055   */\n  0x20\n    /* \"#utility.yul\":4036:4056   */\n  swap5\n  dup6\n  add\n  swap5\n    /* \"#utility.yul\":4004:4005   */\n  0x01\n    /* \"#utility.yul\":3992:4006   */\n  swap1\n  swap3\n  add\n  swap2\n    /* \"#utility.yul\":3878:3890   */\n  add\n    /* \"#utility.yul\":3848:4070   */\n  jump(tag_86)\ntag_88:\n    /* \"#utility.yul\":3852:3855   */\n  pop\n    /* \"#utility.yul\":4098:4104   */\n  dup5\n    /* \"#utility.yul\":4089:4096   */\n  dup3\n    /* \"#utility.yul\":4086:4105   */\n  lt\n    /* \"#utility.yul\":4083:4284   */\n  iszero\n  tag_89\n  jumpi\n    /* \"#utility.yul\":4159:4178   */\n  dup7\n  dup5\n  add\n    /* \"#utility.yul\":4153:4179   */\n  mload\n  not(0x00)\n    /* \"#utility.yul\":4242:4243   */\n  0x03\n    /* \"#utility.yul\":4238:4252   */\n  dup8\n  swap1\n  shl\n    /* \"#utility.yul\":4254:4257   */\n  0xf8\n    /* \"#utility.yul\":4234:4258   */\n  and\n    /* \"#utility.yul\":4230:4267   */\n  shr\n    /* \"#utility.yul\":4226:4268   */\n  not\n    /* \"#utility.yul\":4211:4269   */\n  and\n    /* \"#utility.yul\":4196:4270   */\n  dup2\n  sstore\n    /* \"#utility.yul\":4083:4284   */\ntag_89:\n  pop\n  pop\n  pop\n  pop\n    /* \"#utility.yul\":4330:4331   */\n  0x01\n    /* \"#utility.yul\":4314:4328   */\n  swap1\n  dup2\n  shl\n    /* \"#utility.yul\":4310:4332   */\n  add\n    /* \"#utility.yul\":4297:4333   */\n  swap1\n  sstore\n  pop\n    /* \"#utility.yul\":3301:4600   */\n  jump\t// out\n    /* \"#utility.yul\":5517:5794   */\ntag_30:\n    /* \"#utility.yul\":5584:5590   */\n  0x00\n    /* \"#utility.yul\":5637:5639   */\n  0x20\n    /* \"#utility.yul\":5625:5634   */\n  dup3\n    /* \"#utility.yul\":5616:5623   */\n  dup5\n    /* \"#utility.yul\":5612:5635   */\n  sub\n    /* \"#utility.yul\":5608:5640   */\n  slt\n    /* \"#utility.yul\":5605:5657   */\n  iszero\n  tag_94\n  jumpi\n    /* \"#utility.yul\":5653:5654   */\n  0x00\n    /* \"#utility.yul\":5650:5651   */\n  0x00\n    /* \"#utility.yul\":5643:5655   */\n  revert\n    /* \"#utility.yul\":5605:5657   */\ntag_94:\n    /* \"#utility.yul\":5685:5694   */\n  dup2\n    /* \"#utility.yul\":5679:5695   */\n  mload\n    /* \"#utility.yul\":5738:5743   */\n  dup1\n    /* \"#utility.yul\":5731:5744   */\n  iszero\n    /* \"#utility.yul\":5724:5745   */\n  iszero\n    /* \"#utility.yul\":5717:5722   */\n  dup2\n    /* \"#utility.yul\":5714:5746   */\n  eq\n    /* \"#utility.yul\":5704:5764   */\n  tag_95\n  jumpi\n    /* \"#utility.yul\":5760:5761   */\n  0x00\n    /* \"#utility.yul\":5757:5758   */\n  0x00\n    /* \"#utility.yul\":5750:5762   */\n  revert\n    /* \"#utility.yul\":5704:5764   */\ntag_95:\n    /* \"#utility.yul\":5783:5788   */\n  swap4\n    /* \"#utility.yul\":5517:5794   */\n  swap3\n  pop\n  pop\n  pop\n  jump\t// out\n    /* \"#utility.yul\":5799:6150   */\ntag_43:\n    /* \"VettedToken.sol\":345:3231  contract Token is ERC20, Ownable {... */\n  mload(0x80)\n  mload(0xa0)\n  codecopy(0x00, dataOffset(sub_0), dataSize(sub_0))\n  0x00\n  assignImmutable(\"0x27f7320d12022267a30ae0570361d18e54ded7bfc682ac5b98d912c6ab83c578\")\n  0x00\n  assignImmutable(\"0x5d40e99405081227bb9ff3dfcb5688bebff2335619d1e80403a820b0e682b492\")\n  return(0x00, dataSize(sub_0))\nstop\n\nsub_0: assembly {\n        /* \"VettedToken.sol\":345:3231  contract Token is ERC20, Ownable {... */\n      mstore(0x40, 0x80)\n      callvalue\n      dup1\n      iszero\n      tag_1\n      jumpi\n      revert(0x00, 0x00)\n    tag_1:\n      pop\n      jumpi(tag_2, lt(calldatasize, 0x04))\n      shr(0xe0, calldataload(0x00))\n      dup1\n      0x70a08231\n      gt\n      tag_24\n      jumpi\n      dup1\n      0xa9059cbb\n      gt\n      tag_25\n      jumpi\n      dup1\n      0xa9059cbb\n      eq\n      tag_18\n      jumpi\n      dup1\n      0xaba83150\n      eq\n      tag_19\n      jumpi\n      dup1\n      0xdd62ed3e\n      eq\n      tag_20\n      jumpi\n      dup1\n      0xe77772fe\n      eq\n      tag_21\n      jumpi\n      dup1\n      0xf2fde38b\n      eq\n      tag_22\n      jumpi\n      dup1\n      0xf8a8fd6d\n      eq\n      tag_23\n      jumpi\n      revert(0x00, 0x00)\n    tag_25:\n      dup1\n      0x70a08231\n      eq\n      tag_13\n      jumpi\n      dup1\n      0x715018a6\n      eq\n      tag_14\n      jumpi\n      dup1\n      0x8da5cb5b\n      eq\n      tag_15\n      jumpi\n      dup1\n      0x95d89b41\n      eq\n      tag_16\n      jumpi\n      dup1\n      0x96b5059d\n      eq\n      tag_17\n      jumpi\n      revert(0x00, 0x00)\n    tag_24:\n      dup1\n      0x23b872dd\n      gt\n      tag_26\n      jumpi\n      dup1\n      0x23b872dd\n      eq\n      tag_8\n      jumpi\n      dup1\n      0x313ce567\n      eq\n      tag_9\n      jumpi\n      dup1\n      0x40c10f19\n      eq\n      tag_10\n      jumpi\n      dup1\n      0x42966c68\n      eq\n      tag_11\n      jumpi\n      dup1\n      0x6819cd19\n      eq\n      tag_12\n      jumpi\n      revert(0x00, 0x00)\n    tag_26:\n      dup1\n      0x02d05d3f\n      eq\n      tag_3\n      jumpi\n      dup1\n      0x06fdde03\n      eq\n      tag_4\n      jumpi\n      dup1\n      0x095ea7b3\n      eq\n      tag_5\n      jumpi\n      dup1\n      0x18160ddd\n      eq\n      tag_6\n      jumpi\n      dup1\n      0x1faa49c3\n      eq\n      tag_7\n      jumpi\n    tag_2:\n      revert(0x00, 0x00)\n        /* \"VettedToken.sol\":429:461  address public immutable creator */\n    tag_3:\n      tag_27\n      immutable(\"0x27f7320d12022267a30ae0570361d18e54ded7bfc682ac5b98d912c6ab83c578\")\n      dup2\n      jump\n    tag_27:\n      mload(0x40)\n      sub(shl(0xa0, 0x01), 0x01)\n        /* \"#utility.yul\":178:210   */\n      swap1\n      swap2\n      and\n        /* \"#utility.yul\":160:211   */\n      dup2\n      mstore\n        /* \"#utility.yul\":148:150   */\n      0x20\n        /* \"#utility.yul\":133:151   */\n      add\n        /* \"VettedToken.sol\":429:461  address public immutable creator */\n    tag_29:\n      mload(0x40)\n      dup1\n      swap2\n      sub\n      swap1\n      return\n        /* \"@openzeppelin/contracts/token/ERC20/ERC20.sol\":1760:1849  function name() public view virtual returns (string memory) {... */\n    tag_4:\n      tag_31\n      tag_32\n      jump\t// in\n    tag_31:\n      mload(0x40)\n      tag_29\n      swap2\n      swap1\n      tag_34\n      jump\t// in\n        /* \"@openzeppelin/contracts/token/ERC20/ERC20.sol\":3979:4165  function approve(address spender, uint256 value) public virtual returns (bool) {... */\n    tag_5:\n      tag_35\n      tag_36\n      calldatasize\n      0x04\n      tag_37\n      jump\t// in\n    tag_36:\n      tag_38\n      jump\t// in\n    tag_35:\n      mload(0x40)\n        /* \"#utility.yul\":1293:1307   */\n      swap1\n      iszero\n        /* \"#utility.yul\":1286:1308   */\n      iszero\n        /* \"#utility.yul\":1268:1309   */\n      dup2\n      mstore\n        /* \"#utility.yul\":1256:1258   */\n      0x20\n        /* \"#utility.yul\":1241:1259   */\n      add\n        /* \"@openzeppelin/contracts/token/ERC20/ERC20.sol\":3979:4165  function approve(address spender, uint256 value) public virtual returns (bool) {... */\n      tag_29\n        /* \"#utility.yul\":1128:1315   */\n      jump\n        /* \"@openzeppelin/contracts/token/ERC20/ERC20.sol\":2830:2927  function totalSupply() public view virtual returns (uint256) {... */\n    tag_6:\n        /* \"@openzeppelin/contracts/token/ERC20/ERC20.sol\":2908:2920  _totalSupply */\n      sload(0x02)\n        /* \"@openzeppelin/contracts/token/ERC20/ERC20.sol\":2830:2927  function totalSupply() public view virtual returns (uint256) {... */\n    tag_41:\n      mload(0x40)\n        /* \"#utility.yul\":1466:1491   */\n      swap1\n      dup2\n      mstore\n        /* \"#utility.yul\":1454:1456   */\n      0x20\n        /* \"#utility.yul\":1439:1457   */\n      add\n        /* \"@openzeppelin/contracts/token/ERC20/ERC20.sol\":2830:2927  function totalSupply() public view virtual returns (uint256) {... */\n      tag_29\n        /* \"#utility.yul\":1320:1497   */\n      jump\n        /* \"VettedToken.sol\":497:523  address public burnManager */\n    tag_7:\n      sload(0x07)\n      tag_27\n      swap1\n      sub(shl(0xa0, 0x01), 0x01)\n      and\n      dup2\n      jump\n        /* \"@openzeppelin/contracts/token/ERC20/ERC20.sol\":4757:5001  function transferFrom(address from, address to, uint256 value) public virtual returns (bool) {... */\n    tag_8:\n      tag_35\n      tag_49\n      calldatasize\n      0x04\n      tag_50\n      jump\t// in\n    tag_49:\n      tag_51\n      jump\t// in\n        /* \"@openzeppelin/contracts/token/ERC20/ERC20.sol\":2688:2770  function decimals() public view virtual returns (uint8) {... */\n    tag_9:\n      mload(0x40)\n        /* \"@openzeppelin/contracts/token/ERC20/ERC20.sol\":2761:2763  18 */\n      0x12\n        /* \"#utility.yul\":2023:2059   */\n      dup2\n      mstore\n        /* \"#utility.yul\":2011:2013   */\n      0x20\n        /* \"#utility.yul\":1996:2014   */\n      add\n        /* \"@openzeppelin/contracts/token/ERC20/ERC20.sol\":2688:2770  function decimals() public view virtual returns (uint8) {... */\n      tag_29\n        /* \"#utility.yul\":1881:2065   */\n      jump\n        /* \"VettedToken.sol\":1742:1900  function mint(address to, uint256 amount) external {... */\n    tag_10:\n      tag_57\n      tag_58\n      calldatasize\n      0x04\n      tag_37\n      jump\t// in\n    tag_58:\n      tag_59\n      jump\t// in\n    tag_57:\n      stop\n        /* \"VettedToken.sol\":2259:2681  function burn(uint256 amount) public virtual {... */\n    tag_11:\n      tag_57\n      tag_61\n      calldatasize\n      0x04\n      tag_62\n      jump\t// in\n    tag_61:\n      tag_63\n      jump\t// in\n        /* \"VettedToken.sol\":1953:2205  function factoryBurn(address from, uint256 amount) external {... */\n    tag_12:\n      tag_57\n      tag_65\n      calldatasize\n      0x04\n      tag_37\n      jump\t// in\n    tag_65:\n      tag_66\n      jump\t// in\n        /* \"@openzeppelin/contracts/token/ERC20/ERC20.sol\":2985:3101  function balanceOf(address account) public view virtual returns (uint256) {... */\n    tag_13:\n      tag_41\n      tag_68\n      calldatasize\n      0x04\n      tag_69\n      jump\t// in\n    tag_68:\n      sub(shl(0xa0, 0x01), 0x01)\n        /* \"@openzeppelin/contracts/token/ERC20/ERC20.sol\":3076:3094  _balances[account] */\n      and\n        /* \"@openzeppelin/contracts/token/ERC20/ERC20.sol\":3050:3057  uint256 */\n      0x00\n        /* \"@openzeppelin/contracts/token/ERC20/ERC20.sol\":3076:3094  _balances[account] */\n      swap1\n      dup2\n      mstore\n      0x20\n      dup2\n      swap1\n      mstore\n      0x40\n      swap1\n      keccak256\n      sload\n      swap1\n        /* \"@openzeppelin/contracts/token/ERC20/ERC20.sol\":2985:3101  function balanceOf(address account) public view virtual returns (uint256) {... */\n      jump\n        /* \"@openzeppelin/contracts/access/Ownable.sol\":2293:2394  function renounceOwnership() public virtual onlyOwner {... */\n    tag_14:\n      tag_57\n      tag_73\n      jump\t// in\n        /* \"@openzeppelin/contracts/access/Ownable.sol\":1638:1723  function owner() public view virtual returns (address) {... */\n    tag_15:\n        /* \"@openzeppelin/contracts/access/Ownable.sol\":1710:1716  _owner */\n      and(sub(shl(0xa0, 0x01), 0x01), sload(0x05))\n        /* \"@openzeppelin/contracts/access/Ownable.sol\":1638:1723  function owner() public view virtual returns (address) {... */\n      jump(tag_27)\n        /* \"@openzeppelin/contracts/token/ERC20/ERC20.sol\":1962:2055  function symbol() public view virtual returns (string memory) {... */\n    tag_16:\n      tag_31\n      tag_78\n      jump\t// in\n        /* \"VettedToken.sol\":2744:3228  function setBurnManager(address newManager) external {... */\n    tag_17:\n      tag_57\n      tag_81\n      calldatasize\n      0x04\n      tag_69\n      jump\t// in\n    tag_81:\n      tag_82\n      jump\t// in\n        /* \"@openzeppelin/contracts/token/ERC20/ERC20.sol\":3296:3474  function transfer(address to, uint256 value) public virtual returns (bool) {... */\n    tag_18:\n      tag_35\n      tag_84\n      calldatasize\n      0x04\n      tag_37\n      jump\t// in\n    tag_84:\n      tag_85\n      jump\t// in\n        /* \"VettedToken.sol\":468:490  string public imageUrl */\n    tag_19:\n      tag_31\n      tag_88\n      jump\t// in\n        /* \"@openzeppelin/contracts/token/ERC20/ERC20.sol\":3532:3672  function allowance(address owner, address spender) public view virtual returns (uint256) {... */\n    tag_20:\n      tag_41\n      tag_91\n      calldatasize\n      0x04\n      tag_92\n      jump\t// in\n    tag_91:\n      sub(shl(0xa0, 0x01), 0x01)\n        /* \"@openzeppelin/contracts/token/ERC20/ERC20.sol\":3638:3656  _allowances[owner] */\n      swap2\n      dup3\n      and\n        /* \"@openzeppelin/contracts/token/ERC20/ERC20.sol\":3612:3619  uint256 */\n      0x00\n        /* \"@openzeppelin/contracts/token/ERC20/ERC20.sol\":3638:3656  _allowances[owner] */\n      swap1\n      dup2\n      mstore\n        /* \"@openzeppelin/contracts/token/ERC20/ERC20.sol\":3638:3649  _allowances */\n      0x01\n        /* \"@openzeppelin/contracts/token/ERC20/ERC20.sol\":3638:3656  _allowances[owner] */\n      0x20\n      swap1\n      dup2\n      mstore\n      0x40\n      dup1\n      dup4\n      keccak256\n        /* \"@openzeppelin/contracts/token/ERC20/ERC20.sol\":3638:3665  _allowances[owner][spender] */\n      swap4\n      swap1\n      swap5\n      and\n      dup3\n      mstore\n      swap2\n      swap1\n      swap2\n      mstore\n      keccak256\n      sload\n      swap1\n        /* \"@openzeppelin/contracts/token/ERC20/ERC20.sol\":3532:3672  function allowance(address owner, address spender) public view virtual returns (uint256) {... */\n      jump\n        /* \"VettedToken.sol\":385:422  address public immutable tokenFactory */\n    tag_21:\n      tag_27\n      immutable(\"0x5d40e99405081227bb9ff3dfcb5688bebff2335619d1e80403a820b0e682b492\")\n      dup2\n      jump\n        /* \"@openzeppelin/contracts/access/Ownable.sol\":2543:2758  function transferOwnership(address newOwner) public virtual onlyOwner {... */\n    tag_22:\n      tag_57\n      tag_99\n      calldatasize\n      0x04\n      tag_69\n      jump\t// in\n    tag_99:\n      tag_100\n      jump\t// in\n        /* \"VettedToken.sol\":530:548  string public test */\n    tag_23:\n      tag_31\n      tag_102\n      jump\t// in\n        /* \"@openzeppelin/contracts/token/ERC20/ERC20.sol\":1760:1849  function name() public view virtual returns (string memory) {... */\n    tag_32:\n        /* \"@openzeppelin/contracts/token/ERC20/ERC20.sol\":1805:1818  string memory */\n      0x60\n        /* \"@openzeppelin/contracts/token/ERC20/ERC20.sol\":1837:1842  _name */\n      0x03\n        /* \"@openzeppelin/contracts/token/ERC20/ERC20.sol\":1830:1842  return _name */\n      dup1\n      sload\n      tag_105\n      swap1\n      tag_106\n      jump\t// in\n    tag_105:\n      dup1\n      0x1f\n      add\n      0x20\n      dup1\n      swap2\n      div\n      mul\n      0x20\n      add\n      mload(0x40)\n      swap1\n      dup2\n      add\n      0x40\n      mstore\n      dup1\n      swap3\n      swap2\n      swap1\n      dup2\n      dup2\n      mstore\n      0x20\n      add\n      dup3\n      dup1\n      sload\n      tag_107\n      swap1\n      tag_106\n      jump\t// in\n    tag_107:\n      dup1\n      iszero\n      tag_108\n      jumpi\n      dup1\n      0x1f\n      lt\n      tag_109\n      jumpi\n      0x0100\n      dup1\n      dup4\n      sload\n      div\n      mul\n      dup4\n      mstore\n      swap2\n      0x20\n      add\n      swap2\n      jump(tag_108)\n    tag_109:\n      dup3\n      add\n      swap2\n      swap1\n      0x00\n      mstore\n      keccak256(0x00, 0x20)\n      swap1\n    tag_110:\n      dup2\n      sload\n      dup2\n      mstore\n      swap1\n      0x01\n      add\n      swap1\n      0x20\n      add\n      dup1\n      dup4\n      gt\n      tag_110\n      jumpi\n      dup3\n      swap1\n      sub\n      0x1f\n      and\n      dup3\n      add\n      swap2\n    tag_108:\n      pop\n      pop\n      pop\n      pop\n      pop\n      swap1\n      pop\n        /* \"@openzeppelin/contracts/token/ERC20/ERC20.sol\":1760:1849  function name() public view virtual returns (string memory) {... */\n      swap1\n      jump\t// out\n        /* \"@openzeppelin/contracts/token/ERC20/ERC20.sol\":3979:4165  function approve(address spender, uint256 value) public virtual returns (bool) {... */\n    tag_38:\n        /* \"@openzeppelin/contracts/token/ERC20/ERC20.sol\":4052:4056  bool */\n      0x00\n        /* \"@openzeppelin/contracts/utils/Context.sol\":735:745  msg.sender */\n      caller\n        /* \"@openzeppelin/contracts/token/ERC20/ERC20.sol\":4106:4137  _approve(owner, spender, value) */\n      tag_114\n        /* \"@openzeppelin/contracts/utils/Context.sol\":735:745  msg.sender */\n      dup2\n        /* \"@openzeppelin/contracts/token/ERC20/ERC20.sol\":4122:4129  spender */\n      dup6\n        /* \"@openzeppelin/contracts/token/ERC20/ERC20.sol\":4131:4136  value */\n      dup6\n        /* \"@openzeppelin/contracts/token/ERC20/ERC20.sol\":4106:4114  _approve */\n      tag_115\n        /* \"@openzeppelin/contracts/token/ERC20/ERC20.sol\":4106:4137  _approve(owner, spender, value) */\n      jump\t// in\n    tag_114:\n        /* \"@openzeppelin/contracts/token/ERC20/ERC20.sol\":4154:4158  true */\n      0x01\n        /* \"@openzeppelin/contracts/token/ERC20/ERC20.sol\":4147:4158  return true */\n      swap2\n      pop\n      pop\n        /* \"@openzeppelin/contracts/token/ERC20/ERC20.sol\":3979:4165  function approve(address spender, uint256 value) public virtual returns (bool) {... */\n    tag_111:\n      swap3\n      swap2\n      pop\n      pop\n      jump\t// out\n        /* \"@openzeppelin/contracts/token/ERC20/ERC20.sol\":4757:5001  function transferFrom(address from, address to, uint256 value) public virtual returns (bool) {... */\n    tag_51:\n        /* \"@openzeppelin/contracts/token/ERC20/ERC20.sol\":4844:4848  bool */\n      0x00\n        /* \"@openzeppelin/contracts/utils/Context.sol\":735:745  msg.sender */\n      caller\n        /* \"@openzeppelin/contracts/token/ERC20/ERC20.sol\":4900:4937  _spendAllowance(from, spender, value) */\n      tag_119\n        /* \"@openzeppelin/contracts/token/ERC20/ERC20.sol\":4916:4920  from */\n      dup6\n        /* \"@openzeppelin/contracts/utils/Context.sol\":735:745  msg.sender */\n      dup3\n        /* \"@openzeppelin/contracts/token/ERC20/ERC20.sol\":4931:4936  value */\n      dup6\n        /* \"@openzeppelin/contracts/token/ERC20/ERC20.sol\":4900:4915  _spendAllowance */\n      tag_120\n        /* \"@openzeppelin/contracts/token/ERC20/ERC20.sol\":4900:4937  _spendAllowance(from, spender, value) */\n      jump\t// in\n    tag_119:\n        /* \"@openzeppelin/contracts/token/ERC20/ERC20.sol\":4947:4973  _transfer(from, to, value) */\n      tag_121\n        /* \"@openzeppelin/contracts/token/ERC20/ERC20.sol\":4957:4961  from */\n      dup6\n        /* \"@openzeppelin/contracts/token/ERC20/ERC20.sol\":4963:4965  to */\n      dup6\n        /* \"@openzeppelin/contracts/token/ERC20/ERC20.sol\":4967:4972  value */\n      dup6\n        /* \"@openzeppelin/contracts/token/ERC20/ERC20.sol\":4947:4956  _transfer */\n      tag_122\n        /* \"@openzeppelin/contracts/token/ERC20/ERC20.sol\":4947:4973  _transfer(from, to, value) */\n      jump\t// in\n    tag_121:\n      pop\n        /* \"@openzeppelin/contracts/token/ERC20/ERC20.sol\":4990:4994  true */\n      0x01\n      swap5\n        /* \"@openzeppelin/contracts/token/ERC20/ERC20.sol\":4757:5001  function transferFrom(address from, address to, uint256 value) public virtual returns (bool) {... */\n      swap4\n      pop\n      pop\n      pop\n      pop\n      jump\t// out\n        /* \"VettedToken.sol\":1742:1900  function mint(address to, uint256 amount) external {... */\n    tag_59:\n        /* \"VettedToken.sol\":1812:1822  msg.sender */\n      caller\n      sub(shl(0xa0, 0x01), 0x01)\n        /* \"VettedToken.sol\":1826:1838  tokenFactory */\n      immutable(\"0x5d40e99405081227bb9ff3dfcb5688bebff2335619d1e80403a820b0e682b492\")\n        /* \"VettedToken.sol\":1812:1838  msg.sender == tokenFactory */\n      and\n      eq\n        /* \"VettedToken.sol\":1804:1864  require(msg.sender == tokenFactory, \"Only factory can mint\") */\n      tag_125\n      jumpi\n      mload(0x40)\n      shl(0xe5, 0x461bcd)\n      dup2\n      mstore\n        /* \"#utility.yul\":3344:3346   */\n      0x20\n        /* \"VettedToken.sol\":1804:1864  require(msg.sender == tokenFactory, \"Only factory can mint\") */\n      0x04\n      dup3\n      add\n        /* \"#utility.yul\":3326:3347   */\n      mstore\n        /* \"#utility.yul\":3383:3385   */\n      0x15\n        /* \"#utility.yul\":3363:3381   */\n      0x24\n      dup3\n      add\n        /* \"#utility.yul\":3356:3386   */\n      mstore\n      shl(0x5a, 0x13db9b1e48199858dd1bdc9e4818d85b881b5a5b9d)\n        /* \"#utility.yul\":3402:3420   */\n      0x44\n      dup3\n      add\n        /* \"#utility.yul\":3395:3446   */\n      mstore\n        /* \"#utility.yul\":3463:3481   */\n      0x64\n      add\n        /* \"VettedToken.sol\":1804:1864  require(msg.sender == tokenFactory, \"Only factory can mint\") */\n    tag_126:\n      mload(0x40)\n      dup1\n      swap2\n      sub\n      swap1\n      revert\n    tag_125:\n        /* \"VettedToken.sol\":1875:1892  _mint(to, amount) */\n      tag_128\n        /* \"VettedToken.sol\":1881:1883  to */\n      dup3\n        /* \"VettedToken.sol\":1885:1891  amount */\n      dup3\n        /* \"VettedToken.sol\":1875:1880  _mint */\n      tag_129\n        /* \"VettedToken.sol\":1875:1892  _mint(to, amount) */\n      jump\t// in\n    tag_128:\n        /* \"VettedToken.sol\":1742:1900  function mint(address to, uint256 amount) external {... */\n      pop\n      pop\n      jump\t// out\n        /* \"VettedToken.sol\":2259:2681  function burn(uint256 amount) public virtual {... */\n    tag_63:\n        /* \"VettedToken.sol\":2332:2333  0 */\n      0x00\n        /* \"VettedToken.sol\":2323:2329  amount */\n      dup2\n        /* \"VettedToken.sol\":2323:2333  amount > 0 */\n      gt\n        /* \"VettedToken.sol\":2315:2356  require(amount > 0, \"Amount must be > 0\") */\n      tag_131\n      jumpi\n      mload(0x40)\n      shl(0xe5, 0x461bcd)\n      dup2\n      mstore\n        /* \"#utility.yul\":3694:3696   */\n      0x20\n        /* \"VettedToken.sol\":2315:2356  require(amount > 0, \"Amount must be > 0\") */\n      0x04\n      dup3\n      add\n        /* \"#utility.yul\":3676:3697   */\n      mstore\n        /* \"#utility.yul\":3733:3735   */\n      0x12\n        /* \"#utility.yul\":3713:3731   */\n      0x24\n      dup3\n      add\n        /* \"#utility.yul\":3706:3736   */\n      mstore\n      shl(0x74, 0x0416d6f756e74206d757374206265203e203)\n        /* \"#utility.yul\":3752:3770   */\n      0x44\n      dup3\n      add\n        /* \"#utility.yul\":3745:3793   */\n      mstore\n        /* \"#utility.yul\":3810:3828   */\n      0x64\n      add\n        /* \"VettedToken.sol\":2315:2356  require(amount > 0, \"Amount must be > 0\") */\n      tag_126\n        /* \"#utility.yul\":3492:3834   */\n      jump\n        /* \"VettedToken.sol\":2315:2356  require(amount > 0, \"Amount must be > 0\") */\n    tag_131:\n        /* \"VettedToken.sol\":2385:2395  msg.sender */\n      caller\n        /* \"@openzeppelin/contracts/token/ERC20/ERC20.sol\":3050:3057  uint256 */\n      0x00\n        /* \"@openzeppelin/contracts/token/ERC20/ERC20.sol\":3076:3094  _balances[account] */\n      swap1\n      dup2\n      mstore\n      0x20\n      dup2\n      swap1\n      mstore\n      0x40\n      swap1\n      keccak256\n      sload\n        /* \"VettedToken.sol\":2400:2406  amount */\n      dup2\n      gt\n        /* \"VettedToken.sol\":2375:2406  balanceOf(msg.sender) >= amount */\n      iszero\n        /* \"VettedToken.sol\":2367:2431  require(balanceOf(msg.sender) >= amount, \"Insufficient balance\") */\n      tag_135\n      jumpi\n      mload(0x40)\n      shl(0xe5, 0x461bcd)\n      dup2\n      mstore\n        /* \"#utility.yul\":4041:4043   */\n      0x20\n        /* \"VettedToken.sol\":2367:2431  require(balanceOf(msg.sender) >= amount, \"Insufficient balance\") */\n      0x04\n      dup3\n      add\n        /* \"#utility.yul\":4023:4044   */\n      mstore\n        /* \"#utility.yul\":4080:4082   */\n      0x14\n        /* \"#utility.yul\":4060:4078   */\n      0x24\n      dup3\n      add\n        /* \"#utility.yul\":4053:4083   */\n      mstore\n      shl(0x60, 0x496e73756666696369656e742062616c616e6365)\n        /* \"#utility.yul\":4099:4117   */\n      0x44\n      dup3\n      add\n        /* \"#utility.yul\":4092:4142   */\n      mstore\n        /* \"#utility.yul\":4159:4177   */\n      0x64\n      add\n        /* \"VettedToken.sol\":2367:2431  require(balanceOf(msg.sender) >= amount, \"Insufficient balance\") */\n      tag_126\n        /* \"#utility.yul\":3839:4183   */\n      jump\n        /* \"VettedToken.sol\":2367:2431  require(balanceOf(msg.sender) >= amount, \"Insufficient balance\") */\n    tag_135:\n        /* \"VettedToken.sol\":2444:2469  _burn(msg.sender, amount) */\n      tag_138\n        /* \"VettedToken.sol\":2450:2460  msg.sender */\n      caller\n        /* \"VettedToken.sol\":2462:2468  amount */\n      dup3\n        /* \"VettedToken.sol\":2444:2449  _burn */\n      tag_139\n        /* \"VettedToken.sol\":2444:2469  _burn(msg.sender, amount) */\n      jump\t// in\n    tag_138:\n        /* \"VettedToken.sol\":2518:2531  BurnType.SELF */\n      0x01\n        /* \"VettedToken.sol\":2498:2508  msg.sender */\n      caller\n        /* \"VettedToken.sol\":2485:2547  TokensBurned(msg.sender, amount, BurnType.SELF, totalSupply()) */\n      0x14c08ae9f74e8b735a667822feb792c4e1324d0dd5887af1528665f8c2357f86\n        /* \"VettedToken.sol\":2510:2516  amount */\n      dup4\n        /* \"VettedToken.sol\":2533:2546  totalSupply() */\n      tag_143\n        /* \"@openzeppelin/contracts/token/ERC20/ERC20.sol\":2908:2920  _totalSupply */\n      sload(0x02)\n      swap1\n        /* \"@openzeppelin/contracts/token/ERC20/ERC20.sol\":2830:2927  function totalSupply() public view virtual returns (uint256) {... */\n      jump\n        /* \"VettedToken.sol\":2533:2546  totalSupply() */\n    tag_143:\n        /* \"VettedToken.sol\":2485:2547  TokensBurned(msg.sender, amount, BurnType.SELF, totalSupply()) */\n      0x40\n      dup1\n      mload\n        /* \"#utility.yul\":4494:4519   */\n      swap3\n      dup4\n      mstore\n        /* \"#utility.yul\":4550:4552   */\n      0x20\n        /* \"#utility.yul\":4535:4553   */\n      dup4\n      add\n        /* \"#utility.yul\":4528:4562   */\n      swap2\n      swap1\n      swap2\n      mstore\n        /* \"#utility.yul\":4467:4485   */\n      add\n        /* \"VettedToken.sol\":2485:2547  TokensBurned(msg.sender, amount, BurnType.SELF, totalSupply()) */\n      mload(0x40)\n      dup1\n      swap2\n      sub\n      swap1\n      log3\n        /* \"VettedToken.sol\":2564:2575  burnManager */\n      and(sub(shl(0xa0, 0x01), 0x01), sload(0x07))\n        /* \"VettedToken.sol\":2564:2589  burnManager != address(0) */\n      iszero\n        /* \"VettedToken.sol\":2560:2674  if (burnManager != address(0)) {... */\n      tag_146\n      jumpi\n        /* \"VettedToken.sol\":2619:2630  burnManager */\n      sload(0x07)\n        /* \"VettedToken.sol\":2606:2662  IBurnManager(burnManager).notifyBurn(msg.sender, amount) */\n      mload(0x40)\n      shl(0xe0, 0x1ed1028b)\n      dup2\n      mstore\n        /* \"VettedToken.sol\":2643:2653  msg.sender */\n      caller\n        /* \"VettedToken.sol\":2606:2662  IBurnManager(burnManager).notifyBurn(msg.sender, amount) */\n      0x04\n      dup3\n      add\n        /* \"#utility.yul\":4747:4798   */\n      mstore\n        /* \"#utility.yul\":4814:4832   */\n      0x24\n      dup2\n      add\n        /* \"#utility.yul\":4807:4841   */\n      dup4\n      swap1\n      mstore\n      sub(shl(0xa0, 0x01), 0x01)\n        /* \"VettedToken.sol\":2619:2630  burnManager */\n      swap1\n      swap2\n      and\n      swap1\n        /* \"VettedToken.sol\":2606:2642  IBurnManager(burnManager).notifyBurn */\n      0x1ed1028b\n      swap1\n        /* \"#utility.yul\":4720:4738   */\n      0x44\n      add\n        /* \"VettedToken.sol\":2606:2662  IBurnManager(burnManager).notifyBurn(msg.sender, amount) */\n      0x00\n      mload(0x40)\n      dup1\n      dup4\n      sub\n      dup2\n      0x00\n      dup8\n      dup1\n      extcodesize\n      iszero\n      dup1\n      iszero\n      tag_149\n      jumpi\n      revert(0x00, 0x00)\n    tag_149:\n      pop\n      gas\n      call\n      iszero\n      dup1\n      iszero\n      tag_151\n      jumpi\n      returndatacopy(0x00, 0x00, returndatasize)\n      revert(0x00, returndatasize)\n    tag_151:\n      pop\n      pop\n      pop\n      pop\n        /* \"VettedToken.sol\":2560:2674  if (burnManager != address(0)) {... */\n    tag_146:\n        /* \"VettedToken.sol\":2259:2681  function burn(uint256 amount) public virtual {... */\n      pop\n      jump\t// out\n        /* \"VettedToken.sol\":1953:2205  function factoryBurn(address from, uint256 amount) external {... */\n    tag_66:\n        /* \"VettedToken.sol\":2032:2042  msg.sender */\n      caller\n      sub(shl(0xa0, 0x01), 0x01)\n        /* \"VettedToken.sol\":2046:2058  tokenFactory */\n      immutable(\"0x5d40e99405081227bb9ff3dfcb5688bebff2335619d1e80403a820b0e682b492\")\n        /* \"VettedToken.sol\":2032:2058  msg.sender == tokenFactory */\n      and\n      eq\n        /* \"VettedToken.sol\":2024:2092  require(msg.sender == tokenFactory, \"Only factory can factory burn\") */\n      tag_153\n      jumpi\n      mload(0x40)\n      shl(0xe5, 0x461bcd)\n      dup2\n      mstore\n        /* \"#utility.yul\":5054:5056   */\n      0x20\n        /* \"VettedToken.sol\":2024:2092  require(msg.sender == tokenFactory, \"Only factory can factory burn\") */\n      0x04\n      dup3\n      add\n        /* \"#utility.yul\":5036:5057   */\n      mstore\n        /* \"#utility.yul\":5093:5095   */\n      0x1d\n        /* \"#utility.yul\":5073:5091   */\n      0x24\n      dup3\n      add\n        /* \"#utility.yul\":5066:5096   */\n      mstore\n        /* \"#utility.yul\":5132:5163   */\n      0x4f6e6c7920666163746f72792063616e20666163746f7279206275726e000000\n        /* \"#utility.yul\":5112:5130   */\n      0x44\n      dup3\n      add\n        /* \"#utility.yul\":5105:5164   */\n      mstore\n        /* \"#utility.yul\":5181:5199   */\n      0x64\n      add\n        /* \"VettedToken.sol\":2024:2092  require(msg.sender == tokenFactory, \"Only factory can factory burn\") */\n      tag_126\n        /* \"#utility.yul\":4852:5205   */\n      jump\n        /* \"VettedToken.sol\":2024:2092  require(msg.sender == tokenFactory, \"Only factory can factory burn\") */\n    tag_153:\n        /* \"VettedToken.sol\":2103:2122  _burn(from, amount) */\n      tag_156\n        /* \"VettedToken.sol\":2109:2113  from */\n      dup3\n        /* \"VettedToken.sol\":2115:2121  amount */\n      dup3\n        /* \"VettedToken.sol\":2103:2108  _burn */\n      tag_139\n        /* \"VettedToken.sol\":2103:2122  _burn(from, amount) */\n      jump\t// in\n    tag_156:\n        /* \"VettedToken.sol\":2165:2181  BurnType.FACTORY */\n      0x00\n        /* \"VettedToken.sol\":2151:2155  from */\n      dup3\n      sub(shl(0xa0, 0x01), 0x01)\n        /* \"VettedToken.sol\":2138:2197  TokensBurned(from, amount, BurnType.FACTORY, totalSupply()) */\n      and\n      0x14c08ae9f74e8b735a667822feb792c4e1324d0dd5887af1528665f8c2357f86\n        /* \"VettedToken.sol\":2157:2163  amount */\n      dup4\n        /* \"VettedToken.sol\":2183:2196  totalSupply() */\n      tag_159\n        /* \"@openzeppelin/contracts/token/ERC20/ERC20.sol\":2908:2920  _totalSupply */\n      sload(0x02)\n      swap1\n        /* \"@openzeppelin/contracts/token/ERC20/ERC20.sol\":2830:2927  function totalSupply() public view virtual returns (uint256) {... */\n      jump\n        /* \"VettedToken.sol\":2183:2196  totalSupply() */\n    tag_159:\n        /* \"VettedToken.sol\":2138:2197  TokensBurned(from, amount, BurnType.FACTORY, totalSupply()) */\n      0x40\n      dup1\n      mload\n        /* \"#utility.yul\":4494:4519   */\n      swap3\n      dup4\n      mstore\n        /* \"#utility.yul\":4550:4552   */\n      0x20\n        /* \"#utility.yul\":4535:4553   */\n      dup4\n      add\n        /* \"#utility.yul\":4528:4562   */\n      swap2\n      swap1\n      swap2\n      mstore\n        /* \"#utility.yul\":4467:4485   */\n      add\n        /* \"VettedToken.sol\":2138:2197  TokensBurned(from, amount, BurnType.FACTORY, totalSupply()) */\n      mload(0x40)\n      dup1\n      swap2\n      sub\n      swap1\n      log3\n        /* \"VettedToken.sol\":1953:2205  function factoryBurn(address from, uint256 amount) external {... */\n      pop\n      pop\n      jump\t// out\n        /* \"@openzeppelin/contracts/access/Ownable.sol\":2293:2394  function renounceOwnership() public virtual onlyOwner {... */\n    tag_73:\n        /* \"@openzeppelin/contracts/access/Ownable.sol\":1531:1544  _checkOwner() */\n      tag_163\n        /* \"@openzeppelin/contracts/access/Ownable.sol\":1531:1542  _checkOwner */\n      tag_164\n        /* \"@openzeppelin/contracts/access/Ownable.sol\":1531:1544  _checkOwner() */\n      jump\t// in\n    tag_163:\n        /* \"@openzeppelin/contracts/access/Ownable.sol\":2357:2387  _transferOwnership(address(0)) */\n      tag_166\n        /* \"@openzeppelin/contracts/access/Ownable.sol\":2384:2385  0 */\n      0x00\n        /* \"@openzeppelin/contracts/access/Ownable.sol\":2357:2375  _transferOwnership */\n      tag_167\n        /* \"@openzeppelin/contracts/access/Ownable.sol\":2357:2387  _transferOwnership(address(0)) */\n      jump\t// in\n    tag_166:\n        /* \"@openzeppelin/contracts/access/Ownable.sol\":2293:2394  function renounceOwnership() public virtual onlyOwner {... */\n      jump\t// out\n        /* \"@openzeppelin/contracts/token/ERC20/ERC20.sol\":1962:2055  function symbol() public view virtual returns (string memory) {... */\n    tag_78:\n        /* \"@openzeppelin/contracts/token/ERC20/ERC20.sol\":2009:2022  string memory */\n      0x60\n        /* \"@openzeppelin/contracts/token/ERC20/ERC20.sol\":2041:2048  _symbol */\n      0x04\n        /* \"@openzeppelin/contracts/token/ERC20/ERC20.sol\":2034:2048  return _symbol */\n      dup1\n      sload\n      tag_105\n      swap1\n      tag_106\n      jump\t// in\n        /* \"VettedToken.sol\":2744:3228  function setBurnManager(address newManager) external {... */\n    tag_82:\n        /* \"VettedToken.sol\":2816:2826  msg.sender */\n      caller\n      sub(shl(0xa0, 0x01), 0x01)\n        /* \"VettedToken.sol\":2830:2837  creator */\n      immutable(\"0x27f7320d12022267a30ae0570361d18e54ded7bfc682ac5b98d912c6ab83c578\")\n        /* \"VettedToken.sol\":2816:2837  msg.sender == creator */\n      and\n      eq\n        /* \"VettedToken.sol\":2808:2875  require(msg.sender == creator, \"Only creator can set burn manager\") */\n      tag_176\n      jumpi\n      mload(0x40)\n      shl(0xe5, 0x461bcd)\n      dup2\n      mstore\n        /* \"#utility.yul\":5412:5414   */\n      0x20\n        /* \"VettedToken.sol\":2808:2875  require(msg.sender == creator, \"Only creator can set burn manager\") */\n      0x04\n      dup3\n      add\n        /* \"#utility.yul\":5394:5415   */\n      mstore\n        /* \"#utility.yul\":5451:5453   */\n      0x21\n        /* \"#utility.yul\":5431:5449   */\n      0x24\n      dup3\n      add\n        /* \"#utility.yul\":5424:5454   */\n      mstore\n        /* \"#utility.yul\":5490:5524   */\n      0x4f6e6c792063726561746f722063616e20736574206275726e206d616e616765\n        /* \"#utility.yul\":5470:5488   */\n      0x44\n      dup3\n      add\n        /* \"#utility.yul\":5463:5525   */\n      mstore\n      shl(0xf9, 0x39)\n        /* \"#utility.yul\":5541:5559   */\n      0x64\n      dup3\n      add\n        /* \"#utility.yul\":5534:5565   */\n      mstore\n        /* \"#utility.yul\":5582:5601   */\n      0x84\n      add\n        /* \"VettedToken.sol\":2808:2875  require(msg.sender == creator, \"Only creator can set burn manager\") */\n      tag_126\n        /* \"#utility.yul\":5210:5607   */\n      jump\n        /* \"VettedToken.sol\":2808:2875  require(msg.sender == creator, \"Only creator can set burn manager\") */\n    tag_176:\n      sub(shl(0xa0, 0x01), 0x01)\n        /* \"VettedToken.sol\":2894:2918  newManager != address(0) */\n      dup2\n      and\n        /* \"VettedToken.sol\":2886:2945  require(newManager != address(0), \"Cannot be zero address\") */\n      tag_179\n      jumpi\n      mload(0x40)\n      shl(0xe5, 0x461bcd)\n      dup2\n      mstore\n        /* \"#utility.yul\":5814:5816   */\n      0x20\n        /* \"VettedToken.sol\":2886:2945  require(newManager != address(0), \"Cannot be zero address\") */\n      0x04\n      dup3\n      add\n        /* \"#utility.yul\":5796:5817   */\n      mstore\n        /* \"#utility.yul\":5853:5855   */\n      0x16\n        /* \"#utility.yul\":5833:5851   */\n      0x24\n      dup3\n      add\n        /* \"#utility.yul\":5826:5856   */\n      mstore\n      shl(0x50, 0x43616e6e6f74206265207a65726f2061646472657373)\n        /* \"#utility.yul\":5872:5890   */\n      0x44\n      dup3\n      add\n        /* \"#utility.yul\":5865:5917   */\n      mstore\n        /* \"#utility.yul\":5934:5952   */\n      0x64\n      add\n        /* \"VettedToken.sol\":2886:2945  require(newManager != address(0), \"Cannot be zero address\") */\n      tag_126\n        /* \"#utility.yul\":5612:5958   */\n      jump\n        /* \"VettedToken.sol\":2886:2945  require(newManager != address(0), \"Cannot be zero address\") */\n    tag_179:\n        /* \"VettedToken.sol\":2978:3031  IBurnManager(newManager).supportsToken(address(this)) */\n      mload(0x40)\n      shl(0xe4, 0x61f765)\n      dup2\n      mstore\n        /* \"VettedToken.sol\":3025:3029  this */\n      address\n        /* \"VettedToken.sol\":2978:3031  IBurnManager(newManager).supportsToken(address(this)) */\n      0x04\n      dup3\n      add\n        /* \"#utility.yul\":160:211   */\n      mstore\n      sub(shl(0xa0, 0x01), 0x01)\n        /* \"VettedToken.sol\":2978:3016  IBurnManager(newManager).supportsToken */\n      dup3\n      and\n      swap1\n      0x061f7650\n      swap1\n        /* \"#utility.yul\":133:151   */\n      0x24\n      add\n        /* \"VettedToken.sol\":2978:3031  IBurnManager(newManager).supportsToken(address(this)) */\n      0x20\n      mload(0x40)\n      dup1\n      dup4\n      sub\n      dup2\n      dup7\n      gas\n      staticcall\n      iszero\n      dup1\n      iszero\n      tag_184\n      jumpi\n      returndatacopy(0x00, 0x00, returndatasize)\n      revert(0x00, returndatasize)\n    tag_184:\n      pop\n      pop\n      pop\n      pop\n      mload(0x40)\n      returndatasize\n      not(0x1f)\n      0x1f\n      dup3\n      add\n      and\n      dup3\n      add\n      dup1\n      0x40\n      mstore\n      pop\n      dup2\n      add\n      swap1\n      tag_185\n      swap2\n      swap1\n      tag_186\n      jump\t// in\n    tag_185:\n        /* \"VettedToken.sol\":2956:3086  require(... */\n      tag_187\n      jumpi\n      mload(0x40)\n      shl(0xe5, 0x461bcd)\n      dup2\n      mstore\n        /* \"#utility.yul\":6447:6449   */\n      0x20\n        /* \"VettedToken.sol\":2956:3086  require(... */\n      0x04\n      dup3\n      add\n        /* \"#utility.yul\":6429:6450   */\n      mstore\n        /* \"#utility.yul\":6486:6488   */\n      0x1b\n        /* \"#utility.yul\":6466:6484   */\n      0x24\n      dup3\n      add\n        /* \"#utility.yul\":6459:6489   */\n      mstore\n        /* \"#utility.yul\":6525:6554   */\n      0x4275726e206d616e61676572206e6f7420636f6d70617469626c650000000000\n        /* \"#utility.yul\":6505:6523   */\n      0x44\n      dup3\n      add\n        /* \"#utility.yul\":6498:6555   */\n      mstore\n        /* \"#utility.yul\":6572:6590   */\n      0x64\n      add\n        /* \"VettedToken.sol\":2956:3086  require(... */\n      tag_126\n        /* \"#utility.yul\":6245:6596   */\n      jump\n        /* \"VettedToken.sol\":2956:3086  require(... */\n    tag_187:\n        /* \"VettedToken.sol\":3120:3131  burnManager */\n      0x07\n      dup1\n      sload\n      sub(shl(0xa0, 0x01), 0x01)\n        /* \"VettedToken.sol\":3142:3166  burnManager = newManager */\n      dup4\n      dup2\n      and\n      not(sub(shl(0xa0, 0x01), 0x01))\n      dup4\n      and\n      dup2\n      or\n      swap1\n      swap4\n      sstore\n        /* \"VettedToken.sol\":3182:3220  BurnManagerSet(oldManager, newManager) */\n      mload(0x40)\n        /* \"VettedToken.sol\":3120:3131  burnManager */\n      swap2\n      and\n      swap2\n        /* \"VettedToken.sol\":3142:3166  burnManager = newManager */\n      swap1\n        /* \"VettedToken.sol\":3120:3131  burnManager */\n      dup3\n      swap1\n        /* \"VettedToken.sol\":3182:3220  BurnManagerSet(oldManager, newManager) */\n      0x0a216b4ae65e96da40adb74d7d42ec050b88e0da645103a084647ed55eb3e0d9\n      swap1\n        /* \"VettedToken.sol\":3099:3117  address oldManager */\n      0x00\n      swap1\n        /* \"VettedToken.sol\":3182:3220  BurnManagerSet(oldManager, newManager) */\n      log3\n        /* \"VettedToken.sol\":2797:3228  {... */\n      pop\n        /* \"VettedToken.sol\":2744:3228  function setBurnManager(address newManager) external {... */\n      pop\n      jump\t// out\n        /* \"@openzeppelin/contracts/token/ERC20/ERC20.sol\":3296:3474  function transfer(address to, uint256 value) public virtual returns (bool) {... */\n    tag_85:\n        /* \"@openzeppelin/contracts/token/ERC20/ERC20.sol\":3365:3369  bool */\n      0x00\n        /* \"@openzeppelin/contracts/utils/Context.sol\":735:745  msg.sender */\n      caller\n        /* \"@openzeppelin/contracts/token/ERC20/ERC20.sol\":3419:3446  _transfer(owner, to, value) */\n      tag_114\n        /* \"@openzeppelin/contracts/utils/Context.sol\":735:745  msg.sender */\n      dup2\n        /* \"@openzeppelin/contracts/token/ERC20/ERC20.sol\":3436:3438  to */\n      dup6\n        /* \"@openzeppelin/contracts/token/ERC20/ERC20.sol\":3440:3445  value */\n      dup6\n        /* \"@openzeppelin/contracts/token/ERC20/ERC20.sol\":3419:3428  _transfer */\n      tag_122\n        /* \"@openzeppelin/contracts/token/ERC20/ERC20.sol\":3419:3446  _transfer(owner, to, value) */\n      jump\t// in\n        /* \"VettedToken.sol\":468:490  string public imageUrl */\n    tag_88:\n      0x06\n      dup1\n      sload\n      tag_193\n      swap1\n      tag_106\n      jump\t// in\n    tag_193:\n      dup1\n      0x1f\n      add\n      0x20\n      dup1\n      swap2\n      div\n      mul\n      0x20\n      add\n      mload(0x40)\n      swap1\n      dup2\n      add\n      0x40\n      mstore\n      dup1\n      swap3\n      swap2\n      swap1\n      dup2\n      dup2\n      mstore\n      0x20\n      add\n      dup3\n      dup1\n      sload\n      tag_194\n      swap1\n      tag_106\n      jump\t// in\n    tag_194:\n      dup1\n      iszero\n      tag_195\n      jumpi\n      dup1\n      0x1f\n      lt\n      tag_196\n      jumpi\n      0x0100\n      dup1\n      dup4\n      sload\n      div\n      mul\n      dup4\n      mstore\n      swap2\n      0x20\n      add\n      swap2\n      jump(tag_195)\n    tag_196:\n      dup3\n      add\n      swap2\n      swap1\n      0x00\n      mstore\n      keccak256(0x00, 0x20)\n      swap1\n    tag_197:\n      dup2\n      sload\n      dup2\n      mstore\n      swap1\n      0x01\n      add\n      swap1\n      0x20\n      add\n      dup1\n      dup4\n      gt\n      tag_197\n      jumpi\n      dup3\n      swap1\n      sub\n      0x1f\n      and\n      dup3\n      add\n      swap2\n    tag_195:\n      pop\n      pop\n      pop\n      pop\n      pop\n      dup2\n      jump\t// out\n        /* \"@openzeppelin/contracts/access/Ownable.sol\":2543:2758  function transferOwnership(address newOwner) public virtual onlyOwner {... */\n    tag_100:\n        /* \"@openzeppelin/contracts/access/Ownable.sol\":1531:1544  _checkOwner() */\n      tag_200\n        /* \"@openzeppelin/contracts/access/Ownable.sol\":1531:1542  _checkOwner */\n      tag_164\n        /* \"@openzeppelin/contracts/access/Ownable.sol\":1531:1544  _checkOwner() */\n      jump\t// in\n    tag_200:\n      sub(shl(0xa0, 0x01), 0x01)\n        /* \"@openzeppelin/contracts/access/Ownable.sol\":2627:2649  newOwner == address(0) */\n      dup2\n      and\n        /* \"@openzeppelin/contracts/access/Ownable.sol\":2623:2714  if (newOwner == address(0)) {... */\n      tag_202\n      jumpi\n        /* \"@openzeppelin/contracts/access/Ownable.sol\":2672:2703  OwnableInvalidOwner(address(0)) */\n      mload(0x40)\n      shl(0xe0, 0x1e4fbdf7)\n      dup2\n      mstore\n        /* \"@openzeppelin/contracts/access/Ownable.sol\":2700:2701  0 */\n      0x00\n        /* \"@openzeppelin/contracts/access/Ownable.sol\":2672:2703  OwnableInvalidOwner(address(0)) */\n      0x04\n      dup3\n      add\n        /* \"#utility.yul\":160:211   */\n      mstore\n        /* \"#utility.yul\":133:151   */\n      0x24\n      add\n        /* \"@openzeppelin/contracts/access/Ownable.sol\":2672:2703  OwnableInvalidOwner(address(0)) */\n      tag_126\n        /* \"#utility.yul\":14:217   */\n      jump\n        /* \"@openzeppelin/contracts/access/Ownable.sol\":2623:2714  if (newOwner == address(0)) {... */\n    tag_202:\n        /* \"@openzeppelin/contracts/access/Ownable.sol\":2723:2751  _transferOwnership(newOwner) */\n      tag_146\n        /* \"@openzeppelin/contracts/access/Ownable.sol\":2742:2750  newOwner */\n      dup2\n        /* \"@openzeppelin/contracts/access/Ownable.sol\":2723:2741  _transferOwnership */\n      tag_167\n        /* \"@openzeppelin/contracts/access/Ownable.sol\":2723:2751  _transferOwnership(newOwner) */\n      jump\t// in\n        /* \"VettedToken.sol\":530:548  string public test */\n    tag_102:\n      0x08\n      dup1\n      sload\n      tag_193\n      swap1\n      tag_106\n      jump\t// in\n        /* \"@openzeppelin/contracts/token/ERC20/ERC20.sol\":8707:8835  function _approve(address owner, address spender, uint256 value) internal {... */\n    tag_115:\n        /* \"@openzeppelin/contracts/token/ERC20/ERC20.sol\":8791:8828  _approve(owner, spender, value, true) */\n      tag_212\n        /* \"@openzeppelin/contracts/token/ERC20/ERC20.sol\":8800:8805  owner */\n      dup4\n        /* \"@openzeppelin/contracts/token/ERC20/ERC20.sol\":8807:8814  spender */\n      dup4\n        /* \"@openzeppelin/contracts/token/ERC20/ERC20.sol\":8816:8821  value */\n      dup4\n        /* \"@openzeppelin/contracts/token/ERC20/ERC20.sol\":8823:8827  true */\n      0x01\n        /* \"@openzeppelin/contracts/token/ERC20/ERC20.sol\":8791:8799  _approve */\n      tag_213\n        /* \"@openzeppelin/contracts/token/ERC20/ERC20.sol\":8791:8828  _approve(owner, spender, value, true) */\n      jump\t// in\n    tag_212:\n        /* \"@openzeppelin/contracts/token/ERC20/ERC20.sol\":8707:8835  function _approve(address owner, address spender, uint256 value) internal {... */\n      pop\n      pop\n      pop\n      jump\t// out\n        /* \"@openzeppelin/contracts/token/ERC20/ERC20.sol\":10396:10872  function _spendAllowance(address owner, address spender, uint256 value) internal virtual {... */\n    tag_120:\n      sub(shl(0xa0, 0x01), 0x01)\n        /* \"@openzeppelin/contracts/token/ERC20/ERC20.sol\":3638:3656  _allowances[owner] */\n      dup4\n      dup2\n      and\n        /* \"@openzeppelin/contracts/token/ERC20/ERC20.sol\":10495:10519  uint256 currentAllowance */\n      0x00\n        /* \"@openzeppelin/contracts/token/ERC20/ERC20.sol\":3638:3656  _allowances[owner] */\n      swap1\n      dup2\n      mstore\n        /* \"@openzeppelin/contracts/token/ERC20/ERC20.sol\":3638:3649  _allowances */\n      0x01\n        /* \"@openzeppelin/contracts/token/ERC20/ERC20.sol\":3638:3656  _allowances[owner] */\n      0x20\n      swap1\n      dup2\n      mstore\n      0x40\n      dup1\n      dup4\n      keccak256\n        /* \"@openzeppelin/contracts/token/ERC20/ERC20.sol\":3638:3665  _allowances[owner][spender] */\n      swap4\n      dup7\n      and\n      dup4\n      mstore\n      swap3\n      swap1\n      mstore\n      keccak256\n      sload\n      not(0x00)\n        /* \"@openzeppelin/contracts/token/ERC20/ERC20.sol\":10561:10597  currentAllowance < type(uint256).max */\n      dup2\n      lt\n        /* \"@openzeppelin/contracts/token/ERC20/ERC20.sol\":10557:10866  if (currentAllowance < type(uint256).max) {... */\n      iszero\n      tag_220\n      jumpi\n        /* \"@openzeppelin/contracts/token/ERC20/ERC20.sol\":10636:10641  value */\n      dup2\n        /* \"@openzeppelin/contracts/token/ERC20/ERC20.sol\":10617:10633  currentAllowance */\n      dup2\n        /* \"@openzeppelin/contracts/token/ERC20/ERC20.sol\":10617:10641  currentAllowance < value */\n      lt\n        /* \"@openzeppelin/contracts/token/ERC20/ERC20.sol\":10613:10743  if (currentAllowance < value) {... */\n      iszero\n      tag_217\n      jumpi\n        /* \"@openzeppelin/contracts/token/ERC20/ERC20.sol\":10668:10728  ERC20InsufficientAllowance(spender, currentAllowance, value) */\n      mload(0x40)\n      shl(0xe1, 0x7dc7a0d9)\n      dup2\n      mstore\n      sub(shl(0xa0, 0x01), 0x01)\n        /* \"#utility.yul\":6821:6853   */\n      dup5\n      and\n        /* \"@openzeppelin/contracts/token/ERC20/ERC20.sol\":10668:10728  ERC20InsufficientAllowance(spender, currentAllowance, value) */\n      0x04\n      dup3\n      add\n        /* \"#utility.yul\":6803:6854   */\n      mstore\n        /* \"#utility.yul\":6870:6888   */\n      0x24\n      dup2\n      add\n        /* \"#utility.yul\":6863:6897   */\n      dup3\n      swap1\n      mstore\n        /* \"#utility.yul\":6913:6931   */\n      0x44\n      dup2\n      add\n        /* \"#utility.yul\":6906:6940   */\n      dup4\n      swap1\n      mstore\n        /* \"#utility.yul\":6776:6794   */\n      0x64\n      add\n        /* \"@openzeppelin/contracts/token/ERC20/ERC20.sol\":10668:10728  ERC20InsufficientAllowance(spender, currentAllowance, value) */\n      tag_126\n        /* \"#utility.yul\":6601:6946   */\n      jump\n        /* \"@openzeppelin/contracts/token/ERC20/ERC20.sol\":10613:10743  if (currentAllowance < value) {... */\n    tag_217:\n        /* \"@openzeppelin/contracts/token/ERC20/ERC20.sol\":10784:10841  _approve(owner, spender, currentAllowance - value, false) */\n      tag_220\n        /* \"@openzeppelin/contracts/token/ERC20/ERC20.sol\":10793:10798  owner */\n      dup5\n        /* \"@openzeppelin/contracts/token/ERC20/ERC20.sol\":10800:10807  spender */\n      dup5\n        /* \"@openzeppelin/contracts/token/ERC20/ERC20.sol\":10828:10833  value */\n      dup5\n        /* \"@openzeppelin/contracts/token/ERC20/ERC20.sol\":10809:10825  currentAllowance */\n      dup5\n        /* \"@openzeppelin/contracts/token/ERC20/ERC20.sol\":10809:10833  currentAllowance - value */\n      sub\n        /* \"@openzeppelin/contracts/token/ERC20/ERC20.sol\":10835:10840  false */\n      0x00\n        /* \"@openzeppelin/contracts/token/ERC20/ERC20.sol\":10784:10792  _approve */\n      tag_213\n        /* \"@openzeppelin/contracts/token/ERC20/ERC20.sol\":10784:10841  _approve(owner, spender, currentAllowance - value, false) */\n      jump\t// in\n    tag_220:\n        /* \"@openzeppelin/contracts/token/ERC20/ERC20.sol\":10485:10872  {... */\n      pop\n        /* \"@openzeppelin/contracts/token/ERC20/ERC20.sol\":10396:10872  function _spendAllowance(address owner, address spender, uint256 value) internal virtual {... */\n      pop\n      pop\n      pop\n      jump\t// out\n        /* \"@openzeppelin/contracts/token/ERC20/ERC20.sol\":5374:5674  function _transfer(address from, address to, uint256 value) internal {... */\n    tag_122:\n      sub(shl(0xa0, 0x01), 0x01)\n        /* \"@openzeppelin/contracts/token/ERC20/ERC20.sol\":5457:5475  from == address(0) */\n      dup4\n      and\n        /* \"@openzeppelin/contracts/token/ERC20/ERC20.sol\":5453:5539  if (from == address(0)) {... */\n      tag_222\n      jumpi\n        /* \"@openzeppelin/contracts/token/ERC20/ERC20.sol\":5498:5528  ERC20InvalidSender(address(0)) */\n      mload(0x40)\n      shl(0xe1, 0x4b637e8f)\n      dup2\n      mstore\n        /* \"@openzeppelin/contracts/token/ERC20/ERC20.sol\":5525:5526  0 */\n      0x00\n        /* \"@openzeppelin/contracts/token/ERC20/ERC20.sol\":5498:5528  ERC20InvalidSender(address(0)) */\n      0x04\n      dup3\n      add\n        /* \"#utility.yul\":160:211   */\n      mstore\n        /* \"#utility.yul\":133:151   */\n      0x24\n      add\n        /* \"@openzeppelin/contracts/token/ERC20/ERC20.sol\":5498:5528  ERC20InvalidSender(address(0)) */\n      tag_126\n        /* \"#utility.yul\":14:217   */\n      jump\n        /* \"@openzeppelin/contracts/token/ERC20/ERC20.sol\":5453:5539  if (from == address(0)) {... */\n    tag_222:\n      sub(shl(0xa0, 0x01), 0x01)\n        /* \"@openzeppelin/contracts/token/ERC20/ERC20.sol\":5552:5568  to == address(0) */\n      dup3\n      and\n        /* \"@openzeppelin/contracts/token/ERC20/ERC20.sol\":5548:5634  if (to == address(0)) {... */\n      tag_224\n      jumpi\n        /* \"@openzeppelin/contracts/token/ERC20/ERC20.sol\":5591:5623  ERC20InvalidReceiver(address(0)) */\n      mload(0x40)\n      shl(0xe0, 0xec442f05)\n      dup2\n      mstore\n        /* \"@openzeppelin/contracts/token/ERC20/ERC20.sol\":5620:5621  0 */\n      0x00\n        /* \"@openzeppelin/contracts/token/ERC20/ERC20.sol\":5591:5623  ERC20InvalidReceiver(address(0)) */\n      0x04\n      dup3\n      add\n        /* \"#utility.yul\":160:211   */\n      mstore\n        /* \"#utility.yul\":133:151   */\n      0x24\n      add\n        /* \"@openzeppelin/contracts/token/ERC20/ERC20.sol\":5591:5623  ERC20InvalidReceiver(address(0)) */\n      tag_126\n        /* \"#utility.yul\":14:217   */\n      jump\n        /* \"@openzeppelin/contracts/token/ERC20/ERC20.sol\":5548:5634  if (to == address(0)) {... */\n    tag_224:\n        /* \"@openzeppelin/contracts/token/ERC20/ERC20.sol\":5643:5667  _update(from, to, value) */\n      tag_212\n        /* \"@openzeppelin/contracts/token/ERC20/ERC20.sol\":5651:5655  from */\n      dup4\n        /* \"@openzeppelin/contracts/token/ERC20/ERC20.sol\":5657:5659  to */\n      dup4\n        /* \"@openzeppelin/contracts/token/ERC20/ERC20.sol\":5661:5666  value */\n      dup4\n        /* \"@openzeppelin/contracts/token/ERC20/ERC20.sol\":5643:5650  _update */\n      tag_227\n        /* \"@openzeppelin/contracts/token/ERC20/ERC20.sol\":5643:5667  _update(from, to, value) */\n      jump\t// in\n        /* \"@openzeppelin/contracts/token/ERC20/ERC20.sol\":7439:7647  function _mint(address account, uint256 value) internal {... */\n    tag_129:\n      sub(shl(0xa0, 0x01), 0x01)\n        /* \"@openzeppelin/contracts/token/ERC20/ERC20.sol\":7509:7530  account == address(0) */\n      dup3\n      and\n        /* \"@openzeppelin/contracts/token/ERC20/ERC20.sol\":7505:7596  if (account == address(0)) {... */\n      tag_229\n      jumpi\n        /* \"@openzeppelin/contracts/token/ERC20/ERC20.sol\":7553:7585  ERC20InvalidReceiver(address(0)) */\n      mload(0x40)\n      shl(0xe0, 0xec442f05)\n      dup2\n      mstore\n        /* \"@openzeppelin/contracts/token/ERC20/ERC20.sol\":7582:7583  0 */\n      0x00\n        /* \"@openzeppelin/contracts/token/ERC20/ERC20.sol\":7553:7585  ERC20InvalidReceiver(address(0)) */\n      0x04\n      dup3\n      add\n        /* \"#utility.yul\":160:211   */\n      mstore\n        /* \"#utility.yul\":133:151   */\n      0x24\n      add\n        /* \"@openzeppelin/contracts/token/ERC20/ERC20.sol\":7553:7585  ERC20InvalidReceiver(address(0)) */\n      tag_126\n        /* \"#utility.yul\":14:217   */\n      jump\n        /* \"@openzeppelin/contracts/token/ERC20/ERC20.sol\":7505:7596  if (account == address(0)) {... */\n    tag_229:\n        /* \"@openzeppelin/contracts/token/ERC20/ERC20.sol\":7605:7640  _update(address(0), account, value) */\n      tag_128\n        /* \"@openzeppelin/contracts/token/ERC20/ERC20.sol\":7621:7622  0 */\n      0x00\n        /* \"@openzeppelin/contracts/token/ERC20/ERC20.sol\":7625:7632  account */\n      dup4\n        /* \"@openzeppelin/contracts/token/ERC20/ERC20.sol\":7634:7639  value */\n      dup4\n        /* \"@openzeppelin/contracts/token/ERC20/ERC20.sol\":7605:7612  _update */\n      tag_227\n        /* \"@openzeppelin/contracts/token/ERC20/ERC20.sol\":7605:7640  _update(address(0), account, value) */\n      jump\t// in\n        /* \"@openzeppelin/contracts/token/ERC20/ERC20.sol\":7965:8171  function _burn(address account, uint256 value) internal {... */\n    tag_139:\n      sub(shl(0xa0, 0x01), 0x01)\n        /* \"@openzeppelin/contracts/token/ERC20/ERC20.sol\":8035:8056  account == address(0) */\n      dup3\n      and\n        /* \"@openzeppelin/contracts/token/ERC20/ERC20.sol\":8031:8120  if (account == address(0)) {... */\n      tag_233\n      jumpi\n        /* \"@openzeppelin/contracts/token/ERC20/ERC20.sol\":8079:8109  ERC20InvalidSender(address(0)) */\n      mload(0x40)\n      shl(0xe1, 0x4b637e8f)\n      dup2\n      mstore\n        /* \"@openzeppelin/contracts/token/ERC20/ERC20.sol\":8106:8107  0 */\n      0x00\n        /* \"@openzeppelin/contracts/token/ERC20/ERC20.sol\":8079:8109  ERC20InvalidSender(address(0)) */\n      0x04\n      dup3\n      add\n        /* \"#utility.yul\":160:211   */\n      mstore\n        /* \"#utility.yul\":133:151   */\n      0x24\n      add\n        /* \"@openzeppelin/contracts/token/ERC20/ERC20.sol\":8079:8109  ERC20InvalidSender(address(0)) */\n      tag_126\n        /* \"#utility.yul\":14:217   */\n      jump\n        /* \"@openzeppelin/contracts/token/ERC20/ERC20.sol\":8031:8120  if (account == address(0)) {... */\n    tag_233:\n        /* \"@openzeppelin/contracts/token/ERC20/ERC20.sol\":8129:8164  _update(account, address(0), value) */\n      tag_128\n        /* \"@openzeppelin/contracts/token/ERC20/ERC20.sol\":8137:8144  account */\n      dup3\n        /* \"@openzeppelin/contracts/token/ERC20/ERC20.sol\":8154:8155  0 */\n      0x00\n        /* \"@openzeppelin/contracts/token/ERC20/ERC20.sol\":8158:8163  value */\n      dup4\n        /* \"@openzeppelin/contracts/token/ERC20/ERC20.sol\":8129:8136  _update */\n      tag_227\n        /* \"@openzeppelin/contracts/token/ERC20/ERC20.sol\":8129:8164  _update(account, address(0), value) */\n      jump\t// in\n        /* \"@openzeppelin/contracts/access/Ownable.sol\":1796:1958  function _checkOwner() internal view virtual {... */\n    tag_164:\n        /* \"@openzeppelin/contracts/access/Ownable.sol\":1710:1716  _owner */\n      and(sub(shl(0xa0, 0x01), 0x01), sload(0x05))\n        /* \"@openzeppelin/contracts/utils/Context.sol\":735:745  msg.sender */\n      caller\n        /* \"@openzeppelin/contracts/access/Ownable.sol\":1855:1878  owner() != _msgSender() */\n      eq\n        /* \"@openzeppelin/contracts/access/Ownable.sol\":1851:1952  if (owner() != _msgSender()) {... */\n      tag_166\n      jumpi\n        /* \"@openzeppelin/contracts/access/Ownable.sol\":1901:1941  OwnableUnauthorizedAccount(_msgSender()) */\n      mload(0x40)\n      shl(0xe0, 0x118cdaa7)\n      dup2\n      mstore\n        /* \"@openzeppelin/contracts/utils/Context.sol\":735:745  msg.sender */\n      caller\n        /* \"@openzeppelin/contracts/access/Ownable.sol\":1901:1941  OwnableUnauthorizedAccount(_msgSender()) */\n      0x04\n      dup3\n      add\n        /* \"#utility.yul\":160:211   */\n      mstore\n        /* \"#utility.yul\":133:151   */\n      0x24\n      add\n        /* \"@openzeppelin/contracts/access/Ownable.sol\":1901:1941  OwnableUnauthorizedAccount(_msgSender()) */\n      tag_126\n        /* \"#utility.yul\":14:217   */\n      jump\n        /* \"@openzeppelin/contracts/access/Ownable.sol\":2912:3099  function _transferOwnership(address newOwner) internal virtual {... */\n    tag_167:\n        /* \"@openzeppelin/contracts/access/Ownable.sol\":3004:3010  _owner */\n      0x05\n      dup1\n      sload\n      sub(shl(0xa0, 0x01), 0x01)\n        /* \"@openzeppelin/contracts/access/Ownable.sol\":3020:3037  _owner = newOwner */\n      dup4\n      dup2\n      and\n      not(sub(shl(0xa0, 0x01), 0x01))\n      dup4\n      and\n      dup2\n      or\n      swap1\n      swap4\n      sstore\n        /* \"@openzeppelin/contracts/access/Ownable.sol\":3052:3092  OwnershipTransferred(oldOwner, newOwner) */\n      mload(0x40)\n        /* \"@openzeppelin/contracts/access/Ownable.sol\":3004:3010  _owner */\n      swap2\n      and\n      swap2\n        /* \"@openzeppelin/contracts/access/Ownable.sol\":3020:3037  _owner = newOwner */\n      swap1\n        /* \"@openzeppelin/contracts/access/Ownable.sol\":3004:3010  _owner */\n      dup3\n      swap1\n        /* \"@openzeppelin/contracts/access/Ownable.sol\":3052:3092  OwnershipTransferred(oldOwner, newOwner) */\n      0x8be0079c531659141344cd1fd0a4f28419497f9722a3daafe3b4186f6b6457e0\n      swap1\n        /* \"@openzeppelin/contracts/access/Ownable.sol\":2985:3001  address oldOwner */\n      0x00\n      swap1\n        /* \"@openzeppelin/contracts/access/Ownable.sol\":3052:3092  OwnershipTransferred(oldOwner, newOwner) */\n      log3\n        /* \"@openzeppelin/contracts/access/Ownable.sol\":2975:3099  {... */\n      pop\n        /* \"@openzeppelin/contracts/access/Ownable.sol\":2912:3099  function _transferOwnership(address newOwner) internal virtual {... */\n      pop\n      jump\t// out\n        /* \"@openzeppelin/contracts/token/ERC20/ERC20.sol\":9682:10114  function _approve(address owner, address spender, uint256 value, bool emitEvent) internal virtual {... */\n    tag_213:\n      sub(shl(0xa0, 0x01), 0x01)\n        /* \"@openzeppelin/contracts/token/ERC20/ERC20.sol\":9794:9813  owner == address(0) */\n      dup5\n      and\n        /* \"@openzeppelin/contracts/token/ERC20/ERC20.sol\":9790:9879  if (owner == address(0)) {... */\n      tag_244\n      jumpi\n        /* \"@openzeppelin/contracts/token/ERC20/ERC20.sol\":9836:9868  ERC20InvalidApprover(address(0)) */\n      mload(0x40)\n      shl(0xe0, 0xe602df05)\n      dup2\n      mstore\n        /* \"@openzeppelin/contracts/token/ERC20/ERC20.sol\":9865:9866  0 */\n      0x00\n        /* \"@openzeppelin/contracts/token/ERC20/ERC20.sol\":9836:9868  ERC20InvalidApprover(address(0)) */\n      0x04\n      dup3\n      add\n        /* \"#utility.yul\":160:211   */\n      mstore\n        /* \"#utility.yul\":133:151   */\n      0x24\n      add\n        /* \"@openzeppelin/contracts/token/ERC20/ERC20.sol\":9836:9868  ERC20InvalidApprover(address(0)) */\n      tag_126\n        /* \"#utility.yul\":14:217   */\n      jump\n        /* \"@openzeppelin/contracts/token/ERC20/ERC20.sol\":9790:9879  if (owner == address(0)) {... */\n    tag_244:\n      sub(shl(0xa0, 0x01), 0x01)\n        /* \"@openzeppelin/contracts/token/ERC20/ERC20.sol\":9892:9913  spender == address(0) */\n      dup4\n      and\n        /* \"@openzeppelin/contracts/token/ERC20/ERC20.sol\":9888:9978  if (spender == address(0)) {... */\n      tag_246\n      jumpi\n        /* \"@openzeppelin/contracts/token/ERC20/ERC20.sol\":9936:9967  ERC20InvalidSpender(address(0)) */\n      mload(0x40)\n      shl(0xe1, 0x4a1406b1)\n      dup2\n      mstore\n        /* \"@openzeppelin/contracts/token/ERC20/ERC20.sol\":9964:9965  0 */\n      0x00\n        /* \"@openzeppelin/contracts/token/ERC20/ERC20.sol\":9936:9967  ERC20InvalidSpender(address(0)) */\n      0x04\n      dup3\n      add\n        /* \"#utility.yul\":160:211   */\n      mstore\n        /* \"#utility.yul\":133:151   */\n      0x24\n      add\n        /* \"@openzeppelin/contracts/token/ERC20/ERC20.sol\":9936:9967  ERC20InvalidSpender(address(0)) */\n      tag_126\n        /* \"#utility.yul\":14:217   */\n      jump\n        /* \"@openzeppelin/contracts/token/ERC20/ERC20.sol\":9888:9978  if (spender == address(0)) {... */\n    tag_246:\n      sub(shl(0xa0, 0x01), 0x01)\n        /* \"@openzeppelin/contracts/token/ERC20/ERC20.sol\":9987:10005  _allowances[owner] */\n      dup1\n      dup6\n      and\n      0x00\n      swap1\n      dup2\n      mstore\n        /* \"@openzeppelin/contracts/token/ERC20/ERC20.sol\":9987:9998  _allowances */\n      0x01\n        /* \"@openzeppelin/contracts/token/ERC20/ERC20.sol\":9987:10005  _allowances[owner] */\n      0x20\n      swap1\n      dup2\n      mstore\n      0x40\n      dup1\n      dup4\n      keccak256\n        /* \"@openzeppelin/contracts/token/ERC20/ERC20.sol\":9987:10014  _allowances[owner][spender] */\n      swap4\n      dup8\n      and\n      dup4\n      mstore\n      swap3\n      swap1\n      mstore\n      keccak256\n        /* \"@openzeppelin/contracts/token/ERC20/ERC20.sol\":9987:10022  _allowances[owner][spender] = value */\n      dup3\n      swap1\n      sstore\n        /* \"@openzeppelin/contracts/token/ERC20/ERC20.sol\":10032:10108  if (emitEvent) {... */\n      dup1\n      iszero\n      tag_220\n      jumpi\n        /* \"@openzeppelin/contracts/token/ERC20/ERC20.sol\":10082:10089  spender */\n      dup3\n      sub(shl(0xa0, 0x01), 0x01)\n        /* \"@openzeppelin/contracts/token/ERC20/ERC20.sol\":10066:10097  Approval(owner, spender, value) */\n      and\n        /* \"@openzeppelin/contracts/token/ERC20/ERC20.sol\":10075:10080  owner */\n      dup5\n      sub(shl(0xa0, 0x01), 0x01)\n        /* \"@openzeppelin/contracts/token/ERC20/ERC20.sol\":10066:10097  Approval(owner, spender, value) */\n      and\n      0x8c5be1e5ebec7d5bd14f71427d1e84f3dd0314c0f7b2291e5b200ac8c7c3b925\n        /* \"@openzeppelin/contracts/token/ERC20/ERC20.sol\":10091:10096  value */\n      dup5\n        /* \"@openzeppelin/contracts/token/ERC20/ERC20.sol\":10066:10097  Approval(owner, spender, value) */\n      mload(0x40)\n      tag_249\n      swap2\n        /* \"#utility.yul\":1466:1491   */\n      dup2\n      mstore\n        /* \"#utility.yul\":1454:1456   */\n      0x20\n        /* \"#utility.yul\":1439:1457   */\n      add\n      swap1\n        /* \"#utility.yul\":1320:1497   */\n      jump\n        /* \"@openzeppelin/contracts/token/ERC20/ERC20.sol\":10066:10097  Approval(owner, spender, value) */\n    tag_249:\n      mload(0x40)\n      dup1\n      swap2\n      sub\n      swap1\n      log3\n        /* \"@openzeppelin/contracts/token/ERC20/ERC20.sol\":9682:10114  function _approve(address owner, address spender, uint256 value, bool emitEvent) internal virtual {... */\n      pop\n      pop\n      pop\n      pop\n      jump\t// out\n        /* \"@openzeppelin/contracts/token/ERC20/ERC20.sol\":5989:7096  function _update(address from, address to, uint256 value) internal virtual {... */\n    tag_227:\n      sub(shl(0xa0, 0x01), 0x01)\n        /* \"@openzeppelin/contracts/token/ERC20/ERC20.sol\":6078:6096  from == address(0) */\n      dup4\n      and\n        /* \"@openzeppelin/contracts/token/ERC20/ERC20.sol\":6074:6614  if (from == address(0)) {... */\n      tag_251\n      jumpi\n        /* \"@openzeppelin/contracts/token/ERC20/ERC20.sol\":6230:6235  value */\n      dup1\n        /* \"@openzeppelin/contracts/token/ERC20/ERC20.sol\":6214:6226  _totalSupply */\n      0x02\n      0x00\n        /* \"@openzeppelin/contracts/token/ERC20/ERC20.sol\":6214:6235  _totalSupply += value */\n      dup3\n      dup3\n      sload\n      tag_252\n      swap2\n      swap1\n      tag_253\n      jump\t// in\n    tag_252:\n      swap1\n      swap2\n      sstore\n      pop\n        /* \"@openzeppelin/contracts/token/ERC20/ERC20.sol\":6074:6614  if (from == address(0)) {... */\n      tag_254\n      swap1\n      pop\n      jump\n    tag_251:\n      sub(shl(0xa0, 0x01), 0x01)\n        /* \"@openzeppelin/contracts/token/ERC20/ERC20.sol\":6288:6303  _balances[from] */\n      dup4\n      and\n        /* \"@openzeppelin/contracts/token/ERC20/ERC20.sol\":6266:6285  uint256 fromBalance */\n      0x00\n        /* \"@openzeppelin/contracts/token/ERC20/ERC20.sol\":6288:6303  _balances[from] */\n      swap1\n      dup2\n      mstore\n      0x20\n      dup2\n      swap1\n      mstore\n      0x40\n      swap1\n      keccak256\n      sload\n        /* \"@openzeppelin/contracts/token/ERC20/ERC20.sol\":6321:6340  fromBalance < value */\n      dup2\n      dup2\n      lt\n        /* \"@openzeppelin/contracts/token/ERC20/ERC20.sol\":6317:6432  if (fromBalance < value) {... */\n      iszero\n      tag_255\n      jumpi\n        /* \"@openzeppelin/contracts/token/ERC20/ERC20.sol\":6367:6417  ERC20InsufficientBalance(from, fromBalance, value) */\n      mload(0x40)\n      shl(0xe2, 0x391434e3)\n      dup2\n      mstore\n      sub(shl(0xa0, 0x01), 0x01)\n        /* \"#utility.yul\":6821:6853   */\n      dup6\n      and\n        /* \"@openzeppelin/contracts/token/ERC20/ERC20.sol\":6367:6417  ERC20InsufficientBalance(from, fromBalance, value) */\n      0x04\n      dup3\n      add\n        /* \"#utility.yul\":6803:6854   */\n      mstore\n        /* \"#utility.yul\":6870:6888   */\n      0x24\n      dup2\n      add\n        /* \"#utility.yul\":6863:6897   */\n      dup3\n      swap1\n      mstore\n        /* \"#utility.yul\":6913:6931   */\n      0x44\n      dup2\n      add\n        /* \"#utility.yul\":6906:6940   */\n      dup4\n      swap1\n      mstore\n        /* \"#utility.yul\":6776:6794   */\n      0x64\n      add\n        /* \"@openzeppelin/contracts/token/ERC20/ERC20.sol\":6367:6417  ERC20InsufficientBalance(from, fromBalance, value) */\n      tag_126\n        /* \"#utility.yul\":6601:6946   */\n      jump\n        /* \"@openzeppelin/contracts/token/ERC20/ERC20.sol\":6317:6432  if (fromBalance < value) {... */\n    tag_255:\n      sub(shl(0xa0, 0x01), 0x01)\n        /* \"@openzeppelin/contracts/token/ERC20/ERC20.sol\":6552:6567  _balances[from] */\n      dup5\n      and\n        /* \"@openzeppelin/contracts/token/ERC20/ERC20.sol\":6552:6561  _balances */\n      0x00\n        /* \"@openzeppelin/contracts/token/ERC20/ERC20.sol\":6552:6567  _balances[from] */\n      swap1\n      dup2\n      mstore\n      0x20\n      dup2\n      swap1\n      mstore\n      0x40\n      swap1\n      keccak256\n        /* \"@openzeppelin/contracts/token/ERC20/ERC20.sol\":6570:6589  fromBalance - value */\n      swap1\n      dup3\n      swap1\n      sub\n        /* \"@openzeppelin/contracts/token/ERC20/ERC20.sol\":6552:6589  _balances[from] = fromBalance - value */\n      swap1\n      sstore\n        /* \"@openzeppelin/contracts/token/ERC20/ERC20.sol\":6074:6614  if (from == address(0)) {... */\n    tag_254:\n      sub(shl(0xa0, 0x01), 0x01)\n        /* \"@openzeppelin/contracts/token/ERC20/ERC20.sol\":6628:6644  to == address(0) */\n      dup3\n      and\n        /* \"@openzeppelin/contracts/token/ERC20/ERC20.sol\":6624:7049  if (to == address(0)) {... */\n      tag_257\n      jumpi\n        /* \"@openzeppelin/contracts/token/ERC20/ERC20.sol\":6791:6803  _totalSupply */\n      0x02\n        /* \"@openzeppelin/contracts/token/ERC20/ERC20.sol\":6791:6812  _totalSupply -= value */\n      dup1\n      sload\n      dup3\n      swap1\n      sub\n      swap1\n      sstore\n        /* \"@openzeppelin/contracts/token/ERC20/ERC20.sol\":6624:7049  if (to == address(0)) {... */\n      jump(tag_258)\n    tag_257:\n      sub(shl(0xa0, 0x01), 0x01)\n        /* \"@openzeppelin/contracts/token/ERC20/ERC20.sol\":7002:7015  _balances[to] */\n      dup3\n      and\n        /* \"@openzeppelin/contracts/token/ERC20/ERC20.sol\":7002:7011  _balances */\n      0x00\n        /* \"@openzeppelin/contracts/token/ERC20/ERC20.sol\":7002:7015  _balances[to] */\n      swap1\n      dup2\n      mstore\n      0x20\n      dup2\n      swap1\n      mstore\n      0x40\n      swap1\n      keccak256\n        /* \"@openzeppelin/contracts/token/ERC20/ERC20.sol\":7002:7024  _balances[to] += value */\n      dup1\n      sload\n      dup3\n      add\n      swap1\n      sstore\n        /* \"@openzeppelin/contracts/token/ERC20/ERC20.sol\":6624:7049  if (to == address(0)) {... */\n    tag_258:\n        /* \"@openzeppelin/contracts/token/ERC20/ERC20.sol\":7079:7081  to */\n      dup2\n      sub(shl(0xa0, 0x01), 0x01)\n        /* \"@openzeppelin/contracts/token/ERC20/ERC20.sol\":7064:7089  Transfer(from, to, value) */\n      and\n        /* \"@openzeppelin/contracts/token/ERC20/ERC20.sol\":7073:7077  from */\n      dup4\n      sub(shl(0xa0, 0x01), 0x01)\n        /* \"@openzeppelin/contracts/token/ERC20/ERC20.sol\":7064:7089  Transfer(from, to, value) */\n      and\n      0xddf252ad1be2c89b69c2b068fc378daa952ba7f163c4a11628f55a4df523b3ef\n        /* \"@openzeppelin/contracts/token/ERC20/ERC20.sol\":7083:7088  value */\n      dup4\n        /* \"@openzeppelin/contracts/token/ERC20/ERC20.sol\":7064:7089  Transfer(from, to, value) */\n      mload(0x40)\n      tag_259\n      swap2\n        /* \"#utility.yul\":1466:1491   */\n      dup2\n      mstore\n        /* \"#utility.yul\":1454:1456   */\n      0x20\n        /* \"#utility.yul\":1439:1457   */\n      add\n      swap1\n        /* \"#utility.yul\":1320:1497   */\n      jump\n        /* \"@openzeppelin/contracts/token/ERC20/ERC20.sol\":7064:7089  Transfer(from, to, value) */\n    tag_259:\n      mload(0x40)\n      dup1\n      swap2\n      sub\n      swap1\n      log3\n        /* \"@openzeppelin/contracts/token/ERC20/ERC20.sol\":5989:7096  function _update(address from, address to, uint256 value) internal virtual {... */\n      pop\n      pop\n      pop\n      jump\t// out\n        /* \"#utility.yul\":222:640   */\n    tag_34:\n        /* \"#utility.yul\":371:373   */\n      0x20\n        /* \"#utility.yul\":360:369   */\n      dup2\n        /* \"#utility.yul\":353:374   */\n      mstore\n        /* \"#utility.yul\":334:338   */\n      0x00\n        /* \"#utility.yul\":403:409   */\n      dup3\n        /* \"#utility.yul\":397:410   */\n      mload\n        /* \"#utility.yul\":446:452   */\n      dup1\n        /* \"#utility.yul\":441:443   */\n      0x20\n        /* \"#utility.yul\":430:439   */\n      dup5\n        /* \"#utility.yul\":426:444   */\n      add\n        /* \"#utility.yul\":419:453   */\n      mstore\n        /* \"#utility.yul\":505:511   */\n      dup1\n        /* \"#utility.yul\":500:502   */\n      0x20\n        /* \"#utility.yul\":492:498   */\n      dup6\n        /* \"#utility.yul\":488:503   */\n      add\n        /* \"#utility.yul\":483:485   */\n      0x40\n        /* \"#utility.yul\":472:481   */\n      dup6\n        /* \"#utility.yul\":468:486   */\n      add\n        /* \"#utility.yul\":462:512   */\n      mcopy\n        /* \"#utility.yul\":561:562   */\n      0x00\n        /* \"#utility.yul\":556:558   */\n      0x40\n        /* \"#utility.yul\":547:553   */\n      dup3\n        /* \"#utility.yul\":536:545   */\n      dup6\n        /* \"#utility.yul\":532:554   */\n      add\n        /* \"#utility.yul\":528:559   */\n      add\n        /* \"#utility.yul\":521:563   */\n      mstore\n        /* \"#utility.yul\":631:633   */\n      0x40\n        /* \"#utility.yul\":624:626   */\n      0x1f\n        /* \"#utility.yul\":620:627   */\n      not\n        /* \"#utility.yul\":615:617   */\n      0x1f\n        /* \"#utility.yul\":607:613   */\n      dup4\n        /* \"#utility.yul\":603:618   */\n      add\n        /* \"#utility.yul\":599:628   */\n      and\n        /* \"#utility.yul\":588:597   */\n      dup5\n        /* \"#utility.yul\":584:629   */\n      add\n        /* \"#utility.yul\":580:634   */\n      add\n        /* \"#utility.yul\":572:634   */\n      swap2\n      pop\n      pop\n        /* \"#utility.yul\":222:640   */\n      swap3\n      swap2\n      pop\n      pop\n      jump\t// out\n        /* \"#utility.yul\":645:818   */\n    tag_260:\n        /* \"#utility.yul\":713:733   */\n      dup1\n      calldataload\n      sub(shl(0xa0, 0x01), 0x01)\n        /* \"#utility.yul\":762:793   */\n      dup2\n      and\n        /* \"#utility.yul\":752:794   */\n      dup2\n      eq\n        /* \"#utility.yul\":742:812   */\n      tag_265\n      jumpi\n        /* \"#utility.yul\":808:809   */\n      0x00\n        /* \"#utility.yul\":805:806   */\n      0x00\n        /* \"#utility.yul\":798:810   */\n      revert\n        /* \"#utility.yul\":742:812   */\n    tag_265:\n        /* \"#utility.yul\":645:818   */\n      swap2\n      swap1\n      pop\n      jump\t// out\n        /* \"#utility.yul\":823:1123   */\n    tag_37:\n        /* \"#utility.yul\":891:897   */\n      0x00\n        /* \"#utility.yul\":899:905   */\n      0x00\n        /* \"#utility.yul\":952:954   */\n      0x40\n        /* \"#utility.yul\":940:949   */\n      dup4\n        /* \"#utility.yul\":931:938   */\n      dup6\n        /* \"#utility.yul\":927:950   */\n      sub\n        /* \"#utility.yul\":923:955   */\n      slt\n        /* \"#utility.yul\":920:972   */\n      iszero\n      tag_267\n      jumpi\n        /* \"#utility.yul\":968:969   */\n      0x00\n        /* \"#utility.yul\":965:966   */\n      0x00\n        /* \"#utility.yul\":958:970   */\n      revert\n        /* \"#utility.yul\":920:972   */\n    tag_267:\n        /* \"#utility.yul\":991:1020   */\n      tag_268\n        /* \"#utility.yul\":1010:1019   */\n      dup4\n        /* \"#utility.yul\":991:1020   */\n      tag_260\n      jump\t// in\n    tag_268:\n        /* \"#utility.yul\":981:1020   */\n      swap5\n        /* \"#utility.yul\":1089:1091   */\n      0x20\n        /* \"#utility.yul\":1074:1092   */\n      swap4\n      swap1\n      swap4\n      add\n        /* \"#utility.yul\":1061:1093   */\n      calldataload\n      swap4\n      pop\n      pop\n      pop\n        /* \"#utility.yul\":823:1123   */\n      jump\t// out\n        /* \"#utility.yul\":1502:1876   */\n    tag_50:\n        /* \"#utility.yul\":1579:1585   */\n      0x00\n        /* \"#utility.yul\":1587:1593   */\n      0x00\n        /* \"#utility.yul\":1595:1601   */\n      0x00\n        /* \"#utility.yul\":1648:1650   */\n      0x60\n        /* \"#utility.yul\":1636:1645   */\n      dup5\n        /* \"#utility.yul\":1627:1634   */\n      dup7\n        /* \"#utility.yul\":1623:1646   */\n      sub\n        /* \"#utility.yul\":1619:1651   */\n      slt\n        /* \"#utility.yul\":1616:1668   */\n      iszero\n      tag_272\n      jumpi\n        /* \"#utility.yul\":1664:1665   */\n      0x00\n        /* \"#utility.yul\":1661:1662   */\n      0x00\n        /* \"#utility.yul\":1654:1666   */\n      revert\n        /* \"#utility.yul\":1616:1668   */\n    tag_272:\n        /* \"#utility.yul\":1687:1716   */\n      tag_273\n        /* \"#utility.yul\":1706:1715   */\n      dup5\n        /* \"#utility.yul\":1687:1716   */\n      tag_260\n      jump\t// in\n    tag_273:\n        /* \"#utility.yul\":1677:1716   */\n      swap3\n      pop\n        /* \"#utility.yul\":1735:1773   */\n      tag_274\n        /* \"#utility.yul\":1769:1771   */\n      0x20\n        /* \"#utility.yul\":1758:1767   */\n      dup6\n        /* \"#utility.yul\":1754:1772   */\n      add\n        /* \"#utility.yul\":1735:1773   */\n      tag_260\n      jump\t// in\n    tag_274:\n        /* \"#utility.yul\":1502:1876   */\n      swap3\n      swap6\n        /* \"#utility.yul\":1725:1773   */\n      swap3\n      swap5\n      pop\n      pop\n      pop\n        /* \"#utility.yul\":1842:1844   */\n      0x40\n        /* \"#utility.yul\":1827:1845   */\n      swap2\n      swap1\n      swap2\n      add\n        /* \"#utility.yul\":1814:1846   */\n      calldataload\n      swap1\n        /* \"#utility.yul\":1502:1876   */\n      jump\t// out\n        /* \"#utility.yul\":2070:2296   */\n    tag_62:\n        /* \"#utility.yul\":2129:2135   */\n      0x00\n        /* \"#utility.yul\":2182:2184   */\n      0x20\n        /* \"#utility.yul\":2170:2179   */\n      dup3\n        /* \"#utility.yul\":2161:2168   */\n      dup5\n        /* \"#utility.yul\":2157:2180   */\n      sub\n        /* \"#utility.yul\":2153:2185   */\n      slt\n        /* \"#utility.yul\":2150:2202   */\n      iszero\n      tag_277\n      jumpi\n        /* \"#utility.yul\":2198:2199   */\n      0x00\n        /* \"#utility.yul\":2195:2196   */\n      0x00\n        /* \"#utility.yul\":2188:2200   */\n      revert\n        /* \"#utility.yul\":2150:2202   */\n    tag_277:\n      pop\n        /* \"#utility.yul\":2243:2266   */\n      calldataload\n      swap2\n        /* \"#utility.yul\":2070:2296   */\n      swap1\n      pop\n      jump\t// out\n        /* \"#utility.yul\":2301:2487   */\n    tag_69:\n        /* \"#utility.yul\":2360:2366   */\n      0x00\n        /* \"#utility.yul\":2413:2415   */\n      0x20\n        /* \"#utility.yul\":2401:2410   */\n      dup3\n        /* \"#utility.yul\":2392:2399   */\n      dup5\n        /* \"#utility.yul\":2388:2411   */\n      sub\n        /* \"#utility.yul\":2384:2416   */\n      slt\n        /* \"#utility.yul\":2381:2433   */\n      iszero\n      tag_279\n      jumpi\n        /* \"#utility.yul\":2429:2430   */\n      0x00\n        /* \"#utility.yul\":2426:2427   */\n      0x00\n        /* \"#utility.yul\":2419:2431   */\n      revert\n        /* \"#utility.yul\":2381:2433   */\n    tag_279:\n        /* \"#utility.yul\":2452:2481   */\n      tag_280\n        /* \"#utility.yul\":2471:2480   */\n      dup3\n        /* \"#utility.yul\":2452:2481   */\n      tag_260\n      jump\t// in\n    tag_280:\n        /* \"#utility.yul\":2442:2481   */\n      swap4\n        /* \"#utility.yul\":2301:2487   */\n      swap3\n      pop\n      pop\n      pop\n      jump\t// out\n        /* \"#utility.yul\":2492:2752   */\n    tag_92:\n        /* \"#utility.yul\":2560:2566   */\n      0x00\n        /* \"#utility.yul\":2568:2574   */\n      0x00\n        /* \"#utility.yul\":2621:2623   */\n      0x40\n        /* \"#utility.yul\":2609:2618   */\n      dup4\n        /* \"#utility.yul\":2600:2607   */\n      dup6\n        /* \"#utility.yul\":2596:2619   */\n      sub\n        /* \"#utility.yul\":2592:2624   */\n      slt\n        /* \"#utility.yul\":2589:2641   */\n      iszero\n      tag_282\n      jumpi\n        /* \"#utility.yul\":2637:2638   */\n      0x00\n        /* \"#utility.yul\":2634:2635   */\n      0x00\n        /* \"#utility.yul\":2627:2639   */\n      revert\n        /* \"#utility.yul\":2589:2641   */\n    tag_282:\n        /* \"#utility.yul\":2660:2689   */\n      tag_283\n        /* \"#utility.yul\":2679:2688   */\n      dup4\n        /* \"#utility.yul\":2660:2689   */\n      tag_260\n      jump\t// in\n    tag_283:\n        /* \"#utility.yul\":2650:2689   */\n      swap2\n      pop\n        /* \"#utility.yul\":2708:2746   */\n      tag_284\n        /* \"#utility.yul\":2742:2744   */\n      0x20\n        /* \"#utility.yul\":2731:2740   */\n      dup5\n        /* \"#utility.yul\":2727:2745   */\n      add\n        /* \"#utility.yul\":2708:2746   */\n      tag_260\n      jump\t// in\n    tag_284:\n        /* \"#utility.yul\":2698:2746   */\n      swap1\n      pop\n        /* \"#utility.yul\":2492:2752   */\n      swap3\n      pop\n      swap3\n      swap1\n      pop\n      jump\t// out\n        /* \"#utility.yul\":2757:3137   */\n    tag_106:\n        /* \"#utility.yul\":2836:2837   */\n      0x01\n        /* \"#utility.yul\":2832:2844   */\n      dup2\n      dup2\n      shr\n      swap1\n        /* \"#utility.yul\":2879:2891   */\n      dup3\n      and\n      dup1\n        /* \"#utility.yul\":2900:2961   */\n      tag_286\n      jumpi\n        /* \"#utility.yul\":2954:2958   */\n      0x7f\n        /* \"#utility.yul\":2946:2952   */\n      dup3\n        /* \"#utility.yul\":2942:2959   */\n      and\n        /* \"#utility.yul\":2932:2959   */\n      swap2\n      pop\n        /* \"#utility.yul\":2900:2961   */\n    tag_286:\n        /* \"#utility.yul\":3007:3009   */\n      0x20\n        /* \"#utility.yul\":2999:3005   */\n      dup3\n        /* \"#utility.yul\":2996:3010   */\n      lt\n        /* \"#utility.yul\":2976:2994   */\n      dup2\n        /* \"#utility.yul\":2973:3011   */\n      sub\n        /* \"#utility.yul\":2970:3131   */\n      tag_287\n      jumpi\n        /* \"#utility.yul\":3053:3063   */\n      0x4e487b71\n        /* \"#utility.yul\":3048:3051   */\n      0xe0\n        /* \"#utility.yul\":3044:3064   */\n      shl\n        /* \"#utility.yul\":3041:3042   */\n      0x00\n        /* \"#utility.yul\":3034:3065   */\n      mstore\n        /* \"#utility.yul\":3088:3092   */\n      0x22\n        /* \"#utility.yul\":3085:3086   */\n      0x04\n        /* \"#utility.yul\":3078:3093   */\n      mstore\n        /* \"#utility.yul\":3116:3120   */\n      0x24\n        /* \"#utility.yul\":3113:3114   */\n      0x00\n        /* \"#utility.yul\":3106:3121   */\n      revert\n        /* \"#utility.yul\":2970:3131   */\n    tag_287:\n      pop\n        /* \"#utility.yul\":2757:3137   */\n      swap2\n      swap1\n      pop\n      jump\t// out\n        /* \"#utility.yul\":5963:6240   */\n    tag_186:\n        /* \"#utility.yul\":6030:6036   */\n      0x00\n        /* \"#utility.yul\":6083:6085   */\n      0x20\n        /* \"#utility.yul\":6071:6080   */\n      dup3\n        /* \"#utility.yul\":6062:6069   */\n      dup5\n        /* \"#utility.yul\":6058:6081   */\n      sub\n        /* \"#utility.yul\":6054:6086   */\n      slt\n        /* \"#utility.yul\":6051:6103   */\n      iszero\n      tag_298\n      jumpi\n        /* \"#utility.yul\":6099:6100   */\n      0x00\n        /* \"#utility.yul\":6096:6097   */\n      0x00\n        /* \"#utility.yul\":6089:6101   */\n      revert\n        /* \"#utility.yul\":6051:6103   */\n    tag_298:\n        /* \"#utility.yul\":6131:6140   */\n      dup2\n        /* \"#utility.yul\":6125:6141   */\n      mload\n        /* \"#utility.yul\":6184:6189   */\n      dup1\n        /* \"#utility.yul\":6177:6190   */\n      iszero\n        /* \"#utility.yul\":6170:6191   */\n      iszero\n        /* \"#utility.yul\":6163:6168   */\n      dup2\n        /* \"#utility.yul\":6160:6192   */\n      eq\n        /* \"#utility.yul\":6150:6210   */\n      tag_280\n      jumpi\n        /* \"#utility.yul\":6206:6207   */\n      0x00\n        /* \"#utility.yul\":6203:6204   */\n      0x00\n        /* \"#utility.yul\":6196:6208   */\n      revert\n        /* \"#utility.yul\":6951:7173   */\n    tag_253:\n        /* \"#utility.yul\":7016:7025   */\n      dup1\n      dup3\n      add\n        /* \"#utility.yul\":7037:7047   */\n      dup1\n      dup3\n      gt\n        /* \"#utility.yul\":7034:7167   */\n      iszero\n      tag_111\n      jumpi\n        /* \"#utility.yul\":7089:7099   */\n      0x4e487b71\n        /* \"#utility.yul\":7084:7087   */\n      0xe0\n        /* \"#utility.yul\":7080:7100   */\n      shl\n        /* \"#utility.yul\":7077:7078   */\n      0x00\n        /* \"#utility.yul\":7070:7101   */\n      mstore\n        /* \"#utility.yul\":7124:7128   */\n      0x11\n        /* \"#utility.yul\":7121:7122   */\n      0x04\n        /* \"#utility.yul\":7114:7129   */\n      mstore\n        /* \"#utility.yul\":7152:7156   */\n      0x24\n        /* \"#utility.yul\":7149:7150   */\n      0x00\n        /* \"#utility.yul\":7142:7157   */\n      revert\n\n    auxdata: 0xa2646970667358221220892de6aa65a75e2ca4ff6d7ed0e0e0910822f908e2c58b460a4f9166a4ef3be164736f6c634300081e0033\n}\n",
				"bytecode": {
					"linkReferences": {},
					"object": "60c060405234801561000f575f5ffd5b506040516114a43803806114a483398101604081905261002e91610341565b858484600361003d8382610485565b50600461004a8282610485565b5050506001600160a01b03811661007b57604051631e4fbdf760e01b81525f60048201526024015b60405180910390fd5b61008481610238565b506001600160a01b0386166100db5760405162461bcd60e51b815260206004820152601760248201527f496e76616c696420666163746f727920616464726573730000000000000000006044820152606401610072565b6001600160a01b0385166101315760405162461bcd60e51b815260206004820152601760248201527f496e76616c69642063726561746f7220616464726573730000000000000000006044820152606401610072565b6001600160a01b03808716608052851660a05260066101508382610485565b506001600160a01b0381161561022d576040516261f76560e41b81523060048201526001600160a01b0382169063061f765090602401602060405180830381865afa1580156101a1573d5f5f3e3d5ffd5b505050506040513d601f19601f820116820180604052508101906101c5919061053f565b6102115760405162461bcd60e51b815260206004820152601b60248201527f4275726e206d616e61676572206e6f7420636f6d70617469626c6500000000006044820152606401610072565b600780546001600160a01b0319166001600160a01b0383161790555b505050505050610565565b600580546001600160a01b038381166001600160a01b0319831681179093556040519116919082907f8be0079c531659141344cd1fd0a4f28419497f9722a3daafe3b4186f6b6457e0905f90a35050565b80516001600160a01b038116811461029f575f5ffd5b919050565b634e487b7160e01b5f52604160045260245ffd5b5f82601f8301126102c7575f5ffd5b81516001600160401b038111156102e0576102e06102a4565b604051601f8201601f19908116603f011681016001600160401b038111828210171561030e5761030e6102a4565b604052818152838201602001851015610325575f5ffd5b8160208501602083015e5f918101602001919091529392505050565b5f5f5f5f5f5f60c08789031215610356575f5ffd5b61035f87610289565b955061036d60208801610289565b60408801519095506001600160401b03811115610388575f5ffd5b61039489828a016102b8565b606089015190955090506001600160401b038111156103b1575f5ffd5b6103bd89828a016102b8565b608089015190945090506001600160401b038111156103da575f5ffd5b6103e689828a016102b8565b9250506103f560a08801610289565b90509295509295509295565b600181811c9082168061041557607f821691505b60208210810361043357634e487b7160e01b5f52602260045260245ffd5b50919050565b601f82111561048057805f5260205f20601f840160051c8101602085101561045e5750805b601f840160051c820191505b8181101561047d575f815560010161046a565b50505b505050565b81516001600160401b0381111561049e5761049e6102a4565b6104b2816104ac8454610401565b84610439565b6020601f8211600181146104e4575f83156104cd5750848201515b5f19600385901b1c1916600184901b17845561047d565b5f84815260208120601f198516915b8281101561051357878501518255602094850194600190920191016104f3565b508482101561053057868401515f19600387901b60f8161c191681555b50505050600190811b01905550565b5f6020828403121561054f575f5ffd5b8151801515811461055e575f5ffd5b9392505050565b60805160a051610f0961059b5f395f818161013b01526106d201525f81816102e8015281816103fc01526105dc0152610f095ff3fe608060405234801561000f575f5ffd5b5060043610610132575f3560e01c806370a08231116100b4578063a9059cbb11610079578063a9059cbb14610290578063aba83150146102a3578063dd62ed3e146102ab578063e77772fe146102e3578063f2fde38b1461030a578063f8a8fd6d1461031d575f5ffd5b806370a0823114610234578063715018a61461025c5780638da5cb5b1461026457806395d89b411461027557806396b5059d1461027d575f5ffd5b806323b872dd116100fa57806323b872dd146101d7578063313ce567146101ea57806340c10f19146101f957806342966c681461020e5780636819cd1914610221575f5ffd5b806302d05d3f1461013657806306fdde031461017a578063095ea7b31461018f57806318160ddd146101b25780631faa49c3146101c4575b5f5ffd5b61015d7f000000000000000000000000000000000000000000000000000000000000000081565b6040516001600160a01b0390911681526020015b60405180910390f35b610182610325565b6040516101719190610d43565b6101a261019d366004610d93565b6103b5565b6040519015158152602001610171565b6002545b604051908152602001610171565b60075461015d906001600160a01b031681565b6101a26101e5366004610dbb565b6103ce565b60405160128152602001610171565b61020c610207366004610d93565b6103f1565b005b61020c61021c366004610df5565b610474565b61020c61022f366004610d93565b6105d1565b6101b6610242366004610e0c565b6001600160a01b03165f9081526020819052604090205490565b61020c6106a5565b6005546001600160a01b031661015d565b6101826106b8565b61020c61028b366004610e0c565b6106c7565b6101a261029e366004610d93565b61089a565b6101826108a7565b6101b66102b9366004610e2c565b6001600160a01b039182165f90815260016020908152604080832093909416825291909152205490565b61015d7f000000000000000000000000000000000000000000000000000000000000000081565b61020c610318366004610e0c565b610933565b61018261096d565b60606003805461033490610e5d565b80601f016020809104026020016040519081016040528092919081815260200182805461036090610e5d565b80156103ab5780601f10610382576101008083540402835291602001916103ab565b820191905f5260205f20905b81548152906001019060200180831161038e57829003601f168201915b5050505050905090565b5f336103c281858561097a565b60019150505b92915050565b5f336103db85828561098c565b6103e6858585610a08565b506001949350505050565b336001600160a01b037f000000000000000000000000000000000000000000000000000000000000000016146104665760405162461bcd60e51b815260206004820152601560248201527413db9b1e48199858dd1bdc9e4818d85b881b5a5b9d605a1b60448201526064015b60405180910390fd5b6104708282610a65565b5050565b5f81116104b85760405162461bcd60e51b81526020600482015260126024820152710416d6f756e74206d757374206265203e20360741b604482015260640161045d565b335f9081526020819052604090205481111561050d5760405162461bcd60e51b8152602060048201526014602482015273496e73756666696369656e742062616c616e636560601b604482015260640161045d565b6105173382610a99565b6001337f14c08ae9f74e8b735a667822feb792c4e1324d0dd5887af1528665f8c2357f868361054560025490565b6040805192835260208301919091520160405180910390a36007546001600160a01b0316156105ce57600754604051631ed1028b60e01b8152336004820152602481018390526001600160a01b0390911690631ed1028b906044015f604051808303815f87803b1580156105b7575f5ffd5b505af11580156105c9573d5f5f3e3d5ffd5b505050505b50565b336001600160a01b037f000000000000000000000000000000000000000000000000000000000000000016146106495760405162461bcd60e51b815260206004820152601d60248201527f4f6e6c7920666163746f72792063616e20666163746f7279206275726e000000604482015260640161045d565b6106538282610a99565b5f826001600160a01b03167f14c08ae9f74e8b735a667822feb792c4e1324d0dd5887af1528665f8c2357f868361068960025490565b6040805192835260208301919091520160405180910390a35050565b6106ad610acd565b6106b65f610afa565b565b60606004805461033490610e5d565b336001600160a01b037f000000000000000000000000000000000000000000000000000000000000000016146107495760405162461bcd60e51b815260206004820152602160248201527f4f6e6c792063726561746f722063616e20736574206275726e206d616e6167656044820152603960f91b606482015260840161045d565b6001600160a01b0381166107985760405162461bcd60e51b815260206004820152601660248201527543616e6e6f74206265207a65726f206164647265737360501b604482015260640161045d565b6040516261f76560e41b81523060048201526001600160a01b0382169063061f765090602401602060405180830381865afa1580156107d9573d5f5f3e3d5ffd5b505050506040513d601f19601f820116820180604052508101906107fd9190610e95565b6108495760405162461bcd60e51b815260206004820152601b60248201527f4275726e206d616e61676572206e6f7420636f6d70617469626c650000000000604482015260640161045d565b600780546001600160a01b038381166001600160a01b0319831681179093556040519116919082907f0a216b4ae65e96da40adb74d7d42ec050b88e0da645103a084647ed55eb3e0d9905f90a35050565b5f336103c2818585610a08565b600680546108b490610e5d565b80601f01602080910402602001604051908101604052809291908181526020018280546108e090610e5d565b801561092b5780601f106109025761010080835404028352916020019161092b565b820191905f5260205f20905b81548152906001019060200180831161090e57829003601f168201915b505050505081565b61093b610acd565b6001600160a01b03811661096457604051631e4fbdf760e01b81525f600482015260240161045d565b6105ce81610afa565b600880546108b490610e5d565b6109878383836001610b4b565b505050565b6001600160a01b038381165f908152600160209081526040808320938616835292905220545f19811015610a0257818110156109f457604051637dc7a0d960e11b81526001600160a01b0384166004820152602481018290526044810183905260640161045d565b610a0284848484035f610b4b565b50505050565b6001600160a01b038316610a3157604051634b637e8f60e11b81525f600482015260240161045d565b6001600160a01b038216610a5a5760405163ec442f0560e01b81525f600482015260240161045d565b610987838383610c1d565b6001600160a01b038216610a8e5760405163ec442f0560e01b81525f600482015260240161045d565b6104705f8383610c1d565b6001600160a01b038216610ac257604051634b637e8f60e11b81525f600482015260240161045d565b610470825f83610c1d565b6005546001600160a01b031633146106b65760405163118cdaa760e01b815233600482015260240161045d565b600580546001600160a01b038381166001600160a01b0319831681179093556040519116919082907f8be0079c531659141344cd1fd0a4f28419497f9722a3daafe3b4186f6b6457e0905f90a35050565b6001600160a01b038416610b745760405163e602df0560e01b81525f600482015260240161045d565b6001600160a01b038316610b9d57604051634a1406b160e11b81525f600482015260240161045d565b6001600160a01b038085165f9081526001602090815260408083209387168352929052208290558015610a0257826001600160a01b0316846001600160a01b03167f8c5be1e5ebec7d5bd14f71427d1e84f3dd0314c0f7b2291e5b200ac8c7c3b92584604051610c0f91815260200190565b60405180910390a350505050565b6001600160a01b038316610c47578060025f828254610c3c9190610eb4565b90915550610cb79050565b6001600160a01b0383165f9081526020819052604090205481811015610c995760405163391434e360e21b81526001600160a01b0385166004820152602481018290526044810183905260640161045d565b6001600160a01b0384165f9081526020819052604090209082900390555b6001600160a01b038216610cd357600280548290039055610cf1565b6001600160a01b0382165f9081526020819052604090208054820190555b816001600160a01b0316836001600160a01b03167fddf252ad1be2c89b69c2b068fc378daa952ba7f163c4a11628f55a4df523b3ef83604051610d3691815260200190565b60405180910390a3505050565b602081525f82518060208401528060208501604085015e5f604082850101526040601f19601f83011684010191505092915050565b80356001600160a01b0381168114610d8e575f5ffd5b919050565b5f5f60408385031215610da4575f5ffd5b610dad83610d78565b946020939093013593505050565b5f5f5f60608486031215610dcd575f5ffd5b610dd684610d78565b9250610de460208501610d78565b929592945050506040919091013590565b5f60208284031215610e05575f5ffd5b5035919050565b5f60208284031215610e1c575f5ffd5b610e2582610d78565b9392505050565b5f5f60408385031215610e3d575f5ffd5b610e4683610d78565b9150610e5460208401610d78565b90509250929050565b600181811c90821680610e7157607f821691505b602082108103610e8f57634e487b7160e01b5f52602260045260245ffd5b50919050565b5f60208284031215610ea5575f5ffd5b81518015158114610e25575f5ffd5b808201808211156103c857634e487b7160e01b5f52601160045260245ffdfea2646970667358221220892de6aa65a75e2ca4ff6d7ed0e0e0910822f908e2c58b460a4f9166a4ef3be164736f6c634300081e0033",
					"opcodes": "PUSH1 0xC0 PUSH1 0x40 MSTORE CALLVALUE DUP1 ISZERO PUSH2 0xF JUMPI PUSH0 PUSH0 REVERT JUMPDEST POP PUSH1 0x40 MLOAD PUSH2 0x14A4 CODESIZE SUB DUP1 PUSH2 0x14A4 DUP4 CODECOPY DUP2 ADD PUSH1 0x40 DUP2 SWAP1 MSTORE PUSH2 0x2E SWAP2 PUSH2 0x341 JUMP JUMPDEST DUP6 DUP5 DUP5 PUSH1 0x3 PUSH2 0x3D DUP4 DUP3 PUSH2 0x485 JUMP JUMPDEST POP PUSH1 0x4 PUSH2 0x4A DUP3 DUP3 PUSH2 0x485 JUMP JUMPDEST POP POP POP PUSH1 0x1 PUSH1 0x1 PUSH1 0xA0 SHL SUB DUP2 AND PUSH2 0x7B JUMPI PUSH1 0x40 MLOAD PUSH4 0x1E4FBDF7 PUSH1 0xE0 SHL DUP2 MSTORE PUSH0 PUSH1 0x4 DUP3 ADD MSTORE PUSH1 0x24 ADD JUMPDEST PUSH1 0x40 MLOAD DUP1 SWAP2 SUB SWAP1 REVERT JUMPDEST PUSH2 0x84 DUP2 PUSH2 0x238 JUMP JUMPDEST POP PUSH1 0x1 PUSH1 0x1 PUSH1 0xA0 SHL SUB DUP7 AND PUSH2 0xDB JUMPI PUSH1 0x40 MLOAD PUSH3 0x461BCD PUSH1 0xE5 SHL DUP2 MSTORE PUSH1 0x20 PUSH1 0x4 DUP3 ADD MSTORE PUSH1 0x17 PUSH1 0x24 DUP3 ADD MSTORE PUSH32 0x496E76616C696420666163746F72792061646472657373000000000000000000 PUSH1 0x44 DUP3 ADD MSTORE PUSH1 0x64 ADD PUSH2 0x72 JUMP JUMPDEST PUSH1 0x1 PUSH1 0x1 PUSH1 0xA0 SHL SUB DUP6 AND PUSH2 0x131 JUMPI PUSH1 0x40 MLOAD PUSH3 0x461BCD PUSH1 0xE5 SHL DUP2 MSTORE PUSH1 0x20 PUSH1 0x4 DUP3 ADD MSTORE PUSH1 0x17 PUSH1 0x24 DUP3 ADD MSTORE PUSH32 0x496E76616C69642063726561746F722061646472657373000000000000000000 PUSH1 0x44 DUP3 ADD MSTORE PUSH1 0x64 ADD PUSH2 0x72 JUMP JUMPDEST PUSH1 0x1 PUSH1 0x1 PUSH1 0xA0 SHL SUB DUP1 DUP8 AND PUSH1 0x80 MSTORE DUP6 AND PUSH1 0xA0 MSTORE PUSH1 0x6 PUSH2 0x150 DUP4 DUP3 PUSH2 0x485 JUMP JUMPDEST POP PUSH1 0x1 PUSH1 0x1 PUSH1 0xA0 SHL SUB DUP2 AND ISZERO PUSH2 0x22D JUMPI PUSH1 0x40 MLOAD PUSH3 0x61F765 PUSH1 0xE4 SHL DUP2 MSTORE ADDRESS PUSH1 0x4 DUP3 ADD MSTORE PUSH1 0x1 PUSH1 0x1 PUSH1 0xA0 SHL SUB DUP3 AND SWAP1 PUSH4 0x61F7650 SWAP1 PUSH1 0x24 ADD PUSH1 0x20 PUSH1 0x40 MLOAD DUP1 DUP4 SUB DUP2 DUP7 GAS STATICCALL ISZERO DUP1 ISZERO PUSH2 0x1A1 JUMPI RETURNDATASIZE PUSH0 PUSH0 RETURNDATACOPY RETURNDATASIZE PUSH0 REVERT JUMPDEST POP POP POP POP PUSH1 0x40 MLOAD RETURNDATASIZE PUSH1 0x1F NOT PUSH1 0x1F DUP3 ADD AND DUP3 ADD DUP1 PUSH1 0x40 MSTORE POP DUP2 ADD SWAP1 PUSH2 0x1C5 SWAP2 SWAP1 PUSH2 0x53F JUMP JUMPDEST PUSH2 0x211 JUMPI PUSH1 0x40 MLOAD PUSH3 0x461BCD PUSH1 0xE5 SHL DUP2 MSTORE PUSH1 0x20 PUSH1 0x4 DUP3 ADD MSTORE PUSH1 0x1B PUSH1 0x24 DUP3 ADD MSTORE PUSH32 0x4275726E206D616E61676572206E6F7420636F6D70617469626C650000000000 PUSH1 0x44 DUP3 ADD MSTORE PUSH1 0x64 ADD PUSH2 0x72 JUMP JUMPDEST PUSH1 0x7 DUP1 SLOAD PUSH1 0x1 PUSH1 0x1 PUSH1 0xA0 SHL SUB NOT AND PUSH1 0x1 PUSH1 0x1 PUSH1 0xA0 SHL SUB DUP4 AND OR SWAP1 SSTORE JUMPDEST POP POP POP POP POP POP PUSH2 0x565 JUMP JUMPDEST PUSH1 0x5 DUP1 SLOAD PUSH1 0x1 PUSH1 0x1 PUSH1 0xA0 SHL SUB DUP4 DUP2 AND PUSH1 0x1 PUSH1 0x1 PUSH1 0xA0 SHL SUB NOT DUP4 AND DUP2 OR SWAP1 SWAP4 SSTORE PUSH1 0x40 MLOAD SWAP2 AND SWAP2 SWAP1 DUP3 SWAP1 PUSH32 0x8BE0079C531659141344CD1FD0A4F28419497F9722A3DAAFE3B4186F6B6457E0 SWAP1 PUSH0 SWAP1 LOG3 POP POP JUMP JUMPDEST DUP1 MLOAD PUSH1 0x1 PUSH1 0x1 PUSH1 0xA0 SHL SUB DUP2 AND DUP2 EQ PUSH2 0x29F JUMPI PUSH0 PUSH0 REVERT JUMPDEST SWAP2 SWAP1 POP JUMP JUMPDEST PUSH4 0x4E487B71 PUSH1 0xE0 SHL PUSH0 MSTORE PUSH1 0x41 PUSH1 0x4 MSTORE PUSH1 0x24 PUSH0 REVERT JUMPDEST PUSH0 DUP3 PUSH1 0x1F DUP4 ADD SLT PUSH2 0x2C7 JUMPI PUSH0 PUSH0 REVERT JUMPDEST DUP2 MLOAD PUSH1 0x1 PUSH1 0x1 PUSH1 0x40 SHL SUB DUP2 GT ISZERO PUSH2 0x2E0 JUMPI PUSH2 0x2E0 PUSH2 0x2A4 JUMP JUMPDEST PUSH1 0x40 MLOAD PUSH1 0x1F DUP3 ADD PUSH1 0x1F NOT SWAP1 DUP2 AND PUSH1 0x3F ADD AND DUP2 ADD PUSH1 0x1 PUSH1 0x1 PUSH1 0x40 SHL SUB DUP2 GT DUP3 DUP3 LT OR ISZERO PUSH2 0x30E JUMPI PUSH2 0x30E PUSH2 0x2A4 JUMP JUMPDEST PUSH1 0x40 MSTORE DUP2 DUP2 MSTORE DUP4 DUP3 ADD PUSH1 0x20 ADD DUP6 LT ISZERO PUSH2 0x325 JUMPI PUSH0 PUSH0 REVERT JUMPDEST DUP2 PUSH1 0x20 DUP6 ADD PUSH1 0x20 DUP4 ADD MCOPY PUSH0 SWAP2 DUP2 ADD PUSH1 0x20 ADD SWAP2 SWAP1 SWAP2 MSTORE SWAP4 SWAP3 POP POP POP JUMP JUMPDEST PUSH0 PUSH0 PUSH0 PUSH0 PUSH0 PUSH0 PUSH1 0xC0 DUP8 DUP10 SUB SLT ISZERO PUSH2 0x356 JUMPI PUSH0 PUSH0 REVERT JUMPDEST PUSH2 0x35F DUP8 PUSH2 0x289 JUMP JUMPDEST SWAP6 POP PUSH2 0x36D PUSH1 0x20 DUP9 ADD PUSH2 0x289 JUMP JUMPDEST PUSH1 0x40 DUP9 ADD MLOAD SWAP1 SWAP6 POP PUSH1 0x1 PUSH1 0x1 PUSH1 0x40 SHL SUB DUP2 GT ISZERO PUSH2 0x388 JUMPI PUSH0 PUSH0 REVERT JUMPDEST PUSH2 0x394 DUP10 DUP3 DUP11 ADD PUSH2 0x2B8 JUMP JUMPDEST PUSH1 0x60 DUP10 ADD MLOAD SWAP1 SWAP6 POP SWAP1 POP PUSH1 0x1 PUSH1 0x1 PUSH1 0x40 SHL SUB DUP2 GT ISZERO PUSH2 0x3B1 JUMPI PUSH0 PUSH0 REVERT JUMPDEST PUSH2 0x3BD DUP10 DUP3 DUP11 ADD PUSH2 0x2B8 JUMP JUMPDEST PUSH1 0x80 DUP10 ADD MLOAD SWAP1 SWAP5 POP SWAP1 POP PUSH1 0x1 PUSH1 0x1 PUSH1 0x40 SHL SUB DUP2 GT ISZERO PUSH2 0x3DA JUMPI PUSH0 PUSH0 REVERT JUMPDEST PUSH2 0x3E6 DUP10 DUP3 DUP11 ADD PUSH2 0x2B8 JUMP JUMPDEST SWAP3 POP POP PUSH2 0x3F5 PUSH1 0xA0 DUP9 ADD PUSH2 0x289 JUMP JUMPDEST SWAP1 POP SWAP3 SWAP6 POP SWAP3 SWAP6 POP SWAP3 SWAP6 JUMP JUMPDEST PUSH1 0x1 DUP2 DUP2 SHR SWAP1 DUP3 AND DUP1 PUSH2 0x415 JUMPI PUSH1 0x7F DUP3 AND SWAP2 POP JUMPDEST PUSH1 0x20 DUP3 LT DUP2 SUB PUSH2 0x433 JUMPI PUSH4 0x4E487B71 PUSH1 0xE0 SHL PUSH0 MSTORE PUSH1 0x22 PUSH1 0x4 MSTORE PUSH1 0x24 PUSH0 REVERT JUMPDEST POP SWAP2 SWAP1 POP JUMP JUMPDEST PUSH1 0x1F DUP3 GT ISZERO PUSH2 0x480 JUMPI DUP1 PUSH0 MSTORE PUSH1 0x20 PUSH0 KECCAK256 PUSH1 0x1F DUP5 ADD PUSH1 0x5 SHR DUP2 ADD PUSH1 0x20 DUP6 LT ISZERO PUSH2 0x45E JUMPI POP DUP1 JUMPDEST PUSH1 0x1F DUP5 ADD PUSH1 0x5 SHR DUP3 ADD SWAP2 POP JUMPDEST DUP2 DUP2 LT ISZERO PUSH2 0x47D JUMPI PUSH0 DUP2 SSTORE PUSH1 0x1 ADD PUSH2 0x46A JUMP JUMPDEST POP POP JUMPDEST POP POP POP JUMP JUMPDEST DUP2 MLOAD PUSH1 0x1 PUSH1 0x1 PUSH1 0x40 SHL SUB DUP2 GT ISZERO PUSH2 0x49E JUMPI PUSH2 0x49E PUSH2 0x2A4 JUMP JUMPDEST PUSH2 0x4B2 DUP2 PUSH2 0x4AC DUP5 SLOAD PUSH2 0x401 JUMP JUMPDEST DUP5 PUSH2 0x439 JUMP JUMPDEST PUSH1 0x20 PUSH1 0x1F DUP3 GT PUSH1 0x1 DUP2 EQ PUSH2 0x4E4 JUMPI PUSH0 DUP4 ISZERO PUSH2 0x4CD JUMPI POP DUP5 DUP3 ADD MLOAD JUMPDEST PUSH0 NOT PUSH1 0x3 DUP6 SWAP1 SHL SHR NOT AND PUSH1 0x1 DUP5 SWAP1 SHL OR DUP5 SSTORE PUSH2 0x47D JUMP JUMPDEST PUSH0 DUP5 DUP2 MSTORE PUSH1 0x20 DUP2 KECCAK256 PUSH1 0x1F NOT DUP6 AND SWAP2 JUMPDEST DUP3 DUP2 LT ISZERO PUSH2 0x513 JUMPI DUP8 DUP6 ADD MLOAD DUP3 SSTORE PUSH1 0x20 SWAP5 DUP6 ADD SWAP5 PUSH1 0x1 SWAP1 SWAP3 ADD SWAP2 ADD PUSH2 0x4F3 JUMP JUMPDEST POP DUP5 DUP3 LT ISZERO PUSH2 0x530 JUMPI DUP7 DUP5 ADD MLOAD PUSH0 NOT PUSH1 0x3 DUP8 SWAP1 SHL PUSH1 0xF8 AND SHR NOT AND DUP2 SSTORE JUMPDEST POP POP POP POP PUSH1 0x1 SWAP1 DUP2 SHL ADD SWAP1 SSTORE POP JUMP JUMPDEST PUSH0 PUSH1 0x20 DUP3 DUP5 SUB SLT ISZERO PUSH2 0x54F JUMPI PUSH0 PUSH0 REVERT JUMPDEST DUP2 MLOAD DUP1 ISZERO ISZERO DUP2 EQ PUSH2 0x55E JUMPI PUSH0 PUSH0 REVERT JUMPDEST SWAP4 SWAP3 POP POP POP JUMP JUMPDEST PUSH1 0x80 MLOAD PUSH1 0xA0 MLOAD PUSH2 0xF09 PUSH2 0x59B PUSH0 CODECOPY PUSH0 DUP2 DUP2 PUSH2 0x13B ADD MSTORE PUSH2 0x6D2 ADD MSTORE PUSH0 DUP2 DUP2 PUSH2 0x2E8 ADD MSTORE DUP2 DUP2 PUSH2 0x3FC ADD MSTORE PUSH2 0x5DC ADD MSTORE PUSH2 0xF09 PUSH0 RETURN INVALID PUSH1 0x80 PUSH1 0x40 MSTORE CALLVALUE DUP1 ISZERO PUSH2 0xF JUMPI PUSH0 PUSH0 REVERT JUMPDEST POP PUSH1 0x4 CALLDATASIZE LT PUSH2 0x132 JUMPI PUSH0 CALLDATALOAD PUSH1 0xE0 SHR DUP1 PUSH4 0x70A08231 GT PUSH2 0xB4 JUMPI DUP1 PUSH4 0xA9059CBB GT PUSH2 0x79 JUMPI DUP1 PUSH4 0xA9059CBB EQ PUSH2 0x290 JUMPI DUP1 PUSH4 0xABA83150 EQ PUSH2 0x2A3 JUMPI DUP1 PUSH4 0xDD62ED3E EQ PUSH2 0x2AB JUMPI DUP1 PUSH4 0xE77772FE EQ PUSH2 0x2E3 JUMPI DUP1 PUSH4 0xF2FDE38B EQ PUSH2 0x30A JUMPI DUP1 PUSH4 0xF8A8FD6D EQ PUSH2 0x31D JUMPI PUSH0 PUSH0 REVERT JUMPDEST DUP1 PUSH4 0x70A08231 EQ PUSH2 0x234 JUMPI DUP1 PUSH4 0x715018A6 EQ PUSH2 0x25C JUMPI DUP1 PUSH4 0x8DA5CB5B EQ PUSH2 0x264 JUMPI DUP1 PUSH4 0x95D89B41 EQ PUSH2 0x275 JUMPI DUP1 PUSH4 0x96B5059D EQ PUSH2 0x27D JUMPI PUSH0 PUSH0 REVERT JUMPDEST DUP1 PUSH4 0x23B872DD GT PUSH2 0xFA JUMPI DUP1 PUSH4 0x23B872DD EQ PUSH2 0x1D7 JUMPI DUP1 PUSH4 0x313CE567 EQ PUSH2 0x1EA JUMPI DUP1 PUSH4 0x40C10F19 EQ PUSH2 0x1F9 JUMPI DUP1 PUSH4 0x42966C68 EQ PUSH2 0x20E JUMPI DUP1 PUSH4 0x6819CD19 EQ PUSH2 0x221 JUMPI PUSH0 PUSH0 REVERT JUMPDEST DUP1 PUSH4 0x2D05D3F EQ PUSH2 0x136 JUMPI DUP1 PUSH4 0x6FDDE03 EQ PUSH2 0x17A JUMPI DUP1 PUSH4 0x95EA7B3 EQ PUSH2 0x18F JUMPI DUP1 PUSH4 0x18160DDD EQ PUSH2 0x1B2 JUMPI DUP1 PUSH4 0x1FAA49C3 EQ PUSH2 0x1C4 JUMPI JUMPDEST PUSH0 PUSH0 REVERT JUMPDEST PUSH2 0x15D PUSH32 0x0 DUP2 JUMP JUMPDEST PUSH1 0x40 MLOAD PUSH1 0x1 PUSH1 0x1 PUSH1 0xA0 SHL SUB SWAP1 SWAP2 AND DUP2 MSTORE PUSH1 0x20 ADD JUMPDEST PUSH1 0x40 MLOAD DUP1 SWAP2 SUB SWAP1 RETURN JUMPDEST PUSH2 0x182 PUSH2 0x325 JUMP JUMPDEST PUSH1 0x40 MLOAD PUSH2 0x171 SWAP2 SWAP1 PUSH2 0xD43 JUMP JUMPDEST PUSH2 0x1A2 PUSH2 0x19D CALLDATASIZE PUSH1 0x4 PUSH2 0xD93 JUMP JUMPDEST PUSH2 0x3B5 JUMP JUMPDEST PUSH1 0x40 MLOAD SWAP1 ISZERO ISZERO DUP2 MSTORE PUSH1 0x20 ADD PUSH2 0x171 JUMP JUMPDEST PUSH1 0x2 SLOAD JUMPDEST PUSH1 0x40 MLOAD SWAP1 DUP2 MSTORE PUSH1 0x20 ADD PUSH2 0x171 JUMP JUMPDEST PUSH1 0x7 SLOAD PUSH2 0x15D SWAP1 PUSH1 0x1 PUSH1 0x1 PUSH1 0xA0 SHL SUB AND DUP2 JUMP JUMPDEST PUSH2 0x1A2 PUSH2 0x1E5 CALLDATASIZE PUSH1 0x4 PUSH2 0xDBB JUMP JUMPDEST PUSH2 0x3CE JUMP JUMPDEST PUSH1 0x40 MLOAD PUSH1 0x12 DUP2 MSTORE PUSH1 0x20 ADD PUSH2 0x171 JUMP JUMPDEST PUSH2 0x20C PUSH2 0x207 CALLDATASIZE PUSH1 0x4 PUSH2 0xD93 JUMP JUMPDEST PUSH2 0x3F1 JUMP JUMPDEST STOP JUMPDEST PUSH2 0x20C PUSH2 0x21C CALLDATASIZE PUSH1 0x4 PUSH2 0xDF5 JUMP JUMPDEST PUSH2 0x474 JUMP JUMPDEST PUSH2 0x20C PUSH2 0x22F CALLDATASIZE PUSH1 0x4 PUSH2 0xD93 JUMP JUMPDEST PUSH2 0x5D1 JUMP JUMPDEST PUSH2 0x1B6 PUSH2 0x242 CALLDATASIZE PUSH1 0x4 PUSH2 0xE0C JUMP JUMPDEST PUSH1 0x1 PUSH1 0x1 PUSH1 0xA0 SHL SUB AND PUSH0 SWAP1 DUP2 MSTORE PUSH1 0x20 DUP2 SWAP1 MSTORE PUSH1 0x40 SWAP1 KECCAK256 SLOAD SWAP1 JUMP JUMPDEST PUSH2 0x20C PUSH2 0x6A5 JUMP JUMPDEST PUSH1 0x5 SLOAD PUSH1 0x1 PUSH1 0x1 PUSH1 0xA0 SHL SUB AND PUSH2 0x15D JUMP JUMPDEST PUSH2 0x182 PUSH2 0x6B8 JUMP JUMPDEST PUSH2 0x20C PUSH2 0x28B CALLDATASIZE PUSH1 0x4 PUSH2 0xE0C JUMP JUMPDEST PUSH2 0x6C7 JUMP JUMPDEST PUSH2 0x1A2 PUSH2 0x29E CALLDATASIZE PUSH1 0x4 PUSH2 0xD93 JUMP JUMPDEST PUSH2 0x89A JUMP JUMPDEST PUSH2 0x182 PUSH2 0x8A7 JUMP JUMPDEST PUSH2 0x1B6 PUSH2 0x2B9 CALLDATASIZE PUSH1 0x4 PUSH2 0xE2C JUMP JUMPDEST PUSH1 0x1 PUSH1 0x1 PUSH1 0xA0 SHL SUB SWAP2 DUP3 AND PUSH0 SWAP1 DUP2 MSTORE PUSH1 0x1 PUSH1 0x20 SWAP1 DUP2 MSTORE PUSH1 0x40 DUP1 DUP4 KECCAK256 SWAP4 SWAP1 SWAP5 AND DUP3 MSTORE SWAP2 SWAP1 SWAP2 MSTORE KECCAK256 SLOAD SWAP1 JUMP JUMPDEST PUSH2 0x15D PUSH32 0x0 DUP2 JUMP JUMPDEST PUSH2 0x20C PUSH2 0x318 CALLDATASIZE PUSH1 0x4 PUSH2 0xE0C JUMP JUMPDEST PUSH2 0x933 JUMP JUMPDEST PUSH2 0x182 PUSH2 0x96D JUMP JUMPDEST PUSH1 0x60 PUSH1 0x3 DUP1 SLOAD PUSH2 0x334 SWAP1 PUSH2 0xE5D JUMP JUMPDEST DUP1 PUSH1 0x1F ADD PUSH1 0x20 DUP1 SWAP2 DIV MUL PUSH1 0x20 ADD PUSH1 0x40 MLOAD SWAP1 DUP2 ADD PUSH1 0x40 MSTORE DUP1 SWAP3 SWAP2 SWAP1 DUP2 DUP2 MSTORE PUSH1 0x20 ADD DUP3 DUP1 SLOAD PUSH2 0x360 SWAP1 PUSH2 0xE5D JUMP JUMPDEST DUP1 ISZERO PUSH2 0x3AB JUMPI DUP1 PUSH1 0x1F LT PUSH2 0x382 JUMPI PUSH2 0x100 DUP1 DUP4 SLOAD DIV MUL DUP4 MSTORE SWAP2 PUSH1 0x20 ADD SWAP2 PUSH2 0x3AB JUMP JUMPDEST DUP3 ADD SWAP2 SWAP1 PUSH0 MSTORE PUSH1 0x20 PUSH0 KECCAK256 SWAP1 JUMPDEST DUP2 SLOAD DUP2 MSTORE SWAP1 PUSH1 0x1 ADD SWAP1 PUSH1 0x20 ADD DUP1 DUP4 GT PUSH2 0x38E JUMPI DUP3 SWAP1 SUB PUSH1 0x1F AND DUP3 ADD SWAP2 JUMPDEST POP POP POP POP POP SWAP1 POP SWAP1 JUMP JUMPDEST PUSH0 CALLER PUSH2 0x3C2 DUP2 DUP6 DUP6 PUSH2 0x97A JUMP JUMPDEST PUSH1 0x1 SWAP2 POP POP JUMPDEST SWAP3 SWAP2 POP POP JUMP JUMPDEST PUSH0 CALLER PUSH2 0x3DB DUP6 DUP3 DUP6 PUSH2 0x98C JUMP JUMPDEST PUSH2 0x3E6 DUP6 DUP6 DUP6 PUSH2 0xA08 JUMP JUMPDEST POP PUSH1 0x1 SWAP5 SWAP4 POP POP POP POP JUMP JUMPDEST CALLER PUSH1 0x1 PUSH1 0x1 PUSH1 0xA0 SHL SUB PUSH32 0x0 AND EQ PUSH2 0x466 JUMPI PUSH1 0x40 MLOAD PUSH3 0x461BCD PUSH1 0xE5 SHL DUP2 MSTORE PUSH1 0x20 PUSH1 0x4 DUP3 ADD MSTORE PUSH1 0x15 PUSH1 0x24 DUP3 ADD MSTORE PUSH21 0x13DB9B1E48199858DD1BDC9E4818D85B881B5A5B9D PUSH1 0x5A SHL PUSH1 0x44 DUP3 ADD MSTORE PUSH1 0x64 ADD JUMPDEST PUSH1 0x40 MLOAD DUP1 SWAP2 SUB SWAP1 REVERT JUMPDEST PUSH2 0x470 DUP3 DUP3 PUSH2 0xA65 JUMP JUMPDEST POP POP JUMP JUMPDEST PUSH0 DUP2 GT PUSH2 0x4B8 JUMPI PUSH1 0x40 MLOAD PUSH3 0x461BCD PUSH1 0xE5 SHL DUP2 MSTORE PUSH1 0x20 PUSH1 0x4 DUP3 ADD MSTORE PUSH1 0x12 PUSH1 0x24 DUP3 ADD MSTORE PUSH18 0x416D6F756E74206D757374206265203E203 PUSH1 0x74 SHL PUSH1 0x44 DUP3 ADD MSTORE PUSH1 0x64 ADD PUSH2 0x45D JUMP JUMPDEST CALLER PUSH0 SWAP1 DUP2 MSTORE PUSH1 0x20 DUP2 SWAP1 MSTORE PUSH1 0x40 SWAP1 KECCAK256 SLOAD DUP2 GT ISZERO PUSH2 0x50D JUMPI PUSH1 0x40 MLOAD PUSH3 0x461BCD PUSH1 0xE5 SHL DUP2 MSTORE PUSH1 0x20 PUSH1 0x4 DUP3 ADD MSTORE PUSH1 0x14 PUSH1 0x24 DUP3 ADD MSTORE PUSH20 0x496E73756666696369656E742062616C616E6365 PUSH1 0x60 SHL PUSH1 0x44 DUP3 ADD MSTORE PUSH1 0x64 ADD PUSH2 0x45D JUMP JUMPDEST PUSH2 0x517 CALLER DUP3 PUSH2 0xA99 JUMP JUMPDEST PUSH1 0x1 CALLER PUSH32 0x14C08AE9F74E8B735A667822FEB792C4E1324D0DD5887AF1528665F8C2357F86 DUP4 PUSH2 0x545 PUSH1 0x2 SLOAD SWAP1 JUMP JUMPDEST PUSH1 0x40 DUP1 MLOAD SWAP3 DUP4 MSTORE PUSH1 0x20 DUP4 ADD SWAP2 SWAP1 SWAP2 MSTORE ADD PUSH1 0x40 MLOAD DUP1 SWAP2 SUB SWAP1 LOG3 PUSH1 0x7 SLOAD PUSH1 0x1 PUSH1 0x1 PUSH1 0xA0 SHL SUB AND ISZERO PUSH2 0x5CE JUMPI PUSH1 0x7 SLOAD PUSH1 0x40 MLOAD PUSH4 0x1ED1028B PUSH1 0xE0 SHL DUP2 MSTORE CALLER PUSH1 0x4 DUP3 ADD MSTORE PUSH1 0x24 DUP2 ADD DUP4 SWAP1 MSTORE PUSH1 0x1 PUSH1 0x1 PUSH1 0xA0 SHL SUB SWAP1 SWAP2 AND SWAP1 PUSH4 0x1ED1028B SWAP1 PUSH1 0x44 ADD PUSH0 PUSH1 0x40 MLOAD DUP1 DUP4 SUB DUP2 PUSH0 DUP8 DUP1 EXTCODESIZE ISZERO DUP1 ISZERO PUSH2 0x5B7 JUMPI PUSH0 PUSH0 REVERT JUMPDEST POP GAS CALL ISZERO DUP1 ISZERO PUSH2 0x5C9 JUMPI RETURNDATASIZE PUSH0 PUSH0 RETURNDATACOPY RETURNDATASIZE PUSH0 REVERT JUMPDEST POP POP POP POP JUMPDEST POP JUMP JUMPDEST CALLER PUSH1 0x1 PUSH1 0x1 PUSH1 0xA0 SHL SUB PUSH32 0x0 AND EQ PUSH2 0x649 JUMPI PUSH1 0x40 MLOAD PUSH3 0x461BCD PUSH1 0xE5 SHL DUP2 MSTORE PUSH1 0x20 PUSH1 0x4 DUP3 ADD MSTORE PUSH1 0x1D PUSH1 0x24 DUP3 ADD MSTORE PUSH32 0x4F6E6C7920666163746F72792063616E20666163746F7279206275726E000000 PUSH1 0x44 DUP3 ADD MSTORE PUSH1 0x64 ADD PUSH2 0x45D JUMP JUMPDEST PUSH2 0x653 DUP3 DUP3 PUSH2 0xA99 JUMP JUMPDEST PUSH0 DUP3 PUSH1 0x1 PUSH1 0x1 PUSH1 0xA0 SHL SUB AND PUSH32 0x14C08AE9F74E8B735A667822FEB792C4E1324D0DD5887AF1528665F8C2357F86 DUP4 PUSH2 0x689 PUSH1 0x2 SLOAD SWAP1 JUMP JUMPDEST PUSH1 0x40 DUP1 MLOAD SWAP3 DUP4 MSTORE PUSH1 0x20 DUP4 ADD SWAP2 SWAP1 SWAP2 MSTORE ADD PUSH1 0x40 MLOAD DUP1 SWAP2 SUB SWAP1 LOG3 POP POP JUMP JUMPDEST PUSH2 0x6AD PUSH2 0xACD JUMP JUMPDEST PUSH2 0x6B6 PUSH0 PUSH2 0xAFA JUMP JUMPDEST JUMP JUMPDEST PUSH1 0x60 PUSH1 0x4 DUP1 SLOAD PUSH2 0x334 SWAP1 PUSH2 0xE5D JUMP JUMPDEST CALLER PUSH1 0x1 PUSH1 0x1 PUSH1 0xA0 SHL SUB PUSH32 0x0 AND EQ PUSH2 0x749 JUMPI PUSH1 0x40 MLOAD PUSH3 0x461BCD PUSH1 0xE5 SHL DUP2 MSTORE PUSH1 0x20 PUSH1 0x4 DUP3 ADD MSTORE PUSH1 0x21 PUSH1 0x24 DUP3 ADD MSTORE PUSH32 0x4F6E6C792063726561746F722063616E20736574206275726E206D616E616765 PUSH1 0x44 DUP3 ADD MSTORE PUSH1 0x39 PUSH1 0xF9 SHL PUSH1 0x64 DUP3 ADD MSTORE PUSH1 0x84 ADD PUSH2 0x45D JUMP JUMPDEST PUSH1 0x1 PUSH1 0x1 PUSH1 0xA0 SHL SUB DUP2 AND PUSH2 0x798 JUMPI PUSH1 0x40 MLOAD PUSH3 0x461BCD PUSH1 0xE5 SHL DUP2 MSTORE PUSH1 0x20 PUSH1 0x4 DUP3 ADD MSTORE PUSH1 0x16 PUSH1 0x24 DUP3 ADD MSTORE PUSH22 0x43616E6E6F74206265207A65726F2061646472657373 PUSH1 0x50 SHL PUSH1 0x44 DUP3 ADD MSTORE PUSH1 0x64 ADD PUSH2 0x45D JUMP JUMPDEST PUSH1 0x40 MLOAD PUSH3 0x61F765 PUSH1 0xE4 SHL DUP2 MSTORE ADDRESS PUSH1 0x4 DUP3 ADD MSTORE PUSH1 0x1 PUSH1 0x1 PUSH1 0xA0 SHL SUB DUP3 AND SWAP1 PUSH4 0x61F7650 SWAP1 PUSH1 0x24 ADD PUSH1 0x20 PUSH1 0x40 MLOAD DUP1 DUP4 SUB DUP2 DUP7 GAS STATICCALL ISZERO DUP1 ISZERO PUSH2 0x7D9 JUMPI RETURNDATASIZE PUSH0 PUSH0 RETURNDATACOPY RETURNDATASIZE PUSH0 REVERT JUMPDEST POP POP POP POP PUSH1 0x40 MLOAD RETURNDATASIZE PUSH1 0x1F NOT PUSH1 0x1F DUP3 ADD AND DUP3 ADD DUP1 PUSH1 0x40 MSTORE POP DUP2 ADD SWAP1 PUSH2 0x7FD SWAP2 SWAP1 PUSH2 0xE95 JUMP JUMPDEST PUSH2 0x849 JUMPI PUSH1 0x40 MLOAD PUSH3 0x461BCD PUSH1 0xE5 SHL DUP2 MSTORE PUSH1 0x20 PUSH1 0x4 DUP3 ADD MSTORE PUSH1 0x1B PUSH1 0x24 DUP3 ADD MSTORE PUSH32 0x4275726E206D616E61676572206E6F7420636F6D70617469626C650000000000 PUSH1 0x44 DUP3 ADD MSTORE PUSH1 0x64 ADD PUSH2 0x45D JUMP JUMPDEST PUSH1 0x7 DUP1 SLOAD PUSH1 0x1 PUSH1 0x1 PUSH1 0xA0 SHL SUB DUP4 DUP2 AND PUSH1 0x1 PUSH1 0x1 PUSH1 0xA0 SHL SUB NOT DUP4 AND DUP2 OR SWAP1 SWAP4 SSTORE PUSH1 0x40 MLOAD SWAP2 AND SWAP2 SWAP1 DUP3 SWAP1 PUSH32 0xA216B4AE65E96DA40ADB74D7D42EC050B88E0DA645103A084647ED55EB3E0D9 SWAP1 PUSH0 SWAP1 LOG3 POP POP JUMP JUMPDEST PUSH0 CALLER PUSH2 0x3C2 DUP2 DUP6 DUP6 PUSH2 0xA08 JUMP JUMPDEST PUSH1 0x6 DUP1 SLOAD PUSH2 0x8B4 SWAP1 PUSH2 0xE5D JUMP JUMPDEST DUP1 PUSH1 0x1F ADD PUSH1 0x20 DUP1 SWAP2 DIV MUL PUSH1 0x20 ADD PUSH1 0x40 MLOAD SWAP1 DUP2 ADD PUSH1 0x40 MSTORE DUP1 SWAP3 SWAP2 SWAP1 DUP2 DUP2 MSTORE PUSH1 0x20 ADD DUP3 DUP1 SLOAD PUSH2 0x8E0 SWAP1 PUSH2 0xE5D JUMP JUMPDEST DUP1 ISZERO PUSH2 0x92B JUMPI DUP1 PUSH1 0x1F LT PUSH2 0x902 JUMPI PUSH2 0x100 DUP1 DUP4 SLOAD DIV MUL DUP4 MSTORE SWAP2 PUSH1 0x20 ADD SWAP2 PUSH2 0x92B JUMP JUMPDEST DUP3 ADD SWAP2 SWAP1 PUSH0 MSTORE PUSH1 0x20 PUSH0 KECCAK256 SWAP1 JUMPDEST DUP2 SLOAD DUP2 MSTORE SWAP1 PUSH1 0x1 ADD SWAP1 PUSH1 0x20 ADD DUP1 DUP4 GT PUSH2 0x90E JUMPI DUP3 SWAP1 SUB PUSH1 0x1F AND DUP3 ADD SWAP2 JUMPDEST POP POP POP POP POP DUP2 JUMP JUMPDEST PUSH2 0x93B PUSH2 0xACD JUMP JUMPDEST PUSH1 0x1 PUSH1 0x1 PUSH1 0xA0 SHL SUB DUP2 AND PUSH2 0x964 JUMPI PUSH1 0x40 MLOAD PUSH4 0x1E4FBDF7 PUSH1 0xE0 SHL DUP2 MSTORE PUSH0 PUSH1 0x4 DUP3 ADD MSTORE PUSH1 0x24 ADD PUSH2 0x45D JUMP JUMPDEST PUSH2 0x5CE DUP2 PUSH2 0xAFA JUMP JUMPDEST PUSH1 0x8 DUP1 SLOAD PUSH2 0x8B4 SWAP1 PUSH2 0xE5D JUMP JUMPDEST PUSH2 0x987 DUP4 DUP4 DUP4 PUSH1 0x1 PUSH2 0xB4B JUMP JUMPDEST POP POP POP JUMP JUMPDEST PUSH1 0x1 PUSH1 0x1 PUSH1 0xA0 SHL SUB DUP4 DUP2 AND PUSH0 SWAP1 DUP2 MSTORE PUSH1 0x1 PUSH1 0x20 SWAP1 DUP2 MSTORE PUSH1 0x40 DUP1 DUP4 KECCAK256 SWAP4 DUP7 AND DUP4 MSTORE SWAP3 SWAP1 MSTORE KECCAK256 SLOAD PUSH0 NOT DUP2 LT ISZERO PUSH2 0xA02 JUMPI DUP2 DUP2 LT ISZERO PUSH2 0x9F4 JUMPI PUSH1 0x40 MLOAD PUSH4 0x7DC7A0D9 PUSH1 0xE1 SHL DUP2 MSTORE PUSH1 0x1 PUSH1 0x1 PUSH1 0xA0 SHL SUB DUP5 AND PUSH1 0x4 DUP3 ADD MSTORE PUSH1 0x24 DUP2 ADD DUP3 SWAP1 MSTORE PUSH1 0x44 DUP2 ADD DUP4 SWAP1 MSTORE PUSH1 0x64 ADD PUSH2 0x45D JUMP JUMPDEST PUSH2 0xA02 DUP5 DUP5 DUP5 DUP5 SUB PUSH0 PUSH2 0xB4B JUMP JUMPDEST POP POP POP POP JUMP JUMPDEST PUSH1 0x1 PUSH1 0x1 PUSH1 0xA0 SHL SUB DUP4 AND PUSH2 0xA31 JUMPI PUSH1 0x40 MLOAD PUSH4 0x4B637E8F PUSH1 0xE1 SHL DUP2 MSTORE PUSH0 PUSH1 0x4 DUP3 ADD MSTORE PUSH1 0x24 ADD PUSH2 0x45D JUMP JUMPDEST PUSH1 0x1 PUSH1 0x1 PUSH1 0xA0 SHL SUB DUP3 AND PUSH2 0xA5A JUMPI PUSH1 0x40 MLOAD PUSH4 0xEC442F05 PUSH1 0xE0 SHL DUP2 MSTORE PUSH0 PUSH1 0x4 DUP3 ADD MSTORE PUSH1 0x24 ADD PUSH2 0x45D JUMP JUMPDEST PUSH2 0x987 DUP4 DUP4 DUP4 PUSH2 0xC1D JUMP JUMPDEST PUSH1 0x1 PUSH1 0x1 PUSH1 0xA0 SHL SUB DUP3 AND PUSH2 0xA8E JUMPI PUSH1 0x40 MLOAD PUSH4 0xEC442F05 PUSH1 0xE0 SHL DUP2 MSTORE PUSH0 PUSH1 0x4 DUP3 ADD MSTORE PUSH1 0x24 ADD PUSH2 0x45D JUMP JUMPDEST PUSH2 0x470 PUSH0 DUP4 DUP4 PUSH2 0xC1D JUMP JUMPDEST PUSH1 0x1 PUSH1 0x1 PUSH1 0xA0 SHL SUB DUP3 AND PUSH2 0xAC2 JUMPI PUSH1 0x40 MLOAD PUSH4 0x4B637E8F PUSH1 0xE1 SHL DUP2 MSTORE PUSH0 PUSH1 0x4 DUP3 ADD MSTORE PUSH1 0x24 ADD PUSH2 0x45D JUMP JUMPDEST PUSH2 0x470 DUP3 PUSH0 DUP4 PUSH2 0xC1D JUMP JUMPDEST PUSH1 0x5 SLOAD PUSH1 0x1 PUSH1 0x1 PUSH1 0xA0 SHL SUB AND CALLER EQ PUSH2 0x6B6 JUMPI PUSH1 0x40 MLOAD PUSH4 0x118CDAA7 PUSH1 0xE0 SHL DUP2 MSTORE CALLER PUSH1 0x4 DUP3 ADD MSTORE PUSH1 0x24 ADD PUSH2 0x45D JUMP JUMPDEST PUSH1 0x5 DUP1 SLOAD PUSH1 0x1 PUSH1 0x1 PUSH1 0xA0 SHL SUB DUP4 DUP2 AND PUSH1 0x1 PUSH1 0x1 PUSH1 0xA0 SHL SUB NOT DUP4 AND DUP2 OR SWAP1 SWAP4 SSTORE PUSH1 0x40 MLOAD SWAP2 AND SWAP2 SWAP1 DUP3 SWAP1 PUSH32 0x8BE0079C531659141344CD1FD0A4F28419497F9722A3DAAFE3B4186F6B6457E0 SWAP1 PUSH0 SWAP1 LOG3 POP POP JUMP JUMPDEST PUSH1 0x1 PUSH1 0x1 PUSH1 0xA0 SHL SUB DUP5 AND PUSH2 0xB74 JUMPI PUSH1 0x40 MLOAD PUSH4 0xE602DF05 PUSH1 0xE0 SHL DUP2 MSTORE PUSH0 PUSH1 0x4 DUP3 ADD MSTORE PUSH1 0x24 ADD PUSH2 0x45D JUMP JUMPDEST PUSH1 0x1 PUSH1 0x1 PUSH1 0xA0 SHL SUB DUP4 AND PUSH2 0xB9D JUMPI PUSH1 0x40 MLOAD PUSH4 0x4A1406B1 PUSH1 0xE1 SHL DUP2 MSTORE PUSH0 PUSH1 0x4 DUP3 ADD MSTORE PUSH1 0x24 ADD PUSH2 0x45D JUMP JUMPDEST PUSH1 0x1 PUSH1 0x1 PUSH1 0xA0 SHL SUB DUP1 DUP6 AND PUSH0 SWAP1 DUP2 MSTORE PUSH1 0x1 PUSH1 0x20 SWAP1 DUP2 MSTORE PUSH1 0x40 DUP1 DUP4 KECCAK256 SWAP4 DUP8 AND DUP4 MSTORE SWAP3 SWAP1 MSTORE KECCAK256 DUP3 SWAP1 SSTORE DUP1 ISZERO PUSH2 0xA02 JUMPI DUP3 PUSH1 0x1 PUSH1 0x1 PUSH1 0xA0 SHL SUB AND DUP5 PUSH1 0x1 PUSH1 0x1 PUSH1 0xA0 SHL SUB AND PUSH32 0x8C5BE1E5EBEC7D5BD14F71427D1E84F3DD0314C0F7B2291E5B200AC8C7C3B925 DUP5 PUSH1 0x40 MLOAD PUSH2 0xC0F SWAP2 DUP2 MSTORE PUSH1 0x20 ADD SWAP1 JUMP JUMPDEST PUSH1 0x40 MLOAD DUP1 SWAP2 SUB SWAP1 LOG3 POP POP POP POP JUMP JUMPDEST PUSH1 0x1 PUSH1 0x1 PUSH1 0xA0 SHL SUB DUP4 AND PUSH2 0xC47 JUMPI DUP1 PUSH1 0x2 PUSH0 DUP3 DUP3 SLOAD PUSH2 0xC3C SWAP2 SWAP1 PUSH2 0xEB4 JUMP JUMPDEST SWAP1 SWAP2 SSTORE POP PUSH2 0xCB7 SWAP1 POP JUMP JUMPDEST PUSH1 0x1 PUSH1 0x1 PUSH1 0xA0 SHL SUB DUP4 AND PUSH0 SWAP1 DUP2 MSTORE PUSH1 0x20 DUP2 SWAP1 MSTORE PUSH1 0x40 SWAP1 KECCAK256 SLOAD DUP2 DUP2 LT ISZERO PUSH2 0xC99 JUMPI PUSH1 0x40 MLOAD PUSH4 0x391434E3 PUSH1 0xE2 SHL DUP2 MSTORE PUSH1 0x1 PUSH1 0x1 PUSH1 0xA0 SHL SUB DUP6 AND PUSH1 0x4 DUP3 ADD MSTORE PUSH1 0x24 DUP2 ADD DUP3 SWAP1 MSTORE PUSH1 0x44 DUP2 ADD DUP4 SWAP1 MSTORE PUSH1 0x64 ADD PUSH2 0x45D JUMP JUMPDEST PUSH1 0x1 PUSH1 0x1 PUSH1 0xA0 SHL SUB DUP5 AND PUSH0 SWAP1 DUP2 MSTORE PUSH1 0x20 DUP2 SWAP1 MSTORE PUSH1 0x40 SWAP1 KECCAK256 SWAP1 DUP3 SWAP1 SUB SWAP1 SSTORE JUMPDEST PUSH1 0x1 PUSH1 0x1 PUSH1 0xA0 SHL SUB DUP3 AND PUSH2 0xCD3 JUMPI PUSH1 0x2 DUP1 SLOAD DUP3 SWAP1 SUB SWAP1 SSTORE PUSH2 0xCF1 JUMP JUMPDEST PUSH1 0x1 PUSH1 0x1 PUSH1 0xA0 SHL SUB DUP3 AND PUSH0 SWAP1 DUP2 MSTORE PUSH1 0x20 DUP2 SWAP1 MSTORE PUSH1 0x40 SWAP1 KECCAK256 DUP1 SLOAD DUP3 ADD SWAP1 SSTORE JUMPDEST DUP2 PUSH1 0x1 PUSH1 0x1 PUSH1 0xA0 SHL SUB AND DUP4 PUSH1 0x1 PUSH1 0x1 PUSH1 0xA0 SHL SUB AND PUSH32 0xDDF252AD1BE2C89B69C2B068FC378DAA952BA7F163C4A11628F55A4DF523B3EF DUP4 PUSH1 0x40 MLOAD PUSH2 0xD36 SWAP2 DUP2 MSTORE PUSH1 0x20 ADD SWAP1 JUMP JUMPDEST PUSH1 0x40 MLOAD DUP1 SWAP2 SUB SWAP1 LOG3 POP POP POP JUMP JUMPDEST PUSH1 0x20 DUP2 MSTORE PUSH0 DUP3 MLOAD DUP1 PUSH1 0x20 DUP5 ADD MSTORE DUP1 PUSH1 0x20 DUP6 ADD PUSH1 0x40 DUP6 ADD MCOPY PUSH0 PUSH1 0x40 DUP3 DUP6 ADD ADD MSTORE PUSH1 0x40 PUSH1 0x1F NOT PUSH1 0x1F DUP4 ADD AND DUP5 ADD ADD SWAP2 POP POP SWAP3 SWAP2 POP POP JUMP JUMPDEST DUP1 CALLDATALOAD PUSH1 0x1 PUSH1 0x1 PUSH1 0xA0 SHL SUB DUP2 AND DUP2 EQ PUSH2 0xD8E JUMPI PUSH0 PUSH0 REVERT JUMPDEST SWAP2 SWAP1 POP JUMP JUMPDEST PUSH0 PUSH0 PUSH1 0x40 DUP4 DUP6 SUB SLT ISZERO PUSH2 0xDA4 JUMPI PUSH0 PUSH0 REVERT JUMPDEST PUSH2 0xDAD DUP4 PUSH2 0xD78 JUMP JUMPDEST SWAP5 PUSH1 0x20 SWAP4 SWAP1 SWAP4 ADD CALLDATALOAD SWAP4 POP POP POP JUMP JUMPDEST PUSH0 PUSH0 PUSH0 PUSH1 0x60 DUP5 DUP7 SUB SLT ISZERO PUSH2 0xDCD JUMPI PUSH0 PUSH0 REVERT JUMPDEST PUSH2 0xDD6 DUP5 PUSH2 0xD78 JUMP JUMPDEST SWAP3 POP PUSH2 0xDE4 PUSH1 0x20 DUP6 ADD PUSH2 0xD78 JUMP JUMPDEST SWAP3 SWAP6 SWAP3 SWAP5 POP POP POP PUSH1 0x40 SWAP2 SWAP1 SWAP2 ADD CALLDATALOAD SWAP1 JUMP JUMPDEST PUSH0 PUSH1 0x20 DUP3 DUP5 SUB SLT ISZERO PUSH2 0xE05 JUMPI PUSH0 PUSH0 REVERT JUMPDEST POP CALLDATALOAD SWAP2 SWAP1 POP JUMP JUMPDEST PUSH0 PUSH1 0x20 DUP3 DUP5 SUB SLT ISZERO PUSH2 0xE1C JUMPI PUSH0 PUSH0 REVERT JUMPDEST PUSH2 0xE25 DUP3 PUSH2 0xD78 JUMP JUMPDEST SWAP4 SWAP3 POP POP POP JUMP JUMPDEST PUSH0 PUSH0 PUSH1 0x40 DUP4 DUP6 SUB SLT ISZERO PUSH2 0xE3D JUMPI PUSH0 PUSH0 REVERT JUMPDEST PUSH2 0xE46 DUP4 PUSH2 0xD78 JUMP JUMPDEST SWAP2 POP PUSH2 0xE54 PUSH1 0x20 DUP5 ADD PUSH2 0xD78 JUMP JUMPDEST SWAP1 POP SWAP3 POP SWAP3 SWAP1 POP JUMP JUMPDEST PUSH1 0x1 DUP2 DUP2 SHR SWAP1 DUP3 AND DUP1 PUSH2 0xE71 JUMPI PUSH1 0x7F DUP3 AND SWAP2 POP JUMPDEST PUSH1 0x20 DUP3 LT DUP2 SUB PUSH2 0xE8F JUMPI PUSH4 0x4E487B71 PUSH1 0xE0 SHL PUSH0 MSTORE PUSH1 0x22 PUSH1 0x4 MSTORE PUSH1 0x24 PUSH0 REVERT JUMPDEST POP SWAP2 SWAP1 POP JUMP JUMPDEST PUSH0 PUSH1 0x20 DUP3 DUP5 SUB SLT ISZERO PUSH2 0xEA5 JUMPI PUSH0 PUSH0 REVERT JUMPDEST DUP2 MLOAD DUP1 ISZERO ISZERO DUP2 EQ PUSH2 0xE25 JUMPI PUSH0 PUSH0 REVERT JUMPDEST DUP1 DUP3 ADD DUP1 DUP3 GT ISZERO PUSH2 0x3C8 JUMPI PUSH4 0x4E487B71 PUSH1 0xE0 SHL PUSH0 MSTORE PUSH1 0x11 PUSH1 0x4 MSTORE PUSH1 0x24 PUSH0 REVERT INVALID LOG2 PUSH5 0x6970667358 0x22 SLT KECCAK256 DUP10 0x2D DUPN 0xAA PUSH6 0xA75E2CA4FF6D PUSH31 0xD0E0E0910822F908E2C58B460A4F9166A4EF3BE164736F6C634300081E0033 "
				},
				"gasEstimates": {
					"creation": {
						"codeDepositCost": "769800",
						"executionCost": "infinite",
						"totalCost": "infinite"
					},
					"external": {
						"allowance(address,address)": "infinite",
						"approve(address,uint256)": "24779",
						"balanceOf(address)": "2560",
						"burn(uint256)": "infinite",
						"burnManager()": "2437",
						"creator()": "infinite",
						"decimals()": "221",
						"factoryBurn(address,uint256)": "infinite",
						"imageUrl()": "infinite",
						"mint(address,uint256)": "infinite",
						"name()": "infinite",
						"owner()": "2386",
						"renounceOwnership()": "infinite",
						"setBurnManager(address)": "infinite",
						"symbol()": "infinite",
						"test()": "infinite",
						"tokenFactory()": "infinite",
						"totalSupply()": "2370",
						"transfer(address,uint256)": "51237",
						"transferFrom(address,address,uint256)": "infinite",
						"transferOwnership(address)": "28443"
					}
				},
				"methodIdentifiers": {
					"allowance(address,address)": "dd62ed3e",
					"approve(address,uint256)": "095ea7b3",
					"balanceOf(address)": "70a08231",
					"burn(uint256)": "42966c68",
					"burnManager()": "1faa49c3",
					"creator()": "02d05d3f",
					"decimals()": "313ce567",
					"factoryBurn(address,uint256)": "6819cd19",
					"imageUrl()": "aba83150",
					"mint(address,uint256)": "40c10f19",
					"name()": "06fdde03",
					"owner()": "8da5cb5b",
					"renounceOwnership()": "715018a6",
					"setBurnManager(address)": "96b5059d",
					"symbol()": "95d89b41",
					"test()": "f8a8fd6d",
					"tokenFactory()": "e77772fe",
					"totalSupply()": "18160ddd",
					"transfer(address,uint256)": "a9059cbb",
					"transferFrom(address,address,uint256)": "23b872dd",
					"transferOwnership(address)": "f2fde38b"
				}
			},
			"storageLayout": {
				"storage": [
					{
						"astId": 307,
						"contract": "VettedToken.sol:Token",
						"label": "_balances",
						"offset": 0,
						"slot": "0",
						"type": "t_mapping(t_address,t_uint256)"
					},
					{
						"astId": 313,
						"contract": "VettedToken.sol:Token",
						"label": "_allowances",
						"offset": 0,
						"slot": "1",
						"type": "t_mapping(t_address,t_mapping(t_address,t_uint256))"
					},
					{
						"astId": 315,
						"contract": "VettedToken.sol:Token",
						"label": "_totalSupply",
						"offset": 0,
						"slot": "2",
						"type": "t_uint256"
					},
					{
						"astId": 317,
						"contract": "VettedToken.sol:Token",
						"label": "_name",
						"offset": 0,
						"slot": "3",
						"type": "t_string_storage"
					},
					{
						"astId": 319,
						"contract": "VettedToken.sol:Token",
						"label": "_symbol",
						"offset": 0,
						"slot": "4",
						"type": "t_string_storage"
					},
					{
						"astId": 8,
						"contract": "VettedToken.sol:Token",
						"label": "_owner",
						"offset": 0,
						"slot": "5",
						"type": "t_address"
					},
					{
						"astId": 962,
						"contract": "VettedToken.sol:Token",
						"label": "imageUrl",
						"offset": 0,
						"slot": "6",
						"type": "t_string_storage"
					},
					{
						"astId": 964,
						"contract": "VettedToken.sol:Token",
						"label": "burnManager",
						"offset": 0,
						"slot": "7",
						"type": "t_address"
					},
					{
						"astId": 966,
						"contract": "VettedToken.sol:Token",
						"label": "test",
						"offset": 0,
						"slot": "8",
						"type": "t_string_storage"
					}
				],
				"types": {
					"t_address": {
						"encoding": "inplace",
						"label": "address",
						"numberOfBytes": "20"
					},
					"t_mapping(t_address,t_mapping(t_address,t_uint256))": {
						"encoding": "mapping",
						"key": "t_address",
						"label": "mapping(address => mapping(address => uint256))",
						"numberOfBytes": "32",
						"value": "t_mapping(t_address,t_uint256)"
					},
					"t_mapping(t_address,t_uint256)": {
						"encoding": "mapping",
						"key": "t_address",
						"label": "mapping(address => uint256)",
						"numberOfBytes": "32",
						"value": "t_uint256"
					},
					"t_string_storage": {
						"encoding": "bytes",
						"label": "string",
						"numberOfBytes": "32"
					},
					"t_uint256": {
						"encoding": "inplace",
						"label": "uint256",
						"numberOfBytes": "32"
					}
				}
			},
			"userdoc": {
				"kind": "user",
				"methods": {},
				"version": 1
			}
		}
	}
}